{"abi":[{"type":"function","name":"_cost","inputs":[{"name":"yesVotes","type":"uint256","internalType":"uint256"},{"name":"noVotes","type":"uint256","internalType":"uint256"},{"name":"liquidityParameter","type":"uint256","internalType":"uint256"}],"outputs":[{"name":"costResult","type":"uint256","internalType":"uint256"}],"stateMutability":"pure"},{"type":"function","name":"_getExponentials","inputs":[{"name":"yesVotes","type":"uint256","internalType":"uint256"},{"name":"noVotes","type":"uint256","internalType":"uint256"},{"name":"liquidityParameter","type":"uint256","internalType":"uint256"}],"outputs":[{"name":"yesExp","type":"uint256","internalType":"UD60x18"},{"name":"noExp","type":"uint256","internalType":"UD60x18"}],"stateMutability":"pure"},{"type":"function","name":"getCost","inputs":[{"name":"currentYesVotes","type":"uint256","internalType":"uint256"},{"name":"currentNoVotes","type":"uint256","internalType":"uint256"},{"name":"outcomeYesVotes","type":"uint256","internalType":"uint256"},{"name":"outcomeNoVotes","type":"uint256","internalType":"uint256"},{"name":"liquidityParameter","type":"uint256","internalType":"uint256"}],"outputs":[{"name":"costDiff","type":"int256","internalType":"int256"}],"stateMutability":"pure"},{"type":"function","name":"getOdds","inputs":[{"name":"yesVotes","type":"uint256","internalType":"uint256"},{"name":"noVotes","type":"uint256","internalType":"uint256"},{"name":"liquidityParameter","type":"uint256","internalType":"uint256"},{"name":"isYes","type":"bool","internalType":"bool"}],"outputs":[{"name":"ratio","type":"uint256","internalType":"uint256"}],"stateMutability":"pure"},{"type":"error","name":"PRBMath_MulDiv_Overflow","inputs":[{"name":"x","type":"uint256","internalType":"uint256"},{"name":"y","type":"uint256","internalType":"uint256"},{"name":"denominator","type":"uint256","internalType":"uint256"}]},{"type":"error","name":"PRBMath_UD60x18_Convert_Overflow","inputs":[{"name":"x","type":"uint256","internalType":"uint256"}]},{"type":"error","name":"PRBMath_UD60x18_Exp2_InputTooBig","inputs":[{"name":"x","type":"uint256","internalType":"UD60x18"}]},{"type":"error","name":"PRBMath_UD60x18_Exp_InputTooBig","inputs":[{"name":"x","type":"uint256","internalType":"UD60x18"}]},{"type":"error","name":"PRBMath_UD60x18_Log_InputTooSmall","inputs":[{"name":"x","type":"uint256","internalType":"UD60x18"}]},{"type":"error","name":"VotesExceedSafeLimit","inputs":[{"name":"votes","type":"uint256","internalType":"uint256"},{"name":"liquidityParameter","type":"uint256","internalType":"uint256"},{"name":"maxSafe","type":"uint256","internalType":"uint256"}]}],"bytecode":{"object":"0x60808060405234601957610d65908161001e823930815050f35b5f80fdfe60806040526004361015610011575f80fd5b5f3560e01c80635af41cea146100e7578063637cf05e146100cb578063b6a12c9e146100ab5763da805cd314610045575f80fd5b60a03660031901126100a75760843561007261006682602435600435610156565b91606435604435610156565b5f828203921281831281169183139015161761009357602090604051908152f35b634e487b7160e01b5f52601160045260245ffd5b5f80fd5b60406100bf6100b93661013c565b9161019a565b82519182526020820152f35b60206100df6100d93661013c565b91610156565b604051908152f35b60803660031901126100a75760643580151581036100a75761011060443560243560043561019a565b80820190818311610093576020931561012d57506100df91610b56565b6101379250610b56565b6100df565b60609060031901126100a757600435906024359060443590565b61016191839161019a565b810180911161009357670de0b6b3a76400006101856714057b7ef767814f92610c29565b02048181029181830414901517156100935790565b929192836085026085810485141580610093578183118015610235575b6102015750506101f26101fe926101ec6101e56101df6101d96101f896610240565b93610240565b97610240565b8092610b56565b95610b56565b9361027f565b9261027f565b90565b859192848082115f1461022d5750905b610093576348d66f2360e01b5f5260045260245260445260645ffd5b905090610211565b50505f8184116101b7565b7812725dd1d243aba0e75fe645cc4873f9e65afe688c928e1f21811161026d57670de0b6b3a76400000290565b631cd951a760e01b5f5260045260245ffd5b680736ea4425c11ac6308111610b44576714057b7ef767814f670de0b6b3a7640000910204680a688906bd8affffff8111610b3257670de0b6b3a76400009060401b04600160bf1b67ff000000000000008216610a09575b670de0b6b3a76400009066ff00000000000083166108f9575b65ff000000000083166107f1575b64ff0000000083166106f1575b63ff00000083166105f9575b62ff00008316610509575b61ff008316610421575b60ff8316610341575b029060401c60bf031c90565b6080831661040e575b604083166103fb575b602083166103e8575b601083166103d5575b600883166103c2575b600483166103af575b6002831661039c575b600183161561033557680100000000000000010260401c610335565b680100000000000000010260401c610380565b680100000000000000030260401c610377565b680100000000000000060260401c61036e565b6801000000000000000b0260401c610365565b680100000000000000160260401c61035c565b6801000000000000002c0260401c610353565b680100000000000000590260401c61034a565b61800083166104f6575b61400083166104e3575b61200083166104d0575b61100083166104bd575b61080083166104aa575b6104008316610497575b6102008316610484575b61010083161561032c57680100000000000000b10260401c61032c565b680100000000000001630260401c610467565b680100000000000002c60260401c61045d565b6801000000000000058c0260401c610453565b68010000000000000b170260401c610449565b6801000000000000162e0260401c61043f565b68010000000000002c5d0260401c610435565b680100000000000058b90260401c61042b565b6280000083166105e6575b6240000083166105d3575b6220000083166105c0575b6210000083166105ad575b62080000831661059a575b620400008316610587575b620200008316610574575b62010000831615610322576801000000000000b1720260401c610322565b680100000000000162e40260401c610556565b6801000000000002c5c80260401c61054b565b68010000000000058b910260401c610540565b680100000000000b17210260401c610535565b68010000000000162e430260401c61052a565b680100000000002c5c860260401c61051f565b6801000000000058b90c0260401c610514565b638000000083166106de575b634000000083166106cb575b632000000083166106b8575b631000000083166106a5575b63080000008316610692575b6304000000831661067f575b6302000000831661066c575b63010000008316156103175768010000000000b172180260401c610317565b6801000000000162e4300260401c61064d565b68010000000002c5c8600260401c610641565b680100000000058b90c00260401c610635565b6801000000000b17217f0260401c610629565b680100000000162e42ff0260401c61061d565b6801000000002c5c85fe0260401c610611565b68010000000058b90bfc0260401c610605565b64800000000083166107de575b64400000000083166107cb575b64200000000083166107b8575b64100000000083166107a5575b6408000000008316610792575b640400000000831661077f575b640200000000831661076c575b64010000000083161561030b57680100000000b17217f80260401c61030b565b68010000000162e42ff10260401c61074c565b680100000002c5c85fe30260401c61073f565b6801000000058b90bfce0260401c610732565b68010000000b17217fbb0260401c610725565b6801000000162e42fff00260401c610718565b68010000002c5c8601cc0260401c61070b565b680100000058b90c0b490260401c6106fe565b6580000000000083166108e6575b6540000000000083166108d3575b6520000000000083166108c0575b6510000000000083166108ad575b65080000000000831661089a575b650400000000008316610887575b650200000000008316610874575b650100000000008316156102fe576801000000b1721835510260401c6102fe565b680100000162e430e5a20260401c610853565b6801000002c5c863b73f0260401c610845565b68010000058b90cf1e6e0260401c610837565b680100000b1721bcfc9a0260401c610829565b68010000162e43f4f8310260401c61081b565b680100002c5c89d5ec6d0260401c61080d565b6801000058b91b5bc9ae0260401c6107ff565b668000000000000083166109f6575b664000000000000083166109e3575b662000000000000083166109d0575b661000000000000083166109bd575b660800000000000083166109aa575b66040000000000008316610997575b66020000000000008316610984575b66010000000000008316156102f05768010000b17255775c040260401c6102f0565b6801000162e525ee05470260401c610962565b68010002c5cc37da94920260401c610953565b680100058ba01fb9f96d0260401c610944565b6801000b175effdc76ba0260401c610935565b680100162f3904051fa10260401c610926565b6801002c605e2e8cec500260401c610917565b68010058c86da1c09ea20260401c610908565b6780000000000000008216610b1f575b670de0b6b3a7640000906740000000000000008316610b0c575b6720000000000000008316610af9575b6710000000000000008316610ae6575b6708000000000000008316610ad3575b6704000000000000008316610ac0575b6702000000000000008316610aad575b6701000000000000008316610a9a575b90506102d7565b680100b1afa5abcbed610260401c610a93565b68010163da9fb33356d80260401c610a83565b680102c9a3e778060ee70260401c610a73565b6801059b0d31585743ae0260401c610a63565b68010b5586cf9890f62a0260401c610a53565b6801172b83c7d517adce0260401c610a43565b6801306fe0a31b7152df0260401c610a33565b5068016a09e667f3bcc909607f1b610a19565b63b3b6ba1f60e01b5f5260045260245ffd5b630d7b1d6560e11b5f5260045260245ffd5b5f19670de0b6b3a7640000820991670de0b6b3a7640000820291828085109403938085039414610c085781841015610be757670de0b6b3a7640000829109600182190182168092046002816003021880820260020302808202600203028082026002030280820260020302808202600203028091026002030293600183805f03040190848311900302920304170290565b630c740aef60e31b5f52600452670de0b6b3a764000060245260445260645ffd5b5091508115610c15570490565b634e487b7160e01b5f52601260045260245ffd5b670de0b6b3a76400008110610d1d57670de0b6b3a764000081046fffffffffffffffffffffffffffffffff811160071b90811c67ffffffffffffffff811160061b90811c63ffffffff811160051b90811c61ffff811160041b90811c9060ff821160031b91821c92600f841160021b93841c94600160038711811b96871c11961717171717171790670de0b6b3a76400008202911c670de0b6b3a76400008114610d19576706f05b59d3b2000090815b610ce257505090565b80670de0b6b3a764000091020490671bc16d674ec80000821015610d0b575b60011c9081610cd9565b809192019160011c90610d01565b5090565b63036d32ef60e41b5f5260045260245ffdfea264697066735822122006478db238a67eab8fbf3ad80ea34f9ae72acf6cae6e1848ed885906215530a764736f6c634300081a0033","linkReferences":{}},"methodIdentifiers":{"_cost(uint256,uint256,uint256)":"637cf05e","_getExponentials(uint256,uint256,uint256)":"b6a12c9e","getCost(uint256,uint256,uint256,uint256,uint256)":"da805cd3","getOdds(uint256,uint256,uint256,bool)":"5af41cea"},"id":121}