{"abi":[{"type":"function","name":"ADMIN_ROLE","inputs":[],"outputs":[{"name":"","type":"bytes32","internalType":"bytes32"}],"stateMutability":"view"},{"type":"function","name":"DEFAULT_ADMIN_ROLE","inputs":[],"outputs":[{"name":"","type":"bytes32","internalType":"bytes32"}],"stateMutability":"view"},{"type":"function","name":"OWNER_ROLE","inputs":[],"outputs":[{"name":"","type":"bytes32","internalType":"bytes32"}],"stateMutability":"view"},{"type":"function","name":"addAdmin","inputs":[{"name":"admin","type":"address","internalType":"address"}],"outputs":[],"stateMutability":"nonpayable"},{"type":"function","name":"contractAddressManager","inputs":[],"outputs":[{"name":"","type":"address","internalType":"contract IContractAddressManager"}],"stateMutability":"view"},{"type":"function","name":"expectedSigner","inputs":[],"outputs":[{"name":"","type":"address","internalType":"address"}],"stateMutability":"view"},{"type":"function","name":"getRoleAdmin","inputs":[{"name":"role","type":"bytes32","internalType":"bytes32"}],"outputs":[{"name":"","type":"bytes32","internalType":"bytes32"}],"stateMutability":"view"},{"type":"function","name":"getRoleMember","inputs":[{"name":"role","type":"bytes32","internalType":"bytes32"},{"name":"index","type":"uint256","internalType":"uint256"}],"outputs":[{"name":"","type":"address","internalType":"address"}],"stateMutability":"view"},{"type":"function","name":"getRoleMemberCount","inputs":[{"name":"role","type":"bytes32","internalType":"bytes32"}],"outputs":[{"name":"","type":"uint256","internalType":"uint256"}],"stateMutability":"view"},{"type":"function","name":"getRoleMembers","inputs":[{"name":"role","type":"bytes32","internalType":"bytes32"}],"outputs":[{"name":"","type":"address[]","internalType":"address[]"}],"stateMutability":"view"},{"type":"function","name":"grantRole","inputs":[{"name":"role","type":"bytes32","internalType":"bytes32"},{"name":"account","type":"address","internalType":"address"}],"outputs":[],"stateMutability":"nonpayable"},{"type":"function","name":"hasRole","inputs":[{"name":"role","type":"bytes32","internalType":"bytes32"},{"name":"account","type":"address","internalType":"address"}],"outputs":[{"name":"","type":"bool","internalType":"bool"}],"stateMutability":"view"},{"type":"function","name":"pause","inputs":[],"outputs":[],"stateMutability":"nonpayable"},{"type":"function","name":"paused","inputs":[],"outputs":[{"name":"","type":"bool","internalType":"bool"}],"stateMutability":"view"},{"type":"function","name":"removeAdmin","inputs":[{"name":"admin","type":"address","internalType":"address"}],"outputs":[],"stateMutability":"nonpayable"},{"type":"function","name":"renounceRole","inputs":[{"name":"role","type":"bytes32","internalType":"bytes32"},{"name":"callerConfirmation","type":"address","internalType":"address"}],"outputs":[],"stateMutability":"nonpayable"},{"type":"function","name":"revokeRole","inputs":[{"name":"role","type":"bytes32","internalType":"bytes32"},{"name":"account","type":"address","internalType":"address"}],"outputs":[],"stateMutability":"nonpayable"},{"type":"function","name":"shouldFail","inputs":[],"outputs":[],"stateMutability":"nonpayable"},{"type":"function","name":"signatureUsed","inputs":[{"name":"","type":"bytes","internalType":"bytes"}],"outputs":[{"name":"","type":"bool","internalType":"bool"}],"stateMutability":"view"},{"type":"function","name":"signatureVerifier","inputs":[],"outputs":[{"name":"","type":"address","internalType":"address"}],"stateMutability":"view"},{"type":"function","name":"supportsInterface","inputs":[{"name":"interfaceId","type":"bytes4","internalType":"bytes4"}],"outputs":[{"name":"","type":"bool","internalType":"bool"}],"stateMutability":"view"},{"type":"function","name":"unpause","inputs":[],"outputs":[],"stateMutability":"nonpayable"},{"type":"function","name":"updateContractAddressManager","inputs":[{"name":"contractAddressesAddr","type":"address","internalType":"address"}],"outputs":[],"stateMutability":"nonpayable"},{"type":"function","name":"updateExpectedSigner","inputs":[{"name":"signer","type":"address","internalType":"address"}],"outputs":[],"stateMutability":"nonpayable"},{"type":"function","name":"updateOwner","inputs":[{"name":"owner","type":"address","internalType":"address"}],"outputs":[],"stateMutability":"nonpayable"},{"type":"function","name":"updateSignatureVerifier","inputs":[{"name":"sinatureVerifier","type":"address","internalType":"address"}],"outputs":[],"stateMutability":"nonpayable"},{"type":"event","name":"Initialized","inputs":[{"name":"version","type":"uint64","indexed":false,"internalType":"uint64"}],"anonymous":false},{"type":"event","name":"Paused","inputs":[{"name":"account","type":"address","indexed":false,"internalType":"address"}],"anonymous":false},{"type":"event","name":"RoleAdminChanged","inputs":[{"name":"role","type":"bytes32","indexed":true,"internalType":"bytes32"},{"name":"previousAdminRole","type":"bytes32","indexed":true,"internalType":"bytes32"},{"name":"newAdminRole","type":"bytes32","indexed":true,"internalType":"bytes32"}],"anonymous":false},{"type":"event","name":"RoleGranted","inputs":[{"name":"role","type":"bytes32","indexed":true,"internalType":"bytes32"},{"name":"account","type":"address","indexed":true,"internalType":"address"},{"name":"sender","type":"address","indexed":true,"internalType":"address"}],"anonymous":false},{"type":"event","name":"RoleRevoked","inputs":[{"name":"role","type":"bytes32","indexed":true,"internalType":"bytes32"},{"name":"account","type":"address","indexed":true,"internalType":"address"},{"name":"sender","type":"address","indexed":true,"internalType":"address"}],"anonymous":false},{"type":"event","name":"Unpaused","inputs":[{"name":"account","type":"address","indexed":false,"internalType":"address"}],"anonymous":false},{"type":"error","name":"AccessControlBadConfirmation","inputs":[]},{"type":"error","name":"AccessControlUnauthorizedAccount","inputs":[{"name":"account","type":"address","internalType":"address"},{"name":"neededRole","type":"bytes32","internalType":"bytes32"}]},{"type":"error","name":"EnforcedPause","inputs":[]},{"type":"error","name":"ExpectedPause","inputs":[]},{"type":"error","name":"InvalidInitialization","inputs":[]},{"type":"error","name":"InvalidSignature","inputs":[]},{"type":"error","name":"NotInitializing","inputs":[]},{"type":"error","name":"SignatureWasUsed","inputs":[]},{"type":"error","name":"ZeroAddress","inputs":[]}],"bytecode":{"object":"0x6080806040523460d0577ff0c57e16840df040f15088dc2f81fe391c3923bec73e23a9662efc9c229c6a005460ff8160401c1660c1576002600160401b03196001600160401b03821601605c575b6040516116fe90816100d58239f35b6001600160401b0319166001600160401b039081177ff0c57e16840df040f15088dc2f81fe391c3923bec73e23a9662efc9c229c6a005581527fc7f505b2f371ae2175ee4913f4499e1f2633a7b5936321eed1cdaeb6115181d290602090a15f80604d565b63f92ee8a960e01b5f5260045ffd5b5f80fdfe6080806040526004361015610012575f80fd5b5f905f3560e01c90816301ffc9a714610bc75750806308473f6414610b845780631785f53c14610b00578063248a9ca314610ada5780632bdd87ff14610a8f5780632cb3e49414610a685780632f2ff15d14610a3757806336568abe146109f35780633f4ba83a146108dd5780635667981b146108915780635c975abb14610863578063678d22041461074c57806370480275146106e157806375b238fc146106b95780638456cb5914610572578063880cdc311461046d5780639010d07c1461041857806391d14854146103c2578063a217fddf146103a6578063a3246ad3146102ea578063ade9ae97146102c1578063bb10c82914610200578063ca15c873146101ca578063d547741f1461018f578063e58378bb146101675763fde919f61461013c575f80fd5b346101645780600319360112610164576001546040516001600160a01b039091168152602090f35b80fd5b503461016457806003193601126101645760206040515f805160206116298339815191528152f35b5034610164576040366003190112610164576101c66004356101af610c4a565b906101c16101bc82610c96565b610dca565b610e10565b5080f35b503461016457602036600319011261016457604060209160043581525f805160206115e983398151915283522054604051908152f35b50346101645760203660031901126101645760043567ffffffffffffffff81116102bd57366023820112156102bd57806004013567ffffffffffffffff81116102a9576040519061025b601f8201601f191660200183610c60565b808252602082019236602483830101116102a5579160209485838194602460ff989701873783010152604051928391518091835e8101600281520301902054166040519015158152f35b8480fd5b634e487b7160e01b83526041600452602483fd5b5080fd5b50346101645780600319360112610164576003546040516001600160a01b039091168152602090f35b50346101645760203660031901126101645760043581525f805160206115e983398151915260205260408120604051908160208254918281520190819285526020852090855b8181106103905750505082610346910383610c60565b604051928392602084019060208552518091526040840192915b81811061036e575050500390f35b82516001600160a01b0316845285945060209384019390920191600101610360565b8254845260209093019260019283019201610330565b5034610164578060031936011261016457602090604051908152f35b50346101645760403660031901126101645760406103de610c4a565b9160043581525f80516020611669833981519152602052209060018060a01b03165f52602052602060ff60405f2054166040519015158152f35b50346101645760403660031901126101645761045460209160043581525f805160206115e983398151915283526040812090506024359061139e565b905460405160039290921b1c6001600160a01b03168152f35b503461016457602036600319011261016457610487610c34565b61048f610d81565b5f8051602061162983398151915282525f805160206115e98339815191526020526040822080541561055e5782526020822054600383901b1c6001600160a01b03166104da81610f2e565b610529575b506104e981611255565b6104f1575080f35b5f8051602061162983398151915282525f805160206115e9833981519152602052604082206101c6916001600160a01b031690611574565b610557905f8051602061162983398151915284525f805160206115e9833981519152602052604084206113c7565b505f6104df565b634e487b7160e01b83526032600452602483fd5b50346101645780600319360112610164576003546105ba906020906001600160a01b031661059e610cb4565b90604051808095819463d57f7aa360e01b835260048301610d0e565b03915afa9081156106ae57829161067f575b50336001600160a01b0390911603610648575f805160206116898339815191525460ff81166106395760019060ff1916175f80516020611689833981519152557f62e78cea01bee320cd4e420270b5ea74000d11b0c9f74754ebdbfc544b05a2586020604051338152a180f35b63d93c066560e01b8252600482fd5b63e2517d3f60e01b8152336004527f261fea28325784de45eba41a3fbb84c4196fbab02ee802566edfe26616ba5afb602452604490fd5b6106a1915060203d6020116106a7575b6106998183610c60565b810190610cef565b5f6105cc565b503d61068f565b6040513d84823e3d90fd5b503461016457806003193601126101645760206040515f805160206116a98339815191528152f35b5034610164576020366003190112610164576106fb610c34565b610703610d81565b61070c816111d5565b610714575080f35b5f805160206116a983398151915282525f805160206115e9833981519152602052604082206101c6916001600160a01b031690611574565b3461085f575f36600319011261085f57610764611360565b61076c611360565b60036001600160601b0360a01b5f5416175f5560046001600160601b0360a01b600154161760015560056001600160601b0360a01b60035416176003556107b1611080565b610810575b6107be61112c565b6107c457005b5f805160206116a98339815191525f525f805160206115e983398151915260205261080e7f46448fd7a7b40360a1323cb3199d0aafeb92ce905bb512a6bb7d3d3f685cf1b1611515565b005b5f805160206116298339815191525f525f805160206115e98339815191526020526108597e8963063c520970ed64c693e920074e4588acd3631097247bb3559890ad6a676114b6565b506107b6565b5f80fd5b3461085f575f36600319011261085f57602060ff5f8051602061168983398151915254166040519015158152f35b3461085f57602036600319011261085f576108aa610c34565b6108b2610d38565b6108bb81611061565b600180546001600160a01b0319166001600160a01b0392909216919091179055005b3461085f575f36600319011261085f57600354610908906020906001600160a01b031661059e610cb4565b03915afa9081156109e8575f916109c9575b50336001600160a01b0390911603610992575f805160206116898339815191525460ff8116156109835760ff19165f80516020611689833981519152557f5db9ee0a495bf2e6ff9c91a7834c1ba4fdd244a5e8aa4e537bd38aeae4b073aa6020604051338152a1005b638dfc202b60e01b5f5260045ffd5b63e2517d3f60e01b5f52336004527f261fea28325784de45eba41a3fbb84c4196fbab02ee802566edfe26616ba5afb60245260445ffd5b6109e2915060203d6020116106a7576106998183610c60565b8161091a565b6040513d5f823e3d90fd5b3461085f57604036600319011261085f57610a0c610c4a565b336001600160a01b03821603610a285761080e90600435610e10565b63334bd91960e11b5f5260045ffd5b3461085f57604036600319011261085f5761080e600435610a56610c4a565b90610a636101bc82610c96565b610e56565b3461085f575f36600319011261085f575f546040516001600160a01b039091168152602090f35b3461085f57602036600319011261085f57610aa8610c34565b610ab0610d38565b610ab981611061565b5f80546001600160a01b0319166001600160a01b0392909216919091179055005b3461085f57602036600319011261085f576020610af8600435610c96565b604051908152f35b3461085f57602036600319011261085f57610b19610c34565b610b21610d81565b610b2a81610e98565b610b3057005b5f805160206116a98339815191525f525f805160206115e983398151915260205261080e906001600160a01b03167f46448fd7a7b40360a1323cb3199d0aafeb92ce905bb512a6bb7d3d3f685cf1b16113c7565b3461085f57602036600319011261085f57610b9d610c34565b610ba5610d38565b600380546001600160a01b0319166001600160a01b0392909216919091179055005b3461085f57602036600319011261085f576004359063ffffffff60e01b821680920361085f57602091635a05180f60e01b8114908115610c09575b5015158152f35b637965db0b60e01b811491508115610c23575b5083610c02565b6301ffc9a760e01b14905083610c1c565b600435906001600160a01b038216820361085f57565b602435906001600160a01b038216820361085f57565b90601f8019910116810190811067ffffffffffffffff821117610c8257604052565b634e487b7160e01b5f52604160045260245ffd5b5f525f80516020611669833981519152602052600160405f20015490565b60405190610cc3604083610c60565b601982527f4554484f535f494e544552414354494f4e5f434f4e54524f4c000000000000006020830152565b9081602091031261085f57516001600160a01b038116810361085f5790565b602060409281835280519182918282860152018484015e5f828201840152601f01601f1916010190565b335f9081525f80516020611609833981519152602052604090205460ff1615610d5d57565b63e2517d3f60e01b5f52336004525f805160206116a983398151915260245260445ffd5b335f9081525f80516020611649833981519152602052604090205460ff1615610da657565b63e2517d3f60e01b5f52336004525f8051602061162983398151915260245260445ffd5b5f8181525f805160206116698339815191526020908152604080832033845290915290205460ff1615610dfa5750565b63e2517d3f60e01b5f523360045260245260445ffd5b610e1a8282610fbf565b9182610e2557505090565b5f9182525f805160206115e98339815191526020526040909120610e52916001600160a01b0316906113c7565b5090565b610e6082826112d5565b9182610e6b57505090565b5f9182525f805160206115e98339815191526020526040909120610e52916001600160a01b031690611574565b6001600160a01b0381165f9081525f80516020611609833981519152602052604090205460ff1615610f29576001600160a01b03165f8181525f8051602061160983398151915260205260408120805460ff191690553391905f805160206116a9833981519152907ff6391f5c32d9c69d2a47ea670b442974b53935d1edc7fd64eb21e047a839171b9080a4600190565b505f90565b6001600160a01b0381165f9081525f80516020611649833981519152602052604090205460ff1615610f29576001600160a01b03165f8181525f8051602061164983398151915260205260408120805460ff191690553391905f80516020611629833981519152907ff6391f5c32d9c69d2a47ea670b442974b53935d1edc7fd64eb21e047a839171b9080a4600190565b5f8181525f80516020611669833981519152602090815260408083206001600160a01b038616845290915290205460ff161561105b575f8181525f80516020611669833981519152602090815260408083206001600160a01b0395909516808452949091528120805460ff19169055339291907ff6391f5c32d9c69d2a47ea670b442974b53935d1edc7fd64eb21e047a839171b9080a4600190565b50505f90565b6001600160a01b03161561107157565b63d92e233d60e01b5f5260045ffd5b60015f525f805160206116498339815191526020527fd6b14c7b1bae96ce9a7f475a8c3ca8bd32cd32541736f5464a8320ad6b1249345460ff166111285760015f8181525f805160206116498339815191526020527fd6b14c7b1bae96ce9a7f475a8c3ca8bd32cd32541736f5464a8320ad6b124934805460ff1916831790553391905f80516020611629833981519152905f805160206115c98339815191529080a4600190565b5f90565b60025f525f805160206116098339815191526020527ff17521a70c071d4b5803d7bce9362921fcb2e83543ba80f49e6306ca15935a515460ff166111285760025f8181525f805160206116098339815191526020527ff17521a70c071d4b5803d7bce9362921fcb2e83543ba80f49e6306ca15935a51805460ff191660011790553391905f805160206116a9833981519152905f805160206115c98339815191529080a4600190565b6001600160a01b0381165f9081525f80516020611609833981519152602052604090205460ff16610f29576001600160a01b03165f8181525f8051602061160983398151915260205260408120805460ff191660011790553391905f805160206116a9833981519152905f805160206115c98339815191529080a4600190565b6001600160a01b0381165f9081525f80516020611649833981519152602052604090205460ff16610f29576001600160a01b03165f8181525f8051602061164983398151915260205260408120805460ff191660011790553391905f80516020611629833981519152905f805160206115c98339815191529080a4600190565b5f8181525f80516020611669833981519152602090815260408083206001600160a01b038616845290915290205460ff1661105b575f8181525f80516020611669833981519152602090815260408083206001600160a01b0395909516808452949091528120805460ff19166001179055339291905f805160206115c98339815191529080a4600190565b60ff7ff0c57e16840df040f15088dc2f81fe391c3923bec73e23a9662efc9c229c6a005460401c161561138f57565b631afcd79f60e31b5f5260045ffd5b80548210156113b3575f5260205f2001905f90565b634e487b7160e01b5f52603260045260245ffd5b906001820191815f528260205260405f20548015155f146114ae575f19810181811161149a5782545f1981019190821161149a5781810361144f575b5050508054801561143b575f19019061141c828261139e565b8154905f199060031b1b19169055555f526020525f6040812055600190565b634e487b7160e01b5f52603160045260245ffd5b61148561145f61146f938661139e565b90549060031b1c9283928661139e565b819391549060031b91821b915f19901b19161790565b90555f528360205260405f20555f8080611403565b634e487b7160e01b5f52601160045260245ffd5b505050505f90565b600181019060015f528160205260405f2054155f1461105b578054600160401b811015610c82578060016114ed920183558261139e565b81549060031b906001821b915f19901b1916179055549060015f5260205260405f2055600190565b600181019060025f528160205260405f2054155f1461105b578054600160401b811015610c825780600161154c920183558261139e565b81549060031b906002821b915f19901b1916179055549060025f5260205260405f2055600190565b6001810190825f528160205260405f2054155f146115c1578054600160401b811015610c82576115ae61146f82600187940185558461139e565b905554915f5260205260405f2055600190565b5050505f9056fe2f8788117e7eff1d82e926ec794901d17c78024a50270940304540a733656f0dc1f6fe24621ce81ec5827caf0253cadb74709b061630e6b55e82371705932000b16e88c42fd4e48df2dd6a2eabd6bc9aec654ec170056b470819f8892cc6431cb19546dff01e856fb3f010c267a7b1c60363cf8a4664e21cc89c26224620214ec32d4dc01d07c436ad8a6f9a20eadd61263c71fe16f6b5956005ba3b341f51dd02dd7bc7dec4dceedda775e58dd541e08a116c6c53815c0bd028192f7b626800cd5ed15c6e187e77e9aee88184c21f4f2182ab5827cb3b7e07fbedcd63f03300a49807205ce4d355092ef5a8a18f56e8913cf4a201fbe287825b095693c21775a26469706673582212204660224b17f06ed5b28fd0afa29387ae4241692b06b56107b46221042ef812d864736f6c634300081a0033","linkReferences":{}},"methodIdentifiers":{"ADMIN_ROLE()":"75b238fc","DEFAULT_ADMIN_ROLE()":"a217fddf","OWNER_ROLE()":"e58378bb","addAdmin(address)":"70480275","contractAddressManager()":"ade9ae97","expectedSigner()":"2cb3e494","getRoleAdmin(bytes32)":"248a9ca3","getRoleMember(bytes32,uint256)":"9010d07c","getRoleMemberCount(bytes32)":"ca15c873","getRoleMembers(bytes32)":"a3246ad3","grantRole(bytes32,address)":"2f2ff15d","hasRole(bytes32,address)":"91d14854","pause()":"8456cb59","paused()":"5c975abb","removeAdmin(address)":"1785f53c","renounceRole(bytes32,address)":"36568abe","revokeRole(bytes32,address)":"d547741f","shouldFail()":"678d2204","signatureUsed(bytes)":"bb10c829","signatureVerifier()":"fde919f6","supportsInterface(bytes4)":"01ffc9a7","unpause()":"3f4ba83a","updateContractAddressManager(address)":"08473f64","updateExpectedSigner(address)":"2bdd87ff","updateOwner(address)":"880cdc31","updateSignatureVerifier(address)":"5667981b"},"id":142}