{"abi":[{"type":"function","name":"ADMIN_ROLE","inputs":[],"outputs":[{"name":"","type":"bytes32","internalType":"bytes32"}],"stateMutability":"view"},{"type":"function","name":"DEFAULT_ADMIN_ROLE","inputs":[],"outputs":[{"name":"","type":"bytes32","internalType":"bytes32"}],"stateMutability":"view"},{"type":"function","name":"OWNER_ROLE","inputs":[],"outputs":[{"name":"","type":"bytes32","internalType":"bytes32"}],"stateMutability":"view"},{"type":"function","name":"UPGRADE_INTERFACE_VERSION","inputs":[],"outputs":[{"name":"","type":"string","internalType":"string"}],"stateMutability":"view"},{"type":"function","name":"addAdmin","inputs":[{"name":"admin","type":"address","internalType":"address"}],"outputs":[],"stateMutability":"nonpayable"},{"type":"function","name":"addReview","inputs":[{"name":"score","type":"uint8","internalType":"enum EthosReview.Score"},{"name":"subject","type":"address","internalType":"address"},{"name":"paymentToken","type":"address","internalType":"address"},{"name":"comment","type":"string","internalType":"string"},{"name":"metadata","type":"string","internalType":"string"},{"name":"attestationDetails","type":"tuple","internalType":"struct AttestationDetails","components":[{"name":"account","type":"string","internalType":"string"},{"name":"service","type":"string","internalType":"string"}]}],"outputs":[],"stateMutability":"payable"},{"type":"function","name":"archiveReview","inputs":[{"name":"reviewId","type":"uint256","internalType":"uint256"}],"outputs":[],"stateMutability":"nonpayable"},{"type":"function","name":"contractAddressManager","inputs":[],"outputs":[{"name":"","type":"address","internalType":"contract IContractAddressManager"}],"stateMutability":"view"},{"type":"function","name":"editReview","inputs":[{"name":"reviewId","type":"uint256","internalType":"uint256"},{"name":"comment","type":"string","internalType":"string"},{"name":"metadata","type":"string","internalType":"string"}],"outputs":[],"stateMutability":"nonpayable"},{"type":"function","name":"expectedSigner","inputs":[],"outputs":[{"name":"","type":"address","internalType":"address"}],"stateMutability":"view"},{"type":"function","name":"getRoleAdmin","inputs":[{"name":"role","type":"bytes32","internalType":"bytes32"}],"outputs":[{"name":"","type":"bytes32","internalType":"bytes32"}],"stateMutability":"view"},{"type":"function","name":"getRoleMember","inputs":[{"name":"role","type":"bytes32","internalType":"bytes32"},{"name":"index","type":"uint256","internalType":"uint256"}],"outputs":[{"name":"","type":"address","internalType":"address"}],"stateMutability":"view"},{"type":"function","name":"getRoleMemberCount","inputs":[{"name":"role","type":"bytes32","internalType":"bytes32"}],"outputs":[{"name":"","type":"uint256","internalType":"uint256"}],"stateMutability":"view"},{"type":"function","name":"getRoleMembers","inputs":[{"name":"role","type":"bytes32","internalType":"bytes32"}],"outputs":[{"name":"","type":"address[]","internalType":"address[]"}],"stateMutability":"view"},{"type":"function","name":"grantRole","inputs":[{"name":"role","type":"bytes32","internalType":"bytes32"},{"name":"account","type":"address","internalType":"address"}],"outputs":[],"stateMutability":"nonpayable"},{"type":"function","name":"hasRole","inputs":[{"name":"role","type":"bytes32","internalType":"bytes32"},{"name":"account","type":"address","internalType":"address"}],"outputs":[{"name":"","type":"bool","internalType":"bool"}],"stateMutability":"view"},{"type":"function","name":"initialize","inputs":[{"name":"owner","type":"address","internalType":"address"},{"name":"admin","type":"address","internalType":"address"},{"name":"expectedSigner","type":"address","internalType":"address"},{"name":"signatureVerifier","type":"address","internalType":"address"},{"name":"contractAddressManagerAddr","type":"address","internalType":"address"}],"outputs":[],"stateMutability":"nonpayable"},{"type":"function","name":"pause","inputs":[],"outputs":[],"stateMutability":"nonpayable"},{"type":"function","name":"paused","inputs":[],"outputs":[{"name":"","type":"bool","internalType":"bool"}],"stateMutability":"view"},{"type":"function","name":"proxiableUUID","inputs":[],"outputs":[{"name":"","type":"bytes32","internalType":"bytes32"}],"stateMutability":"view"},{"type":"function","name":"removeAdmin","inputs":[{"name":"admin","type":"address","internalType":"address"}],"outputs":[],"stateMutability":"nonpayable"},{"type":"function","name":"renounceRole","inputs":[{"name":"role","type":"bytes32","internalType":"bytes32"},{"name":"callerConfirmation","type":"address","internalType":"address"}],"outputs":[],"stateMutability":"nonpayable"},{"type":"function","name":"restoreReview","inputs":[{"name":"reviewId","type":"uint256","internalType":"uint256"}],"outputs":[],"stateMutability":"nonpayable"},{"type":"function","name":"reviewCount","inputs":[],"outputs":[{"name":"","type":"uint256","internalType":"uint256"}],"stateMutability":"view"},{"type":"function","name":"reviewIdsByAttestationHash","inputs":[{"name":"","type":"bytes32","internalType":"bytes32"},{"name":"","type":"uint256","internalType":"uint256"}],"outputs":[{"name":"","type":"uint256","internalType":"uint256"}],"stateMutability":"view"},{"type":"function","name":"reviewIdsByAuthorAddress","inputs":[{"name":"","type":"address","internalType":"address"},{"name":"","type":"uint256","internalType":"uint256"}],"outputs":[{"name":"","type":"uint256","internalType":"uint256"}],"stateMutability":"view"},{"type":"function","name":"reviewIdsBySubjectAddress","inputs":[{"name":"","type":"address","internalType":"address"},{"name":"","type":"uint256","internalType":"uint256"}],"outputs":[{"name":"","type":"uint256","internalType":"uint256"}],"stateMutability":"view"},{"type":"function","name":"reviewPrice","inputs":[{"name":"","type":"address","internalType":"address"}],"outputs":[{"name":"allowed","type":"bool","internalType":"bool"},{"name":"price","type":"uint256","internalType":"uint256"}],"stateMutability":"view"},{"type":"function","name":"reviews","inputs":[{"name":"","type":"uint256","internalType":"uint256"}],"outputs":[{"name":"archived","type":"bool","internalType":"bool"},{"name":"score","type":"uint8","internalType":"enum EthosReview.Score"},{"name":"author","type":"address","internalType":"address"},{"name":"subject","type":"address","internalType":"address"},{"name":"reviewId","type":"uint256","internalType":"uint256"},{"name":"createdAt","type":"uint256","internalType":"uint256"},{"name":"comment","type":"string","internalType":"string"},{"name":"metadata","type":"string","internalType":"string"},{"name":"attestationDetails","type":"tuple","internalType":"struct AttestationDetails","components":[{"name":"account","type":"string","internalType":"string"},{"name":"service","type":"string","internalType":"string"}]}],"stateMutability":"view"},{"type":"function","name":"revokeRole","inputs":[{"name":"role","type":"bytes32","internalType":"bytes32"},{"name":"account","type":"address","internalType":"address"}],"outputs":[],"stateMutability":"nonpayable"},{"type":"function","name":"setReviewPrice","inputs":[{"name":"allowed","type":"bool","internalType":"bool"},{"name":"paymentToken","type":"address","internalType":"address"},{"name":"price","type":"uint256","internalType":"uint256"}],"outputs":[],"stateMutability":"nonpayable"},{"type":"function","name":"setTestValue","inputs":[{"name":"_testValue","type":"uint256","internalType":"uint256"}],"outputs":[],"stateMutability":"nonpayable"},{"type":"function","name":"signatureUsed","inputs":[{"name":"","type":"bytes","internalType":"bytes"}],"outputs":[{"name":"","type":"bool","internalType":"bool"}],"stateMutability":"view"},{"type":"function","name":"signatureVerifier","inputs":[],"outputs":[{"name":"","type":"address","internalType":"address"}],"stateMutability":"view"},{"type":"function","name":"supportsInterface","inputs":[{"name":"interfaceId","type":"bytes4","internalType":"bytes4"}],"outputs":[{"name":"","type":"bool","internalType":"bool"}],"stateMutability":"view"},{"type":"function","name":"targetExistsAndAllowedForId","inputs":[{"name":"targetId","type":"uint256","internalType":"uint256"}],"outputs":[{"name":"exists","type":"bool","internalType":"bool"},{"name":"allowed","type":"bool","internalType":"bool"}],"stateMutability":"view"},{"type":"function","name":"testValue","inputs":[],"outputs":[{"name":"","type":"uint256","internalType":"uint256"}],"stateMutability":"view"},{"type":"function","name":"unpause","inputs":[],"outputs":[],"stateMutability":"nonpayable"},{"type":"function","name":"updateContractAddressManager","inputs":[{"name":"contractAddressesAddr","type":"address","internalType":"address"}],"outputs":[],"stateMutability":"nonpayable"},{"type":"function","name":"updateExpectedSigner","inputs":[{"name":"signer","type":"address","internalType":"address"}],"outputs":[],"stateMutability":"nonpayable"},{"type":"function","name":"updateOwner","inputs":[{"name":"owner","type":"address","internalType":"address"}],"outputs":[],"stateMutability":"nonpayable"},{"type":"function","name":"updateSignatureVerifier","inputs":[{"name":"sinatureVerifier","type":"address","internalType":"address"}],"outputs":[],"stateMutability":"nonpayable"},{"type":"function","name":"upgradeToAndCall","inputs":[{"name":"newImplementation","type":"address","internalType":"address"},{"name":"data","type":"bytes","internalType":"bytes"}],"outputs":[],"stateMutability":"payable"},{"type":"function","name":"withdrawFunds","inputs":[{"name":"paymentToken","type":"address","internalType":"address"}],"outputs":[],"stateMutability":"nonpayable"},{"type":"event","name":"Initialized","inputs":[{"name":"version","type":"uint64","indexed":false,"internalType":"uint64"}],"anonymous":false},{"type":"event","name":"Paused","inputs":[{"name":"account","type":"address","indexed":false,"internalType":"address"}],"anonymous":false},{"type":"event","name":"ReviewArchived","inputs":[{"name":"reviewId","type":"uint256","indexed":true,"internalType":"uint256"},{"name":"author","type":"address","indexed":true,"internalType":"address"},{"name":"subject","type":"address","indexed":true,"internalType":"address"}],"anonymous":false},{"type":"event","name":"ReviewCreated","inputs":[{"name":"score","type":"uint8","indexed":false,"internalType":"enum EthosReview.Score"},{"name":"author","type":"address","indexed":true,"internalType":"address"},{"name":"attestationHash","type":"bytes32","indexed":true,"internalType":"bytes32"},{"name":"subject","type":"address","indexed":true,"internalType":"address"},{"name":"reviewId","type":"uint256","indexed":false,"internalType":"uint256"},{"name":"profileId","type":"uint256","indexed":false,"internalType":"uint256"}],"anonymous":false},{"type":"event","name":"ReviewEdited","inputs":[{"name":"reviewId","type":"uint256","indexed":true,"internalType":"uint256"},{"name":"author","type":"address","indexed":true,"internalType":"address"},{"name":"subject","type":"address","indexed":true,"internalType":"address"}],"anonymous":false},{"type":"event","name":"ReviewRestored","inputs":[{"name":"reviewId","type":"uint256","indexed":true,"internalType":"uint256"},{"name":"author","type":"address","indexed":true,"internalType":"address"},{"name":"subject","type":"address","indexed":true,"internalType":"address"}],"anonymous":false},{"type":"event","name":"RoleAdminChanged","inputs":[{"name":"role","type":"bytes32","indexed":true,"internalType":"bytes32"},{"name":"previousAdminRole","type":"bytes32","indexed":true,"internalType":"bytes32"},{"name":"newAdminRole","type":"bytes32","indexed":true,"internalType":"bytes32"}],"anonymous":false},{"type":"event","name":"RoleGranted","inputs":[{"name":"role","type":"bytes32","indexed":true,"internalType":"bytes32"},{"name":"account","type":"address","indexed":true,"internalType":"address"},{"name":"sender","type":"address","indexed":true,"internalType":"address"}],"anonymous":false},{"type":"event","name":"RoleRevoked","inputs":[{"name":"role","type":"bytes32","indexed":true,"internalType":"bytes32"},{"name":"account","type":"address","indexed":true,"internalType":"address"},{"name":"sender","type":"address","indexed":true,"internalType":"address"}],"anonymous":false},{"type":"event","name":"Unpaused","inputs":[{"name":"account","type":"address","indexed":false,"internalType":"address"}],"anonymous":false},{"type":"event","name":"Upgraded","inputs":[{"name":"implementation","type":"address","indexed":true,"internalType":"address"}],"anonymous":false},{"type":"error","name":"AccessControlBadConfirmation","inputs":[]},{"type":"error","name":"AccessControlUnauthorizedAccount","inputs":[{"name":"account","type":"address","internalType":"address"},{"name":"neededRole","type":"bytes32","internalType":"bytes32"}]},{"type":"error","name":"AddressEmptyCode","inputs":[{"name":"target","type":"address","internalType":"address"}]},{"type":"error","name":"ERC1967InvalidImplementation","inputs":[{"name":"implementation","type":"address","internalType":"address"}]},{"type":"error","name":"ERC1967NonPayable","inputs":[]},{"type":"error","name":"EnforcedPause","inputs":[]},{"type":"error","name":"ExpectedPause","inputs":[]},{"type":"error","name":"FailedCall","inputs":[]},{"type":"error","name":"InvalidInitialization","inputs":[]},{"type":"error","name":"InvalidReviewDetails","inputs":[{"name":"message","type":"string","internalType":"string"}]},{"type":"error","name":"InvalidSignature","inputs":[]},{"type":"error","name":"NotInitializing","inputs":[]},{"type":"error","name":"ReviewIsArchived","inputs":[{"name":"reviewId","type":"uint256","internalType":"uint256"}]},{"type":"error","name":"ReviewNotArchived","inputs":[{"name":"reviewId","type":"uint256","internalType":"uint256"}]},{"type":"error","name":"ReviewNotFound","inputs":[{"name":"reviewId","type":"uint256","internalType":"uint256"}]},{"type":"error","name":"SelfReview","inputs":[{"name":"subject","type":"address","internalType":"address"}]},{"type":"error","name":"SignatureWasUsed","inputs":[]},{"type":"error","name":"UUPSUnauthorizedCallContext","inputs":[]},{"type":"error","name":"UUPSUnsupportedProxiableUUID","inputs":[{"name":"slot","type":"bytes32","internalType":"bytes32"}]},{"type":"error","name":"UnauthorizedEdit","inputs":[{"name":"reviewId","type":"uint256","internalType":"uint256"}]},{"type":"error","name":"WrongPaymentAmount","inputs":[{"name":"paymentToken","type":"address","internalType":"address"},{"name":"amount","type":"uint256","internalType":"uint256"}]},{"type":"error","name":"WrongPaymentToken","inputs":[{"name":"paymentToken","type":"address","internalType":"address"}]},{"type":"error","name":"ZeroAddress","inputs":[]}],"bytecode":{"object":"0x60a06040523461003c57610011610040565b3060805261001d610040565b60405161340b90816100fd8239608051818181611c520152611ce30152f35b5f80fd5b7ff0c57e16840df040f15088dc2f81fe391c3923bec73e23a9662efc9c229c6a005460ff8160401c166100ed576002600160401b03196001600160401b038216016100885750565b6001600160401b0319166001600160401b039081177ff0c57e16840df040f15088dc2f81fe391c3923bec73e23a9662efc9c229c6a00556040519081527fc7f505b2f371ae2175ee4913f4499e1f2633a7b5936321eed1cdaeb6115181d290602090a1565b63f92ee8a960e01b5f5260045ffdfe6080806040526004361015610012575f80fd5b5f3560e01c90816301ffc9a7146125785750806303f6e47f146124c257806304515c291461247c57806308473f64146124395780631459457a146121215780631785f53c1461209d578063248a9ca3146120775780632bdd87ff1461202c5780632cb3e494146120055780632f2ff15d14611fd45780633596010514611fbb57806336568abe14611f775780633f4ba83a14611ea35780634f1ef28614611ca657806352d1902d14611c405780635667981b14611bf45780635c975abb14611bc65780636232249914611b7d5780636821435a14611ad457806368742da6146119d55780637048027514611951578063725641ac1461192257806375b238fc146118fb5780637b95e94e14610c595780638456cb5914610b1d578063880cdc3114610a025780638af5de72146109e55780639010d07c1461099d57806391d14854146109485780639c4d5d5f146106df578063a12c64b5146106a0578063a217fddf14610686578063a3246ad3146105cb578063ad3cb1cc14610584578063ade9ae971461055c578063bb10c82914610502578063ca15c873146104cc578063d547741f14610494578063e070b805146103e2578063e58378bb146103bb578063e83ddcea146102a1578063eff5924f14610284578063f3300ce71461022c5763fde919f614610200575f80fd5b34610228575f366003190112610228576001546040516001600160a01b039091168152602090f35b5f80fd5b34610228576040366003190112610228576102456125e5565b6001600160a01b03165f9081526039602052604090208054602435919082101561022857602091610275916126d2565b90549060031b1c604051908152f35b34610228575f366003190112610228576020603654604051908152f35b34610228576020366003190112610228576004355f52603860205261034e60206103b760405f208054906103a761038e60018060a01b03600184015416610380600285015460038601546102f760048801612786565b9161030460058901612786565b9461032b60076040519a6103178c612627565b61032360068201612786565b8c5201612786565b998c8a019a8b526040519d8e9d8e60ff8416151581520160ff8360081c16612826565b60101c6001600160a01b031660408d015260608c015260808b015260a08a015261012060c08a0181905289019061272a565b9087820360e089015261272a565b918583036101008701525160408352604083019061272a565b915190602081840391015261272a565b0390f35b34610228575f3660031901126102285760206040515f805160206132d68339815191528152f35b34610228576020366003190112610228576004356103fe6129c7565b5f8181526038602052604090208054601081901c6001600160a01b0316156104815760ff81161561046e57610432836129ee565b60ff19168155600101546001600160a01b03169033907fd1e776670553de8351018778f951226744cf387276a4a6bc85346de6bc0c9dc15f80a4005b8263594af9b960e01b5f5260045260245ffd5b82633d9c511560e11b5f5260045260245ffd5b34610228576040366003190112610228576104ca6004356104b36125fb565b906104c56104c082612833565b612b92565b612bd8565b005b34610228576020366003190112610228576004355f525f80516020613296833981519152602052602060405f2054604051908152f35b34610228576020366003190112610228576004356001600160401b0381116102285760ff602080610538819436906004016126b4565b604051928184925191829101835e8101600281520301902054166040519015158152f35b34610228575f366003190112610228576003546040516001600160a01b039091168152602090f35b34610228575f366003190112610228576103b76040516105a5604082612642565b60058152640352e302e360dc1b602082015260405191829160208352602083019061272a565b34610228576020366003190112610228576004355f525f8051602061329683398151915260205260405f20604051806020835491828152019081935f5260205f20905f5b8181106106705750505081610625910382612642565b604051918291602083019060208452518091526040830191905f5b81811061064e575050500390f35b82516001600160a01b0316845285945060209384019390920191600101610640565b825484526020909301926001928301920161060f565b34610228575f3660031901126102285760206040515f8152f35b346102285760203660031901126102285760406106cf6004355f526038602052600360405f2001541515908190565b8251911515825215156020820152f35b34610228576060366003190112610228576004356024356001600160401b038111610228576107129036906004016126fd565b6044929192356001600160401b038111610228576107349036906004016126fd565b909361073e6129c7565b835f52603860205260405f209260ff8454166109355761075d856129ee565b60048401916001600160401b0382116108b2576107848261077e855461274e565b8561293c565b5f90601f83116001146108d1576107b292915f91836108c6575b50508160011b915f199060031b1c19161790565b90555b60058201906001600160401b0381116108b2576107dc816107d6845461274e565b8461293c565b5f601f821160011461084f57819061080b939495965f926108445750508160011b915f199060031b1c19161790565b90555b600101546001600160a01b03169033907fd50d53f79201cac5bff0d80f7335371be90a3cb399bdcba65cc73b382dd353bd5f80a4005b01359050868061079e565b601f19821695835f5260205f20915f5b88811061089a57508360019596979810610881575b505050811b01905561080e565b01355f19600384901b60f8161c19169055858080610874565b9092602060018192868601358155019401910161085f565b634e487b7160e01b5f52604160045260245ffd5b01359050888061079e565b601f19831691845f5260205f20925f5b81811061091d5750908460019594939210610904575b505050811b0190556107b5565b01355f19600384901b60f8161c191690558780806108f7565b919360206001819287870135815501950192016108e1565b84630cef71ed60e21b5f5260045260245ffd5b34610228576040366003190112610228576109616125fb565b6004355f525f8051602061333683398151915260205260405f209060018060a01b03165f52602052602060ff60405f2054166040519015158152f35b346102285760206109cc6109b0366126e7565b905f525f80516020613296833981519152835260405f206126d2565b905460405160039290921b1c6001600160a01b03168152f35b34610228575f366003190112610228576020606e54604051908152f35b3461022857602036600319011261022857610a1b6125e5565b610a23612b49565b5f805160206132d68339815191525f525f805160206132968339815191526020525f80516020613396833981519152805415610b09575f90815260209020546001600160a01b0316610a7481612e17565b610aca575b50610a8381612f5a565b610a8957005b5f805160206132d68339815191525f525f805160206132968339815191526020526104ca906001600160a01b03165f805160206133968339815191526131e3565b5f805160206132d68339815191525f525f80516020613296833981519152602052610b02905f8051602061339683398151915261311e565b5081610a79565b634e487b7160e01b5f52603260045260245ffd5b34610228575f36600319011261022857600354610b6b906020906001600160a01b0316610b48612851565b90604051808095819463d57f7aa360e01b8352866004840152602483019061272a565b03915afa908115610c4e575f91610c1f575b50336001600160a01b0390911603610be857610b976129c7565b600160ff195f805160206133568339815191525416175f80516020613356833981519152557f62e78cea01bee320cd4e420270b5ea74000d11b0c9f74754ebdbfc544b05a2586020604051338152a1005b63e2517d3f60e01b5f52336004527f261fea28325784de45eba41a3fbb84c4196fbab02ee802566edfe26616ba5afb60245260445ffd5b610c41915060203d602011610c47575b610c398183612642565b81019061288c565b81610b7d565b503d610c2f565b6040513d5f823e3d90fd5b60c036600319011261022857600435600381101561022857610c796125fb565b610c81612611565b916064356001600160401b03811161022857610ca19036906004016126fd565b6084929192356001600160401b03811161022857610cc39036906004016126fd565b949060a4356001600160401b0381116102285780600401926040600319833603011261022857610cf16129c7565b6001600160a01b031696871580806118d2575b6118a15715948580611876575b611845573389146116ad57602460206001600160a01b03610d30612c60565b16604051928380926389a9132b60e01b82523360048301525afa908115610c4e575f91611813575b5086156116f4576001600160a01b03610d6f612c60565b169060208b6024604051809581936389a9132b60e01b835260048301525afa918215610c4e575f926116c0575b50146116ad575b6001600160a01b03610db3612c60565b169760405163b8861c2360e01b81523360048201526020816024818d5afa8015610c4e5761167e575b505f988715611504576040516389a9132b60e01b8152600481018c9052602081602481855afa908115610c4e575f916114d2575b50806114cb575060205f9160648d60405194859384926315c3e15560e21b845282600485015260248401528160448401525af1908115610c4e575f91611499575b505b9a5b6001600160a01b03165f8181526037602052604090205460ff161561148757805f526037602052600160405f200154806113d5575b5050603654604051956101208701918783106001600160401b038411176108b2578c926040525f885260208801908b8252610ef660408a019333855260608b01958652610ee760808c019784895260a08d0199428b52369161267e565b9860c08c01998a52369161267e565b9760e08a019889526040519a610f0b8c612627565b356001600160401b03811161022857610f2a90600436918401016126b4565b8b526024810135906001600160401b038211610228576004610f4f92369201016126b4565b60208b01526101008901998a525f526038602052610f8060405f2098511515899060ff801983541691151516179055565b519060038210156113c15787549051610100600160b01b031990911660089290921b61ff00169190911760109190911b62010000600160b01b0316178655516001860180546001600160a01b0319166001600160a01b039290921691909117905551600285015551600384015551805160048401916001600160401b0382116108b2576110118261077e855461274e565b602090601f831160011461135e5761103f92915f91836113535750508160011b915f199060031b1c19161790565b90555b51805160058301916001600160401b0382116108b2576110668261077e855461274e565b602090601f83116001146112f05761109492915f91836112e55750508160011b915f199060031b1c19161790565b90555b6006810191519182518051906001600160401b0382116108b2576110bf8261077e855461274e565b602090601f831160011461127c578260209593600795936110f4935f926112715750508160011b915f199060031b1c19161790565b90555b019101518051906001600160401b0382116108b25761111a8261077e855461274e565b602090601f831160011461120e5761114892915f91836112035750508160011b915f199060031b1c19161790565b90555b335f52603960205261116360405f206036549061298b565b156111e657825f52603a60205261118060405f206036549061298b565b603654936111916040518093612826565b84602083015260408201527fbcba601f87e317f5f2e5d40544c705eb73096974a8f4836ca5c4cd8f012451d960603392a45f1981146111d257600101603655005b634e487b7160e01b5f52601160045260245ffd5b815f52603b6020526111fe60405f206036549061298b565b611180565b01519050898061079e565b90601f19831691845f52815f20925f5b8181106112595750908460019594939210611241575b505050811b01905561114b565b01515f1960f88460031b161c19169055888080611234565b9293602060018192878601518155019501930161121e565b015190508d8061079e565b90601f19831691845f52815f20925f5b8181106112cd57509260019285926020989660079896106112b5575b505050811b0190556110f7565b01515f1960f88460031b161c191690558c80806112a8565b9293602060018192878601518155019501930161128c565b015190508b8061079e565b90601f19831691845f52815f20925f5b81811061133b5750908460019594939210611323575b505050811b019055611097565b01515f1960f88460031b161c191690558a8080611316565b92936020600181928786015181550195019301611300565b015190508c8061079e565b90601f19831691845f52815f20925f5b8181106113a95750908460019594939210611391575b505050811b019055611042565b01515f1960f88460031b161c191690558b8080611384565b9293602060018192878601518155019501930161136e565b634e487b7160e01b5f52602160045260245ffd5b816113ff5734036113e957505b8b80610e8a565b6306e0823560e21b5f526004523460245260445ffd5b34611470575f91606460209260405194859384926323b872dd60e01b845233600485015230602485015260448401525af18015610c4e57611441575b506113e2565b6114629060203d602011611469575b61145a8183612642565b8101906128ab565b508b61143b565b503d611450565b6306e0823560e21b5f525f6004523460245260445ffd5b634dbdbad960e11b5f5260045260245ffd5b90506020813d6020116114c3575b816114b460209383612642565b8101031261022857518c610e51565b3d91506114a7565b9050610e53565b90506020813d6020116114fc575b816114ed60209383612642565b8101031261022857518d610e10565b3d91506114e0565b98506001600160a01b03611516612cf8565b169861152560248601886128c3565b9a9061153189806128c3565b60405163236dc36960e21b81529d8e9384936115539392909160048601612915565b03815a93602094fa998a15610c4e575f9a61164a575b5089604051637dec74d760e01b8152816004820152602081602481865afa908115610c4e575f91611618575b5080611610575060209060648d5f60405195869485936315c3e15560e21b855260016004860152602485015260448401525af1908115610c4e575f916115de575b505b9a610e55565b90506020813d602011611608575b816115f960209383612642565b8101031261022857518c6115d6565b3d91506115ec565b9150506115d8565b90506020813d602011611642575b8161163360209383612642565b8101031261022857518e611595565b3d9150611626565b9099506020813d602011611676575b8161166660209383612642565b810103126102285751988c611569565b3d9150611659565b6020813d6020116116a5575b8161169760209383612642565b810103126102285751610ddc565b3d915061168a565b8863d63f320360e01b5f5260045260245ffd5b9091506020813d6020116116ec575b816116dc60209383612642565b810103126102285751908c610d9c565b3d91506116cf565b6001600160a01b03611704612cf8565b1690602061171560248701896128c3565b936117208a806128c3565b60405163236dc36960e21b81529687948593849361174393909260048601612915565b03915afa918215610c4e575f926117df575b5060206001600160a01b03611768612c60565b1692602460405180958193637dec74d760e01b835260048301525afa918215610c4e575f926117ab575b5003610da3578863d63f320360e01b5f5260045260245ffd5b9091506020813d6020116117d7575b816117c760209383612642565b810103126102285751908c611792565b3d91506117ba565b9091506020813d60201161180b575b816117fb60209383612642565b810103126102285751908c611755565b3d91506117ee565b90506020813d60201161183d575b8161182e60209383612642565b8101031261022857518b610d58565b3d9150611821565b60405163ac15c56760e01b8152602060048201526008602482015267109bdd1a081cd95d60c21b6044820152606490fd5b5061188185806128c3565b1515905080610d11575061189860248401866128c3565b90501515610d11565b60405163ac15c56760e01b8152602060048201526008602482015267139bdb99481cd95d60c21b6044820152606490fd5b506118dd85806128c3565b90501580610d0457506118f360248401866128c3565b905015610d04565b34610228575f3660031901126102285760206040515f805160206133768339815191528152f35b3461022857611930366126e7565b905f52603b60205260405f20805482101561022857602091610275916126d2565b346102285760203660031901126102285761196a6125e5565b611972612b49565b61197b81612fed565b61198157005b5f805160206133768339815191525f525f805160206132968339815191526020526104ca906001600160a01b03167f46448fd7a7b40360a1323cb3199d0aafeb92ce905bb512a6bb7d3d3f685cf1b16131e3565b34610228576020366003190112610228576119ee6125e5565b6119f6612b49565b6119fe6129c7565b6001600160a01b031680611a2d57505f80808047818115611a24575b3390f115610c4e57005b506108fc611a1a565b6040516370a0823160e01b8152306004820152602081602481855afa908115610c4e575f91611aa2575b505f916044602092604051948593849263a9059cbb60e01b845233600485015260248401525af18015610c4e57611a8a57005b6104ca9060203d6020116114695761145a8183612642565b90506020813d602011611acc575b81611abd60209383612642565b8101031261022857515f611a57565b3d9150611ab0565b34610228576060366003190112610228576004358015159081810361022857611afb6125fb565b90611b04612b00565b611b0c6129c7565b15611b5e5760019060405192611b2184612627565b835260208301906044358252828060a01b03165f526037602052611b5860405f2093511515849060ff801983541691151516179055565b51910155005b6001600160a01b03165f90815260376020526040812081815560010155005b3461022857604036600319011261022857611b966125e5565b6001600160a01b03165f908152603a602052604090208054602435919082101561022857602091610275916126d2565b34610228575f36600319011261022857602060ff5f8051602061335683398151915254166040519015158152f35b3461022857602036600319011261022857611c0d6125e5565b611c15612b00565b611c1e81612f4a565b600180546001600160a01b0319166001600160a01b0392909216919091179055005b34610228575f366003190112610228577f00000000000000000000000000000000000000000000000000000000000000006001600160a01b03163003611c975760206040515f805160206132f68339815191528152f35b63703e46dd60e11b5f5260045ffd5b604036600319011261022857611cba6125e5565b6024356001600160401b03811161022857611cd99036906004016126b4565b6001600160a01b037f000000000000000000000000000000000000000000000000000000000000000016308114908115611e81575b50611c9757611d1b612b49565b611d2482612f4a565b6040516352d1902d60e01b81526001600160a01b0383169290602081600481875afa5f9181611e4d575b50611d665783634c9c8ce360e01b5f5260045260245ffd5b805f805160206132f6833981519152859203611e3b5750813b15611e29575f805160206132f683398151915280546001600160a01b031916821790557fbc7cd75a20ee27fd9adebab32041f755214dbc6bffa90cc0225b39da2e5c2d3b5f80a2815115611e11575f808360206104ca95519101845af43d15611e09573d91611ded83612663565b92611dfb6040519485612642565b83523d5f602085013e613237565b606091613237565b505034611e1a57005b63b398979f60e01b5f5260045ffd5b634c9c8ce360e01b5f5260045260245ffd5b632a87526960e21b5f5260045260245ffd5b9091506020813d602011611e79575b81611e6960209383612642565b8101031261022857519085611d4e565b3d9150611e5c565b5f805160206132f6833981519152546001600160a01b03161415905083611d0e565b34610228575f36600319011261022857600354611ece906020906001600160a01b0316610b48612851565b03915afa908115610c4e575f91611f58575b50336001600160a01b0390911603610be8575f805160206133568339815191525460ff811615611f495760ff19165f80516020613356833981519152557f5db9ee0a495bf2e6ff9c91a7834c1ba4fdd244a5e8aa4e537bd38aeae4b073aa6020604051338152a1005b638dfc202b60e01b5f5260045ffd5b611f71915060203d602011610c4757610c398183612642565b81611ee0565b3461022857604036600319011261022857611f906125fb565b336001600160a01b03821603611fac576104ca90600435612bd8565b63334bd91960e11b5f5260045ffd5b3461022857602036600319011261022857600435606e55005b34610228576040366003190112610228576104ca600435611ff36125fb565b906120006104c082612833565b612c1e565b34610228575f366003190112610228575f546040516001600160a01b039091168152602090f35b34610228576020366003190112610228576120456125e5565b61204d612b00565b61205681612f4a565b5f80546001600160a01b0319166001600160a01b0392909216919091179055005b34610228576020366003190112610228576020612095600435612833565b604051908152f35b34610228576020366003190112610228576120b66125e5565b6120be612b49565b6120c781612d81565b6120cd57005b5f805160206133768339815191525f525f805160206132968339815191526020526104ca906001600160a01b03167f46448fd7a7b40360a1323cb3199d0aafeb92ce905bb512a6bb7d3d3f685cf1b161311e565b346102285760a03660031901126102285761213a6125e5565b6121426125fb565b61214a612611565b6064356001600160a01b03811693848203610228576084356001600160a01b03811690819003610228575f805160206133b6833981519152549560ff8760401c1615966001600160401b03811680159081612431575b6001149081612427575b15908161241e575b5061240f5767ffffffffffffffff1981166001175f805160206133b683398151915255876123e3575b506121e4612d56565b6001600160a01b03831694851580156123d2575b80156123ca575b6123bb576122659461223a91612213612d56565b61221c81612f4a565b60018060a01b03166001600160601b0360a01b5f5416175f55612f4a565b6001600160601b0360a01b60015416176001556001600160601b0360a01b6003541617600355612f5a565b61237c575b5061227481612fed565b612321575b5060405161228681612627565b600181526001602082015f81525f805260376020526122b860405f2093511515849060ff801983541691151516179055565b519101556122c4612d56565b6122ca57005b68ff0000000000000000195f805160206133b683398151915254165f805160206133b6833981519152557fc7f505b2f371ae2175ee4913f4499e1f2633a7b5936321eed1cdaeb6115181d2602060405160018152a1005b5f805160206133768339815191525f525f80516020613296833981519152602052612375906001600160a01b03167f46448fd7a7b40360a1323cb3199d0aafeb92ce905bb512a6bb7d3d3f685cf1b16131e3565b5081612279565b5f805160206132d68339815191525f525f805160206132968339815191526020526123b4905f805160206133968339815191526131e3565b508261226a565b63d92e233d60e01b5f5260045ffd5b5082156121ff565b506001600160a01b038716156121f8565b68ffffffffffffffffff191668010000000000000001175f805160206133b683398151915255876121db565b63f92ee8a960e01b5f5260045ffd5b905015896121b2565b303b1591506121aa565b8991506121a0565b34610228576020366003190112610228576124526125e5565b61245a612b00565b600380546001600160a01b0319166001600160a01b0392909216919091179055005b34610228576020366003190112610228576001600160a01b0361249d6125e5565b165f5260376020526040805f20600160ff825416910154825191151582526020820152f35b34610228576020366003190112610228576004356124de6129c7565b5f818152603860205260409020600301541561256657805f52603860205260405f20805460ff811661255357600190612516846129ee565b60ff1916178155600101546001600160a01b03169033907f6e0a97d527a534d3590091587040d4d934863526c2be2dd3d89180017f49ed105f80a4005b82630cef71ed60e21b5f5260045260245ffd5b633d9c511560e11b5f5260045260245ffd5b34610228576020366003190112610228576004359063ffffffff60e01b821680920361022857602091635a05180f60e01b81149081156125ba575b5015158152f35b637965db0b60e01b8114915081156125d4575b50836125b3565b6301ffc9a760e01b149050836125cd565b600435906001600160a01b038216820361022857565b602435906001600160a01b038216820361022857565b604435906001600160a01b038216820361022857565b604081019081106001600160401b038211176108b257604052565b90601f801991011681019081106001600160401b038211176108b257604052565b6001600160401b0381116108b257601f01601f191660200190565b92919261268a82612663565b916126986040519384612642565b829481845281830111610228578281602093845f960137010152565b9080601f83011215610228578160206126cf9335910161267e565b90565b8054821015610b09575f5260205f2001905f90565b6040906003190112610228576004359060243590565b9181601f84011215610228578235916001600160401b038311610228576020838186019501011161022857565b805180835260209291819084018484015e5f828201840152601f01601f1916010190565b90600182811c9216801561277c575b602083101461276857565b634e487b7160e01b5f52602260045260245ffd5b91607f169161275d565b9060405191825f8254926127998461274e565b808452936001811690811561280457506001146127c0575b506127be92500383612642565b565b90505f9291925260205f20905f915b8183106127e85750509060206127be928201015f6127b1565b60209193508060019154838589010152019101909184926127cf565b9050602092506127be94915060ff191682840152151560051b8201015f6127b1565b9060038210156113c15752565b5f525f80516020613336833981519152602052600160405f20015490565b60405190612860604083612642565b601982527f4554484f535f494e544552414354494f4e5f434f4e54524f4c000000000000006020830152565b9081602091031261022857516001600160a01b03811681036102285790565b90816020910312610228575180151581036102285790565b903590601e198136030182121561022857018035906001600160401b0382116102285760200191813603831361022857565b908060209392818452848401375f828201840152601f01601f1916010190565b929061292e906126cf95936040865260408601916128f5565b9260208185039101526128f5565b601f821161294957505050565b5f5260205f20906020601f840160051c83019310612981575b601f0160051c01905b818110612976575050565b5f815560010161296b565b9091508190612962565b805490600160401b8210156108b257816129ad9160016129c3940181556126d2565b819391549060031b91821b915f19901b19161790565b9055565b60ff5f8051602061335683398151915254166129df57565b63d93c066560e01b5f5260045ffd5b602460206001600160a01b03612a02612c60565b166040519283809263b8861c2360e01b82523360048301525afa908115610c4e575f91612ace575b506001600160a01b03612a3b612c60565b1690825f526038602052602060018060a01b0360405f205460101c1660246040518095819363b8861c2360e01b835260048301525afa918215610c4e575f92612a9a575b5003612a885750565b63c43bcfe160e01b5f5260045260245ffd5b9091506020813d602011612ac6575b81612ab660209383612642565b810103126102285751905f612a7f565b3d9150612aa9565b90506020813d602011612af8575b81612ae960209383612642565b8101031261022857515f612a2a565b3d9150612adc565b335f9081525f805160206132b6833981519152602052604090205460ff1615612b2557565b63e2517d3f60e01b5f52336004525f8051602061337683398151915260245260445ffd5b335f9081525f80516020613316833981519152602052604090205460ff1615612b6e57565b63e2517d3f60e01b5f52336004525f805160206132d683398151915260245260445ffd5b5f8181525f805160206133368339815191526020908152604080832033845290915290205460ff1615612bc25750565b63e2517d3f60e01b5f523360045260245260445ffd5b612be28282612ea8565b9182612bed57505090565b5f9182525f805160206132968339815191526020526040909120612c1a916001600160a01b03169061311e565b5090565b612c288282613080565b9182612c3357505090565b5f9182525f805160206132968339815191526020526040909120612c1a916001600160a01b0316906131e3565b612cba602060018060a01b036003541660405190612c7f604083612642565b600d82526c4554484f535f50524f46494c4560981b83830152604051808095819463d57f7aa360e01b8352866004840152602483019061272a565b03915afa908115610c4e575f91612cd9575b506001600160a01b031690565b612cf2915060203d602011610c4757610c398183612642565b5f612ccc565b612cba602060018060a01b036003541660405190612d17604083612642565b601182527022aa2427a9afa0aa2a22a9aa20aa24a7a760791b83830152604051808095819463d57f7aa360e01b8352866004840152602483019061272a565b60ff5f805160206133b68339815191525460401c1615612d7257565b631afcd79f60e31b5f5260045ffd5b6001600160a01b0381165f9081525f805160206132b6833981519152602052604090205460ff1615612e12576001600160a01b03165f8181525f805160206132b683398151915260205260408120805460ff191690553391905f80516020613376833981519152907ff6391f5c32d9c69d2a47ea670b442974b53935d1edc7fd64eb21e047a839171b9080a4600190565b505f90565b6001600160a01b0381165f9081525f80516020613316833981519152602052604090205460ff1615612e12576001600160a01b03165f8181525f8051602061331683398151915260205260408120805460ff191690553391905f805160206132d6833981519152907ff6391f5c32d9c69d2a47ea670b442974b53935d1edc7fd64eb21e047a839171b9080a4600190565b5f8181525f80516020613336833981519152602090815260408083206001600160a01b038616845290915290205460ff1615612f44575f8181525f80516020613336833981519152602090815260408083206001600160a01b0395909516808452949091528120805460ff19169055339291907ff6391f5c32d9c69d2a47ea670b442974b53935d1edc7fd64eb21e047a839171b9080a4600190565b50505f90565b6001600160a01b0316156123bb57565b6001600160a01b0381165f9081525f80516020613316833981519152602052604090205460ff16612e12576001600160a01b03165f8181525f8051602061331683398151915260205260408120805460ff191660011790553391905f805160206132d6833981519152907f2f8788117e7eff1d82e926ec794901d17c78024a50270940304540a733656f0d9080a4600190565b6001600160a01b0381165f9081525f805160206132b6833981519152602052604090205460ff16612e12576001600160a01b03165f8181525f805160206132b683398151915260205260408120805460ff191660011790553391905f80516020613376833981519152907f2f8788117e7eff1d82e926ec794901d17c78024a50270940304540a733656f0d9080a4600190565b5f8181525f80516020613336833981519152602090815260408083206001600160a01b038616845290915290205460ff16612f44575f8181525f80516020613336833981519152602090815260408083206001600160a01b0395909516808452949091528120805460ff19166001179055339291907f2f8788117e7eff1d82e926ec794901d17c78024a50270940304540a733656f0d9080a4600190565b906001820191815f528260205260405f20548015155f146131db575f1981018181116111d25782545f198101919082116111d2578181036131a6575b50505080548015613192575f19019061317382826126d2565b8154905f199060031b1b19169055555f526020525f6040812055600190565b634e487b7160e01b5f52603160045260245ffd5b6131c66131b66129ad93866126d2565b90549060031b1c928392866126d2565b90555f528360205260405f20555f808061315a565b505050505f90565b6001810190825f528160205260405f2054155f14613230578054600160401b8110156108b25761321d6129ad8260018794018555846126d2565b905554915f5260205260405f2055600190565b5050505f90565b9061325b575080511561324c57805190602001fd5b63d6bda27560e01b5f5260045ffd5b8151158061328c575b61326c575090565b639996b31560e01b5f9081526001600160a01b0391909116600452602490fd5b50803b1561326456fec1f6fe24621ce81ec5827caf0253cadb74709b061630e6b55e82371705932000b16e88c42fd4e48df2dd6a2eabd6bc9aec654ec170056b470819f8892cc6431cb19546dff01e856fb3f010c267a7b1c60363cf8a4664e21cc89c26224620214e360894a13ba1a3210667c828492db98dca3e2076cc3735a920a3ca505d382bbcc32d4dc01d07c436ad8a6f9a20eadd61263c71fe16f6b5956005ba3b341f51dd02dd7bc7dec4dceedda775e58dd541e08a116c6c53815c0bd028192f7b626800cd5ed15c6e187e77e9aee88184c21f4f2182ab5827cb3b7e07fbedcd63f03300a49807205ce4d355092ef5a8a18f56e8913cf4a201fbe287825b095693c21775008963063c520970ed64c693e920074e4588acd3631097247bb3559890ad6a67f0c57e16840df040f15088dc2f81fe391c3923bec73e23a9662efc9c229c6a00a264697066735822122068cb8bc5722a184a0e8877d2f8f5501399700248aaa6843a90b1e50ce7b428b964736f6c634300081a0033","linkReferences":{}},"methodIdentifiers":{"ADMIN_ROLE()":"75b238fc","DEFAULT_ADMIN_ROLE()":"a217fddf","OWNER_ROLE()":"e58378bb","UPGRADE_INTERFACE_VERSION()":"ad3cb1cc","addAdmin(address)":"70480275","addReview(uint8,address,address,string,string,(string,string))":"7b95e94e","archiveReview(uint256)":"03f6e47f","contractAddressManager()":"ade9ae97","editReview(uint256,string,string)":"9c4d5d5f","expectedSigner()":"2cb3e494","getRoleAdmin(bytes32)":"248a9ca3","getRoleMember(bytes32,uint256)":"9010d07c","getRoleMemberCount(bytes32)":"ca15c873","getRoleMembers(bytes32)":"a3246ad3","grantRole(bytes32,address)":"2f2ff15d","hasRole(bytes32,address)":"91d14854","initialize(address,address,address,address,address)":"1459457a","pause()":"8456cb59","paused()":"5c975abb","proxiableUUID()":"52d1902d","removeAdmin(address)":"1785f53c","renounceRole(bytes32,address)":"36568abe","restoreReview(uint256)":"e070b805","reviewCount()":"eff5924f","reviewIdsByAttestationHash(bytes32,uint256)":"725641ac","reviewIdsByAuthorAddress(address,uint256)":"f3300ce7","reviewIdsBySubjectAddress(address,uint256)":"62322499","reviewPrice(address)":"04515c29","reviews(uint256)":"e83ddcea","revokeRole(bytes32,address)":"d547741f","setReviewPrice(bool,address,uint256)":"6821435a","setTestValue(uint256)":"35960105","signatureUsed(bytes)":"bb10c829","signatureVerifier()":"fde919f6","supportsInterface(bytes4)":"01ffc9a7","targetExistsAndAllowedForId(uint256)":"a12c64b5","testValue()":"8af5de72","unpause()":"3f4ba83a","updateContractAddressManager(address)":"08473f64","updateExpectedSigner(address)":"2bdd87ff","updateOwner(address)":"880cdc31","updateSignatureVerifier(address)":"5667981b","upgradeToAndCall(address,bytes)":"4f1ef286","withdrawFunds(address)":"68742da6"},"id":139}