{"abi":[{"type":"constructor","inputs":[],"stateMutability":"nonpayable"},{"type":"function","name":"ADMIN_ROLE","inputs":[],"outputs":[{"name":"","type":"bytes32","internalType":"bytes32"}],"stateMutability":"view"},{"type":"function","name":"DEFAULT_ADMIN_ROLE","inputs":[],"outputs":[{"name":"","type":"bytes32","internalType":"bytes32"}],"stateMutability":"view"},{"type":"function","name":"OWNER_ROLE","inputs":[],"outputs":[{"name":"","type":"bytes32","internalType":"bytes32"}],"stateMutability":"view"},{"type":"function","name":"UPGRADE_INTERFACE_VERSION","inputs":[],"outputs":[{"name":"","type":"string","internalType":"string"}],"stateMutability":"view"},{"type":"function","name":"addAdmin","inputs":[{"name":"admin","type":"address","internalType":"address"}],"outputs":[],"stateMutability":"nonpayable"},{"type":"function","name":"addReply","inputs":[{"name":"targetContract","type":"address","internalType":"address"},{"name":"targetId","type":"uint256","internalType":"uint256"},{"name":"content","type":"string","internalType":"string"},{"name":"metadata","type":"string","internalType":"string"}],"outputs":[],"stateMutability":"nonpayable"},{"type":"function","name":"contractAddressManager","inputs":[],"outputs":[{"name":"","type":"address","internalType":"contract IContractAddressManager"}],"stateMutability":"view"},{"type":"function","name":"directRepliesInRange","inputs":[{"name":"targetContract","type":"address","internalType":"address"},{"name":"parentId","type":"uint256","internalType":"uint256"},{"name":"fromIdx","type":"uint256","internalType":"uint256"},{"name":"maxLength","type":"uint256","internalType":"uint256"}],"outputs":[{"name":"result","type":"tuple[]","internalType":"struct EthosDiscussion.Reply[]","components":[{"name":"parentIsOriginalComment","type":"bool","internalType":"bool"},{"name":"targetContract","type":"address","internalType":"address"},{"name":"authorProfileId","type":"uint256","internalType":"uint256"},{"name":"id","type":"uint256","internalType":"uint256"},{"name":"parentId","type":"uint256","internalType":"uint256"},{"name":"createdAt","type":"uint256","internalType":"uint256"},{"name":"edits","type":"uint256","internalType":"uint256"},{"name":"content","type":"string","internalType":"string"},{"name":"metadata","type":"string","internalType":"string"}]}],"stateMutability":"view"},{"type":"function","name":"directReplyCount","inputs":[{"name":"targetContract","type":"address","internalType":"address"},{"name":"targetId","type":"uint256","internalType":"uint256"}],"outputs":[{"name":"count","type":"uint256","internalType":"uint256"}],"stateMutability":"view"},{"type":"function","name":"editReply","inputs":[{"name":"replyId","type":"uint256","internalType":"uint256"},{"name":"content","type":"string","internalType":"string"},{"name":"metadata","type":"string","internalType":"string"}],"outputs":[],"stateMutability":"nonpayable"},{"type":"function","name":"expectedSigner","inputs":[],"outputs":[{"name":"","type":"address","internalType":"address"}],"stateMutability":"view"},{"type":"function","name":"getRoleAdmin","inputs":[{"name":"role","type":"bytes32","internalType":"bytes32"}],"outputs":[{"name":"","type":"bytes32","internalType":"bytes32"}],"stateMutability":"view"},{"type":"function","name":"getRoleMember","inputs":[{"name":"role","type":"bytes32","internalType":"bytes32"},{"name":"index","type":"uint256","internalType":"uint256"}],"outputs":[{"name":"","type":"address","internalType":"address"}],"stateMutability":"view"},{"type":"function","name":"getRoleMemberCount","inputs":[{"name":"role","type":"bytes32","internalType":"bytes32"}],"outputs":[{"name":"","type":"uint256","internalType":"uint256"}],"stateMutability":"view"},{"type":"function","name":"getRoleMembers","inputs":[{"name":"role","type":"bytes32","internalType":"bytes32"}],"outputs":[{"name":"","type":"address[]","internalType":"address[]"}],"stateMutability":"view"},{"type":"function","name":"grantRole","inputs":[{"name":"role","type":"bytes32","internalType":"bytes32"},{"name":"account","type":"address","internalType":"address"}],"outputs":[],"stateMutability":"nonpayable"},{"type":"function","name":"hasRole","inputs":[{"name":"role","type":"bytes32","internalType":"bytes32"},{"name":"account","type":"address","internalType":"address"}],"outputs":[{"name":"","type":"bool","internalType":"bool"}],"stateMutability":"view"},{"type":"function","name":"initialize","inputs":[{"name":"owner","type":"address","internalType":"address"},{"name":"admin","type":"address","internalType":"address"},{"name":"expectedSigner","type":"address","internalType":"address"},{"name":"signatureVerifier","type":"address","internalType":"address"},{"name":"contractAddressManagerAddr","type":"address","internalType":"address"}],"outputs":[],"stateMutability":"nonpayable"},{"type":"function","name":"pause","inputs":[],"outputs":[],"stateMutability":"nonpayable"},{"type":"function","name":"paused","inputs":[],"outputs":[{"name":"","type":"bool","internalType":"bool"}],"stateMutability":"view"},{"type":"function","name":"proxiableUUID","inputs":[],"outputs":[{"name":"","type":"bytes32","internalType":"bytes32"}],"stateMutability":"view"},{"type":"function","name":"removeAdmin","inputs":[{"name":"admin","type":"address","internalType":"address"}],"outputs":[],"stateMutability":"nonpayable"},{"type":"function","name":"renounceRole","inputs":[{"name":"role","type":"bytes32","internalType":"bytes32"},{"name":"callerConfirmation","type":"address","internalType":"address"}],"outputs":[],"stateMutability":"nonpayable"},{"type":"function","name":"repliesByAuthorInRange","inputs":[{"name":"author","type":"uint256","internalType":"uint256"},{"name":"fromIdx","type":"uint256","internalType":"uint256"},{"name":"maxLength","type":"uint256","internalType":"uint256"}],"outputs":[{"name":"result","type":"tuple[]","internalType":"struct EthosDiscussion.Reply[]","components":[{"name":"parentIsOriginalComment","type":"bool","internalType":"bool"},{"name":"targetContract","type":"address","internalType":"address"},{"name":"authorProfileId","type":"uint256","internalType":"uint256"},{"name":"id","type":"uint256","internalType":"uint256"},{"name":"parentId","type":"uint256","internalType":"uint256"},{"name":"createdAt","type":"uint256","internalType":"uint256"},{"name":"edits","type":"uint256","internalType":"uint256"},{"name":"content","type":"string","internalType":"string"},{"name":"metadata","type":"string","internalType":"string"}]}],"stateMutability":"view"},{"type":"function","name":"repliesById","inputs":[{"name":"replyIds","type":"uint256[]","internalType":"uint256[]"}],"outputs":[{"name":"result","type":"tuple[]","internalType":"struct EthosDiscussion.Reply[]","components":[{"name":"parentIsOriginalComment","type":"bool","internalType":"bool"},{"name":"targetContract","type":"address","internalType":"address"},{"name":"authorProfileId","type":"uint256","internalType":"uint256"},{"name":"id","type":"uint256","internalType":"uint256"},{"name":"parentId","type":"uint256","internalType":"uint256"},{"name":"createdAt","type":"uint256","internalType":"uint256"},{"name":"edits","type":"uint256","internalType":"uint256"},{"name":"content","type":"string","internalType":"string"},{"name":"metadata","type":"string","internalType":"string"}]}],"stateMutability":"view"},{"type":"function","name":"replyCount","inputs":[],"outputs":[{"name":"","type":"uint256","internalType":"uint256"}],"stateMutability":"view"},{"type":"function","name":"revokeRole","inputs":[{"name":"role","type":"bytes32","internalType":"bytes32"},{"name":"account","type":"address","internalType":"address"}],"outputs":[],"stateMutability":"nonpayable"},{"type":"function","name":"signatureUsed","inputs":[{"name":"","type":"bytes","internalType":"bytes"}],"outputs":[{"name":"","type":"bool","internalType":"bool"}],"stateMutability":"view"},{"type":"function","name":"signatureVerifier","inputs":[],"outputs":[{"name":"","type":"address","internalType":"address"}],"stateMutability":"view"},{"type":"function","name":"supportsInterface","inputs":[{"name":"interfaceId","type":"bytes4","internalType":"bytes4"}],"outputs":[{"name":"","type":"bool","internalType":"bool"}],"stateMutability":"view"},{"type":"function","name":"targetExistsAndAllowedForId","inputs":[{"name":"targetId","type":"uint256","internalType":"uint256"}],"outputs":[{"name":"exist","type":"bool","internalType":"bool"},{"name":"allowed","type":"bool","internalType":"bool"}],"stateMutability":"view"},{"type":"function","name":"unpause","inputs":[],"outputs":[],"stateMutability":"nonpayable"},{"type":"function","name":"updateContractAddressManager","inputs":[{"name":"contractAddressesAddr","type":"address","internalType":"address"}],"outputs":[],"stateMutability":"nonpayable"},{"type":"function","name":"updateExpectedSigner","inputs":[{"name":"signer","type":"address","internalType":"address"}],"outputs":[],"stateMutability":"nonpayable"},{"type":"function","name":"updateOwner","inputs":[{"name":"owner","type":"address","internalType":"address"}],"outputs":[],"stateMutability":"nonpayable"},{"type":"function","name":"updateSignatureVerifier","inputs":[{"name":"sinatureVerifier","type":"address","internalType":"address"}],"outputs":[],"stateMutability":"nonpayable"},{"type":"function","name":"upgradeToAndCall","inputs":[{"name":"newImplementation","type":"address","internalType":"address"},{"name":"data","type":"bytes","internalType":"bytes"}],"outputs":[],"stateMutability":"payable"},{"type":"event","name":"Initialized","inputs":[{"name":"version","type":"uint64","indexed":false,"internalType":"uint64"}],"anonymous":false},{"type":"event","name":"Paused","inputs":[{"name":"account","type":"address","indexed":false,"internalType":"address"}],"anonymous":false},{"type":"event","name":"ReplyAdded","inputs":[{"name":"author","type":"uint256","indexed":false,"internalType":"uint256"},{"name":"targetContract","type":"address","indexed":true,"internalType":"address"},{"name":"replyId","type":"uint256","indexed":true,"internalType":"uint256"}],"anonymous":false},{"type":"event","name":"ReplyEdited","inputs":[{"name":"author","type":"uint256","indexed":false,"internalType":"uint256"},{"name":"replyId","type":"uint256","indexed":false,"internalType":"uint256"}],"anonymous":false},{"type":"event","name":"RoleAdminChanged","inputs":[{"name":"role","type":"bytes32","indexed":true,"internalType":"bytes32"},{"name":"previousAdminRole","type":"bytes32","indexed":true,"internalType":"bytes32"},{"name":"newAdminRole","type":"bytes32","indexed":true,"internalType":"bytes32"}],"anonymous":false},{"type":"event","name":"RoleGranted","inputs":[{"name":"role","type":"bytes32","indexed":true,"internalType":"bytes32"},{"name":"account","type":"address","indexed":true,"internalType":"address"},{"name":"sender","type":"address","indexed":true,"internalType":"address"}],"anonymous":false},{"type":"event","name":"RoleRevoked","inputs":[{"name":"role","type":"bytes32","indexed":true,"internalType":"bytes32"},{"name":"account","type":"address","indexed":true,"internalType":"address"},{"name":"sender","type":"address","indexed":true,"internalType":"address"}],"anonymous":false},{"type":"event","name":"Unpaused","inputs":[{"name":"account","type":"address","indexed":false,"internalType":"address"}],"anonymous":false},{"type":"event","name":"Upgraded","inputs":[{"name":"implementation","type":"address","indexed":true,"internalType":"address"}],"anonymous":false},{"type":"error","name":"AccessControlBadConfirmation","inputs":[]},{"type":"error","name":"AccessControlUnauthorizedAccount","inputs":[{"name":"account","type":"address","internalType":"address"},{"name":"neededRole","type":"bytes32","internalType":"bytes32"}]},{"type":"error","name":"AddressEmptyCode","inputs":[{"name":"target","type":"address","internalType":"address"}]},{"type":"error","name":"ERC1967InvalidImplementation","inputs":[{"name":"implementation","type":"address","internalType":"address"}]},{"type":"error","name":"ERC1967NonPayable","inputs":[]},{"type":"error","name":"EnforcedPause","inputs":[]},{"type":"error","name":"ExpectedPause","inputs":[]},{"type":"error","name":"FailedCall","inputs":[]},{"type":"error","name":"InvalidInitialization","inputs":[]},{"type":"error","name":"InvalidSignature","inputs":[]},{"type":"error","name":"NoReplyFound","inputs":[{"name":"replyId","type":"uint256","internalType":"uint256"}]},{"type":"error","name":"NotInitializing","inputs":[]},{"type":"error","name":"OnlyAuthorCanEdit","inputs":[]},{"type":"error","name":"SignatureWasUsed","inputs":[]},{"type":"error","name":"TargetNotFound","inputs":[{"name":"targetContract","type":"address","internalType":"address"},{"name":"targetId","type":"uint256","internalType":"uint256"}]},{"type":"error","name":"UUPSUnauthorizedCallContext","inputs":[]},{"type":"error","name":"UUPSUnsupportedProxiableUUID","inputs":[{"name":"slot","type":"bytes32","internalType":"bytes32"}]},{"type":"error","name":"ZeroAddress","inputs":[]}],"bytecode":{"object":"0x60a06040523461003c57610011610040565b3060805261001d610040565b604051612b4890816100fd82396080518181816113bf01526114500152f35b5f80fd5b7ff0c57e16840df040f15088dc2f81fe391c3923bec73e23a9662efc9c229c6a005460ff8160401c166100ed576002600160401b03196001600160401b038216016100885750565b6001600160401b0319166001600160401b039081177ff0c57e16840df040f15088dc2f81fe391c3923bec73e23a9662efc9c229c6a00556040519081527fc7f505b2f371ae2175ee4913f4499e1f2633a7b5936321eed1cdaeb6115181d290602090a1565b63f92ee8a960e01b5f5260045ffdfe6080806040526004361015610012575f80fd5b5f3560e01c90816301ffc9a714611bf65750806308473f6414611bb35780631459457a146118a55780631785f53c146118215780631f786ffc146117f1578063248a9ca3146117cb5780632bdd87ff146117805780632cb3e494146117595780632f2ff15d1461172857806336568abe146116e45780633f4ba83a146116105780634f1ef2861461141357806352d1902d146113ad57806355c0f037146113695780635667981b1461131d5780635c975abb146112ef578063704802751461126b57806375b238fc146112445780637bdfc31d146112135780637ea7601e14610e475780638456cb5914610d26578063880cdc3114610c0b5780639010d07c14610bb9578063916a038614610b9c57806391d1485414610b47578063a12c64b514610b14578063a217fddf14610afa578063a3246ad314610a3f578063ad3cb1cc146109f8578063ade9ae97146109d0578063bb10c82914610976578063c0a7396914610817578063ca15c873146107e1578063d547741f146107a9578063e58378bb14610782578063f2e2c693146101df5763fde919f6146101b3575f80fd5b346101db575f3660031901126101db576001546040516001600160a01b039091168152602090f35b5f80fd5b346101db5760803660031901126101db576101f8611c63565b602435906044356001600160401b0381116101db5761021b903690600401611ddd565b90606435906001600160401b0382116101db5761023f61028b923690600401611ddd565b906102498161236c565b61025161244c565b6003546020906001600160a01b031661026861220a565b90604051808097819463d57f7aa360e01b83528660048401526024830190611c8f565b03915afa928315610716576024936020915f91610755575b5060405163b8861c2360e01b815233600482015294859182906001600160a01b03165afa928315610716575f93610721575b506001600160a01b03169230841490811561068957855f526037602052600460405f20015415610672575b60365495855f52603960205260405f20815f526020526103238760405f20612258565b845f5260386020526103388760405f20612258565b6040519261034584611d85565b15835260208084018781526040808601888152606087018b8152608088019586524260a089019081525f60c08a0181815260e08b01998a526101008b019b8c528e82526037909752939093209751885494516001600160a81b031990951660ff911515919091161760089490941b610100600160a81b031693909317875551600187015590516002860155915160038501559051600484015551600583015551805160068301916001600160401b0382116105a7576104048354611ef5565b601f811161062d575b50602090601f83116001146105c6576007949392915f91836105bb575b50508160011b915f199060031b1c19161790555b0190518051906001600160401b0382116105a75761045c8354611ef5565b601f8111610562575b50602090601f83116001146104da579180602094927fd7dbc204867e6f66a76b882103db624d7ede8b21cf74c0a2c9a28557bf386add96945f926104cf575b50508160011b915f199060031b1c19161790555b604051908152a36104ca603654612235565b603655005b0151905088806104a4565b90601f19831691845f52815f20925f5b81811061054a57509260019285927fd7dbc204867e6f66a76b882103db624d7ede8b21cf74c0a2c9a28557bf386add98966020989610610532575b505050811b0190556104b8565b01515f1960f88460031b161c19169055888080610525565b929360206001819287860151815501950193016104ea565b835f5260205f20601f840160051c8101916020851061059d575b601f0160051c01905b8181106105925750610465565b5f8155600101610585565b909150819061057c565b634e487b7160e01b5f52604160045260245ffd5b01519050898061042a565b90601f19831691845f52815f20925f5b8181106106155750916001939185600798979694106105fd575b505050811b01905561043e565b01515f1960f88460031b161c191690558980806105f0565b929360206001819287860151815501950193016105d6565b835f5260205f20601f840160051c81019160208510610668575b601f0160051c01905b81811061065d575061040d565b5f8155600101610650565b9091508190610647565b8585633f2dc18160e11b5f5260045260245260445ffd5b60405163a12c64b560e01b8152866004820152604081602481895afa908115610716575f916106cf575b50610300578585633f2dc18160e11b5f5260045260245260445ffd5b90506040813d60401161070e575b816106ea60409383611da1565b810103126101db5761070760206107008361249d565b920161249d565b50876106b3565b3d91506106dd565b6040513d5f823e3d90fd5b9092506020813d60201161074d575b8161073d60209383611da1565b810103126101db575191856102d5565b3d9150610730565b6107759150823d841161077b575b61076d8183611da1565b81019061211c565b876102a3565b503d610763565b346101db575f3660031901126101db5760206040515f80516020612a138339815191528152f35b346101db5760403660031901126101db576107df6004356107c8611c79565b906107da6107d5826120c3565b612326565b61237c565b005b346101db5760203660031901126101db576004355f525f805160206129d3833981519152602052602060405f2054604051908152f35b346101db5760203660031901126101db576004356001600160401b0381116101db57366023820112156101db5780600401359061085382611e21565b916108616040519384611da1565b8083526024602084019160051b830101913683116101db57602401905b82821061096657836108908151611e38565b905f5b815181101561095457806108a960019284611ee1565b516108b381612473565b5f52603760205260405f206109326007604051926108d084611d85565b805460ff811615158552868060a01b039060081c1660208501528581015460408501526002810154606085015260038101546080850152600481015460a0850152600581015460c085015261092760068201611f2d565b60e085015201611f2d565b6101008201526109428286611ee1565b5261094d8185611ee1565b5001610893565b604051806109628582611cb3565b0390f35b813581526020918201910161087e565b346101db5760203660031901126101db576004356001600160401b0381116101db5760ff6020806109ac81943690600401611ddd565b604051928184925191829101835e8101600281520301902054166040519015158152f35b346101db575f3660031901126101db576003546040516001600160a01b039091168152602090f35b346101db575f3660031901126101db57610962604051610a19604082611da1565b60058152640352e302e360dc1b6020820152604051918291602083526020830190611c8f565b346101db5760203660031901126101db576004355f525f805160206129d383398151915260205260405f20604051806020835491828152019081935f5260205f20905f5b818110610ae45750505081610a99910382611da1565b604051918291602083019060208452518091526040830191905f5b818110610ac2575050500390f35b82516001600160a01b0316845285945060209384019390920191600101610ab4565b8254845260209093019260019283019201610a83565b346101db575f3660031901126101db5760206040515f8152f35b346101db5760203660031901126101db576004355f52603760205260406004815f20015415158151908082526020820152f35b346101db5760403660031901126101db57610b60611c79565b6004355f525f80516020612a7383398151915260205260405f209060018060a01b03165f52602052602060ff60405f2054166040519015158152f35b346101db575f3660031901126101db576020603654604051908152f35b346101db5760403660031901126101db576004355f525f805160206129d38339815191526020526020610bf260405f2060243590612243565b905460405160039290921b1c6001600160a01b03168152f35b346101db5760203660031901126101db57610c24611c63565b610c2c6122dd565b5f80516020612a138339815191525f525f805160206129d38339815191526020525f80516020612ad3833981519152805415610d12575f90815260209020546001600160a01b0316610c7d8161256b565b610cd3575b50610c8c8161269e565b610c9257005b5f80516020612a138339815191525f525f805160206129d38339815191526020526107df906001600160a01b03165f80516020612ad3833981519152612927565b5f80516020612a138339815191525f525f805160206129d3833981519152602052610d0b905f80516020612ad3833981519152612862565b5081610c82565b634e487b7160e01b5f52603260045260245ffd5b346101db575f3660031901126101db57600354610d74906020906001600160a01b0316610d516120e1565b90604051808095819463d57f7aa360e01b83528660048401526024830190611c8f565b03915afa908115610716575f91610e28575b50336001600160a01b0390911603610df157610da061244c565b600160ff195f80516020612a938339815191525416175f80516020612a93833981519152557f62e78cea01bee320cd4e420270b5ea74000d11b0c9f74754ebdbfc544b05a2586020604051338152a1005b63e2517d3f60e01b5f52336004527f261fea28325784de45eba41a3fbb84c4196fbab02ee802566edfe26616ba5afb60245260445ffd5b610e41915060203d60201161077b5761076d8183611da1565b81610d86565b346101db5760603660031901126101db576004356024356001600160401b0381116101db57610e7a903690600401611ddd565b90604435906001600160401b0382116101db57610e9e610ea7923690600401611ddd565b9261025161244c565b03915afa928315610716576024936020915f916111f6575b5060405163b8861c2360e01b815233600482015294859182906001600160a01b03165afa928315610716575f936111c2575b50610efb82612473565b815f52603760205282600160405f200154036111b357815f526037602052600660405f2001908051906001600160401b0382116105a7578190610f3e8454611ef5565b601f8111611163575b50602090601f8311600114611100575f926110f5575b50508160011b915f199060031b1c19161790555b805f526037602052600760405f200183516001600160401b0381116105a757610f9a8254611ef5565b601f81116110b0575b506020601f82116001146110285790806040959493927fe0857c7936e666a3506059b3a1cb34a6140a9b35298ce54fb483fda8f26db8dc975f9261101d575b50508160011b915f199060031b1c19161790555b805f5260376020526005835f200161100e8154612235565b905582519182526020820152a1005b015190508780610fe2565b601f19821695835f52815f20965f5b81811061109857509660019284926040989796957fe0857c7936e666a3506059b3a1cb34a6140a9b35298ce54fb483fda8f26db8dc9a10611080575b505050811b019055610ff6565b01515f1960f88460031b161c19169055878080611073565b83830151895560019098019760209384019301611037565b825f5260205f20601f830160051c810191602084106110eb575b601f0160051c01905b8181106110e05750610fa3565b5f81556001016110d3565b90915081906110ca565b015190508680610f5d565b5f8581528281209350601f198516905b81811061114b5750908460019594939210611133575b505050811b019055610f71565b01515f1960f88460031b161c19169055868080611126565b92936020600181928786015181550195019301611110565b909150835f5260205f20601f840160051c810191602085106111a9575b90601f859493920160051c01905b81811061119b5750610f47565b5f815584935060010161118e565b9091508190611180565b639b29373160e01b5f5260045ffd5b9092506020813d6020116111ee575b816111de60209383611da1565b810103126101db57519184610ef1565b3d91506111d1565b61120d9150823d841161077b5761076d8183611da1565b86610ebf565b346101db5760603660031901126101db5761096261123860443560243560043561213b565b60405191829182611cb3565b346101db575f3660031901126101db5760206040515f80516020612ab38339815191528152f35b346101db5760203660031901126101db57611284611c63565b61128c6122dd565b61129581612731565b61129b57005b5f80516020612ab38339815191525f525f805160206129d38339815191526020526107df906001600160a01b03167f46448fd7a7b40360a1323cb3199d0aafeb92ce905bb512a6bb7d3d3f685cf1b1612927565b346101db575f3660031901126101db57602060ff5f80516020612a9383398151915254166040519015158152f35b346101db5760203660031901126101db57611336611c63565b61133e612294565b6113478161236c565b600180546001600160a01b0319166001600160a01b0392909216919091179055005b346101db5760403660031901126101db576001600160a01b0361138a611c63565b165f52603960205260405f206024355f52602052602060405f2054604051908152f35b346101db575f3660031901126101db577f00000000000000000000000000000000000000000000000000000000000000006001600160a01b031630036114045760206040515f80516020612a338339815191528152f35b63703e46dd60e11b5f5260045ffd5b60403660031901126101db57611427611c63565b6024356001600160401b0381116101db57611446903690600401611ddd565b6001600160a01b037f0000000000000000000000000000000000000000000000000000000000000000163081149081156115ee575b50611404576114886122dd565b6114918261236c565b6040516352d1902d60e01b81526001600160a01b0383169290602081600481875afa5f91816115ba575b506114d35783634c9c8ce360e01b5f5260045260245ffd5b805f80516020612a338339815191528592036115a85750813b15611596575f80516020612a3383398151915280546001600160a01b031916821790557fbc7cd75a20ee27fd9adebab32041f755214dbc6bffa90cc0225b39da2e5c2d3b5f80a281511561157e575f808360206107df95519101845af43d15611576573d9161155a83611dc2565b926115686040519485611da1565b83523d5f602085013e612974565b606091612974565b50503461158757005b63b398979f60e01b5f5260045ffd5b634c9c8ce360e01b5f5260045260245ffd5b632a87526960e21b5f5260045260245ffd5b9091506020813d6020116115e6575b816115d660209383611da1565b810103126101db575190856114bb565b3d91506115c9565b5f80516020612a33833981519152546001600160a01b0316141590508361147b565b346101db575f3660031901126101db5760035461163b906020906001600160a01b0316610d516120e1565b03915afa908115610716575f916116c5575b50336001600160a01b0390911603610df1575f80516020612a938339815191525460ff8116156116b65760ff19165f80516020612a93833981519152557f5db9ee0a495bf2e6ff9c91a7834c1ba4fdd244a5e8aa4e537bd38aeae4b073aa6020604051338152a1005b638dfc202b60e01b5f5260045ffd5b6116de915060203d60201161077b5761076d8183611da1565b8161164d565b346101db5760403660031901126101db576116fd611c79565b336001600160a01b03821603611719576107df9060043561237c565b63334bd91960e11b5f5260045ffd5b346101db5760403660031901126101db576107df600435611747611c79565b906117546107d5826120c3565b61240a565b346101db575f3660031901126101db575f546040516001600160a01b039091168152602090f35b346101db5760203660031901126101db57611799611c63565b6117a1612294565b6117aa8161236c565b5f80546001600160a01b0319166001600160a01b0392909216919091179055005b346101db5760203660031901126101db5760206117e96004356120c3565b604051908152f35b346101db5760803660031901126101db57610962611238611810611c63565b606435906044359060243590611fcd565b346101db5760203660031901126101db5761183a611c63565b6118426122dd565b61184b816124d5565b61185157005b5f80516020612ab38339815191525f525f805160206129d38339815191526020526107df906001600160a01b03167f46448fd7a7b40360a1323cb3199d0aafeb92ce905bb512a6bb7d3d3f685cf1b1612862565b346101db5760a03660031901126101db576118be611c63565b6118c6611c79565b6044356001600160a01b03811681036101db576064356001600160a01b038116938482036101db57608435946001600160a01b038616908187036101db575f80516020612af38339815191525460ff8160401c1615976001600160401b03821680159081611bab575b6001149081611ba1575b159081611b98575b50611b895767ffffffffffffffff1982166001175f80516020612af3833981519152556119989189611b5d575b506119788561236c565b6119818861236c565b61198a8761236c565b6119938661236c565b61236c565b6119a06124aa565b6001600160a01b0383169485158015611b4c575b8015611b44575b611b3557611a21946119f6916119cf6124aa565b6119d88161236c565b60018060a01b03166001600160601b0360a01b5f5416175f5561236c565b6001600160601b0360a01b60015416176001556001600160601b0360a01b600354161760035561269e565b611af6575b50611a3081612731565b611a9b575b50611a3e6124aa565b611a4457005b68ff0000000000000000195f80516020612af383398151915254165f80516020612af3833981519152557fc7f505b2f371ae2175ee4913f4499e1f2633a7b5936321eed1cdaeb6115181d2602060405160018152a1005b5f80516020612ab38339815191525f525f805160206129d3833981519152602052611aef906001600160a01b03167f46448fd7a7b40360a1323cb3199d0aafeb92ce905bb512a6bb7d3d3f685cf1b1612927565b5081611a35565b5f80516020612a138339815191525f525f805160206129d3833981519152602052611b2e905f80516020612ad3833981519152612927565b5082611a26565b63d92e233d60e01b5f5260045ffd5b5082156119bb565b506001600160a01b038716156119b4565b68ffffffffffffffffff191668010000000000000001175f80516020612af3833981519152558961196e565b63f92ee8a960e01b5f5260045ffd5b9050158a611941565b303b159150611939565b8a915061192f565b346101db5760203660031901126101db57611bcc611c63565b611bd4612294565b600380546001600160a01b0319166001600160a01b0392909216919091179055005b346101db5760203660031901126101db576004359063ffffffff60e01b82168092036101db57602091635a05180f60e01b8114908115611c38575b5015158152f35b637965db0b60e01b811491508115611c52575b5083611c31565b6301ffc9a760e01b14905083611c4b565b600435906001600160a01b03821682036101db57565b602435906001600160a01b03821682036101db57565b805180835260209291819084018484015e5f828201840152601f01601f1916010190565b602081016020825282518091526040820191602060408360051b8301019401925f915b838310611ce557505050505090565b9091929394602080611d76600193603f19868203018752895190815115158152858060a01b0384830151168482015260408201516040820152606082015160608201526080820151608082015260a082015160a082015260c082015160c0820152610100611d6460e084015161012060e0850152610120840190611c8f565b92015190610100818403910152611c8f565b97019301930191939290611cd6565b61012081019081106001600160401b038211176105a757604052565b90601f801991011681019081106001600160401b038211176105a757604052565b6001600160401b0381116105a757601f01601f191660200190565b81601f820112156101db57602081359101611df782611dc2565b92611e056040519485611da1565b828452828201116101db57815f92602092838601378301015290565b6001600160401b0381116105a75760051b60200190565b90611e4282611e21565b611e4f6040519182611da1565b8281528092611e60601f1991611e21565b01905f5b828110611e7057505050565b602090604051611e7f81611d85565b5f81525f838201525f60408201525f60608201525f60808201525f60a08201525f60c0820152606060e0820152606061010082015282828501015201611e64565b91908201809211611ecd57565b634e487b7160e01b5f52601160045260245ffd5b8051821015610d125760209160051b010190565b90600182811c92168015611f23575b6020831014611f0f57565b634e487b7160e01b5f52602260045260245ffd5b91607f1691611f04565b9060405191825f825492611f4084611ef5565b8084529360018116908115611fab5750600114611f67575b50611f6592500383611da1565b565b90505f9291925260205f20905f915b818310611f8f575050906020611f65928201015f611f58565b6020919350806001915483858901015201910190918492611f76565b905060209250611f6594915060ff191682840152151560051b8201015f611f58565b9392919360018060a01b03165f52603960205260405f20905f5260205260405f208360405192838094602085549182815201945f5260205f20905f5b8181106120a75750505061202290612029940385611da1565b83516123c2565b90811561209f5761203982611e38565b935f5b8381106120495750505050565b8061205f61205960019385611ec0565b85611ee1565b515f52603760205260405f2061207d6007604051926108d084611d85565b61010082015261208d8289611ee1565b526120988188611ee1565b500161203c565b506060925050565b8254875260209096019589955087935060019283019201612009565b5f525f80516020612a73833981519152602052600160405f20015490565b604051906120f0604083611da1565b601982527f4554484f535f494e544552414354494f4e5f434f4e54524f4c000000000000006020830152565b908160209103126101db57516001600160a01b03811681036101db5790565b929190925f52603860205260405f208360405192838094602085549182815201945f5260205f20905f5b8181106121ee575050506120229061217e940385611da1565b90811561209f5761218e82611e38565b935f5b83811061219e5750505050565b806121ae61205960019385611ec0565b515f52603760205260405f206121cc6007604051926108d084611d85565b6101008201526121dc8289611ee1565b526121e78188611ee1565b5001612191565b8254875260209096019589955087935060019283019201612165565b60405190612219604083611da1565b600d82526c4554484f535f50524f46494c4560981b6020830152565b5f198114611ecd5760010190565b8054821015610d12575f5260205f2001905f90565b805490600160401b8210156105a7578161227a91600161229094018155612243565b819391549060031b91821b915f19901b19161790565b9055565b335f9081525f805160206129f3833981519152602052604090205460ff16156122b957565b63e2517d3f60e01b5f52336004525f80516020612ab383398151915260245260445ffd5b335f9081525f80516020612a53833981519152602052604090205460ff161561230257565b63e2517d3f60e01b5f52336004525f80516020612a1383398151915260245260445ffd5b5f8181525f80516020612a738339815191526020908152604080832033845290915290205460ff16156123565750565b63e2517d3f60e01b5f523360045260245260445ffd5b6001600160a01b031615611b3557565b61238682826125fc565b918261239157505090565b5f9182525f805160206129d383398151915260205260409091206123be916001600160a01b031690612862565b5090565b9182158015612402575b80156123f8575b6123f1578203918211611ecd57818111156123ec575090565b905090565b5050505f90565b50828110156123d3565b5081156123cc565b61241482826127c4565b918261241f57505090565b5f9182525f805160206129d383398151915260205260409091206123be916001600160a01b031690612927565b60ff5f80516020612a93833981519152541661246457565b63d93c066560e01b5f5260045ffd5b805f526037602052600460405f2001541561248b5750565b63f3a4dddd60e01b5f5260045260245ffd5b519081151582036101db57565b60ff5f80516020612af38339815191525460401c16156124c657565b631afcd79f60e31b5f5260045ffd5b6001600160a01b0381165f9081525f805160206129f3833981519152602052604090205460ff1615612566576001600160a01b03165f8181525f805160206129f383398151915260205260408120805460ff191690553391905f80516020612ab3833981519152907ff6391f5c32d9c69d2a47ea670b442974b53935d1edc7fd64eb21e047a839171b9080a4600190565b505f90565b6001600160a01b0381165f9081525f80516020612a53833981519152602052604090205460ff1615612566576001600160a01b03165f8181525f80516020612a5383398151915260205260408120805460ff191690553391905f80516020612a13833981519152907ff6391f5c32d9c69d2a47ea670b442974b53935d1edc7fd64eb21e047a839171b9080a4600190565b5f8181525f80516020612a73833981519152602090815260408083206001600160a01b038616845290915290205460ff1615612698575f8181525f80516020612a73833981519152602090815260408083206001600160a01b0395909516808452949091528120805460ff19169055339291907ff6391f5c32d9c69d2a47ea670b442974b53935d1edc7fd64eb21e047a839171b9080a4600190565b50505f90565b6001600160a01b0381165f9081525f80516020612a53833981519152602052604090205460ff16612566576001600160a01b03165f8181525f80516020612a5383398151915260205260408120805460ff191660011790553391905f80516020612a13833981519152907f2f8788117e7eff1d82e926ec794901d17c78024a50270940304540a733656f0d9080a4600190565b6001600160a01b0381165f9081525f805160206129f3833981519152602052604090205460ff16612566576001600160a01b03165f8181525f805160206129f383398151915260205260408120805460ff191660011790553391905f80516020612ab3833981519152907f2f8788117e7eff1d82e926ec794901d17c78024a50270940304540a733656f0d9080a4600190565b5f8181525f80516020612a73833981519152602090815260408083206001600160a01b038616845290915290205460ff16612698575f8181525f80516020612a73833981519152602090815260408083206001600160a01b0395909516808452949091528120805460ff19166001179055339291907f2f8788117e7eff1d82e926ec794901d17c78024a50270940304540a733656f0d9080a4600190565b906001820191815f528260205260405f20548015155f1461291f575f198101818111611ecd5782545f19810191908211611ecd578181036128ea575b505050805480156128d6575f1901906128b78282612243565b8154905f199060031b1b19169055555f526020525f6040812055600190565b634e487b7160e01b5f52603160045260245ffd5b61290a6128fa61227a9386612243565b90549060031b1c92839286612243565b90555f528360205260405f20555f808061289e565b505050505f90565b6001810190825f528160205260405f2054155f146123f1578054600160401b8110156105a75761296161227a826001879401855584612243565b905554915f5260205260405f2055600190565b90612998575080511561298957805190602001fd5b63d6bda27560e01b5f5260045ffd5b815115806129c9575b6129a9575090565b639996b31560e01b5f9081526001600160a01b0391909116600452602490fd5b50803b156129a156fec1f6fe24621ce81ec5827caf0253cadb74709b061630e6b55e82371705932000b16e88c42fd4e48df2dd6a2eabd6bc9aec654ec170056b470819f8892cc6431cb19546dff01e856fb3f010c267a7b1c60363cf8a4664e21cc89c26224620214e360894a13ba1a3210667c828492db98dca3e2076cc3735a920a3ca505d382bbcc32d4dc01d07c436ad8a6f9a20eadd61263c71fe16f6b5956005ba3b341f51dd02dd7bc7dec4dceedda775e58dd541e08a116c6c53815c0bd028192f7b626800cd5ed15c6e187e77e9aee88184c21f4f2182ab5827cb3b7e07fbedcd63f03300a49807205ce4d355092ef5a8a18f56e8913cf4a201fbe287825b095693c21775008963063c520970ed64c693e920074e4588acd3631097247bb3559890ad6a67f0c57e16840df040f15088dc2f81fe391c3923bec73e23a9662efc9c229c6a00a26469706673582212201da2c763b6e689a94755a54308e0458a198974e02001b356a7e3efbc36159d5364736f6c634300081a0033","linkReferences":{}},"methodIdentifiers":{"ADMIN_ROLE()":"75b238fc","DEFAULT_ADMIN_ROLE()":"a217fddf","OWNER_ROLE()":"e58378bb","UPGRADE_INTERFACE_VERSION()":"ad3cb1cc","addAdmin(address)":"70480275","addReply(address,uint256,string,string)":"f2e2c693","contractAddressManager()":"ade9ae97","directRepliesInRange(address,uint256,uint256,uint256)":"1f786ffc","directReplyCount(address,uint256)":"55c0f037","editReply(uint256,string,string)":"7ea7601e","expectedSigner()":"2cb3e494","getRoleAdmin(bytes32)":"248a9ca3","getRoleMember(bytes32,uint256)":"9010d07c","getRoleMemberCount(bytes32)":"ca15c873","getRoleMembers(bytes32)":"a3246ad3","grantRole(bytes32,address)":"2f2ff15d","hasRole(bytes32,address)":"91d14854","initialize(address,address,address,address,address)":"1459457a","pause()":"8456cb59","paused()":"5c975abb","proxiableUUID()":"52d1902d","removeAdmin(address)":"1785f53c","renounceRole(bytes32,address)":"36568abe","repliesByAuthorInRange(uint256,uint256,uint256)":"7bdfc31d","repliesById(uint256[])":"c0a73969","replyCount()":"916a0386","revokeRole(bytes32,address)":"d547741f","signatureUsed(bytes)":"bb10c829","signatureVerifier()":"fde919f6","supportsInterface(bytes4)":"01ffc9a7","targetExistsAndAllowedForId(uint256)":"a12c64b5","unpause()":"3f4ba83a","updateContractAddressManager(address)":"08473f64","updateExpectedSigner(address)":"2bdd87ff","updateOwner(address)":"880cdc31","updateSignatureVerifier(address)":"5667981b","upgradeToAndCall(address,bytes)":"4f1ef286"},"id":115}