{"abi":[{"type":"function","name":"ADMIN_ROLE","inputs":[],"outputs":[{"name":"","type":"bytes32","internalType":"bytes32"}],"stateMutability":"view"},{"type":"function","name":"DEFAULT_ADMIN_ROLE","inputs":[],"outputs":[{"name":"","type":"bytes32","internalType":"bytes32"}],"stateMutability":"view"},{"type":"function","name":"OWNER_ROLE","inputs":[],"outputs":[{"name":"","type":"bytes32","internalType":"bytes32"}],"stateMutability":"view"},{"type":"function","name":"UPGRADE_INTERFACE_VERSION","inputs":[],"outputs":[{"name":"","type":"string","internalType":"string"}],"stateMutability":"view"},{"type":"function","name":"addAdmin","inputs":[{"name":"admin","type":"address","internalType":"address"}],"outputs":[],"stateMutability":"nonpayable"},{"type":"function","name":"addInvites","inputs":[{"name":"user","type":"address","internalType":"address"},{"name":"amount","type":"uint256","internalType":"uint256"}],"outputs":[],"stateMutability":"nonpayable"},{"type":"function","name":"addInvitesBatch","inputs":[{"name":"users","type":"address[]","internalType":"address[]"},{"name":"amount","type":"uint256","internalType":"uint256"}],"outputs":[],"stateMutability":"nonpayable"},{"type":"function","name":"addressBelongsToProfile","inputs":[{"name":"addressStr","type":"address","internalType":"address"},{"name":"profileId","type":"uint256","internalType":"uint256"}],"outputs":[{"name":"","type":"bool","internalType":"bool"}],"stateMutability":"view"},{"type":"function","name":"addressesForProfile","inputs":[{"name":"profileId","type":"uint256","internalType":"uint256"}],"outputs":[{"name":"","type":"address[]","internalType":"address[]"}],"stateMutability":"view"},{"type":"function","name":"archiveProfile","inputs":[],"outputs":[],"stateMutability":"nonpayable"},{"type":"function","name":"assignExistingProfileToAttestation","inputs":[{"name":"attestationHash","type":"bytes32","internalType":"bytes32"},{"name":"profileId","type":"uint256","internalType":"uint256"}],"outputs":[],"stateMutability":"nonpayable"},{"type":"function","name":"bulkInviteAddresses","inputs":[{"name":"invitees","type":"address[]","internalType":"address[]"}],"outputs":[],"stateMutability":"nonpayable"},{"type":"function","name":"contractAddressManager","inputs":[],"outputs":[{"name":"","type":"address","internalType":"contract IContractAddressManager"}],"stateMutability":"view"},{"type":"function","name":"createProfile","inputs":[{"name":"inviterId","type":"uint256","internalType":"uint256"}],"outputs":[],"stateMutability":"nonpayable"},{"type":"function","name":"defaultNumberOfInvites","inputs":[],"outputs":[{"name":"","type":"uint256","internalType":"uint256"}],"stateMutability":"view"},{"type":"function","name":"deleteAddress","inputs":[{"name":"addressStr","type":"address","internalType":"address"},{"name":"markAsCompromised","type":"bool","internalType":"bool"}],"outputs":[],"stateMutability":"nonpayable"},{"type":"function","name":"deleteAddressAtIndex","inputs":[{"name":"addressIndex","type":"uint256","internalType":"uint256"},{"name":"markAsCompromised","type":"bool","internalType":"bool"}],"outputs":[],"stateMutability":"nonpayable"},{"type":"function","name":"expectedSigner","inputs":[],"outputs":[{"name":"","type":"address","internalType":"address"}],"stateMutability":"view"},{"type":"function","name":"getProfile","inputs":[{"name":"id","type":"uint256","internalType":"uint256"}],"outputs":[{"name":"profile","type":"tuple","internalType":"struct IEthosProfile.Profile","components":[{"name":"archived","type":"bool","internalType":"bool"},{"name":"profileId","type":"uint256","internalType":"uint256"},{"name":"createdAt","type":"uint256","internalType":"uint256"},{"name":"addresses","type":"address[]","internalType":"address[]"},{"name":"inviteInfo","type":"tuple","internalType":"struct IEthosProfile.InviteInfo","components":[{"name":"sent","type":"address[]","internalType":"address[]"},{"name":"acceptedIds","type":"uint256[]","internalType":"uint256[]"},{"name":"available","type":"uint256","internalType":"uint256"},{"name":"invitedBy","type":"uint256","internalType":"uint256"}]}]}],"stateMutability":"view"},{"type":"function","name":"getRoleAdmin","inputs":[{"name":"role","type":"bytes32","internalType":"bytes32"}],"outputs":[{"name":"","type":"bytes32","internalType":"bytes32"}],"stateMutability":"view"},{"type":"function","name":"getRoleMember","inputs":[{"name":"role","type":"bytes32","internalType":"bytes32"},{"name":"index","type":"uint256","internalType":"uint256"}],"outputs":[{"name":"","type":"address","internalType":"address"}],"stateMutability":"view"},{"type":"function","name":"getRoleMemberCount","inputs":[{"name":"role","type":"bytes32","internalType":"bytes32"}],"outputs":[{"name":"","type":"uint256","internalType":"uint256"}],"stateMutability":"view"},{"type":"function","name":"getRoleMembers","inputs":[{"name":"role","type":"bytes32","internalType":"bytes32"}],"outputs":[{"name":"","type":"address[]","internalType":"address[]"}],"stateMutability":"view"},{"type":"function","name":"grantRole","inputs":[{"name":"role","type":"bytes32","internalType":"bytes32"},{"name":"account","type":"address","internalType":"address"}],"outputs":[],"stateMutability":"nonpayable"},{"type":"function","name":"hasRole","inputs":[{"name":"role","type":"bytes32","internalType":"bytes32"},{"name":"account","type":"address","internalType":"address"}],"outputs":[{"name":"","type":"bool","internalType":"bool"}],"stateMutability":"view"},{"type":"function","name":"incrementProfileCount","inputs":[{"name":"isAttestation","type":"bool","internalType":"bool"},{"name":"subject","type":"address","internalType":"address"},{"name":"attestation","type":"bytes32","internalType":"bytes32"}],"outputs":[{"name":"profileId","type":"uint256","internalType":"uint256"}],"stateMutability":"nonpayable"},{"type":"function","name":"initialize","inputs":[{"name":"owner","type":"address","internalType":"address"},{"name":"admin","type":"address","internalType":"address"},{"name":"expectedSigner","type":"address","internalType":"address"},{"name":"signatureVerifier","type":"address","internalType":"address"},{"name":"contractAddressManagerAddr","type":"address","internalType":"address"}],"outputs":[],"stateMutability":"nonpayable"},{"type":"function","name":"inviteAddress","inputs":[{"name":"invitee","type":"address","internalType":"address"}],"outputs":[],"stateMutability":"nonpayable"},{"type":"function","name":"inviteInfoForProfileId","inputs":[{"name":"profileId","type":"uint256","internalType":"uint256"}],"outputs":[{"name":"","type":"tuple","internalType":"struct IEthosProfile.InviteInfo","components":[{"name":"sent","type":"address[]","internalType":"address[]"},{"name":"acceptedIds","type":"uint256[]","internalType":"uint256[]"},{"name":"available","type":"uint256","internalType":"uint256"},{"name":"invitedBy","type":"uint256","internalType":"uint256"}]}],"stateMutability":"view"},{"type":"function","name":"invitedIdsForProfile","inputs":[{"name":"profileId","type":"uint256","internalType":"uint256"}],"outputs":[{"name":"","type":"uint256[]","internalType":"uint256[]"}],"stateMutability":"view"},{"type":"function","name":"isAddressCompromised","inputs":[{"name":"","type":"address","internalType":"address"}],"outputs":[{"name":"","type":"bool","internalType":"bool"}],"stateMutability":"view"},{"type":"function","name":"maxNumberOfAddresses","inputs":[],"outputs":[{"name":"","type":"uint256","internalType":"uint256"}],"stateMutability":"view"},{"type":"function","name":"maxNumberOfInvites","inputs":[],"outputs":[{"name":"","type":"uint256","internalType":"uint256"}],"stateMutability":"view"},{"type":"function","name":"pause","inputs":[],"outputs":[],"stateMutability":"nonpayable"},{"type":"function","name":"paused","inputs":[],"outputs":[{"name":"","type":"bool","internalType":"bool"}],"stateMutability":"view"},{"type":"function","name":"profileCount","inputs":[],"outputs":[{"name":"","type":"uint256","internalType":"uint256"}],"stateMutability":"view"},{"type":"function","name":"profileExistsAndArchivedForId","inputs":[{"name":"profileId","type":"uint256","internalType":"uint256"}],"outputs":[{"name":"verified","type":"bool","internalType":"bool"},{"name":"archived","type":"bool","internalType":"bool"}],"stateMutability":"view"},{"type":"function","name":"profileIdByAddress","inputs":[{"name":"","type":"address","internalType":"address"}],"outputs":[{"name":"","type":"uint256","internalType":"uint256"}],"stateMutability":"view"},{"type":"function","name":"profileIdByAttestation","inputs":[{"name":"","type":"bytes32","internalType":"bytes32"}],"outputs":[{"name":"","type":"uint256","internalType":"uint256"}],"stateMutability":"view"},{"type":"function","name":"profileStatusByAddress","inputs":[{"name":"addressStr","type":"address","internalType":"address"}],"outputs":[{"name":"verified","type":"bool","internalType":"bool"},{"name":"archived","type":"bool","internalType":"bool"},{"name":"mock","type":"bool","internalType":"bool"},{"name":"profileId","type":"uint256","internalType":"uint256"}],"stateMutability":"view"},{"type":"function","name":"profileStatusById","inputs":[{"name":"profileId","type":"uint256","internalType":"uint256"}],"outputs":[{"name":"verified","type":"bool","internalType":"bool"},{"name":"archived","type":"bool","internalType":"bool"},{"name":"mock","type":"bool","internalType":"bool"}],"stateMutability":"view"},{"type":"function","name":"proxiableUUID","inputs":[],"outputs":[{"name":"","type":"bytes32","internalType":"bytes32"}],"stateMutability":"view"},{"type":"function","name":"registerAddress","inputs":[{"name":"addressStr","type":"address","internalType":"address"},{"name":"profileId","type":"uint256","internalType":"uint256"},{"name":"randValue","type":"uint256","internalType":"uint256"},{"name":"signature","type":"bytes","internalType":"bytes"}],"outputs":[],"stateMutability":"nonpayable"},{"type":"function","name":"removeAdmin","inputs":[{"name":"admin","type":"address","internalType":"address"}],"outputs":[],"stateMutability":"nonpayable"},{"type":"function","name":"renounceRole","inputs":[{"name":"role","type":"bytes32","internalType":"bytes32"},{"name":"callerConfirmation","type":"address","internalType":"address"}],"outputs":[],"stateMutability":"nonpayable"},{"type":"function","name":"restoreCompromisedAddress","inputs":[{"name":"addressStr","type":"address","internalType":"address"}],"outputs":[],"stateMutability":"nonpayable"},{"type":"function","name":"restoreProfile","inputs":[],"outputs":[],"stateMutability":"nonpayable"},{"type":"function","name":"revokeRole","inputs":[{"name":"role","type":"bytes32","internalType":"bytes32"},{"name":"account","type":"address","internalType":"address"}],"outputs":[],"stateMutability":"nonpayable"},{"type":"function","name":"sentAt","inputs":[{"name":"","type":"uint256","internalType":"uint256"},{"name":"","type":"address","internalType":"address"}],"outputs":[{"name":"","type":"uint256","internalType":"uint256"}],"stateMutability":"view"},{"type":"function","name":"sentInvitationsForProfile","inputs":[{"name":"profileId","type":"uint256","internalType":"uint256"}],"outputs":[{"name":"","type":"address[]","internalType":"address[]"}],"stateMutability":"view"},{"type":"function","name":"setDefaultNumberOfInvites","inputs":[{"name":"defaultInvites","type":"uint256","internalType":"uint256"}],"outputs":[],"stateMutability":"nonpayable"},{"type":"function","name":"setMaxAddresses","inputs":[{"name":"maxAddresses","type":"uint256","internalType":"uint256"}],"outputs":[],"stateMutability":"nonpayable"},{"type":"function","name":"setMaxInvites","inputs":[{"name":"maxInvites","type":"uint256","internalType":"uint256"}],"outputs":[],"stateMutability":"nonpayable"},{"type":"function","name":"setTestValue","inputs":[{"name":"_testValue","type":"uint256","internalType":"uint256"}],"outputs":[],"stateMutability":"nonpayable"},{"type":"function","name":"signatureUsed","inputs":[{"name":"","type":"bytes","internalType":"bytes"}],"outputs":[{"name":"","type":"bool","internalType":"bool"}],"stateMutability":"view"},{"type":"function","name":"signatureVerifier","inputs":[],"outputs":[{"name":"","type":"address","internalType":"address"}],"stateMutability":"view"},{"type":"function","name":"supportsInterface","inputs":[{"name":"interfaceId","type":"bytes4","internalType":"bytes4"}],"outputs":[{"name":"","type":"bool","internalType":"bool"}],"stateMutability":"view"},{"type":"function","name":"targetExistsAndAllowedForId","inputs":[{"name":"targetId","type":"uint256","internalType":"uint256"}],"outputs":[{"name":"exist","type":"bool","internalType":"bool"},{"name":"allowed","type":"bool","internalType":"bool"}],"stateMutability":"view"},{"type":"function","name":"testValue","inputs":[],"outputs":[{"name":"","type":"uint256","internalType":"uint256"}],"stateMutability":"view"},{"type":"function","name":"uninviteUser","inputs":[{"name":"user","type":"address","internalType":"address"}],"outputs":[],"stateMutability":"nonpayable"},{"type":"function","name":"unpause","inputs":[],"outputs":[],"stateMutability":"nonpayable"},{"type":"function","name":"updateContractAddressManager","inputs":[{"name":"contractAddressesAddr","type":"address","internalType":"address"}],"outputs":[],"stateMutability":"nonpayable"},{"type":"function","name":"updateExpectedSigner","inputs":[{"name":"signer","type":"address","internalType":"address"}],"outputs":[],"stateMutability":"nonpayable"},{"type":"function","name":"updateOwner","inputs":[{"name":"owner","type":"address","internalType":"address"}],"outputs":[],"stateMutability":"nonpayable"},{"type":"function","name":"updateSignatureVerifier","inputs":[{"name":"sinatureVerifier","type":"address","internalType":"address"}],"outputs":[],"stateMutability":"nonpayable"},{"type":"function","name":"upgradeToAndCall","inputs":[{"name":"newImplementation","type":"address","internalType":"address"},{"name":"data","type":"bytes","internalType":"bytes"}],"outputs":[],"stateMutability":"payable"},{"type":"function","name":"verifiedProfileIdForAddress","inputs":[{"name":"_address","type":"address","internalType":"address"}],"outputs":[{"name":"","type":"uint256","internalType":"uint256"}],"stateMutability":"view"},{"type":"event","name":"AddressClaim","inputs":[{"name":"profileId","type":"uint256","indexed":true,"internalType":"uint256"},{"name":"addr","type":"address","indexed":true,"internalType":"address"},{"name":"claim","type":"uint8","indexed":true,"internalType":"enum EthosProfile.AddressClaimStatus"}],"anonymous":false},{"type":"event","name":"DefaultInvitesChanged","inputs":[{"name":"defaultInvites","type":"uint256","indexed":false,"internalType":"uint256"}],"anonymous":false},{"type":"event","name":"Initialized","inputs":[{"name":"version","type":"uint64","indexed":false,"internalType":"uint64"}],"anonymous":false},{"type":"event","name":"InvitesAdded","inputs":[{"name":"profileId","type":"uint256","indexed":false,"internalType":"uint256"},{"name":"amount","type":"uint256","indexed":false,"internalType":"uint256"}],"anonymous":false},{"type":"event","name":"MockProfileCreated","inputs":[{"name":"mockId","type":"uint256","indexed":true,"internalType":"uint256"}],"anonymous":false},{"type":"event","name":"Paused","inputs":[{"name":"account","type":"address","indexed":false,"internalType":"address"}],"anonymous":false},{"type":"event","name":"ProfileArchived","inputs":[{"name":"profileId","type":"uint256","indexed":true,"internalType":"uint256"}],"anonymous":false},{"type":"event","name":"ProfileCreated","inputs":[{"name":"profileId","type":"uint256","indexed":true,"internalType":"uint256"},{"name":"addr","type":"address","indexed":true,"internalType":"address"}],"anonymous":false},{"type":"event","name":"ProfileRestored","inputs":[{"name":"profileId","type":"uint256","indexed":true,"internalType":"uint256"}],"anonymous":false},{"type":"event","name":"RoleAdminChanged","inputs":[{"name":"role","type":"bytes32","indexed":true,"internalType":"bytes32"},{"name":"previousAdminRole","type":"bytes32","indexed":true,"internalType":"bytes32"},{"name":"newAdminRole","type":"bytes32","indexed":true,"internalType":"bytes32"}],"anonymous":false},{"type":"event","name":"RoleGranted","inputs":[{"name":"role","type":"bytes32","indexed":true,"internalType":"bytes32"},{"name":"account","type":"address","indexed":true,"internalType":"address"},{"name":"sender","type":"address","indexed":true,"internalType":"address"}],"anonymous":false},{"type":"event","name":"RoleRevoked","inputs":[{"name":"role","type":"bytes32","indexed":true,"internalType":"bytes32"},{"name":"account","type":"address","indexed":true,"internalType":"address"},{"name":"sender","type":"address","indexed":true,"internalType":"address"}],"anonymous":false},{"type":"event","name":"Uninvited","inputs":[{"name":"inviterId","type":"uint256","indexed":false,"internalType":"uint256"},{"name":"inviterAddress","type":"address","indexed":false,"internalType":"address"},{"name":"remainingInvites","type":"uint256","indexed":false,"internalType":"uint256"},{"name":"uninvitedUser","type":"address","indexed":false,"internalType":"address"}],"anonymous":false},{"type":"event","name":"Unpaused","inputs":[{"name":"account","type":"address","indexed":false,"internalType":"address"}],"anonymous":false},{"type":"event","name":"Upgraded","inputs":[{"name":"implementation","type":"address","indexed":true,"internalType":"address"}],"anonymous":false},{"type":"event","name":"UserInvited","inputs":[{"name":"inviterID","type":"uint256","indexed":false,"internalType":"uint256"},{"name":"inviteeAddress","type":"address","indexed":false,"internalType":"address"}],"anonymous":false},{"type":"error","name":"AccessControlBadConfirmation","inputs":[]},{"type":"error","name":"AccessControlUnauthorizedAccount","inputs":[{"name":"account","type":"address","internalType":"address"},{"name":"neededRole","type":"bytes32","internalType":"bytes32"}]},{"type":"error","name":"AddressAlreadyInvited","inputs":[{"name":"profileId","type":"uint256","internalType":"uint256"},{"name":"user","type":"address","internalType":"address"}]},{"type":"error","name":"AddressAuthorization","inputs":[{"name":"userAddress","type":"address","internalType":"address"},{"name":"message","type":"string","internalType":"string"}]},{"type":"error","name":"AddressCompromised","inputs":[{"name":"user","type":"address","internalType":"address"}]},{"type":"error","name":"AddressEmptyCode","inputs":[{"name":"target","type":"address","internalType":"address"}]},{"type":"error","name":"AddressNotInvited","inputs":[]},{"type":"error","name":"ERC1967InvalidImplementation","inputs":[{"name":"implementation","type":"address","internalType":"address"}]},{"type":"error","name":"ERC1967NonPayable","inputs":[]},{"type":"error","name":"EnforcedPause","inputs":[]},{"type":"error","name":"ExpectedPause","inputs":[]},{"type":"error","name":"FailedCall","inputs":[]},{"type":"error","name":"IndexOutOfBounds","inputs":[]},{"type":"error","name":"InsufficientInvites","inputs":[{"name":"profileId","type":"uint256","internalType":"uint256"}]},{"type":"error","name":"InvalidIndex","inputs":[]},{"type":"error","name":"InvalidInitialization","inputs":[]},{"type":"error","name":"InvalidSender","inputs":[]},{"type":"error","name":"InvalidSignature","inputs":[]},{"type":"error","name":"MaxAddressesReached","inputs":[{"name":"profileId","type":"uint256","internalType":"uint256"}]},{"type":"error","name":"MaxInvitesReached","inputs":[{"name":"profileId","type":"uint256","internalType":"uint256"}]},{"type":"error","name":"NotInitializing","inputs":[]},{"type":"error","name":"ProfileAccess","inputs":[{"name":"profileId","type":"uint256","internalType":"uint256"},{"name":"message","type":"string","internalType":"string"}]},{"type":"error","name":"ProfileExists","inputs":[{"name":"profileId","type":"uint256","internalType":"uint256"}]},{"type":"error","name":"ProfileExistsForAddress","inputs":[{"name":"userAddress","type":"address","internalType":"address"}]},{"type":"error","name":"ProfileNotFound","inputs":[{"name":"profileId","type":"uint256","internalType":"uint256"}]},{"type":"error","name":"ProfileNotFoundForAddress","inputs":[{"name":"userAddress","type":"address","internalType":"address"}]},{"type":"error","name":"SignatureWasUsed","inputs":[]},{"type":"error","name":"UUPSUnauthorizedCallContext","inputs":[]},{"type":"error","name":"UUPSUnsupportedProxiableUUID","inputs":[{"name":"slot","type":"bytes32","internalType":"bytes32"}]},{"type":"error","name":"ZeroAddress","inputs":[]}],"bytecode":{"object":"0x60a06040523461003c57610011610040565b3060805261001d610040565b604051613ac790816100fd823960805181818161181e01526118b00152f35b5f80fd5b7ff0c57e16840df040f15088dc2f81fe391c3923bec73e23a9662efc9c229c6a005460ff8160401c166100ed576002600160401b03196001600160401b038216016100885750565b6001600160401b0319166001600160401b039081177ff0c57e16840df040f15088dc2f81fe391c3923bec73e23a9662efc9c229c6a00556040519081527fc7f505b2f371ae2175ee4913f4499e1f2633a7b5936321eed1cdaeb6115181d290602090a1565b63f92ee8a960e01b5f5260045ffdfe6080806040526004361015610012575f80fd5b5f3560e01c90816301ffc9a714612bd35750806305c3d52214612b8957806308473f6414612b465780630db4a5bb146129245780630fa5a1d4146128c657806310c7080114612881578063123a9e87146128645780631459457a146125135780631785f53c1461248f5780631e95c11d1461242157806320d267361461231e578063248a9ca3146122f857806325d0b09e146122985780632bdd87ff1461224d5780632cb3e494146122265780632f2ff15d146121f557806333bc3ccf1461202d57806334ca272c14611fdc5780633596010514611fc357806336568abe14611f7f5780633ba0a71814611c2a5780633ba836a214611bb25780633eb3ebd814611b855780633f4ba83a14611ab15780634a5b307d14611a705780634f1ef2861461187257806352d1902d1461180c5780635667981b146117c0578063570f8554146116025780635c76577c146114175780635c975abb146113e95780635d649cbe14611323578063665de3cb146112f6578063704802751461127257806375b238fc1461124b57806376f3da32146112145780637ca64266146111855780637dec74d71461115b5780638456cb5914611026578063880cdc3114610f0b57806389a9132b14610ed35780638af5de7214610eb65780638bcebdb814610d465780639010d07c14610cfe57806391d1485414610ca9578063923160db14610c85578063a12c64b514610c4b578063a217fddf14610c31578063a238f7b414610a8b578063a3246ad314610a0f578063ad3cb1cc146109d0578063ade9ae97146109a8578063b07b7e7f1461098b578063b8861c2314610916578063bb10c829146108bb578063bd7029fd14610877578063c33b84f31461083a578063ca15c87314610804578063d1a44585146107bb578063d547741f14610783578063e01290a1146104ea578063e58378bb146104c3578063eed38b861461047e578063ef43acef14610461578063f08f4f6414610346578063f275cda9146103295763fde919f6146102fd575f80fd5b34610325575f366003190112610325576001546040516001600160a01b039091168152602090f35b5f80fd5b34610325575f366003190112610325576020603754604051908152f35b346103255760203660031901126103255760043560405161036681612d83565b5f81525f60208201525f60408201526060808201526080610385612e8e565b91015280158015610455575b610443575f52603860205260405f206040516103ac81612d83565b60ff8254161515815261043f6001830154926020830193845261042c600282015491604085019283526103f460046103e660038401612eb2565b926060880193845201612f4d565b92608086019384526040519687966020885251151560208801525160408701525160608601525160a0608086015260c0850190612c40565b9051838203601f190160a0850152612c7c565b0390f35b635595b91560e11b5f5260045260245ffd5b50603654811015610391565b34610325575f366003190112610325576020603654604051908152f35b346103255760203660031901126103255761080060043561049d613146565b6104a561321e565b80603e55116104b057005b635a092a1d60e11b5f525f60045260245ffd5b34610325575f3660031901126103255760206040515f805160206139928339815191528152f35b3461032557604036600319011261032557610503612ce4565b61050b612e3f565b9061051461321e565b335f52603960205260405f20545f52604160205260405f209060018060a01b03165f5260205260405f20549061054861321e565b335f52603960205260405f205461055e816130f6565b909115610770578115610768575b5061072157805f526038602052600360405f2001928084541115610712576105948185612fdc565b905460039190911b1c6001600160a01b0316923384146106ce576106b2575b6105bd8185612fdc565b60018060a01b0391549060031b1c16908454945f19860195861161069e576106026105e95f9783612fdc565b905460039190911b1c6001600160a01b03169183613397565b82810361066c575b50503384526039602052604084205484526041602052604084209060018060a01b0316845260205282604081205581835260396020528260408120557fcdc318b415c4f74ecd1a3bbaf637fe42594b23d3e706bdea4031084fed4f6c738380a4005b3386526039602052604086205486526041602052604086209060018060a01b031686526020526040852055848061060a565b634e487b7160e01b5f52601160045260245ffd5b825f52603a60205260405f20600160ff198254161790556105b3565b608484604051906366d2949d60e01b8252600482015260406024820152601560448201527420b2323932b9b9901e9e9036b9b39739b2b73232b960591b6064820152fd5b6363df817160e01b5f5260045ffd5b60408051630742992760e11b8152600481019290925260248201526013604482015272141c9bd99a5b19481a5cc8185c98da1a5d9959606a1b6064820152608490fd5b0390fd5b90508461056c565b63529f6aeb60e11b5f523360045260245ffd5b34610325576040366003190112610325576107b96004356107a2612cfa565b906107b46107af82612fbe565b6131d8565b6132ff565b005b34610325576020366003190112610325576107d4612ce4565b6107dc613146565b6107e461321e565b6001600160a01b03165f908152603a60205260409020805460ff19169055005b34610325576020366003190112610325576004355f525f80516020613952833981519152602052602060405f2054604051908152f35b34610325576020366003190112610325576001600160a01b0361085b612ce4565b165f52603a602052602060ff60405f2054166040519015158152f35b3461032557604036600319011261032557610890612cfa565b6004355f52603c60205260405f209060018060a01b03165f52602052602060405f2054604051908152f35b346103255760203660031901126103255760043567ffffffffffffffff81116103255760ff6020806108f281943690600401612df9565b604051928184925191829101835e8101600281520301902054166040519015158152f35b346103255760203660031901126103255761092f612ce4565b61093881613092565b9215918215610983575b50811561097b575b5061095a57602090604051908152f35b5063529f6aeb60e11b5f9081526001600160a01b0391909116600452602490fd5b90508361094a565b915084610942565b34610325575f366003190112610325576020603e54604051908152f35b34610325575f366003190112610325576003546040516001600160a01b039091168152602090f35b34610325575f3660031901126103255761043f6040516109f1604082612dbb565b60058152640352e302e360dc1b602082015260405191829182612e64565b34610325576020366003190112610325576004355f525f8051602061395283398151915260205260405f206040519081602082549182815201915f5260205f20905f5b818110610a755761043f85610a6981870382612dbb565b60405191829182612d41565b8254845260209093019260019283019201610a52565b3461032557602036600319011261032557610aa4612ce4565b610aac61321e565b610ab581613387565b335f52603960205260405f205490815f52603860205260405f209160ff83541661072157805f52603f60205260405f2060018060a01b0383165f5260205260405f2054926004810190815490818610801590610c08575b610bf9575f19820191821161069e577fc99deea7564c4617f54b6c22cd96a31e991cc2f5524a5d19919cbeef7c4d2c6395608095610b68610b4f60069587612fdc565b905460039190911b1c6001600160a01b03169583613397565b6001600160a01b031693848103610bd3575b5050835f52603f60205260405f20835f526020525f604081205501610b9f81546130e8565b8155825f52603c60205260405f20825f526020525f60408120555460405192835233602084015260408301526060820152a1005b855f52603f60205260405f209060018060a01b03165f5260205260405f20558680610b7a565b63914f33db60e01b5f5260045ffd5b50610c138684612fdc565b905460039190911b1c6001600160a01b039081169086161415610b0c565b34610325575f3660031901126103255760206040515f8152f35b34610325576020366003190112610325576004355f9081526038602090815260409182902060020154825190151580825291810191909152f35b3461032557604036600319011261032557600435610ca1612e3f565b61054861321e565b3461032557604036600319011261032557610cc2612cfa565b6004355f525f805160206139f283398151915260205260405f209060018060a01b03165f52602052602060ff60405f2054166040519015158152f35b34610325576020610d2d610d1136612e4e565b905f525f80516020613952833981519152835260405f20612fdc565b905460405160039290921b1c6001600160a01b03168152f35b346103255760403660031901126103255760043567ffffffffffffffff811161032557610d77903690600401612d10565b60243591610d83613146565b610d8b61321e565b5f5b828110610d9657005b610da9610da4828585612f8d565b612f9d565b610db1613146565b610db961321e565b610dc281613092565b939215918215610eae575b508115610ea6575b50610e865750805f526038602052600660405f2001610df5868254612fb1565b90555f8181526038602052604090206006810154600490910154610e3391610e1d9190612fb1565b825f526038602052600560405f20015490612fb1565b603e5410610e7457907fac52b63ac21eb6a0502ba1afddeff39668a3e6c7ceb05367e6563c8bd14cd80560406001938151908152876020820152a101610d8d565b635a092a1d60e11b5f5260045260245ffd5b63529f6aeb60e11b5f9081526001600160a01b0391909116600452602490fd5b905087610dd5565b915088610dcd565b34610325575f366003190112610325576020607454604051908152f35b34610325576020366003190112610325576001600160a01b03610ef4612ce4565b165f526039602052602060405f2054604051908152f35b3461032557602036600319011261032557610f24612ce4565b610f2c61318f565b5f805160206139928339815191525f525f805160206139528339815191526020525f80516020613a52833981519152805415611012575f90815260209020546001600160a01b0316610f7d816134f7565b610fd3575b50610f8c8161362a565b610f9257005b5f805160206139928339815191525f525f805160206139528339815191526020526107b9906001600160a01b03165f80516020613a5283398151915261389f565b5f805160206139928339815191525f525f8051602061395283398151915260205261100b905f80516020613a528339815191526137ee565b5081610f82565b634e487b7160e01b5f52603260045260245ffd5b34610325575f3660031901126103255760035461106d906020906001600160a01b0316611051613038565b90604051808095819463d57f7aa360e01b835260048301612e64565b03915afa908115611150575f91611121575b50336001600160a01b03909116036110ea5761109961321e565b600160ff195f80516020613a128339815191525416175f80516020613a12833981519152557f62e78cea01bee320cd4e420270b5ea74000d11b0c9f74754ebdbfc544b05a2586020604051338152a1005b63e2517d3f60e01b5f52336004527f261fea28325784de45eba41a3fbb84c4196fbab02ee802566edfe26616ba5afb60245260445ffd5b611143915060203d602011611149575b61113b8183612dbb565b810190613073565b8161107f565b503d611131565b6040513d5f823e3d90fd5b34610325576020366003190112610325576004355f52603b602052602060405f2054604051908152f35b346103255761119336612e4e565b906111ac602060018060a01b03600354166110516130b9565b03915afa908115611150575f916111f5575b506001600160a01b031633036111e6576111d661321e565b5f52603b60205260405f20555f80f35b636edaef2f60e11b5f5260045ffd5b61120e915060203d6020116111495761113b8183612dbb565b836111be565b346103255760203660031901126103255760606112326004356130f6565b9060405192151583521515602083015215156040820152f35b34610325575f3660031901126103255760206040515f80516020613a328339815191528152f35b346103255760203660031901126103255761128b612ce4565b61129361318f565b61129c816136bd565b6112a257005b5f80516020613a328339815191525f525f805160206139528339815191526020526107b9906001600160a01b03167f46448fd7a7b40360a1323cb3199d0aafeb92ce905bb512a6bb7d3d3f685cf1b161389f565b34610325576020366003190112610325576004355f52603860205261043f610a69600360405f2001612eb2565b34610325575f3660031901126103255761133b61321e565b61134433613092565b929190911561077057159081156113e1575b5061139557805f52603860205260405f2060ff1981541690557fad0c07c6e15db6a51fed6c1d42d277ed0fa53f2eef0d1830c060c1cba8638adc5f80a2005b60849060405190630742992760e11b8252600482015260406024820152601760448201527f50726f66696c65206973206e6f742061726368697665640000000000000000006064820152fd5b905082611356565b34610325575f36600319011261032557602060ff5f80516020613a1283398151915254166040519015158152f35b3461032557602036600319011261032557611430612ce4565b61143861321e565b61144181613387565b6001600160a01b0381165f818152603a602052604090205490919060ff166115ef5761146c33613092565b509091159182156115e7575b5081156115df575b506111e65761148e81613092565b509050816115d6575b506115c357335f52603960205260405f2054805f526038602052600660405f200154156115b157805f52603c60205260405f20835f5260205260405f205461159a57805f526038602052600460405f200154815f52603f60205260405f20845f5260205260405f2055805f52603860205261151882600460405f2001612ff1565b805f526038602052600660405f200192835493841561069e577f9c6d622696d829eae44c9559a6e96ae07091e9ca797bc02c35a7770dbcf04580945f19019055815f52603c60205260405f20905f5260205260405f20429055611595604051928392839092916020906040830194835260018060a01b0316910152565b0390a1005b905063330b0ff560e01b5f5260045260245260445ffd5b6314ac648360e21b5f5260045260245ffd5b50639e83c77d60e01b5f5260045260245ffd5b90501583611497565b905083611480565b915084611478565b50630ad2d8d560e31b5f5260045260245ffd5b3461032557606036600319011261032557600435801515810361032557611627612cfa565b9061163061321e565b60018060a01b03600354166040906116806020835161164f8582612dbb565b600c81526b4554484f535f52455649455760a01b8282015284518093819263d57f7aa360e01b835260048301612e64565b0381855afa9081156117b6575f91611797575b506001600160a01b0316331415908161171e575b506111e657602092603654925f1461170257506044355f52603b835281815f20555b6116d46036546130e8565b6036555190807f3fd0c2393f291765470cc17997e368eb7ec635d8966232abd9d2016e8ad721cf5f80a28152f35b6001600160a01b03165f908152603984528190208290556116c9565b611749915060209061172e6130b9565b908451808095819463d57f7aa360e01b835260048301612e64565b03915afa90811561178d575f9161176e575b506001600160a01b0316331415846116a7565b611787915060203d6020116111495761113b8183612dbb565b8461175b565b82513d5f823e3d90fd5b6117b0915060203d6020116111495761113b8183612dbb565b85611693565b83513d5f823e3d90fd5b34610325576020366003190112610325576117d9612ce4565b6117e1613146565b6117ea81613387565b600180546001600160a01b0319166001600160a01b0392909216919091179055005b34610325575f366003190112610325577f00000000000000000000000000000000000000000000000000000000000000006001600160a01b031630036118635760206040515f805160206139b28339815191528152f35b63703e46dd60e11b5f5260045ffd5b604036600319011261032557611886612ce4565b60243567ffffffffffffffff8111610325576118a6903690600401612df9565b6001600160a01b037f000000000000000000000000000000000000000000000000000000000000000016308114908115611a4e575b50611863576118e861318f565b6118f182613387565b6040516352d1902d60e01b81526001600160a01b0383169290602081600481875afa5f9181611a1a575b506119335783634c9c8ce360e01b5f5260045260245ffd5b805f805160206139b2833981519152859203611a085750813b156119f6575f805160206139b283398151915280546001600160a01b031916821790557fbc7cd75a20ee27fd9adebab32041f755214dbc6bffa90cc0225b39da2e5c2d3b5f80a28151156119de575f808360206107b995519101845af43d156119d6573d916119ba83612ddd565b926119c86040519485612dbb565b83523d5f602085013e6138f3565b6060916138f3565b5050346119e757005b63b398979f60e01b5f5260045ffd5b634c9c8ce360e01b5f5260045260245ffd5b632a87526960e21b5f5260045260245ffd5b9091506020813d602011611a46575b81611a3660209383612dbb565b810103126103255751908561191b565b3d9150611a29565b5f805160206139b2833981519152546001600160a01b031614159050836118db565b34610325576020366003190112610325576080611a93611a8e612ce4565b613092565b91604051931515845215156020840152151560408301526060820152f35b34610325575f36600319011261032557600354611adc906020906001600160a01b0316611051613038565b03915afa908115611150575f91611b66575b50336001600160a01b03909116036110ea575f80516020613a128339815191525460ff811615611b575760ff19165f80516020613a12833981519152557f5db9ee0a495bf2e6ff9c91a7834c1ba4fdd244a5e8aa4e537bd38aeae4b073aa6020604051338152a1005b638dfc202b60e01b5f5260045ffd5b611b7f915060203d6020116111495761113b8183612dbb565b81611aee565b34610325576020366003190112610325576004355f52603860205261043f610a69600460405f2001612eb2565b34610325575f36600319011261032557611bca61321e565b611bd333613092565b9215610770578115611c22575b5061072157805f52603860205260405f20600160ff198254161790557fe2a74f634d4a5de5ebf5fc6985a469779d12830dd517ce1a08acb22847cdc3ee5f80a2005b905082611be0565b3461032557608036600319011261032557611c43612ce4565b6024359060643567ffffffffffffffff811161032557366023820112156103255780600401359167ffffffffffffffff8311610325576024820191602484369201011161032557611c9261321e565b611c9b81613387565b6001600160a01b0381165f818152603a602052604090205490939060ff16611f6c57335f5260396020528460405f20540361077057611cd9856130f6565b909115611f59578115611f51575b50611f085784611cf683613092565b91505081929192611efd575b5050611eea5760405160208101906001600160601b03198460601b168252866034820152604435605482015260548152611d3d607482612dbb565b51902060ff6040518386823760208185810160028152030190205416611edb576001545f54604051622ea33360e31b81526001600160a01b03918216600482015260248101939093526060604484015260648301849052602091839116848760848401375f6084868401015281608481601f19601f89011681010301915afa908115611150575f91611ea0575b5015611e91576020611e2f9382604051938492833781016002815203019020600160ff19825416179055835f526038602052600360405f200154845f52604160205260405f20845f5260205260405f2055835f526038602052600360405f2001612ff1565b805f5260396020528160405f2055815f526038602052600360405f200154603d5410611e7e576001917fcdc318b415c4f74ecd1a3bbaf637fe42594b23d3e706bdea4031084fed4f6c735f80a4005b5063b315b31d60e01b5f5260045260245ffd5b638baa579f60e01b5f5260045ffd5b90506020813d602011611ed3575b81611ebb60209383612dbb565b81010312610325575180151581036103255786611dca565b3d9150611eae565b63858c8a1f60e01b5f5260045ffd5b83639e83c77d60e01b5f5260045260245ffd5b141590508587611d02565b604051630742992760e11b81528061076487600483016080918152604060208201526013604082015272141c9bd99a5b19481a5cc8185c98da1a5d9959606a1b60608201520190565b905086611ce7565b86635595b91560e11b5f5260045260245ffd5b83630ad2d8d560e31b5f5260045260245ffd5b3461032557604036600319011261032557611f98612cfa565b336001600160a01b03821603611fb4576107b9906004356132ff565b63334bd91960e11b5f5260045ffd5b3461032557602036600319011261032557600435607455005b3461032557602036600319011261032557611ff86004356130f6565b82919291612024575b8261201b575b506040805191151582529115156020820152f35b15915082612007565b80159150612001565b346103255760203660031901126103255760043561204961321e565b335f52603a60205260ff60405f2054166121e257612066816130f6565b9091159182156121da575b5081156121d2575b506111e6575f818152603860209081526040808320603f83528184203385529092529091205460049091018054918281108015906121ad575b610bf9575f19830192831161069e576120ce6120ee9383612fdc565b905460039190911b1c6001600160a01b0316338103612187575b50613397565b805f52603f60205260405f2060018060a01b0333165f526020525f604081205561211733613245565b90815f52603860205280600760405f2001555f526038602052600560405f2001805490600160401b821015612173578161215991600161216f94018155612fdc565b819391549060031b91821b915f19901b19161790565b9055005b634e487b7160e01b5f52604160045260245ffd5b845f52603f60205260405f209060018060a01b03165f526020528060405f2055846120e8565b506121b88183612fdc565b905460039190911b1c6001600160a01b03163314156120b2565b905082612079565b915083612071565b630ad2d8d560e31b5f523360045260245ffd5b34610325576040366003190112610325576107b9600435612214612cfa565b906122216107af82612fbe565b613345565b34610325575f366003190112610325575f546040516001600160a01b039091168152602090f35b3461032557602036600319011261032557612266612ce4565b61226e613146565b61227781613387565b5f80546001600160a01b0319166001600160a01b0392909216919091179055005b34610325576040366003190112610325576001600160a01b036122b9612ce4565b16805f52603960205260405f2054156122e6575f526039602052602060243560405f205414604051908152f35b63529f6aeb60e11b5f5260045260245ffd5b34610325576020366003190112610325576020612316600435612fbe565b604051908152f35b3461032557604036600319011261032557612337612ce4565b602435612342613146565b61234a61321e565b61235382613092565b949215918215612419575b508115612411575b50610e865750815f526038602052600660405f2001612386828254612fb1565b90555f82815260386020526040902060068101546004909101546123c4916123ae9190612fb1565b835f526038602052600560405f20015490612fb1565b603e54106123fe577fac52b63ac21eb6a0502ba1afddeff39668a3e6c7ceb05367e6563c8bd14cd8059160409182519182526020820152a1005b50635a092a1d60e11b5f5260045260245ffd5b905084612366565b91508561235e565b34610325576020366003190112610325576004355f52603860205261244b600560405f2001612f05565b6040518091602082016020835281518091526020604084019201905f5b818110612476575050500390f35b8251845285945060209384019390920191600101612468565b34610325576020366003190112610325576124a8612ce4565b6124b061318f565b6124b981613461565b6124bf57005b5f80516020613a328339815191525f525f805160206139528339815191526020526107b9906001600160a01b03167f46448fd7a7b40360a1323cb3199d0aafeb92ce905bb512a6bb7d3d3f685cf1b16137ee565b346103255760a03660031901126103255761252c612ce4565b612534612cfa565b604435916001600160a01b0383168303610325576064356001600160a01b03811693909290848403610325576084356001600160a01b03811690819003610325575f80516020613a72833981519152549560ff8760401c16159667ffffffffffffffff81168015908161285c575b6001149081612852575b159081612849575b5061283a5767ffffffffffffffff1981166001175f80516020613a72833981519152558761280e575b506125e6613436565b6001600160a01b03851692831580156127fd575b80156127f5575b6127e65761269d9661263c91612615613436565b61261e81613387565b60018060a01b03166001600160601b0360a01b5f5416175f55613387565b6001600160601b0360a01b60015416176001556001600160601b0360a01b600354161760035561266b8361362a565b6127a7575b5061267a816136bd565b61274c575b50612688613436565b610800603e556080603d556001603655613245565b5060015f8190526038602052600a7f33a28b70ecab075fc507d0cb5ffac06e3bc912aa6c671a1fa4ccb48318e19b17557f33a28b70ecab075fc507d0cb5ffac06e3bc912aa6c671a1fa4ccb48318e19b18556126f557005b68ff0000000000000000195f80516020613a7283398151915254165f80516020613a72833981519152557fc7f505b2f371ae2175ee4913f4499e1f2633a7b5936321eed1cdaeb6115181d2602060405160018152a1005b5f80516020613a328339815191525f525f805160206139528339815191526020526127a0906001600160a01b03167f46448fd7a7b40360a1323cb3199d0aafeb92ce905bb512a6bb7d3d3f685cf1b161389f565b508361267f565b5f805160206139928339815191525f525f805160206139528339815191526020526127df905f80516020613a5283398151915261389f565b5084612670565b63d92e233d60e01b5f5260045ffd5b508215612601565b506001600160a01b038516156125fa565b68ffffffffffffffffff191668010000000000000001175f80516020613a7283398151915255876125dd565b63f92ee8a960e01b5f5260045ffd5b905015896125b4565b303b1591506125ac565b8991506125a2565b34610325575f366003190112610325576020603d54604051908152f35b34610325576020366003190112610325576108006004356128a0613146565b6128a861321e565b80603d55116128b357005b63b315b31d60e01b5f525f60045260245ffd5b34610325576020366003190112610325576004356128e2613146565b6128ea61321e565b80603755603e5481116104b05760207f15aea1769167f83f5fc9ac1bedf10a18732f8a29fc4f74ba0b927418d12fa4ce91604051908152a1005b346103255760203660031901126103255760043567ffffffffffffffff811161032557612955903690600401612d10565b9061295e61321e565b5f5b82811061296957005b612977610da4828585612f8d565b9061298061321e565b61298982613387565b6001600160a01b0382165f818152603a602052604090205460ff16612b34576129b133613092565b50909115918215612b2c575b508115612b24575b506111e6576129d383613092565b50905081612b1b575b50612b0957335f52603960205260405f205492835f526038602052600660405f20015415612af657835f52603c60205260405f20825f5260205260405f2054612adf57835f526038602052600460405f200154845f52603f60205260405f20835f5260205260405f2055835f526038602052612a5e81600460405f2001612ff1565b835f526038602052600660405f200193845492831561069e575f19939093019094555f848152603c602090815260408083209483529381529083902042905582519485526001600160a01b0391909116908401526001927f9c6d622696d829eae44c9559a6e96ae07091e9ca797bc02c35a7770dbcf045809190a101612960565b508263330b0ff560e01b5f5260045260245260445ffd5b836314ac648360e21b5f5260045260245ffd5b639e83c77d60e01b5f5260045260245ffd5b905015866129dc565b9050866129c5565b9150876129bd565b630ad2d8d560e31b5f5260045260245ffd5b3461032557602036600319011261032557612b5f612ce4565b612b67613146565b600380546001600160a01b0319166001600160a01b0392909216919091179055005b3461032557602036600319011261032557612ba2612e8e565b506004355f52603860205261043f612bbf600460405f2001612f4d565b604051918291602083526020830190612c7c565b34610325576020366003190112610325576004359063ffffffff60e01b821680920361032557602091635a05180f60e01b8114908115612c15575b5015158152f35b637965db0b60e01b811491508115612c2f575b5083612c0e565b6301ffc9a760e01b14905083612c28565b90602080835192838152019201905f5b818110612c5d5750505090565b82516001600160a01b0316845260209384019390920191600101612c50565b90612c908251608083526080830190612c40565b916020810151928281036020840152602080855192838152019401905f5b818110612cce575050506060816040829301516040850152015191015290565b8251865260209586019590920191600101612cae565b600435906001600160a01b038216820361032557565b602435906001600160a01b038216820361032557565b9181601f840112156103255782359167ffffffffffffffff8311610325576020808501948460051b01011161032557565b60206040818301928281528451809452019201905f5b818110612d645750505090565b82516001600160a01b0316845260209384019390920191600101612d57565b60a0810190811067ffffffffffffffff82111761217357604052565b6080810190811067ffffffffffffffff82111761217357604052565b90601f8019910116810190811067ffffffffffffffff82111761217357604052565b67ffffffffffffffff811161217357601f01601f191660200190565b81601f8201121561032557803590612e1082612ddd565b92612e1e6040519485612dbb565b8284526020838301011161032557815f926020809301838601378301015290565b60243590811515820361032557565b6040906003190112610325576004359060243590565b602060409281835280519182918282860152018484015e5f828201840152601f01601f1916010190565b60405190612e9b82612d9f565b5f6060838181528160208201528260408201520152565b90604051918281549182825260208201905f5260205f20925f5b818110612ee3575050612ee192500383612dbb565b565b84546001600160a01b0316835260019485019487945060209093019201612ecc565b90604051918281549182825260208201905f5260205f20925f5b818110612f34575050612ee192500383612dbb565b8454835260019485019487945060209093019201612f1f565b90604051612f5a81612d9f565b606060038294612f6981612eb2565b8452612f7760018201612f05565b6020850152600281015460408501520154910152565b91908110156110125760051b0190565b356001600160a01b03811681036103255790565b9190820180921161069e57565b5f525f805160206139f2833981519152602052600160405f20015490565b8054821015611012575f5260205f2001905f90565b90815491600160401b8310156121735782613014916001612ee195018155612fdc565b81546001600160a01b0393841660039290921b91821b9390911b1916919091179055565b60405190613047604083612dbb565b601982527f4554484f535f494e544552414354494f4e5f434f4e54524f4c000000000000006020830152565b9081602091031261032557516001600160a01b03811681036103255790565b6001600160a01b03165f908152603960205260409020546130b2816130f6565b9193909290565b604051906130c8604083612dbb565b601182527022aa2427a9afa0aa2a22a9aa20aa24a7a760791b6020830152565b5f19811461069e5760010190565b805f52603860205260405f2091600183015415801580948161313a575b50928015159182613132575b5081613129575090565b90506036541190565b91505f61311f565b60ff915054165f613113565b335f9081525f80516020613972833981519152602052604090205460ff161561316b57565b63e2517d3f60e01b5f52336004525f80516020613a3283398151915260245260445ffd5b335f9081525f805160206139d2833981519152602052604090205460ff16156131b457565b63e2517d3f60e01b5f52336004525f8051602061399283398151915260245260445ffd5b5f8181525f805160206139f28339815191526020908152604080832033845290915290205460ff16156132085750565b63e2517d3f60e01b5f523360045260245260445ffd5b60ff5f80516020613a12833981519152541661323657565b63d93c066560e01b5f5260045ffd5b9061324f82613092565b94929091501561326c578363b62e454560e01b5f5260045260245ffd5b91929091156132e957905b6001600160a01b0381165f8181526039602090815260408083208690558583526038909152902060018101849055426002820155603754600682015590916132c191600301612ff1565b817f9f150021d8fd04eb219a39e3019273bddf99a9a2e434dd2aa8132e32ea9244b05f80a390565b50603654906132f7826130e8565b603655613277565b6133098282613588565b918261331457505090565b5f9182525f805160206139528339815191526020526040909120613341916001600160a01b0316906137ee565b5090565b61334f8282613750565b918261335a57505090565b5f9182525f805160206139528339815191526020526040909120613341916001600160a01b03169061389f565b6001600160a01b0316156127e657565b81549081811015613427575f19820191821161069e578181036133f7575b5050805480156133e3575f1901906133cd8282612fdc565b81549060018060a01b039060031b1b1916905555565b634e487b7160e01b5f52603160045260245ffd5b6130146134076134209385612fdc565b905460039190911b1c6001600160a01b03169184612fdc565b5f806133b5565b634e23d03560e01b5f5260045ffd5b60ff5f80516020613a728339815191525460401c161561345257565b631afcd79f60e31b5f5260045ffd5b6001600160a01b0381165f9081525f80516020613972833981519152602052604090205460ff16156134f2576001600160a01b03165f8181525f8051602061397283398151915260205260408120805460ff191690553391905f80516020613a32833981519152907ff6391f5c32d9c69d2a47ea670b442974b53935d1edc7fd64eb21e047a839171b9080a4600190565b505f90565b6001600160a01b0381165f9081525f805160206139d2833981519152602052604090205460ff16156134f2576001600160a01b03165f8181525f805160206139d283398151915260205260408120805460ff191690553391905f80516020613992833981519152907ff6391f5c32d9c69d2a47ea670b442974b53935d1edc7fd64eb21e047a839171b9080a4600190565b5f8181525f805160206139f2833981519152602090815260408083206001600160a01b038616845290915290205460ff1615613624575f8181525f805160206139f2833981519152602090815260408083206001600160a01b0395909516808452949091528120805460ff19169055339291907ff6391f5c32d9c69d2a47ea670b442974b53935d1edc7fd64eb21e047a839171b9080a4600190565b50505f90565b6001600160a01b0381165f9081525f805160206139d2833981519152602052604090205460ff166134f2576001600160a01b03165f8181525f805160206139d283398151915260205260408120805460ff191660011790553391905f80516020613992833981519152907f2f8788117e7eff1d82e926ec794901d17c78024a50270940304540a733656f0d9080a4600190565b6001600160a01b0381165f9081525f80516020613972833981519152602052604090205460ff166134f2576001600160a01b03165f8181525f8051602061397283398151915260205260408120805460ff191660011790553391905f80516020613a32833981519152907f2f8788117e7eff1d82e926ec794901d17c78024a50270940304540a733656f0d9080a4600190565b5f8181525f805160206139f2833981519152602090815260408083206001600160a01b038616845290915290205460ff16613624575f8181525f805160206139f2833981519152602090815260408083206001600160a01b0395909516808452949091528120805460ff19166001179055339291907f2f8788117e7eff1d82e926ec794901d17c78024a50270940304540a733656f0d9080a4600190565b906001820191815f528260205260405f20548015155f14613897575f19810181811161069e5782545f1981019190821161069e57818103613862575b505050805480156133e3575f1901906138438282612fdc565b8154905f199060031b1b19169055555f526020525f6040812055600190565b6138826138726121599386612fdc565b90549060031b1c92839286612fdc565b90555f528360205260405f20555f808061382a565b505050505f90565b6001810190825f528160205260405f2054155f146138ec578054600160401b811015612173576138d9612159826001879401855584612fdc565b905554915f5260205260405f2055600190565b5050505f90565b90613917575080511561390857805190602001fd5b63d6bda27560e01b5f5260045ffd5b81511580613948575b613928575090565b639996b31560e01b5f9081526001600160a01b0391909116600452602490fd5b50803b1561392056fec1f6fe24621ce81ec5827caf0253cadb74709b061630e6b55e82371705932000b16e88c42fd4e48df2dd6a2eabd6bc9aec654ec170056b470819f8892cc6431cb19546dff01e856fb3f010c267a7b1c60363cf8a4664e21cc89c26224620214e360894a13ba1a3210667c828492db98dca3e2076cc3735a920a3ca505d382bbcc32d4dc01d07c436ad8a6f9a20eadd61263c71fe16f6b5956005ba3b341f51dd02dd7bc7dec4dceedda775e58dd541e08a116c6c53815c0bd028192f7b626800cd5ed15c6e187e77e9aee88184c21f4f2182ab5827cb3b7e07fbedcd63f03300a49807205ce4d355092ef5a8a18f56e8913cf4a201fbe287825b095693c21775008963063c520970ed64c693e920074e4588acd3631097247bb3559890ad6a67f0c57e16840df040f15088dc2f81fe391c3923bec73e23a9662efc9c229c6a00a26469706673582212200e78ca3d3b38cc27f931e84a3af7702867f548cef01ad83efaa6d0eb1480f83864736f6c634300081a0033","linkReferences":{}},"methodIdentifiers":{"ADMIN_ROLE()":"75b238fc","DEFAULT_ADMIN_ROLE()":"a217fddf","OWNER_ROLE()":"e58378bb","UPGRADE_INTERFACE_VERSION()":"ad3cb1cc","addAdmin(address)":"70480275","addInvites(address,uint256)":"20d26736","addInvitesBatch(address[],uint256)":"8bcebdb8","addressBelongsToProfile(address,uint256)":"25d0b09e","addressesForProfile(uint256)":"665de3cb","archiveProfile()":"3ba836a2","assignExistingProfileToAttestation(bytes32,uint256)":"7ca64266","bulkInviteAddresses(address[])":"0db4a5bb","contractAddressManager()":"ade9ae97","createProfile(uint256)":"33bc3ccf","defaultNumberOfInvites()":"f275cda9","deleteAddress(address,bool)":"e01290a1","deleteAddressAtIndex(uint256,bool)":"923160db","expectedSigner()":"2cb3e494","getProfile(uint256)":"f08f4f64","getRoleAdmin(bytes32)":"248a9ca3","getRoleMember(bytes32,uint256)":"9010d07c","getRoleMemberCount(bytes32)":"ca15c873","getRoleMembers(bytes32)":"a3246ad3","grantRole(bytes32,address)":"2f2ff15d","hasRole(bytes32,address)":"91d14854","incrementProfileCount(bool,address,bytes32)":"570f8554","initialize(address,address,address,address,address)":"1459457a","inviteAddress(address)":"5c76577c","inviteInfoForProfileId(uint256)":"05c3d522","invitedIdsForProfile(uint256)":"1e95c11d","isAddressCompromised(address)":"c33b84f3","maxNumberOfAddresses()":"123a9e87","maxNumberOfInvites()":"b07b7e7f","pause()":"8456cb59","paused()":"5c975abb","profileCount()":"ef43acef","profileExistsAndArchivedForId(uint256)":"34ca272c","profileIdByAddress(address)":"89a9132b","profileIdByAttestation(bytes32)":"7dec74d7","profileStatusByAddress(address)":"4a5b307d","profileStatusById(uint256)":"76f3da32","proxiableUUID()":"52d1902d","registerAddress(address,uint256,uint256,bytes)":"3ba0a718","removeAdmin(address)":"1785f53c","renounceRole(bytes32,address)":"36568abe","restoreCompromisedAddress(address)":"d1a44585","restoreProfile()":"5d649cbe","revokeRole(bytes32,address)":"d547741f","sentAt(uint256,address)":"bd7029fd","sentInvitationsForProfile(uint256)":"3eb3ebd8","setDefaultNumberOfInvites(uint256)":"0fa5a1d4","setMaxAddresses(uint256)":"10c70801","setMaxInvites(uint256)":"eed38b86","setTestValue(uint256)":"35960105","signatureUsed(bytes)":"bb10c829","signatureVerifier()":"fde919f6","supportsInterface(bytes4)":"01ffc9a7","targetExistsAndAllowedForId(uint256)":"a12c64b5","testValue()":"8af5de72","uninviteUser(address)":"a238f7b4","unpause()":"3f4ba83a","updateContractAddressManager(address)":"08473f64","updateExpectedSigner(address)":"2bdd87ff","updateOwner(address)":"880cdc31","updateSignatureVerifier(address)":"5667981b","upgradeToAndCall(address,bytes)":"4f1ef286","verifiedProfileIdForAddress(address)":"b8861c23"},"id":138}