{"abi":[{"type":"function","name":"ADMIN_ROLE","inputs":[],"outputs":[{"name":"","type":"bytes32","internalType":"bytes32"}],"stateMutability":"view"},{"type":"function","name":"DEFAULT_ADMIN_ROLE","inputs":[],"outputs":[{"name":"","type":"bytes32","internalType":"bytes32"}],"stateMutability":"view"},{"type":"function","name":"OWNER_ROLE","inputs":[],"outputs":[{"name":"","type":"bytes32","internalType":"bytes32"}],"stateMutability":"view"},{"type":"function","name":"UPGRADE_INTERFACE_VERSION","inputs":[],"outputs":[{"name":"","type":"string","internalType":"string"}],"stateMutability":"view"},{"type":"function","name":"addAdmin","inputs":[{"name":"admin","type":"address","internalType":"address"}],"outputs":[],"stateMutability":"nonpayable"},{"type":"function","name":"contractAddressManager","inputs":[],"outputs":[{"name":"","type":"address","internalType":"contract IContractAddressManager"}],"stateMutability":"view"},{"type":"function","name":"expectedSigner","inputs":[],"outputs":[{"name":"","type":"address","internalType":"address"}],"stateMutability":"view"},{"type":"function","name":"getRoleAdmin","inputs":[{"name":"role","type":"bytes32","internalType":"bytes32"}],"outputs":[{"name":"","type":"bytes32","internalType":"bytes32"}],"stateMutability":"view"},{"type":"function","name":"getRoleMember","inputs":[{"name":"role","type":"bytes32","internalType":"bytes32"},{"name":"index","type":"uint256","internalType":"uint256"}],"outputs":[{"name":"","type":"address","internalType":"address"}],"stateMutability":"view"},{"type":"function","name":"getRoleMemberCount","inputs":[{"name":"role","type":"bytes32","internalType":"bytes32"}],"outputs":[{"name":"","type":"uint256","internalType":"uint256"}],"stateMutability":"view"},{"type":"function","name":"getRoleMembers","inputs":[{"name":"role","type":"bytes32","internalType":"bytes32"}],"outputs":[{"name":"","type":"address[]","internalType":"address[]"}],"stateMutability":"view"},{"type":"function","name":"grantRole","inputs":[{"name":"role","type":"bytes32","internalType":"bytes32"},{"name":"account","type":"address","internalType":"address"}],"outputs":[],"stateMutability":"nonpayable"},{"type":"function","name":"hasRole","inputs":[{"name":"role","type":"bytes32","internalType":"bytes32"},{"name":"account","type":"address","internalType":"address"}],"outputs":[{"name":"","type":"bool","internalType":"bool"}],"stateMutability":"view"},{"type":"function","name":"hasVotedFor","inputs":[{"name":"voter","type":"uint256","internalType":"uint256"},{"name":"targetContract","type":"address","internalType":"address"},{"name":"targetId","type":"uint256","internalType":"uint256"}],"outputs":[{"name":"","type":"bool","internalType":"bool"}],"stateMutability":"view"},{"type":"function","name":"initialize","inputs":[{"name":"owner","type":"address","internalType":"address"},{"name":"admin","type":"address","internalType":"address"},{"name":"expectedSigner","type":"address","internalType":"address"},{"name":"signatureVerifier","type":"address","internalType":"address"},{"name":"contractAddressManagerAddr","type":"address","internalType":"address"}],"outputs":[],"stateMutability":"nonpayable"},{"type":"function","name":"pause","inputs":[],"outputs":[],"stateMutability":"nonpayable"},{"type":"function","name":"paused","inputs":[],"outputs":[{"name":"","type":"bool","internalType":"bool"}],"stateMutability":"view"},{"type":"function","name":"proxiableUUID","inputs":[],"outputs":[{"name":"","type":"bytes32","internalType":"bytes32"}],"stateMutability":"view"},{"type":"function","name":"removeAdmin","inputs":[{"name":"admin","type":"address","internalType":"address"}],"outputs":[],"stateMutability":"nonpayable"},{"type":"function","name":"renounceRole","inputs":[{"name":"role","type":"bytes32","internalType":"bytes32"},{"name":"callerConfirmation","type":"address","internalType":"address"}],"outputs":[],"stateMutability":"nonpayable"},{"type":"function","name":"revokeRole","inputs":[{"name":"role","type":"bytes32","internalType":"bytes32"},{"name":"account","type":"address","internalType":"address"}],"outputs":[],"stateMutability":"nonpayable"},{"type":"function","name":"setTestValue","inputs":[{"name":"_testValue","type":"uint256","internalType":"uint256"}],"outputs":[],"stateMutability":"nonpayable"},{"type":"function","name":"signatureUsed","inputs":[{"name":"","type":"bytes","internalType":"bytes"}],"outputs":[{"name":"","type":"bool","internalType":"bool"}],"stateMutability":"view"},{"type":"function","name":"signatureVerifier","inputs":[],"outputs":[{"name":"","type":"address","internalType":"address"}],"stateMutability":"view"},{"type":"function","name":"supportsInterface","inputs":[{"name":"interfaceId","type":"bytes4","internalType":"bytes4"}],"outputs":[{"name":"","type":"bool","internalType":"bool"}],"stateMutability":"view"},{"type":"function","name":"testValue","inputs":[],"outputs":[{"name":"","type":"uint256","internalType":"uint256"}],"stateMutability":"view"},{"type":"function","name":"unpause","inputs":[],"outputs":[],"stateMutability":"nonpayable"},{"type":"function","name":"updateContractAddressManager","inputs":[{"name":"contractAddressesAddr","type":"address","internalType":"address"}],"outputs":[],"stateMutability":"nonpayable"},{"type":"function","name":"updateExpectedSigner","inputs":[{"name":"signer","type":"address","internalType":"address"}],"outputs":[],"stateMutability":"nonpayable"},{"type":"function","name":"updateOwner","inputs":[{"name":"owner","type":"address","internalType":"address"}],"outputs":[],"stateMutability":"nonpayable"},{"type":"function","name":"updateSignatureVerifier","inputs":[{"name":"sinatureVerifier","type":"address","internalType":"address"}],"outputs":[],"stateMutability":"nonpayable"},{"type":"function","name":"upgradeToAndCall","inputs":[{"name":"newImplementation","type":"address","internalType":"address"},{"name":"data","type":"bytes","internalType":"bytes"}],"outputs":[],"stateMutability":"payable"},{"type":"function","name":"voteCount","inputs":[],"outputs":[{"name":"","type":"uint256","internalType":"uint256"}],"stateMutability":"view"},{"type":"function","name":"voteFor","inputs":[{"name":"targetContract","type":"address","internalType":"address"},{"name":"targetId","type":"uint256","internalType":"uint256"},{"name":"isUpvote","type":"bool","internalType":"bool"}],"outputs":[],"stateMutability":"nonpayable"},{"type":"function","name":"voteIndexFor","inputs":[{"name":"voter","type":"uint256","internalType":"uint256"},{"name":"targetContract","type":"address","internalType":"address"},{"name":"targetId","type":"uint256","internalType":"uint256"}],"outputs":[{"name":"","type":"uint256","internalType":"uint256"}],"stateMutability":"view"},{"type":"function","name":"votes","inputs":[{"name":"","type":"uint256","internalType":"uint256"}],"outputs":[{"name":"isUpvote","type":"bool","internalType":"bool"},{"name":"isArchived","type":"bool","internalType":"bool"},{"name":"targetContract","type":"address","internalType":"address"},{"name":"voter","type":"uint256","internalType":"uint256"},{"name":"targetId","type":"uint256","internalType":"uint256"},{"name":"createdAt","type":"uint256","internalType":"uint256"}],"stateMutability":"view"},{"type":"function","name":"votesCountFor","inputs":[{"name":"targetContract","type":"address","internalType":"address"},{"name":"targetId","type":"uint256","internalType":"uint256"}],"outputs":[{"name":"upvotes","type":"uint256","internalType":"uint256"},{"name":"downvotes","type":"uint256","internalType":"uint256"}],"stateMutability":"view"},{"type":"function","name":"votesInRangeFor","inputs":[{"name":"targetContract","type":"address","internalType":"address"},{"name":"targetId","type":"uint256","internalType":"uint256"},{"name":"fromIdx","type":"uint256","internalType":"uint256"},{"name":"maxLength","type":"uint256","internalType":"uint256"}],"outputs":[{"name":"result","type":"tuple[]","internalType":"struct EthosVote.Vote[]","components":[{"name":"isUpvote","type":"bool","internalType":"bool"},{"name":"isArchived","type":"bool","internalType":"bool"},{"name":"targetContract","type":"address","internalType":"address"},{"name":"voter","type":"uint256","internalType":"uint256"},{"name":"targetId","type":"uint256","internalType":"uint256"},{"name":"createdAt","type":"uint256","internalType":"uint256"}]}],"stateMutability":"view"},{"type":"event","name":"Initialized","inputs":[{"name":"version","type":"uint64","indexed":false,"internalType":"uint64"}],"anonymous":false},{"type":"event","name":"Paused","inputs":[{"name":"account","type":"address","indexed":false,"internalType":"address"}],"anonymous":false},{"type":"event","name":"RoleAdminChanged","inputs":[{"name":"role","type":"bytes32","indexed":true,"internalType":"bytes32"},{"name":"previousAdminRole","type":"bytes32","indexed":true,"internalType":"bytes32"},{"name":"newAdminRole","type":"bytes32","indexed":true,"internalType":"bytes32"}],"anonymous":false},{"type":"event","name":"RoleGranted","inputs":[{"name":"role","type":"bytes32","indexed":true,"internalType":"bytes32"},{"name":"account","type":"address","indexed":true,"internalType":"address"},{"name":"sender","type":"address","indexed":true,"internalType":"address"}],"anonymous":false},{"type":"event","name":"RoleRevoked","inputs":[{"name":"role","type":"bytes32","indexed":true,"internalType":"bytes32"},{"name":"account","type":"address","indexed":true,"internalType":"address"},{"name":"sender","type":"address","indexed":true,"internalType":"address"}],"anonymous":false},{"type":"event","name":"Unpaused","inputs":[{"name":"account","type":"address","indexed":false,"internalType":"address"}],"anonymous":false},{"type":"event","name":"Upgraded","inputs":[{"name":"implementation","type":"address","indexed":true,"internalType":"address"}],"anonymous":false},{"type":"event","name":"VoteChanged","inputs":[{"name":"isUnvote","type":"bool","indexed":false,"internalType":"bool"},{"name":"isUpvote","type":"bool","indexed":false,"internalType":"bool"},{"name":"voter","type":"uint256","indexed":true,"internalType":"uint256"},{"name":"targetContract","type":"address","indexed":true,"internalType":"address"},{"name":"targetId","type":"uint256","indexed":true,"internalType":"uint256"},{"name":"voteId","type":"uint256","indexed":false,"internalType":"uint256"}],"anonymous":false},{"type":"event","name":"Voted","inputs":[{"name":"isUpvote","type":"bool","indexed":false,"internalType":"bool"},{"name":"voter","type":"uint256","indexed":true,"internalType":"uint256"},{"name":"targetContract","type":"address","indexed":true,"internalType":"address"},{"name":"targetId","type":"uint256","indexed":true,"internalType":"uint256"},{"name":"voteId","type":"uint256","indexed":false,"internalType":"uint256"}],"anonymous":false},{"type":"error","name":"AccessControlBadConfirmation","inputs":[]},{"type":"error","name":"AccessControlUnauthorizedAccount","inputs":[{"name":"account","type":"address","internalType":"address"},{"name":"neededRole","type":"bytes32","internalType":"bytes32"}]},{"type":"error","name":"AddressEmptyCode","inputs":[{"name":"target","type":"address","internalType":"address"}]},{"type":"error","name":"ERC1967InvalidImplementation","inputs":[{"name":"implementation","type":"address","internalType":"address"}]},{"type":"error","name":"ERC1967NonPayable","inputs":[]},{"type":"error","name":"EnforcedPause","inputs":[]},{"type":"error","name":"ExpectedPause","inputs":[]},{"type":"error","name":"FailedCall","inputs":[]},{"type":"error","name":"InvalidInitialization","inputs":[]},{"type":"error","name":"InvalidSignature","inputs":[]},{"type":"error","name":"NotInitializing","inputs":[]},{"type":"error","name":"SignatureWasUsed","inputs":[]},{"type":"error","name":"TargetNotFound","inputs":[{"name":"targetContract","type":"address","internalType":"address"},{"name":"targetId","type":"uint256","internalType":"uint256"}]},{"type":"error","name":"UUPSUnauthorizedCallContext","inputs":[]},{"type":"error","name":"UUPSUnsupportedProxiableUUID","inputs":[{"name":"slot","type":"bytes32","internalType":"bytes32"}]},{"type":"error","name":"ZeroAddress","inputs":[]}],"bytecode":{"object":"0x60a06040523461003c57610011610040565b3060805261001d610040565b60405161239a90816100fd8239608051818181610a720152610b040152f35b5f80fd5b7ff0c57e16840df040f15088dc2f81fe391c3923bec73e23a9662efc9c229c6a005460ff8160401c166100ed576002600160401b03196001600160401b038216016100885750565b6001600160401b0319166001600160401b039081177ff0c57e16840df040f15088dc2f81fe391c3923bec73e23a9662efc9c229c6a00556040519081527fc7f505b2f371ae2175ee4913f4499e1f2633a7b5936321eed1cdaeb6115181d290602090a1565b63f92ee8a960e01b5f5260045ffdfe6080806040526004361015610012575f80fd5b5f3560e01c90816301ffc9a71461173f5750806308473f64146116fc5780631459457a146114155780631785f53c14611391578063248a9ca3146113735780632bdd87ff146113285780632cb3e494146113015780632f2ff15d146112d057806331547ea614610e105780633596010514610df757806336568abe14610db35780633f4ba83a14610cdf5780634a8052f414610cc45780634f1ef28614610ac657806352d1902d14610a605780635667981b14610a14578063571e71e1146109055780635c975abb146108d75780635df813301461086657806370480275146107e257806375b238fc146107bb5780638456cb5914610686578063880cdc311461056b5780638af5de721461054e5780639010d07c146104fc57806391d14854146104a7578063a217fddf1461048d578063a3246ad3146103d2578063a36bf06e146103af578063ad3cb1cc1461036c578063ade9ae9714610344578063bb10c829146102e9578063c6384071146102cc578063ca15c87314610296578063d547741f1461025e578063e58378bb14610237578063fc7e353f146101ea5763fde919f6146101be575f80fd5b346101e6575f3660031901126101e6576001546040516001600160a01b039091168152602090f35b5f80fd5b346101e65760403660031901126101e6576001600160a01b0361020b6117ac565b165f52603860205260405f206024355f526020526040805f206001815491015482519182526020820152f35b346101e6575f3660031901126101e65760206040515f805160206122658339815191528152f35b346101e65760403660031901126101e65761029460043561027d6117c2565b9061028f61028a826118cc565b611a13565b611a59565b005b346101e65760203660031901126101e6576004355f525f80516020612225833981519152602052602060405f2054604051908152f35b346101e6575f3660031901126101e6576020603654604051908152f35b346101e65760203660031901126101e65760043567ffffffffffffffff81116101e65760ff6020806103208194369060040161185c565b604051928184925191829101835e8101600281520301902054166040519015158152f35b346101e6575f3660031901126101e6576003546040516001600160a01b039091168152602090f35b346101e6575f3660031901126101e6576103ab60405161038d60408261181e565b60058152640352e302e360dc1b6020820152604051918291826118a2565b0390f35b346101e65760206103c86103c2366117d8565b91611951565b1515604051908152f35b346101e65760203660031901126101e6576004355f525f8051602061222583398151915260205260405f20604051806020835491828152019081935f5260205f20905f5b818110610477575050508161042c91038261181e565b604051918291602083019060208452518091526040830191905f5b818110610455575050500390f35b82516001600160a01b0316845285945060209384019390920191600101610447565b8254845260209093019260019283019201610416565b346101e6575f3660031901126101e65760206040515f8152f35b346101e65760403660031901126101e6576104c06117c2565b6004355f525f805160206122c583398151915260205260405f209060018060a01b03165f52602052602060ff60405f2054166040519015158152f35b346101e65760403660031901126101e6576004355f525f80516020612225833981519152602052602061053560405f2060243590611b08565b905460405160039290921b1c6001600160a01b03168152f35b346101e6575f3660031901126101e6576020606b54604051908152f35b346101e65760203660031901126101e6576105846117ac565b61058c6119ca565b5f805160206122658339815191525f525f805160206122258339815191526020525f80516020612325833981519152805415610672575f90815260209020546001600160a01b03166105dd81611d65565b610633575b506105ec81611ea8565b6105f257005b5f805160206122658339815191525f525f80516020612225833981519152602052610294906001600160a01b03165f80516020612325833981519152612179565b5f805160206122658339815191525f525f8051602061222583398151915260205261066b905f805160206123258339815191526120b4565b50816105e2565b634e487b7160e01b5f52603260045260245ffd5b346101e6575f3660031901126101e6576003546106cd906020906001600160a01b03166106b1611916565b90604051808095819463d57f7aa360e01b8352600483016118a2565b03915afa9081156107b0575f91610781575b50336001600160a01b039091160361074a576106f9611ae1565b600160ff195f805160206122e58339815191525416175f805160206122e5833981519152557f62e78cea01bee320cd4e420270b5ea74000d11b0c9f74754ebdbfc544b05a2586020604051338152a1005b63e2517d3f60e01b5f52336004527f261fea28325784de45eba41a3fbb84c4196fbab02ee802566edfe26616ba5afb60245260445ffd5b6107a3915060203d6020116107a9575b61079b818361181e565b8101906118f7565b816106df565b503d610791565b6040513d5f823e3d90fd5b346101e6575f3660031901126101e65760206040515f805160206123058339815191528152f35b346101e65760203660031901126101e6576107fb6117ac565b6108036119ca565b61080c81611f3b565b61081257005b5f805160206123058339815191525f525f80516020612225833981519152602052610294906001600160a01b03167f46448fd7a7b40360a1323cb3199d0aafeb92ce905bb512a6bb7d3d3f685cf1b1612179565b346101e65760203660031901126101e6576004355f52603760205260c060405f2080549060018101549060036002820154910154916040519360ff81161515855260ff8160081c161515602086015260018060a01b039060101c1660408501526060840152608083015260a0820152f35b346101e6575f3660031901126101e657602060ff5f805160206122e583398151915254166040519015158152f35b346101e65760803660031901126101e6576001600160a01b036109266117ac565b165f52603860205260405f206024355f52602052600260405f20016040519081602082549182815201915f5260205f20905f5b8181106109fe5761097b856109708187038261181e565b604435606435611b77565b6040518091602082016020835281518091526020604084019201905f5b8181106109a6575050500390f35b91935091602060c060019260a08751805115158352848101511515858401528580831b0360408201511660408401526060810151606084015260808101516080840152015160a0820152019401910191849392610998565b8254845260209093019260019283019201610959565b346101e65760203660031901126101e657610a2d6117ac565b610a35611981565b610a3e81611e98565b600180546001600160a01b0319166001600160a01b0392909216919091179055005b346101e6575f3660031901126101e6577f00000000000000000000000000000000000000000000000000000000000000006001600160a01b03163003610ab75760206040515f805160206122858339815191528152f35b63703e46dd60e11b5f5260045ffd5b60403660031901126101e657610ada6117ac565b60243567ffffffffffffffff81116101e657610afa90369060040161185c565b6001600160a01b037f000000000000000000000000000000000000000000000000000000000000000016308114908115610ca2575b50610ab757610b3c6119ca565b610b4582611e98565b6040516352d1902d60e01b81526001600160a01b0383169290602081600481875afa5f9181610c6e575b50610b875783634c9c8ce360e01b5f5260045260245ffd5b805f80516020612285833981519152859203610c5c5750813b15610c4a575f8051602061228583398151915280546001600160a01b031916821790557fbc7cd75a20ee27fd9adebab32041f755214dbc6bffa90cc0225b39da2e5c2d3b5f80a2815115610c32575f8083602061029495519101845af43d15610c2a573d91610c0e83611840565b92610c1c604051948561181e565b83523d5f602085013e6121c6565b6060916121c6565b505034610c3b57005b63b398979f60e01b5f5260045ffd5b634c9c8ce360e01b5f5260045260245ffd5b632a87526960e21b5f5260045260245ffd5b9091506020813d602011610c9a575b81610c8a6020938361181e565b810103126101e657519085610b6f565b3d9150610c7d565b5f80516020612285833981519152546001600160a01b03161415905083610b2f565b346101e6576020610cd76103c2366117d8565b604051908152f35b346101e6575f3660031901126101e657600354610d0a906020906001600160a01b03166106b1611916565b03915afa9081156107b0575f91610d94575b50336001600160a01b039091160361074a575f805160206122e58339815191525460ff811615610d855760ff19165f805160206122e5833981519152557f5db9ee0a495bf2e6ff9c91a7834c1ba4fdd244a5e8aa4e537bd38aeae4b073aa6020604051338152a1005b638dfc202b60e01b5f5260045ffd5b610dad915060203d6020116107a95761079b818361181e565b81610d1c565b346101e65760403660031901126101e657610dcc6117c2565b336001600160a01b03821603610de85761029490600435611a59565b63334bd91960e11b5f5260045ffd5b346101e65760203660031901126101e657600435606b55005b346101e65760603660031901126101e657610e296117ac565b602435604435801515908181036101e657610e42611ae1565b6040805163a12c64b560e01b8152600481018590526001600160a01b038616939181602481875afa9081156107b0575f91611289575b50156112725760035460408051610ed5979192602091906001600160a01b0316610ea2858361181e565b600d82526c4554484f535f50524f46494c4560981b83830152845180809b819463d57f7aa360e01b8352600483016118a2565b03915afa96871561124b5760249596976020915f91611255575b50835163b8861c2360e01b815233600482015296879182906001600160a01b03165afa94851561124b575f95611217575b50610f2c878287611951565b1561109657917f9b2653b457da2bdb4c85a991d1c58cb963aa8caf3d259bab62d004a348d819609391610f628860609588611951565b91875f526038602052815f20895f52602052815f20835f526037602052825f209485549560ff87169260ff85851515149860081c165f14610ff057610fcc93508215610fdc57610fb28154611b1d565b90555b805491151560ff1661ffff19909216919091179055565b81519384526020840152820152a4005b600101610fe98154611b1d565b9055610fb5565b915091865f146110385750815460ff16156110245761100f8154611b3f565b90555b805461ff001916610100179055610fcc565b6001016110318154611b3f565b9055611012565b6110739291600191156110785761104f8154611b3f565b81550161105c8154611b1d565b90555b805460ff818116151660ff19909116179055565b610fcc565b6110828154611b1d565b81550161108f8154611b3f565b905561105f565b509492909391825f526038602052855f20845f52602052855f209560365496835f526003810160205287825f20556002810192835498600160401b8a10156112035761112561110f8b7ffeda367d5feb48361501c702cd43bdba989f2c4da53792e4d6cddaaa2fe148429760016111ea9e018155611b08565b819391549060031b91821b915f19901b19161790565b9055156111ef576111368154611b1d565b90555b805161114481611802565b8681526003602082015f81528383018781526060840187815260808501918a835260a08601934285526036545f526037602052611193885f2097511515889060ff801983541691151516179055565b5186549151610100600160b01b031990921690151560081b61ff00161760109190911b62010000600160b01b03161785555160018501555160028401555191015560365481519687526020870181905295a4611b1d565b603655005b6001016111fc8154611b1d565b9055611139565b634e487b7160e01b5f52604160045260245ffd5b9094506020813d602011611243575b816112336020938361181e565b810103126101e657519387610f20565b3d9150611226565b82513d5f823e3d90fd5b61126c9150823d84116107a95761079b818361181e565b89610eef565b5050633f2dc18160e11b5f5260045260245260445ffd5b90506040813d6040116112c8575b816112a46040938361181e565b810103126101e6576112c160206112ba836118ea565b92016118ea565b5086610e78565b3d9150611297565b346101e65760403660031901126101e6576102946004356112ef6117c2565b906112fc61028a826118cc565b611a9f565b346101e6575f3660031901126101e6575f546040516001600160a01b039091168152602090f35b346101e65760203660031901126101e6576113416117ac565b611349611981565b61135281611e98565b5f80546001600160a01b0319166001600160a01b0392909216919091179055005b346101e65760203660031901126101e6576020610cd76004356118cc565b346101e65760203660031901126101e6576113aa6117ac565b6113b26119ca565b6113bb81611ccf565b6113c157005b5f805160206123058339815191525f525f80516020612225833981519152602052610294906001600160a01b03167f46448fd7a7b40360a1323cb3199d0aafeb92ce905bb512a6bb7d3d3f685cf1b16120b4565b346101e65760a03660031901126101e65761142e6117ac565b6114366117c2565b6044356001600160a01b03811681036101e6576064356001600160a01b038116938482036101e6576084356001600160a01b038116908190036101e6575f80516020612345833981519152549560ff8760401c16159667ffffffffffffffff8116801590816116f4575b60011490816116ea575b1590816116e1575b506116d25767ffffffffffffffff1981166001175f8051602061234583398151915255876116a6575b506114e4611ca4565b6001600160a01b0383169485158015611695575b801561168d575b61167e576115659461153a91611513611ca4565b61151c81611e98565b60018060a01b03166001600160601b0360a01b5f5416175f55611e98565b6001600160601b0360a01b60015416176001556001600160601b0360a01b6003541617600355611ea8565b61163f575b5061157481611f3b565b6115e4575b50611582611ca4565b600160365561158d57005b68ff0000000000000000195f8051602061234583398151915254165f80516020612345833981519152557fc7f505b2f371ae2175ee4913f4499e1f2633a7b5936321eed1cdaeb6115181d2602060405160018152a1005b5f805160206123058339815191525f525f80516020612225833981519152602052611638906001600160a01b03167f46448fd7a7b40360a1323cb3199d0aafeb92ce905bb512a6bb7d3d3f685cf1b1612179565b5081611579565b5f805160206122658339815191525f525f80516020612225833981519152602052611677905f80516020612325833981519152612179565b508261156a565b63d92e233d60e01b5f5260045ffd5b5082156114ff565b506001600160a01b038716156114f8565b68ffffffffffffffffff191668010000000000000001175f8051602061234583398151915255876114db565b63f92ee8a960e01b5f5260045ffd5b905015896114b2565b303b1591506114aa565b8991506114a0565b346101e65760203660031901126101e6576117156117ac565b61171d611981565b600380546001600160a01b0319166001600160a01b0392909216919091179055005b346101e65760203660031901126101e6576004359063ffffffff60e01b82168092036101e657602091635a05180f60e01b8114908115611781575b5015158152f35b637965db0b60e01b81149150811561179b575b508361177a565b6301ffc9a760e01b14905083611794565b600435906001600160a01b03821682036101e657565b602435906001600160a01b03821682036101e657565b60609060031901126101e657600435906024356001600160a01b03811681036101e6579060443590565b60c0810190811067ffffffffffffffff82111761120357604052565b90601f8019910116810190811067ffffffffffffffff82111761120357604052565b67ffffffffffffffff811161120357601f01601f191660200190565b81601f820112156101e65780359061187382611840565b92611881604051948561181e565b828452602083830101116101e657815f926020809301838601378301015290565b602060409281835280519182918282860152018484015e5f828201840152601f01601f1916010190565b5f525f805160206122c5833981519152602052600160405f20015490565b519081151582036101e657565b908160209103126101e657516001600160a01b03811681036101e65790565b6040519061192560408361181e565b601982527f4554484f535f494e544552414354494f4e5f434f4e54524f4c000000000000006020830152565b919060018060a01b03165f52603860205260405f20905f52602052600360405f2001905f5260205260405f205490565b335f9081525f80516020612245833981519152602052604090205460ff16156119a657565b63e2517d3f60e01b5f52336004525f8051602061230583398151915260245260445ffd5b335f9081525f805160206122a5833981519152602052604090205460ff16156119ef57565b63e2517d3f60e01b5f52336004525f8051602061226583398151915260245260445ffd5b5f8181525f805160206122c58339815191526020908152604080832033845290915290205460ff1615611a435750565b63e2517d3f60e01b5f523360045260245260445ffd5b611a638282611df6565b9182611a6e57505090565b5f9182525f805160206122258339815191526020526040909120611a9b916001600160a01b0316906120b4565b5090565b611aa98282611fce565b9182611ab457505090565b5f9182525f805160206122258339815191526020526040909120611a9b916001600160a01b031690612179565b60ff5f805160206122e58339815191525416611af957565b63d93c066560e01b5f5260045ffd5b8054821015610672575f5260205f2001905f90565b5f198114611b2b5760010190565b634e487b7160e01b5f52601160045260245ffd5b8015611b2b575f190190565b67ffffffffffffffff81116112035760051b60200190565b80518210156106725760209160051b010190565b81611b879194939294835161206c565b8015611c9c57611b9681611b4b565b91611ba4604051938461181e565b818352601f19611bb383611b4b565b015f5b818110611c6157505082945f5b838110611bd1575050505050565b80820190818311611b2b57611be860019285611b63565b515f52603760205260405f20600360405191611c0383611802565b805460ff81161515845260ff8160081c1615156020850152858060a01b039060101c16604084015284810154606084015260028101546080840152015460a0820152611c4f8288611b63565b52611c5a8187611b63565b5001611bc3565b602090604051611c7081611802565b5f81525f838201525f60408201525f60608201525f60808201525f60a082015282828801015201611bb6565b506060925050565b60ff5f805160206123458339815191525460401c1615611cc057565b631afcd79f60e31b5f5260045ffd5b6001600160a01b0381165f9081525f80516020612245833981519152602052604090205460ff1615611d60576001600160a01b03165f8181525f8051602061224583398151915260205260408120805460ff191690553391905f80516020612305833981519152907ff6391f5c32d9c69d2a47ea670b442974b53935d1edc7fd64eb21e047a839171b9080a4600190565b505f90565b6001600160a01b0381165f9081525f805160206122a5833981519152602052604090205460ff1615611d60576001600160a01b03165f8181525f805160206122a583398151915260205260408120805460ff191690553391905f80516020612265833981519152907ff6391f5c32d9c69d2a47ea670b442974b53935d1edc7fd64eb21e047a839171b9080a4600190565b5f8181525f805160206122c5833981519152602090815260408083206001600160a01b038616845290915290205460ff1615611e92575f8181525f805160206122c5833981519152602090815260408083206001600160a01b0395909516808452949091528120805460ff19169055339291907ff6391f5c32d9c69d2a47ea670b442974b53935d1edc7fd64eb21e047a839171b9080a4600190565b50505f90565b6001600160a01b03161561167e57565b6001600160a01b0381165f9081525f805160206122a5833981519152602052604090205460ff16611d60576001600160a01b03165f8181525f805160206122a583398151915260205260408120805460ff191660011790553391905f80516020612265833981519152907f2f8788117e7eff1d82e926ec794901d17c78024a50270940304540a733656f0d9080a4600190565b6001600160a01b0381165f9081525f80516020612245833981519152602052604090205460ff16611d60576001600160a01b03165f8181525f8051602061224583398151915260205260408120805460ff191660011790553391905f80516020612305833981519152907f2f8788117e7eff1d82e926ec794901d17c78024a50270940304540a733656f0d9080a4600190565b5f8181525f805160206122c5833981519152602090815260408083206001600160a01b038616845290915290205460ff16611e92575f8181525f805160206122c5833981519152602090815260408083206001600160a01b0395909516808452949091528120805460ff19166001179055339291907f2f8788117e7eff1d82e926ec794901d17c78024a50270940304540a733656f0d9080a4600190565b91821580156120ac575b80156120a2575b61209b578203918211611b2b5781811115612096575090565b905090565b5050505f90565b508281101561207d565b508115612076565b906001820191815f528260205260405f20548015155f14612171575f198101818111611b2b5782545f19810191908211611b2b5781810361213c575b50505080548015612128575f1901906121098282611b08565b8154905f199060031b1b19169055555f526020525f6040812055600190565b634e487b7160e01b5f52603160045260245ffd5b61215c61214c61110f9386611b08565b90549060031b1c92839286611b08565b90555f528360205260405f20555f80806120f0565b505050505f90565b6001810190825f528160205260405f2054155f1461209b578054600160401b811015611203576121b361110f826001879401855584611b08565b905554915f5260205260405f2055600190565b906121ea57508051156121db57805190602001fd5b63d6bda27560e01b5f5260045ffd5b8151158061221b575b6121fb575090565b639996b31560e01b5f9081526001600160a01b0391909116600452602490fd5b50803b156121f356fec1f6fe24621ce81ec5827caf0253cadb74709b061630e6b55e82371705932000b16e88c42fd4e48df2dd6a2eabd6bc9aec654ec170056b470819f8892cc6431cb19546dff01e856fb3f010c267a7b1c60363cf8a4664e21cc89c26224620214e360894a13ba1a3210667c828492db98dca3e2076cc3735a920a3ca505d382bbcc32d4dc01d07c436ad8a6f9a20eadd61263c71fe16f6b5956005ba3b341f51dd02dd7bc7dec4dceedda775e58dd541e08a116c6c53815c0bd028192f7b626800cd5ed15c6e187e77e9aee88184c21f4f2182ab5827cb3b7e07fbedcd63f03300a49807205ce4d355092ef5a8a18f56e8913cf4a201fbe287825b095693c21775008963063c520970ed64c693e920074e4588acd3631097247bb3559890ad6a67f0c57e16840df040f15088dc2f81fe391c3923bec73e23a9662efc9c229c6a00a264697066735822122032d32950fc97e917067476a5f3c43ea2ebae54f689e21b16c351804485c0ba4464736f6c634300081a0033","linkReferences":{}},"methodIdentifiers":{"ADMIN_ROLE()":"75b238fc","DEFAULT_ADMIN_ROLE()":"a217fddf","OWNER_ROLE()":"e58378bb","UPGRADE_INTERFACE_VERSION()":"ad3cb1cc","addAdmin(address)":"70480275","contractAddressManager()":"ade9ae97","expectedSigner()":"2cb3e494","getRoleAdmin(bytes32)":"248a9ca3","getRoleMember(bytes32,uint256)":"9010d07c","getRoleMemberCount(bytes32)":"ca15c873","getRoleMembers(bytes32)":"a3246ad3","grantRole(bytes32,address)":"2f2ff15d","hasRole(bytes32,address)":"91d14854","hasVotedFor(uint256,address,uint256)":"a36bf06e","initialize(address,address,address,address,address)":"1459457a","pause()":"8456cb59","paused()":"5c975abb","proxiableUUID()":"52d1902d","removeAdmin(address)":"1785f53c","renounceRole(bytes32,address)":"36568abe","revokeRole(bytes32,address)":"d547741f","setTestValue(uint256)":"35960105","signatureUsed(bytes)":"bb10c829","signatureVerifier()":"fde919f6","supportsInterface(bytes4)":"01ffc9a7","testValue()":"8af5de72","unpause()":"3f4ba83a","updateContractAddressManager(address)":"08473f64","updateExpectedSigner(address)":"2bdd87ff","updateOwner(address)":"880cdc31","updateSignatureVerifier(address)":"5667981b","upgradeToAndCall(address,bytes)":"4f1ef286","voteCount()":"c6384071","voteFor(address,uint256,bool)":"31547ea6","voteIndexFor(uint256,address,uint256)":"4a8052f4","votes(uint256)":"5df81330","votesCountFor(address,uint256)":"fc7e353f","votesInRangeFor(address,uint256,uint256,uint256)":"571e71e1"},"id":140}