{"abi":[{"type":"function","name":"ADMIN_ROLE","inputs":[],"outputs":[{"name":"","type":"bytes32","internalType":"bytes32"}],"stateMutability":"view"},{"type":"function","name":"DEFAULT_ADMIN_ROLE","inputs":[],"outputs":[{"name":"","type":"bytes32","internalType":"bytes32"}],"stateMutability":"view"},{"type":"function","name":"OWNER_ROLE","inputs":[],"outputs":[{"name":"","type":"bytes32","internalType":"bytes32"}],"stateMutability":"view"},{"type":"function","name":"UPGRADE_INTERFACE_VERSION","inputs":[],"outputs":[{"name":"","type":"string","internalType":"string"}],"stateMutability":"view"},{"type":"function","name":"addAdmin","inputs":[{"name":"admin","type":"address","internalType":"address"}],"outputs":[],"stateMutability":"nonpayable"},{"type":"function","name":"addReply","inputs":[{"name":"targetContract","type":"address","internalType":"address"},{"name":"targetId","type":"uint256","internalType":"uint256"},{"name":"content","type":"string","internalType":"string"},{"name":"metadata","type":"string","internalType":"string"}],"outputs":[],"stateMutability":"nonpayable"},{"type":"function","name":"contractAddressManager","inputs":[],"outputs":[{"name":"","type":"address","internalType":"contract IContractAddressManager"}],"stateMutability":"view"},{"type":"function","name":"directRepliesInRange","inputs":[{"name":"targetContract","type":"address","internalType":"address"},{"name":"parentId","type":"uint256","internalType":"uint256"},{"name":"fromIdx","type":"uint256","internalType":"uint256"},{"name":"maxLength","type":"uint256","internalType":"uint256"}],"outputs":[{"name":"result","type":"tuple[]","internalType":"struct EthosDiscussion.Reply[]","components":[{"name":"parentIsOriginalComment","type":"bool","internalType":"bool"},{"name":"targetContract","type":"address","internalType":"address"},{"name":"authorProfileId","type":"uint256","internalType":"uint256"},{"name":"id","type":"uint256","internalType":"uint256"},{"name":"parentId","type":"uint256","internalType":"uint256"},{"name":"createdAt","type":"uint256","internalType":"uint256"},{"name":"edits","type":"uint256","internalType":"uint256"},{"name":"content","type":"string","internalType":"string"},{"name":"metadata","type":"string","internalType":"string"}]}],"stateMutability":"view"},{"type":"function","name":"directReplyCount","inputs":[{"name":"targetContract","type":"address","internalType":"address"},{"name":"targetId","type":"uint256","internalType":"uint256"}],"outputs":[{"name":"count","type":"uint256","internalType":"uint256"}],"stateMutability":"view"},{"type":"function","name":"editReply","inputs":[{"name":"replyId","type":"uint256","internalType":"uint256"},{"name":"content","type":"string","internalType":"string"},{"name":"metadata","type":"string","internalType":"string"}],"outputs":[],"stateMutability":"nonpayable"},{"type":"function","name":"expectedSigner","inputs":[],"outputs":[{"name":"","type":"address","internalType":"address"}],"stateMutability":"view"},{"type":"function","name":"getRoleAdmin","inputs":[{"name":"role","type":"bytes32","internalType":"bytes32"}],"outputs":[{"name":"","type":"bytes32","internalType":"bytes32"}],"stateMutability":"view"},{"type":"function","name":"getRoleMember","inputs":[{"name":"role","type":"bytes32","internalType":"bytes32"},{"name":"index","type":"uint256","internalType":"uint256"}],"outputs":[{"name":"","type":"address","internalType":"address"}],"stateMutability":"view"},{"type":"function","name":"getRoleMemberCount","inputs":[{"name":"role","type":"bytes32","internalType":"bytes32"}],"outputs":[{"name":"","type":"uint256","internalType":"uint256"}],"stateMutability":"view"},{"type":"function","name":"getRoleMembers","inputs":[{"name":"role","type":"bytes32","internalType":"bytes32"}],"outputs":[{"name":"","type":"address[]","internalType":"address[]"}],"stateMutability":"view"},{"type":"function","name":"grantRole","inputs":[{"name":"role","type":"bytes32","internalType":"bytes32"},{"name":"account","type":"address","internalType":"address"}],"outputs":[],"stateMutability":"nonpayable"},{"type":"function","name":"hasRole","inputs":[{"name":"role","type":"bytes32","internalType":"bytes32"},{"name":"account","type":"address","internalType":"address"}],"outputs":[{"name":"","type":"bool","internalType":"bool"}],"stateMutability":"view"},{"type":"function","name":"initialize","inputs":[{"name":"owner","type":"address","internalType":"address"},{"name":"admin","type":"address","internalType":"address"},{"name":"expectedSigner","type":"address","internalType":"address"},{"name":"signatureVerifier","type":"address","internalType":"address"},{"name":"contractAddressManagerAddr","type":"address","internalType":"address"}],"outputs":[],"stateMutability":"nonpayable"},{"type":"function","name":"pause","inputs":[],"outputs":[],"stateMutability":"nonpayable"},{"type":"function","name":"paused","inputs":[],"outputs":[{"name":"","type":"bool","internalType":"bool"}],"stateMutability":"view"},{"type":"function","name":"proxiableUUID","inputs":[],"outputs":[{"name":"","type":"bytes32","internalType":"bytes32"}],"stateMutability":"view"},{"type":"function","name":"removeAdmin","inputs":[{"name":"admin","type":"address","internalType":"address"}],"outputs":[],"stateMutability":"nonpayable"},{"type":"function","name":"renounceRole","inputs":[{"name":"role","type":"bytes32","internalType":"bytes32"},{"name":"callerConfirmation","type":"address","internalType":"address"}],"outputs":[],"stateMutability":"nonpayable"},{"type":"function","name":"repliesByAuthorInRange","inputs":[{"name":"author","type":"uint256","internalType":"uint256"},{"name":"fromIdx","type":"uint256","internalType":"uint256"},{"name":"maxLength","type":"uint256","internalType":"uint256"}],"outputs":[{"name":"result","type":"tuple[]","internalType":"struct EthosDiscussion.Reply[]","components":[{"name":"parentIsOriginalComment","type":"bool","internalType":"bool"},{"name":"targetContract","type":"address","internalType":"address"},{"name":"authorProfileId","type":"uint256","internalType":"uint256"},{"name":"id","type":"uint256","internalType":"uint256"},{"name":"parentId","type":"uint256","internalType":"uint256"},{"name":"createdAt","type":"uint256","internalType":"uint256"},{"name":"edits","type":"uint256","internalType":"uint256"},{"name":"content","type":"string","internalType":"string"},{"name":"metadata","type":"string","internalType":"string"}]}],"stateMutability":"view"},{"type":"function","name":"repliesById","inputs":[{"name":"replyIds","type":"uint256[]","internalType":"uint256[]"}],"outputs":[{"name":"result","type":"tuple[]","internalType":"struct EthosDiscussion.Reply[]","components":[{"name":"parentIsOriginalComment","type":"bool","internalType":"bool"},{"name":"targetContract","type":"address","internalType":"address"},{"name":"authorProfileId","type":"uint256","internalType":"uint256"},{"name":"id","type":"uint256","internalType":"uint256"},{"name":"parentId","type":"uint256","internalType":"uint256"},{"name":"createdAt","type":"uint256","internalType":"uint256"},{"name":"edits","type":"uint256","internalType":"uint256"},{"name":"content","type":"string","internalType":"string"},{"name":"metadata","type":"string","internalType":"string"}]}],"stateMutability":"view"},{"type":"function","name":"replyCount","inputs":[],"outputs":[{"name":"","type":"uint256","internalType":"uint256"}],"stateMutability":"view"},{"type":"function","name":"revokeRole","inputs":[{"name":"role","type":"bytes32","internalType":"bytes32"},{"name":"account","type":"address","internalType":"address"}],"outputs":[],"stateMutability":"nonpayable"},{"type":"function","name":"setTestValue","inputs":[{"name":"_testValue","type":"uint256","internalType":"uint256"}],"outputs":[],"stateMutability":"nonpayable"},{"type":"function","name":"signatureUsed","inputs":[{"name":"","type":"bytes","internalType":"bytes"}],"outputs":[{"name":"","type":"bool","internalType":"bool"}],"stateMutability":"view"},{"type":"function","name":"signatureVerifier","inputs":[],"outputs":[{"name":"","type":"address","internalType":"address"}],"stateMutability":"view"},{"type":"function","name":"supportsInterface","inputs":[{"name":"interfaceId","type":"bytes4","internalType":"bytes4"}],"outputs":[{"name":"","type":"bool","internalType":"bool"}],"stateMutability":"view"},{"type":"function","name":"targetExistsAndAllowedForId","inputs":[{"name":"targetId","type":"uint256","internalType":"uint256"}],"outputs":[{"name":"exist","type":"bool","internalType":"bool"},{"name":"allowed","type":"bool","internalType":"bool"}],"stateMutability":"view"},{"type":"function","name":"testValue","inputs":[],"outputs":[{"name":"","type":"uint256","internalType":"uint256"}],"stateMutability":"view"},{"type":"function","name":"unpause","inputs":[],"outputs":[],"stateMutability":"nonpayable"},{"type":"function","name":"updateContractAddressManager","inputs":[{"name":"contractAddressesAddr","type":"address","internalType":"address"}],"outputs":[],"stateMutability":"nonpayable"},{"type":"function","name":"updateExpectedSigner","inputs":[{"name":"signer","type":"address","internalType":"address"}],"outputs":[],"stateMutability":"nonpayable"},{"type":"function","name":"updateOwner","inputs":[{"name":"owner","type":"address","internalType":"address"}],"outputs":[],"stateMutability":"nonpayable"},{"type":"function","name":"updateSignatureVerifier","inputs":[{"name":"sinatureVerifier","type":"address","internalType":"address"}],"outputs":[],"stateMutability":"nonpayable"},{"type":"function","name":"upgradeToAndCall","inputs":[{"name":"newImplementation","type":"address","internalType":"address"},{"name":"data","type":"bytes","internalType":"bytes"}],"outputs":[],"stateMutability":"payable"},{"type":"event","name":"Initialized","inputs":[{"name":"version","type":"uint64","indexed":false,"internalType":"uint64"}],"anonymous":false},{"type":"event","name":"Paused","inputs":[{"name":"account","type":"address","indexed":false,"internalType":"address"}],"anonymous":false},{"type":"event","name":"ReplyAdded","inputs":[{"name":"author","type":"uint256","indexed":false,"internalType":"uint256"},{"name":"targetContract","type":"address","indexed":true,"internalType":"address"},{"name":"replyId","type":"uint256","indexed":true,"internalType":"uint256"}],"anonymous":false},{"type":"event","name":"ReplyEdited","inputs":[{"name":"author","type":"uint256","indexed":false,"internalType":"uint256"},{"name":"replyId","type":"uint256","indexed":false,"internalType":"uint256"}],"anonymous":false},{"type":"event","name":"RoleAdminChanged","inputs":[{"name":"role","type":"bytes32","indexed":true,"internalType":"bytes32"},{"name":"previousAdminRole","type":"bytes32","indexed":true,"internalType":"bytes32"},{"name":"newAdminRole","type":"bytes32","indexed":true,"internalType":"bytes32"}],"anonymous":false},{"type":"event","name":"RoleGranted","inputs":[{"name":"role","type":"bytes32","indexed":true,"internalType":"bytes32"},{"name":"account","type":"address","indexed":true,"internalType":"address"},{"name":"sender","type":"address","indexed":true,"internalType":"address"}],"anonymous":false},{"type":"event","name":"RoleRevoked","inputs":[{"name":"role","type":"bytes32","indexed":true,"internalType":"bytes32"},{"name":"account","type":"address","indexed":true,"internalType":"address"},{"name":"sender","type":"address","indexed":true,"internalType":"address"}],"anonymous":false},{"type":"event","name":"Unpaused","inputs":[{"name":"account","type":"address","indexed":false,"internalType":"address"}],"anonymous":false},{"type":"event","name":"Upgraded","inputs":[{"name":"implementation","type":"address","indexed":true,"internalType":"address"}],"anonymous":false},{"type":"error","name":"AccessControlBadConfirmation","inputs":[]},{"type":"error","name":"AccessControlUnauthorizedAccount","inputs":[{"name":"account","type":"address","internalType":"address"},{"name":"neededRole","type":"bytes32","internalType":"bytes32"}]},{"type":"error","name":"AddressEmptyCode","inputs":[{"name":"target","type":"address","internalType":"address"}]},{"type":"error","name":"ERC1967InvalidImplementation","inputs":[{"name":"implementation","type":"address","internalType":"address"}]},{"type":"error","name":"ERC1967NonPayable","inputs":[]},{"type":"error","name":"EnforcedPause","inputs":[]},{"type":"error","name":"ExpectedPause","inputs":[]},{"type":"error","name":"FailedCall","inputs":[]},{"type":"error","name":"InvalidInitialization","inputs":[]},{"type":"error","name":"InvalidSignature","inputs":[]},{"type":"error","name":"NoReplyFound","inputs":[{"name":"replyId","type":"uint256","internalType":"uint256"}]},{"type":"error","name":"NotInitializing","inputs":[]},{"type":"error","name":"OnlyAuthorCanEdit","inputs":[]},{"type":"error","name":"SignatureWasUsed","inputs":[]},{"type":"error","name":"TargetNotFound","inputs":[{"name":"targetContract","type":"address","internalType":"address"},{"name":"targetId","type":"uint256","internalType":"uint256"}]},{"type":"error","name":"UUPSUnauthorizedCallContext","inputs":[]},{"type":"error","name":"UUPSUnsupportedProxiableUUID","inputs":[{"name":"slot","type":"bytes32","internalType":"bytes32"}]},{"type":"error","name":"ZeroAddress","inputs":[]}],"bytecode":{"object":"0x60a06040523461003c57610011610040565b3060805261001d610040565b604051612b9490816100fd82396080518181816113f201526114830152f35b5f80fd5b7ff0c57e16840df040f15088dc2f81fe391c3923bec73e23a9662efc9c229c6a005460ff8160401c166100ed576002600160401b03196001600160401b038216016100885750565b6001600160401b0319166001600160401b039081177ff0c57e16840df040f15088dc2f81fe391c3923bec73e23a9662efc9c229c6a00556040519081527fc7f505b2f371ae2175ee4913f4499e1f2633a7b5936321eed1cdaeb6115181d290602090a1565b63f92ee8a960e01b5f5260045ffdfe6080806040526004361015610012575f80fd5b5f3560e01c90816301ffc9a714611c425750806308473f6414611bff5780631459457a146118f15780631785f53c1461186d5780631f786ffc1461183d578063248a9ca3146118175780632bdd87ff146117cc5780632cb3e494146117a55780632f2ff15d14611774578063359601051461175b57806336568abe146117175780633f4ba83a146116435780634f1ef2861461144657806352d1902d146113e057806355c0f0371461139c5780635667981b146113505780635c975abb14611322578063704802751461129e57806375b238fc146112775780637bdfc31d146112465780637ea7601e14610e7a5780638456cb5914610d59578063880cdc3114610c3e5780638af5de7214610c215780639010d07c14610bcf578063916a038614610bb257806391d1485414610b5d578063a12c64b514610b2a578063a217fddf14610b10578063a3246ad314610a55578063ad3cb1cc14610a0e578063ade9ae97146109e6578063bb10c8291461098c578063c0a739691461082d578063ca15c873146107f7578063d547741f146107bf578063e58378bb14610798578063f2e2c693146101f55763fde919f6146101c9575f80fd5b346101f1575f3660031901126101f1576001546040516001600160a01b039091168152602090f35b5f80fd5b346101f15760803660031901126101f15761020e611caf565b602435906044356001600160401b0381116101f157610231903690600401611e29565b90606435906001600160401b0382116101f1576102556102a1923690600401611e29565b9061025f816123b8565b610267612498565b6003546020906001600160a01b031661027e612256565b90604051808097819463d57f7aa360e01b83528660048401526024830190611cdb565b03915afa92831561072c576024936020915f9161076b575b5060405163b8861c2360e01b815233600482015294859182906001600160a01b03165afa92831561072c575f93610737575b506001600160a01b03169230841490811561069f57855f526037602052600460405f20015415610688575b60365495855f52603960205260405f20815f526020526103398760405f206122a4565b845f52603860205261034e8760405f206122a4565b6040519261035b84611dd1565b15835260208084018781526040808601888152606087018b8152608088019586524260a089019081525f60c08a0181815260e08b01998a526101008b019b8c528e82526037909752939093209751885494516001600160a81b031990951660ff911515919091161760089490941b610100600160a81b031693909317875551600187015590516002860155915160038501559051600484015551600583015551805160068301916001600160401b0382116105bd5761041a8354611f41565b601f8111610643575b50602090601f83116001146105dc576007949392915f91836105d1575b50508160011b915f199060031b1c19161790555b0190518051906001600160401b0382116105bd576104728354611f41565b601f8111610578575b50602090601f83116001146104f0579180602094927fd7dbc204867e6f66a76b882103db624d7ede8b21cf74c0a2c9a28557bf386add96945f926104e5575b50508160011b915f199060031b1c19161790555b604051908152a36104e0603654612281565b603655005b0151905088806104ba565b90601f19831691845f52815f20925f5b81811061056057509260019285927fd7dbc204867e6f66a76b882103db624d7ede8b21cf74c0a2c9a28557bf386add98966020989610610548575b505050811b0190556104ce565b01515f1960f88460031b161c1916905588808061053b565b92936020600181928786015181550195019301610500565b835f5260205f20601f840160051c810191602085106105b3575b601f0160051c01905b8181106105a8575061047b565b5f815560010161059b565b9091508190610592565b634e487b7160e01b5f52604160045260245ffd5b015190508980610440565b90601f19831691845f52815f20925f5b81811061062b575091600193918560079897969410610613575b505050811b019055610454565b01515f1960f88460031b161c19169055898080610606565b929360206001819287860151815501950193016105ec565b835f5260205f20601f840160051c8101916020851061067e575b601f0160051c01905b8181106106735750610423565b5f8155600101610666565b909150819061065d565b8585633f2dc18160e11b5f5260045260245260445ffd5b60405163a12c64b560e01b8152866004820152604081602481895afa90811561072c575f916106e5575b50610316578585633f2dc18160e11b5f5260045260245260445ffd5b90506040813d604011610724575b8161070060409383611ded565b810103126101f15761071d6020610716836124e9565b92016124e9565b50876106c9565b3d91506106f3565b6040513d5f823e3d90fd5b9092506020813d602011610763575b8161075360209383611ded565b810103126101f1575191856102eb565b3d9150610746565b61078b9150823d8411610791575b6107838183611ded565b810190612168565b876102b9565b503d610779565b346101f1575f3660031901126101f15760206040515f80516020612a5f8339815191528152f35b346101f15760403660031901126101f1576107f56004356107de611cc5565b906107f06107eb8261210f565b612372565b6123c8565b005b346101f15760203660031901126101f1576004355f525f80516020612a1f833981519152602052602060405f2054604051908152f35b346101f15760203660031901126101f1576004356001600160401b0381116101f157366023820112156101f15780600401359061086982611e6d565b916108776040519384611ded565b8083526024602084019160051b830101913683116101f157602401905b82821061097c57836108a68151611e84565b905f5b815181101561096a57806108bf60019284611f2d565b516108c9816124bf565b5f52603760205260405f206109486007604051926108e684611dd1565b805460ff811615158552868060a01b039060081c1660208501528581015460408501526002810154606085015260038101546080850152600481015460a0850152600581015460c085015261093d60068201611f79565b60e085015201611f79565b6101008201526109588286611f2d565b526109638185611f2d565b50016108a9565b604051806109788582611cff565b0390f35b8135815260209182019101610894565b346101f15760203660031901126101f1576004356001600160401b0381116101f15760ff6020806109c281943690600401611e29565b604051928184925191829101835e8101600281520301902054166040519015158152f35b346101f1575f3660031901126101f1576003546040516001600160a01b039091168152602090f35b346101f1575f3660031901126101f157610978604051610a2f604082611ded565b60058152640352e302e360dc1b6020820152604051918291602083526020830190611cdb565b346101f15760203660031901126101f1576004355f525f80516020612a1f83398151915260205260405f20604051806020835491828152019081935f5260205f20905f5b818110610afa5750505081610aaf910382611ded565b604051918291602083019060208452518091526040830191905f5b818110610ad8575050500390f35b82516001600160a01b0316845285945060209384019390920191600101610aca565b8254845260209093019260019283019201610a99565b346101f1575f3660031901126101f15760206040515f8152f35b346101f15760203660031901126101f1576004355f52603760205260406004815f20015415158151908082526020820152f35b346101f15760403660031901126101f157610b76611cc5565b6004355f525f80516020612abf83398151915260205260405f209060018060a01b03165f52602052602060ff60405f2054166040519015158152f35b346101f1575f3660031901126101f1576020603654604051908152f35b346101f15760403660031901126101f1576004355f525f80516020612a1f8339815191526020526020610c0860405f206024359061228f565b905460405160039290921b1c6001600160a01b03168152f35b346101f1575f3660031901126101f1576020606c54604051908152f35b346101f15760203660031901126101f157610c57611caf565b610c5f612329565b5f80516020612a5f8339815191525f525f80516020612a1f8339815191526020525f80516020612b1f833981519152805415610d45575f90815260209020546001600160a01b0316610cb0816125b7565b610d06575b50610cbf816126ea565b610cc557005b5f80516020612a5f8339815191525f525f80516020612a1f8339815191526020526107f5906001600160a01b03165f80516020612b1f833981519152612973565b5f80516020612a5f8339815191525f525f80516020612a1f833981519152602052610d3e905f80516020612b1f8339815191526128ae565b5081610cb5565b634e487b7160e01b5f52603260045260245ffd5b346101f1575f3660031901126101f157600354610da7906020906001600160a01b0316610d8461212d565b90604051808095819463d57f7aa360e01b83528660048401526024830190611cdb565b03915afa90811561072c575f91610e5b575b50336001600160a01b0390911603610e2457610dd3612498565b600160ff195f80516020612adf8339815191525416175f80516020612adf833981519152557f62e78cea01bee320cd4e420270b5ea74000d11b0c9f74754ebdbfc544b05a2586020604051338152a1005b63e2517d3f60e01b5f52336004527f261fea28325784de45eba41a3fbb84c4196fbab02ee802566edfe26616ba5afb60245260445ffd5b610e74915060203d602011610791576107838183611ded565b81610db9565b346101f15760603660031901126101f1576004356024356001600160401b0381116101f157610ead903690600401611e29565b90604435906001600160401b0382116101f157610ed1610eda923690600401611e29565b92610267612498565b03915afa92831561072c576024936020915f91611229575b5060405163b8861c2360e01b815233600482015294859182906001600160a01b03165afa92831561072c575f936111f5575b50610f2e826124bf565b815f52603760205282600160405f200154036111e657815f526037602052600660405f2001908051906001600160401b0382116105bd578190610f718454611f41565b601f8111611196575b50602090601f8311600114611133575f92611128575b50508160011b915f199060031b1c19161790555b805f526037602052600760405f200183516001600160401b0381116105bd57610fcd8254611f41565b601f81116110e3575b506020601f821160011461105b5790806040959493927fe0857c7936e666a3506059b3a1cb34a6140a9b35298ce54fb483fda8f26db8dc975f92611050575b50508160011b915f199060031b1c19161790555b805f5260376020526005835f20016110418154612281565b905582519182526020820152a1005b015190508780611015565b601f19821695835f52815f20965f5b8181106110cb57509660019284926040989796957fe0857c7936e666a3506059b3a1cb34a6140a9b35298ce54fb483fda8f26db8dc9a106110b3575b505050811b019055611029565b01515f1960f88460031b161c191690558780806110a6565b8383015189556001909801976020938401930161106a565b825f5260205f20601f830160051c8101916020841061111e575b601f0160051c01905b8181106111135750610fd6565b5f8155600101611106565b90915081906110fd565b015190508680610f90565b5f8581528281209350601f198516905b81811061117e5750908460019594939210611166575b505050811b019055610fa4565b01515f1960f88460031b161c19169055868080611159565b92936020600181928786015181550195019301611143565b909150835f5260205f20601f840160051c810191602085106111dc575b90601f859493920160051c01905b8181106111ce5750610f7a565b5f81558493506001016111c1565b90915081906111b3565b639b29373160e01b5f5260045ffd5b9092506020813d602011611221575b8161121160209383611ded565b810103126101f157519184610f24565b3d9150611204565b6112409150823d8411610791576107838183611ded565b86610ef2565b346101f15760603660031901126101f15761097861126b604435602435600435612187565b60405191829182611cff565b346101f1575f3660031901126101f15760206040515f80516020612aff8339815191528152f35b346101f15760203660031901126101f1576112b7611caf565b6112bf612329565b6112c88161277d565b6112ce57005b5f80516020612aff8339815191525f525f80516020612a1f8339815191526020526107f5906001600160a01b03167f46448fd7a7b40360a1323cb3199d0aafeb92ce905bb512a6bb7d3d3f685cf1b1612973565b346101f1575f3660031901126101f157602060ff5f80516020612adf83398151915254166040519015158152f35b346101f15760203660031901126101f157611369611caf565b6113716122e0565b61137a816123b8565b600180546001600160a01b0319166001600160a01b0392909216919091179055005b346101f15760403660031901126101f1576001600160a01b036113bd611caf565b165f52603960205260405f206024355f52602052602060405f2054604051908152f35b346101f1575f3660031901126101f1577f00000000000000000000000000000000000000000000000000000000000000006001600160a01b031630036114375760206040515f80516020612a7f8339815191528152f35b63703e46dd60e11b5f5260045ffd5b60403660031901126101f15761145a611caf565b6024356001600160401b0381116101f157611479903690600401611e29565b6001600160a01b037f000000000000000000000000000000000000000000000000000000000000000016308114908115611621575b50611437576114bb612329565b6114c4826123b8565b6040516352d1902d60e01b81526001600160a01b0383169290602081600481875afa5f91816115ed575b506115065783634c9c8ce360e01b5f5260045260245ffd5b805f80516020612a7f8339815191528592036115db5750813b156115c9575f80516020612a7f83398151915280546001600160a01b031916821790557fbc7cd75a20ee27fd9adebab32041f755214dbc6bffa90cc0225b39da2e5c2d3b5f80a28151156115b1575f808360206107f595519101845af43d156115a9573d9161158d83611e0e565b9261159b6040519485611ded565b83523d5f602085013e6129c0565b6060916129c0565b5050346115ba57005b63b398979f60e01b5f5260045ffd5b634c9c8ce360e01b5f5260045260245ffd5b632a87526960e21b5f5260045260245ffd5b9091506020813d602011611619575b8161160960209383611ded565b810103126101f1575190856114ee565b3d91506115fc565b5f80516020612a7f833981519152546001600160a01b031614159050836114ae565b346101f1575f3660031901126101f15760035461166e906020906001600160a01b0316610d8461212d565b03915afa90811561072c575f916116f8575b50336001600160a01b0390911603610e24575f80516020612adf8339815191525460ff8116156116e95760ff19165f80516020612adf833981519152557f5db9ee0a495bf2e6ff9c91a7834c1ba4fdd244a5e8aa4e537bd38aeae4b073aa6020604051338152a1005b638dfc202b60e01b5f5260045ffd5b611711915060203d602011610791576107838183611ded565b81611680565b346101f15760403660031901126101f157611730611cc5565b336001600160a01b0382160361174c576107f5906004356123c8565b63334bd91960e11b5f5260045ffd5b346101f15760203660031901126101f157600435606c55005b346101f15760403660031901126101f1576107f5600435611793611cc5565b906117a06107eb8261210f565b612456565b346101f1575f3660031901126101f1575f546040516001600160a01b039091168152602090f35b346101f15760203660031901126101f1576117e5611caf565b6117ed6122e0565b6117f6816123b8565b5f80546001600160a01b0319166001600160a01b0392909216919091179055005b346101f15760203660031901126101f157602061183560043561210f565b604051908152f35b346101f15760803660031901126101f15761097861126b61185c611caf565b606435906044359060243590612019565b346101f15760203660031901126101f157611886611caf565b61188e612329565b61189781612521565b61189d57005b5f80516020612aff8339815191525f525f80516020612a1f8339815191526020526107f5906001600160a01b03167f46448fd7a7b40360a1323cb3199d0aafeb92ce905bb512a6bb7d3d3f685cf1b16128ae565b346101f15760a03660031901126101f15761190a611caf565b611912611cc5565b6044356001600160a01b03811681036101f1576064356001600160a01b038116938482036101f157608435946001600160a01b038616908187036101f1575f80516020612b3f8339815191525460ff8160401c1615976001600160401b03821680159081611bf7575b6001149081611bed575b159081611be4575b50611bd55767ffffffffffffffff1982166001175f80516020612b3f833981519152556119e49189611ba9575b506119c4856123b8565b6119cd886123b8565b6119d6876123b8565b6119df866123b8565b6123b8565b6119ec6124f6565b6001600160a01b0383169485158015611b98575b8015611b90575b611b8157611a6d94611a4291611a1b6124f6565b611a24816123b8565b60018060a01b03166001600160601b0360a01b5f5416175f556123b8565b6001600160601b0360a01b60015416176001556001600160601b0360a01b60035416176003556126ea565b611b42575b50611a7c8161277d565b611ae7575b50611a8a6124f6565b611a9057005b68ff0000000000000000195f80516020612b3f83398151915254165f80516020612b3f833981519152557fc7f505b2f371ae2175ee4913f4499e1f2633a7b5936321eed1cdaeb6115181d2602060405160018152a1005b5f80516020612aff8339815191525f525f80516020612a1f833981519152602052611b3b906001600160a01b03167f46448fd7a7b40360a1323cb3199d0aafeb92ce905bb512a6bb7d3d3f685cf1b1612973565b5081611a81565b5f80516020612a5f8339815191525f525f80516020612a1f833981519152602052611b7a905f80516020612b1f833981519152612973565b5082611a72565b63d92e233d60e01b5f5260045ffd5b508215611a07565b506001600160a01b03871615611a00565b68ffffffffffffffffff191668010000000000000001175f80516020612b3f83398151915255896119ba565b63f92ee8a960e01b5f5260045ffd5b9050158a61198d565b303b159150611985565b8a915061197b565b346101f15760203660031901126101f157611c18611caf565b611c206122e0565b600380546001600160a01b0319166001600160a01b0392909216919091179055005b346101f15760203660031901126101f1576004359063ffffffff60e01b82168092036101f157602091635a05180f60e01b8114908115611c84575b5015158152f35b637965db0b60e01b811491508115611c9e575b5083611c7d565b6301ffc9a760e01b14905083611c97565b600435906001600160a01b03821682036101f157565b602435906001600160a01b03821682036101f157565b805180835260209291819084018484015e5f828201840152601f01601f1916010190565b602081016020825282518091526040820191602060408360051b8301019401925f915b838310611d3157505050505090565b9091929394602080611dc2600193603f19868203018752895190815115158152858060a01b0384830151168482015260408201516040820152606082015160608201526080820151608082015260a082015160a082015260c082015160c0820152610100611db060e084015161012060e0850152610120840190611cdb565b92015190610100818403910152611cdb565b97019301930191939290611d22565b61012081019081106001600160401b038211176105bd57604052565b90601f801991011681019081106001600160401b038211176105bd57604052565b6001600160401b0381116105bd57601f01601f191660200190565b81601f820112156101f157602081359101611e4382611e0e565b92611e516040519485611ded565b828452828201116101f157815f92602092838601378301015290565b6001600160401b0381116105bd5760051b60200190565b90611e8e82611e6d565b611e9b6040519182611ded565b8281528092611eac601f1991611e6d565b01905f5b828110611ebc57505050565b602090604051611ecb81611dd1565b5f81525f838201525f60408201525f60608201525f60808201525f60a08201525f60c0820152606060e0820152606061010082015282828501015201611eb0565b91908201809211611f1957565b634e487b7160e01b5f52601160045260245ffd5b8051821015610d455760209160051b010190565b90600182811c92168015611f6f575b6020831014611f5b57565b634e487b7160e01b5f52602260045260245ffd5b91607f1691611f50565b9060405191825f825492611f8c84611f41565b8084529360018116908115611ff75750600114611fb3575b50611fb192500383611ded565b565b90505f9291925260205f20905f915b818310611fdb575050906020611fb1928201015f611fa4565b6020919350806001915483858901015201910190918492611fc2565b905060209250611fb194915060ff191682840152151560051b8201015f611fa4565b9392919360018060a01b03165f52603960205260405f20905f5260205260405f208360405192838094602085549182815201945f5260205f20905f5b8181106120f35750505061206e90612075940385611ded565b835161240e565b9081156120eb5761208582611e84565b935f5b8381106120955750505050565b806120ab6120a560019385611f0c565b85611f2d565b515f52603760205260405f206120c96007604051926108e684611dd1565b6101008201526120d98289611f2d565b526120e48188611f2d565b5001612088565b506060925050565b8254875260209096019589955087935060019283019201612055565b5f525f80516020612abf833981519152602052600160405f20015490565b6040519061213c604083611ded565b601982527f4554484f535f494e544552414354494f4e5f434f4e54524f4c000000000000006020830152565b908160209103126101f157516001600160a01b03811681036101f15790565b929190925f52603860205260405f208360405192838094602085549182815201945f5260205f20905f5b81811061223a5750505061206e906121ca940385611ded565b9081156120eb576121da82611e84565b935f5b8381106121ea5750505050565b806121fa6120a560019385611f0c565b515f52603760205260405f206122186007604051926108e684611dd1565b6101008201526122288289611f2d565b526122338188611f2d565b50016121dd565b82548752602090960195899550879350600192830192016121b1565b60405190612265604083611ded565b600d82526c4554484f535f50524f46494c4560981b6020830152565b5f198114611f195760010190565b8054821015610d45575f5260205f2001905f90565b805490600160401b8210156105bd57816122c69160016122dc9401815561228f565b819391549060031b91821b915f19901b19161790565b9055565b335f9081525f80516020612a3f833981519152602052604090205460ff161561230557565b63e2517d3f60e01b5f52336004525f80516020612aff83398151915260245260445ffd5b335f9081525f80516020612a9f833981519152602052604090205460ff161561234e57565b63e2517d3f60e01b5f52336004525f80516020612a5f83398151915260245260445ffd5b5f8181525f80516020612abf8339815191526020908152604080832033845290915290205460ff16156123a25750565b63e2517d3f60e01b5f523360045260245260445ffd5b6001600160a01b031615611b8157565b6123d28282612648565b91826123dd57505090565b5f9182525f80516020612a1f833981519152602052604090912061240a916001600160a01b0316906128ae565b5090565b918215801561244e575b8015612444575b61243d578203918211611f195781811115612438575090565b905090565b5050505f90565b508281101561241f565b508115612418565b6124608282612810565b918261246b57505090565b5f9182525f80516020612a1f833981519152602052604090912061240a916001600160a01b031690612973565b60ff5f80516020612adf83398151915254166124b057565b63d93c066560e01b5f5260045ffd5b805f526037602052600460405f200154156124d75750565b63f3a4dddd60e01b5f5260045260245ffd5b519081151582036101f157565b60ff5f80516020612b3f8339815191525460401c161561251257565b631afcd79f60e31b5f5260045ffd5b6001600160a01b0381165f9081525f80516020612a3f833981519152602052604090205460ff16156125b2576001600160a01b03165f8181525f80516020612a3f83398151915260205260408120805460ff191690553391905f80516020612aff833981519152907ff6391f5c32d9c69d2a47ea670b442974b53935d1edc7fd64eb21e047a839171b9080a4600190565b505f90565b6001600160a01b0381165f9081525f80516020612a9f833981519152602052604090205460ff16156125b2576001600160a01b03165f8181525f80516020612a9f83398151915260205260408120805460ff191690553391905f80516020612a5f833981519152907ff6391f5c32d9c69d2a47ea670b442974b53935d1edc7fd64eb21e047a839171b9080a4600190565b5f8181525f80516020612abf833981519152602090815260408083206001600160a01b038616845290915290205460ff16156126e4575f8181525f80516020612abf833981519152602090815260408083206001600160a01b0395909516808452949091528120805460ff19169055339291907ff6391f5c32d9c69d2a47ea670b442974b53935d1edc7fd64eb21e047a839171b9080a4600190565b50505f90565b6001600160a01b0381165f9081525f80516020612a9f833981519152602052604090205460ff166125b2576001600160a01b03165f8181525f80516020612a9f83398151915260205260408120805460ff191660011790553391905f80516020612a5f833981519152907f2f8788117e7eff1d82e926ec794901d17c78024a50270940304540a733656f0d9080a4600190565b6001600160a01b0381165f9081525f80516020612a3f833981519152602052604090205460ff166125b2576001600160a01b03165f8181525f80516020612a3f83398151915260205260408120805460ff191660011790553391905f80516020612aff833981519152907f2f8788117e7eff1d82e926ec794901d17c78024a50270940304540a733656f0d9080a4600190565b5f8181525f80516020612abf833981519152602090815260408083206001600160a01b038616845290915290205460ff166126e4575f8181525f80516020612abf833981519152602090815260408083206001600160a01b0395909516808452949091528120805460ff19166001179055339291907f2f8788117e7eff1d82e926ec794901d17c78024a50270940304540a733656f0d9080a4600190565b906001820191815f528260205260405f20548015155f1461296b575f198101818111611f195782545f19810191908211611f1957818103612936575b50505080548015612922575f190190612903828261228f565b8154905f199060031b1b19169055555f526020525f6040812055600190565b634e487b7160e01b5f52603160045260245ffd5b6129566129466122c6938661228f565b90549060031b1c9283928661228f565b90555f528360205260405f20555f80806128ea565b505050505f90565b6001810190825f528160205260405f2054155f1461243d578054600160401b8110156105bd576129ad6122c682600187940185558461228f565b905554915f5260205260405f2055600190565b906129e457508051156129d557805190602001fd5b63d6bda27560e01b5f5260045ffd5b81511580612a15575b6129f5575090565b639996b31560e01b5f9081526001600160a01b0391909116600452602490fd5b50803b156129ed56fec1f6fe24621ce81ec5827caf0253cadb74709b061630e6b55e82371705932000b16e88c42fd4e48df2dd6a2eabd6bc9aec654ec170056b470819f8892cc6431cb19546dff01e856fb3f010c267a7b1c60363cf8a4664e21cc89c26224620214e360894a13ba1a3210667c828492db98dca3e2076cc3735a920a3ca505d382bbcc32d4dc01d07c436ad8a6f9a20eadd61263c71fe16f6b5956005ba3b341f51dd02dd7bc7dec4dceedda775e58dd541e08a116c6c53815c0bd028192f7b626800cd5ed15c6e187e77e9aee88184c21f4f2182ab5827cb3b7e07fbedcd63f03300a49807205ce4d355092ef5a8a18f56e8913cf4a201fbe287825b095693c21775008963063c520970ed64c693e920074e4588acd3631097247bb3559890ad6a67f0c57e16840df040f15088dc2f81fe391c3923bec73e23a9662efc9c229c6a00a26469706673582212205cea38d5c6650d7fc2c6c1f29942d338369a5fff204ba0beffc77f00c27ee2c364736f6c634300081a0033","linkReferences":{}},"methodIdentifiers":{"ADMIN_ROLE()":"75b238fc","DEFAULT_ADMIN_ROLE()":"a217fddf","OWNER_ROLE()":"e58378bb","UPGRADE_INTERFACE_VERSION()":"ad3cb1cc","addAdmin(address)":"70480275","addReply(address,uint256,string,string)":"f2e2c693","contractAddressManager()":"ade9ae97","directRepliesInRange(address,uint256,uint256,uint256)":"1f786ffc","directReplyCount(address,uint256)":"55c0f037","editReply(uint256,string,string)":"7ea7601e","expectedSigner()":"2cb3e494","getRoleAdmin(bytes32)":"248a9ca3","getRoleMember(bytes32,uint256)":"9010d07c","getRoleMemberCount(bytes32)":"ca15c873","getRoleMembers(bytes32)":"a3246ad3","grantRole(bytes32,address)":"2f2ff15d","hasRole(bytes32,address)":"91d14854","initialize(address,address,address,address,address)":"1459457a","pause()":"8456cb59","paused()":"5c975abb","proxiableUUID()":"52d1902d","removeAdmin(address)":"1785f53c","renounceRole(bytes32,address)":"36568abe","repliesByAuthorInRange(uint256,uint256,uint256)":"7bdfc31d","repliesById(uint256[])":"c0a73969","replyCount()":"916a0386","revokeRole(bytes32,address)":"d547741f","setTestValue(uint256)":"35960105","signatureUsed(bytes)":"bb10c829","signatureVerifier()":"fde919f6","supportsInterface(bytes4)":"01ffc9a7","targetExistsAndAllowedForId(uint256)":"a12c64b5","testValue()":"8af5de72","unpause()":"3f4ba83a","updateContractAddressManager(address)":"08473f64","updateExpectedSigner(address)":"2bdd87ff","updateOwner(address)":"880cdc31","updateSignatureVerifier(address)":"5667981b","upgradeToAndCall(address,bytes)":"4f1ef286"},"id":137}