{"abi":[{"type":"constructor","inputs":[],"stateMutability":"nonpayable"},{"type":"function","name":"ADMIN_ROLE","inputs":[],"outputs":[{"name":"","type":"bytes32","internalType":"bytes32"}],"stateMutability":"view"},{"type":"function","name":"DEFAULT_ADMIN_ROLE","inputs":[],"outputs":[{"name":"","type":"bytes32","internalType":"bytes32"}],"stateMutability":"view"},{"type":"function","name":"OWNER_ROLE","inputs":[],"outputs":[{"name":"","type":"bytes32","internalType":"bytes32"}],"stateMutability":"view"},{"type":"function","name":"UPGRADE_INTERFACE_VERSION","inputs":[],"outputs":[{"name":"","type":"string","internalType":"string"}],"stateMutability":"view"},{"type":"function","name":"addAdmin","inputs":[{"name":"admin","type":"address","internalType":"address"}],"outputs":[],"stateMutability":"nonpayable"},{"type":"function","name":"contractAddressManager","inputs":[],"outputs":[{"name":"","type":"address","internalType":"contract IContractAddressManager"}],"stateMutability":"view"},{"type":"function","name":"expectedSigner","inputs":[],"outputs":[{"name":"","type":"address","internalType":"address"}],"stateMutability":"view"},{"type":"function","name":"getRoleAdmin","inputs":[{"name":"role","type":"bytes32","internalType":"bytes32"}],"outputs":[{"name":"","type":"bytes32","internalType":"bytes32"}],"stateMutability":"view"},{"type":"function","name":"getRoleMember","inputs":[{"name":"role","type":"bytes32","internalType":"bytes32"},{"name":"index","type":"uint256","internalType":"uint256"}],"outputs":[{"name":"","type":"address","internalType":"address"}],"stateMutability":"view"},{"type":"function","name":"getRoleMemberCount","inputs":[{"name":"role","type":"bytes32","internalType":"bytes32"}],"outputs":[{"name":"","type":"uint256","internalType":"uint256"}],"stateMutability":"view"},{"type":"function","name":"getRoleMembers","inputs":[{"name":"role","type":"bytes32","internalType":"bytes32"}],"outputs":[{"name":"","type":"address[]","internalType":"address[]"}],"stateMutability":"view"},{"type":"function","name":"grantRole","inputs":[{"name":"role","type":"bytes32","internalType":"bytes32"},{"name":"account","type":"address","internalType":"address"}],"outputs":[],"stateMutability":"nonpayable"},{"type":"function","name":"hasRole","inputs":[{"name":"role","type":"bytes32","internalType":"bytes32"},{"name":"account","type":"address","internalType":"address"}],"outputs":[{"name":"","type":"bool","internalType":"bool"}],"stateMutability":"view"},{"type":"function","name":"hasVotedFor","inputs":[{"name":"voter","type":"uint256","internalType":"uint256"},{"name":"targetContract","type":"address","internalType":"address"},{"name":"targetId","type":"uint256","internalType":"uint256"}],"outputs":[{"name":"","type":"bool","internalType":"bool"}],"stateMutability":"view"},{"type":"function","name":"initialize","inputs":[{"name":"owner","type":"address","internalType":"address"},{"name":"admin","type":"address","internalType":"address"},{"name":"expectedSigner","type":"address","internalType":"address"},{"name":"signatureVerifier","type":"address","internalType":"address"},{"name":"contractAddressManagerAddr","type":"address","internalType":"address"}],"outputs":[],"stateMutability":"nonpayable"},{"type":"function","name":"pause","inputs":[],"outputs":[],"stateMutability":"nonpayable"},{"type":"function","name":"paused","inputs":[],"outputs":[{"name":"","type":"bool","internalType":"bool"}],"stateMutability":"view"},{"type":"function","name":"proxiableUUID","inputs":[],"outputs":[{"name":"","type":"bytes32","internalType":"bytes32"}],"stateMutability":"view"},{"type":"function","name":"removeAdmin","inputs":[{"name":"admin","type":"address","internalType":"address"}],"outputs":[],"stateMutability":"nonpayable"},{"type":"function","name":"renounceRole","inputs":[{"name":"role","type":"bytes32","internalType":"bytes32"},{"name":"callerConfirmation","type":"address","internalType":"address"}],"outputs":[],"stateMutability":"nonpayable"},{"type":"function","name":"revokeRole","inputs":[{"name":"role","type":"bytes32","internalType":"bytes32"},{"name":"account","type":"address","internalType":"address"}],"outputs":[],"stateMutability":"nonpayable"},{"type":"function","name":"signatureUsed","inputs":[{"name":"","type":"bytes","internalType":"bytes"}],"outputs":[{"name":"","type":"bool","internalType":"bool"}],"stateMutability":"view"},{"type":"function","name":"signatureVerifier","inputs":[],"outputs":[{"name":"","type":"address","internalType":"address"}],"stateMutability":"view"},{"type":"function","name":"supportsInterface","inputs":[{"name":"interfaceId","type":"bytes4","internalType":"bytes4"}],"outputs":[{"name":"","type":"bool","internalType":"bool"}],"stateMutability":"view"},{"type":"function","name":"unpause","inputs":[],"outputs":[],"stateMutability":"nonpayable"},{"type":"function","name":"updateContractAddressManager","inputs":[{"name":"contractAddressesAddr","type":"address","internalType":"address"}],"outputs":[],"stateMutability":"nonpayable"},{"type":"function","name":"updateExpectedSigner","inputs":[{"name":"signer","type":"address","internalType":"address"}],"outputs":[],"stateMutability":"nonpayable"},{"type":"function","name":"updateOwner","inputs":[{"name":"owner","type":"address","internalType":"address"}],"outputs":[],"stateMutability":"nonpayable"},{"type":"function","name":"updateSignatureVerifier","inputs":[{"name":"sinatureVerifier","type":"address","internalType":"address"}],"outputs":[],"stateMutability":"nonpayable"},{"type":"function","name":"upgradeToAndCall","inputs":[{"name":"newImplementation","type":"address","internalType":"address"},{"name":"data","type":"bytes","internalType":"bytes"}],"outputs":[],"stateMutability":"payable"},{"type":"function","name":"voteCount","inputs":[],"outputs":[{"name":"","type":"uint256","internalType":"uint256"}],"stateMutability":"view"},{"type":"function","name":"voteFor","inputs":[{"name":"targetContract","type":"address","internalType":"address"},{"name":"targetId","type":"uint256","internalType":"uint256"},{"name":"isUpvote","type":"bool","internalType":"bool"}],"outputs":[],"stateMutability":"nonpayable"},{"type":"function","name":"voteIndexFor","inputs":[{"name":"voter","type":"uint256","internalType":"uint256"},{"name":"targetContract","type":"address","internalType":"address"},{"name":"targetId","type":"uint256","internalType":"uint256"}],"outputs":[{"name":"","type":"uint256","internalType":"uint256"}],"stateMutability":"view"},{"type":"function","name":"votes","inputs":[{"name":"","type":"uint256","internalType":"uint256"}],"outputs":[{"name":"isUpvote","type":"bool","internalType":"bool"},{"name":"isArchived","type":"bool","internalType":"bool"},{"name":"targetContract","type":"address","internalType":"address"},{"name":"voter","type":"uint256","internalType":"uint256"},{"name":"targetId","type":"uint256","internalType":"uint256"},{"name":"createdAt","type":"uint256","internalType":"uint256"}],"stateMutability":"view"},{"type":"function","name":"votesCountFor","inputs":[{"name":"targetContract","type":"address","internalType":"address"},{"name":"targetId","type":"uint256","internalType":"uint256"}],"outputs":[{"name":"upvotes","type":"uint256","internalType":"uint256"},{"name":"downvotes","type":"uint256","internalType":"uint256"}],"stateMutability":"view"},{"type":"function","name":"votesInRangeFor","inputs":[{"name":"targetContract","type":"address","internalType":"address"},{"name":"targetId","type":"uint256","internalType":"uint256"},{"name":"fromIdx","type":"uint256","internalType":"uint256"},{"name":"maxLength","type":"uint256","internalType":"uint256"}],"outputs":[{"name":"result","type":"tuple[]","internalType":"struct EthosVote.Vote[]","components":[{"name":"isUpvote","type":"bool","internalType":"bool"},{"name":"isArchived","type":"bool","internalType":"bool"},{"name":"targetContract","type":"address","internalType":"address"},{"name":"voter","type":"uint256","internalType":"uint256"},{"name":"targetId","type":"uint256","internalType":"uint256"},{"name":"createdAt","type":"uint256","internalType":"uint256"}]}],"stateMutability":"view"},{"type":"event","name":"Initialized","inputs":[{"name":"version","type":"uint64","indexed":false,"internalType":"uint64"}],"anonymous":false},{"type":"event","name":"Paused","inputs":[{"name":"account","type":"address","indexed":false,"internalType":"address"}],"anonymous":false},{"type":"event","name":"RoleAdminChanged","inputs":[{"name":"role","type":"bytes32","indexed":true,"internalType":"bytes32"},{"name":"previousAdminRole","type":"bytes32","indexed":true,"internalType":"bytes32"},{"name":"newAdminRole","type":"bytes32","indexed":true,"internalType":"bytes32"}],"anonymous":false},{"type":"event","name":"RoleGranted","inputs":[{"name":"role","type":"bytes32","indexed":true,"internalType":"bytes32"},{"name":"account","type":"address","indexed":true,"internalType":"address"},{"name":"sender","type":"address","indexed":true,"internalType":"address"}],"anonymous":false},{"type":"event","name":"RoleRevoked","inputs":[{"name":"role","type":"bytes32","indexed":true,"internalType":"bytes32"},{"name":"account","type":"address","indexed":true,"internalType":"address"},{"name":"sender","type":"address","indexed":true,"internalType":"address"}],"anonymous":false},{"type":"event","name":"Unpaused","inputs":[{"name":"account","type":"address","indexed":false,"internalType":"address"}],"anonymous":false},{"type":"event","name":"Upgraded","inputs":[{"name":"implementation","type":"address","indexed":true,"internalType":"address"}],"anonymous":false},{"type":"event","name":"VoteChanged","inputs":[{"name":"isUnvote","type":"bool","indexed":false,"internalType":"bool"},{"name":"isUpvote","type":"bool","indexed":false,"internalType":"bool"},{"name":"voter","type":"uint256","indexed":true,"internalType":"uint256"},{"name":"targetContract","type":"address","indexed":true,"internalType":"address"},{"name":"targetId","type":"uint256","indexed":true,"internalType":"uint256"},{"name":"voteId","type":"uint256","indexed":false,"internalType":"uint256"}],"anonymous":false},{"type":"event","name":"Voted","inputs":[{"name":"isUpvote","type":"bool","indexed":false,"internalType":"bool"},{"name":"voter","type":"uint256","indexed":true,"internalType":"uint256"},{"name":"targetContract","type":"address","indexed":true,"internalType":"address"},{"name":"targetId","type":"uint256","indexed":true,"internalType":"uint256"},{"name":"voteId","type":"uint256","indexed":false,"internalType":"uint256"}],"anonymous":false},{"type":"error","name":"AccessControlBadConfirmation","inputs":[]},{"type":"error","name":"AccessControlUnauthorizedAccount","inputs":[{"name":"account","type":"address","internalType":"address"},{"name":"neededRole","type":"bytes32","internalType":"bytes32"}]},{"type":"error","name":"AddressEmptyCode","inputs":[{"name":"target","type":"address","internalType":"address"}]},{"type":"error","name":"ERC1967InvalidImplementation","inputs":[{"name":"implementation","type":"address","internalType":"address"}]},{"type":"error","name":"ERC1967NonPayable","inputs":[]},{"type":"error","name":"EnforcedPause","inputs":[]},{"type":"error","name":"ExpectedPause","inputs":[]},{"type":"error","name":"FailedCall","inputs":[]},{"type":"error","name":"InvalidInitialization","inputs":[]},{"type":"error","name":"InvalidSignature","inputs":[]},{"type":"error","name":"NotInitializing","inputs":[]},{"type":"error","name":"SignatureWasUsed","inputs":[]},{"type":"error","name":"TargetNotFound","inputs":[{"name":"targetContract","type":"address","internalType":"address"},{"name":"targetId","type":"uint256","internalType":"uint256"}]},{"type":"error","name":"UUPSUnauthorizedCallContext","inputs":[]},{"type":"error","name":"UUPSUnsupportedProxiableUUID","inputs":[{"name":"slot","type":"bytes32","internalType":"bytes32"}]},{"type":"error","name":"ZeroAddress","inputs":[]}],"bytecode":{"object":"0x60a06040523461003c57610011610040565b3060805261001d610040565b60405161234e90816100fd8239608051818181610a3f0152610ad10152f35b5f80fd5b7ff0c57e16840df040f15088dc2f81fe391c3923bec73e23a9662efc9c229c6a005460ff8160401c166100ed576002600160401b03196001600160401b038216016100885750565b6001600160401b0319166001600160401b039081177ff0c57e16840df040f15088dc2f81fe391c3923bec73e23a9662efc9c229c6a00556040519081527fc7f505b2f371ae2175ee4913f4499e1f2633a7b5936321eed1cdaeb6115181d290602090a1565b63f92ee8a960e01b5f5260045ffdfe6080806040526004361015610012575f80fd5b5f3560e01c90816301ffc9a7146116f35750806308473f64146116b05780631459457a146113c95780631785f53c14611345578063248a9ca3146113275780632bdd87ff146112dc5780632cb3e494146112b55780632f2ff15d1461128457806331547ea614610dc457806336568abe14610d805780633f4ba83a14610cac5780634a8052f414610c915780634f1ef28614610a9357806352d1902d14610a2d5780635667981b146109e1578063571e71e1146108d25780635c975abb146108a45780635df813301461083357806370480275146107af57806375b238fc146107885780638456cb5914610653578063880cdc31146105385780639010d07c146104e657806391d1485414610491578063a217fddf14610477578063a3246ad3146103bc578063a36bf06e14610399578063ad3cb1cc14610356578063ade9ae971461032e578063bb10c829146102d3578063c6384071146102b6578063ca15c87314610280578063d547741f14610248578063e58378bb14610221578063fc7e353f146101d45763fde919f6146101a8575f80fd5b346101d0575f3660031901126101d0576001546040516001600160a01b039091168152602090f35b5f80fd5b346101d05760403660031901126101d0576001600160a01b036101f5611760565b165f52603860205260405f206024355f526020526040805f206001815491015482519182526020820152f35b346101d0575f3660031901126101d05760206040515f805160206122198339815191528152f35b346101d05760403660031901126101d05761027e600435610267611776565b9061027961027482611880565b6119c7565b611a0d565b005b346101d05760203660031901126101d0576004355f525f805160206121d9833981519152602052602060405f2054604051908152f35b346101d0575f3660031901126101d0576020603654604051908152f35b346101d05760203660031901126101d05760043567ffffffffffffffff81116101d05760ff60208061030a81943690600401611810565b604051928184925191829101835e8101600281520301902054166040519015158152f35b346101d0575f3660031901126101d0576003546040516001600160a01b039091168152602090f35b346101d0575f3660031901126101d0576103956040516103776040826117d2565b60058152640352e302e360dc1b602082015260405191829182611856565b0390f35b346101d05760206103b26103ac3661178c565b91611905565b1515604051908152f35b346101d05760203660031901126101d0576004355f525f805160206121d983398151915260205260405f20604051806020835491828152019081935f5260205f20905f5b81811061046157505050816104169103826117d2565b604051918291602083019060208452518091526040830191905f5b81811061043f575050500390f35b82516001600160a01b0316845285945060209384019390920191600101610431565b8254845260209093019260019283019201610400565b346101d0575f3660031901126101d05760206040515f8152f35b346101d05760403660031901126101d0576104aa611776565b6004355f525f8051602061227983398151915260205260405f209060018060a01b03165f52602052602060ff60405f2054166040519015158152f35b346101d05760403660031901126101d0576004355f525f805160206121d9833981519152602052602061051f60405f2060243590611abc565b905460405160039290921b1c6001600160a01b03168152f35b346101d05760203660031901126101d057610551611760565b61055961197e565b5f805160206122198339815191525f525f805160206121d98339815191526020525f805160206122d983398151915280541561063f575f90815260209020546001600160a01b03166105aa81611d19565b610600575b506105b981611e5c565b6105bf57005b5f805160206122198339815191525f525f805160206121d983398151915260205261027e906001600160a01b03165f805160206122d983398151915261212d565b5f805160206122198339815191525f525f805160206121d9833981519152602052610638905f805160206122d9833981519152612068565b50816105af565b634e487b7160e01b5f52603260045260245ffd5b346101d0575f3660031901126101d05760035461069a906020906001600160a01b031661067e6118ca565b90604051808095819463d57f7aa360e01b835260048301611856565b03915afa90811561077d575f9161074e575b50336001600160a01b0390911603610717576106c6611a95565b600160ff195f805160206122998339815191525416175f80516020612299833981519152557f62e78cea01bee320cd4e420270b5ea74000d11b0c9f74754ebdbfc544b05a2586020604051338152a1005b63e2517d3f60e01b5f52336004527f261fea28325784de45eba41a3fbb84c4196fbab02ee802566edfe26616ba5afb60245260445ffd5b610770915060203d602011610776575b61076881836117d2565b8101906118ab565b816106ac565b503d61075e565b6040513d5f823e3d90fd5b346101d0575f3660031901126101d05760206040515f805160206122b98339815191528152f35b346101d05760203660031901126101d0576107c8611760565b6107d061197e565b6107d981611eef565b6107df57005b5f805160206122b98339815191525f525f805160206121d983398151915260205261027e906001600160a01b03167f46448fd7a7b40360a1323cb3199d0aafeb92ce905bb512a6bb7d3d3f685cf1b161212d565b346101d05760203660031901126101d0576004355f52603760205260c060405f2080549060018101549060036002820154910154916040519360ff81161515855260ff8160081c161515602086015260018060a01b039060101c1660408501526060840152608083015260a0820152f35b346101d0575f3660031901126101d057602060ff5f8051602061229983398151915254166040519015158152f35b346101d05760803660031901126101d0576001600160a01b036108f3611760565b165f52603860205260405f206024355f52602052600260405f20016040519081602082549182815201915f5260205f20905f5b8181106109cb576109488561093d818703826117d2565b604435606435611b2b565b6040518091602082016020835281518091526020604084019201905f5b818110610973575050500390f35b91935091602060c060019260a08751805115158352848101511515858401528580831b0360408201511660408401526060810151606084015260808101516080840152015160a0820152019401910191849392610965565b8254845260209093019260019283019201610926565b346101d05760203660031901126101d0576109fa611760565b610a02611935565b610a0b81611e4c565b600180546001600160a01b0319166001600160a01b0392909216919091179055005b346101d0575f3660031901126101d0577f00000000000000000000000000000000000000000000000000000000000000006001600160a01b03163003610a845760206040515f805160206122398339815191528152f35b63703e46dd60e11b5f5260045ffd5b60403660031901126101d057610aa7611760565b60243567ffffffffffffffff81116101d057610ac7903690600401611810565b6001600160a01b037f000000000000000000000000000000000000000000000000000000000000000016308114908115610c6f575b50610a8457610b0961197e565b610b1282611e4c565b6040516352d1902d60e01b81526001600160a01b0383169290602081600481875afa5f9181610c3b575b50610b545783634c9c8ce360e01b5f5260045260245ffd5b805f80516020612239833981519152859203610c295750813b15610c17575f8051602061223983398151915280546001600160a01b031916821790557fbc7cd75a20ee27fd9adebab32041f755214dbc6bffa90cc0225b39da2e5c2d3b5f80a2815115610bff575f8083602061027e95519101845af43d15610bf7573d91610bdb836117f4565b92610be960405194856117d2565b83523d5f602085013e61217a565b60609161217a565b505034610c0857005b63b398979f60e01b5f5260045ffd5b634c9c8ce360e01b5f5260045260245ffd5b632a87526960e21b5f5260045260245ffd5b9091506020813d602011610c67575b81610c57602093836117d2565b810103126101d057519085610b3c565b3d9150610c4a565b5f80516020612239833981519152546001600160a01b03161415905083610afc565b346101d0576020610ca46103ac3661178c565b604051908152f35b346101d0575f3660031901126101d057600354610cd7906020906001600160a01b031661067e6118ca565b03915afa90811561077d575f91610d61575b50336001600160a01b0390911603610717575f805160206122998339815191525460ff811615610d525760ff19165f80516020612299833981519152557f5db9ee0a495bf2e6ff9c91a7834c1ba4fdd244a5e8aa4e537bd38aeae4b073aa6020604051338152a1005b638dfc202b60e01b5f5260045ffd5b610d7a915060203d6020116107765761076881836117d2565b81610ce9565b346101d05760403660031901126101d057610d99611776565b336001600160a01b03821603610db55761027e90600435611a0d565b63334bd91960e11b5f5260045ffd5b346101d05760603660031901126101d057610ddd611760565b602435604435801515908181036101d057610df6611a95565b6040805163a12c64b560e01b8152600481018590526001600160a01b038616939181602481875afa90811561077d575f9161123d575b50156112265760035460408051610e89979192602091906001600160a01b0316610e5685836117d2565b600d82526c4554484f535f50524f46494c4560981b83830152845180809b819463d57f7aa360e01b835260048301611856565b03915afa9687156111ff5760249596976020915f91611209575b50835163b8861c2360e01b815233600482015296879182906001600160a01b03165afa9485156111ff575f956111cb575b50610ee0878287611905565b1561104a57917f9b2653b457da2bdb4c85a991d1c58cb963aa8caf3d259bab62d004a348d819609391610f168860609588611905565b91875f526038602052815f20895f52602052815f20835f526037602052825f209485549560ff87169260ff85851515149860081c165f14610fa457610f8093508215610f9057610f668154611ad1565b90555b805491151560ff1661ffff19909216919091179055565b81519384526020840152820152a4005b600101610f9d8154611ad1565b9055610f69565b915091865f14610fec5750815460ff1615610fd857610fc38154611af3565b90555b805461ff001916610100179055610f80565b600101610fe58154611af3565b9055610fc6565b61102792916001911561102c576110038154611af3565b8155016110108154611ad1565b90555b805460ff818116151660ff19909116179055565b610f80565b6110368154611ad1565b8155016110438154611af3565b9055611013565b509492909391825f526038602052855f20845f52602052855f209560365496835f526003810160205287825f20556002810192835498600160401b8a10156111b7576110d96110c38b7ffeda367d5feb48361501c702cd43bdba989f2c4da53792e4d6cddaaa2fe1484297600161119e9e018155611abc565b819391549060031b91821b915f19901b19161790565b9055156111a3576110ea8154611ad1565b90555b80516110f8816117b6565b8681526003602082015f81528383018781526060840187815260808501918a835260a08601934285526036545f526037602052611147885f2097511515889060ff801983541691151516179055565b5186549151610100600160b01b031990921690151560081b61ff00161760109190911b62010000600160b01b03161785555160018501555160028401555191015560365481519687526020870181905295a4611ad1565b603655005b6001016111b08154611ad1565b90556110ed565b634e487b7160e01b5f52604160045260245ffd5b9094506020813d6020116111f7575b816111e7602093836117d2565b810103126101d057519387610ed4565b3d91506111da565b82513d5f823e3d90fd5b6112209150823d84116107765761076881836117d2565b89610ea3565b5050633f2dc18160e11b5f5260045260245260445ffd5b90506040813d60401161127c575b81611258604093836117d2565b810103126101d057611275602061126e8361189e565b920161189e565b5086610e2c565b3d915061124b565b346101d05760403660031901126101d05761027e6004356112a3611776565b906112b061027482611880565b611a53565b346101d0575f3660031901126101d0575f546040516001600160a01b039091168152602090f35b346101d05760203660031901126101d0576112f5611760565b6112fd611935565b61130681611e4c565b5f80546001600160a01b0319166001600160a01b0392909216919091179055005b346101d05760203660031901126101d0576020610ca4600435611880565b346101d05760203660031901126101d05761135e611760565b61136661197e565b61136f81611c83565b61137557005b5f805160206122b98339815191525f525f805160206121d983398151915260205261027e906001600160a01b03167f46448fd7a7b40360a1323cb3199d0aafeb92ce905bb512a6bb7d3d3f685cf1b1612068565b346101d05760a03660031901126101d0576113e2611760565b6113ea611776565b6044356001600160a01b03811681036101d0576064356001600160a01b038116938482036101d0576084356001600160a01b038116908190036101d0575f805160206122f9833981519152549560ff8760401c16159667ffffffffffffffff8116801590816116a8575b600114908161169e575b159081611695575b506116865767ffffffffffffffff1981166001175f805160206122f9833981519152558761165a575b50611498611c58565b6001600160a01b0383169485158015611649575b8015611641575b61163257611519946114ee916114c7611c58565b6114d081611e4c565b60018060a01b03166001600160601b0360a01b5f5416175f55611e4c565b6001600160601b0360a01b60015416176001556001600160601b0360a01b6003541617600355611e5c565b6115f3575b5061152881611eef565b611598575b50611536611c58565b600160365561154157005b68ff0000000000000000195f805160206122f983398151915254165f805160206122f9833981519152557fc7f505b2f371ae2175ee4913f4499e1f2633a7b5936321eed1cdaeb6115181d2602060405160018152a1005b5f805160206122b98339815191525f525f805160206121d98339815191526020526115ec906001600160a01b03167f46448fd7a7b40360a1323cb3199d0aafeb92ce905bb512a6bb7d3d3f685cf1b161212d565b508161152d565b5f805160206122198339815191525f525f805160206121d983398151915260205261162b905f805160206122d983398151915261212d565b508261151e565b63d92e233d60e01b5f5260045ffd5b5082156114b3565b506001600160a01b038716156114ac565b68ffffffffffffffffff191668010000000000000001175f805160206122f9833981519152558761148f565b63f92ee8a960e01b5f5260045ffd5b90501589611466565b303b15915061145e565b899150611454565b346101d05760203660031901126101d0576116c9611760565b6116d1611935565b600380546001600160a01b0319166001600160a01b0392909216919091179055005b346101d05760203660031901126101d0576004359063ffffffff60e01b82168092036101d057602091635a05180f60e01b8114908115611735575b5015158152f35b637965db0b60e01b81149150811561174f575b508361172e565b6301ffc9a760e01b14905083611748565b600435906001600160a01b03821682036101d057565b602435906001600160a01b03821682036101d057565b60609060031901126101d057600435906024356001600160a01b03811681036101d0579060443590565b60c0810190811067ffffffffffffffff8211176111b757604052565b90601f8019910116810190811067ffffffffffffffff8211176111b757604052565b67ffffffffffffffff81116111b757601f01601f191660200190565b81601f820112156101d057803590611827826117f4565b9261183560405194856117d2565b828452602083830101116101d057815f926020809301838601378301015290565b602060409281835280519182918282860152018484015e5f828201840152601f01601f1916010190565b5f525f80516020612279833981519152602052600160405f20015490565b519081151582036101d057565b908160209103126101d057516001600160a01b03811681036101d05790565b604051906118d96040836117d2565b601982527f4554484f535f494e544552414354494f4e5f434f4e54524f4c000000000000006020830152565b919060018060a01b03165f52603860205260405f20905f52602052600360405f2001905f5260205260405f205490565b335f9081525f805160206121f9833981519152602052604090205460ff161561195a57565b63e2517d3f60e01b5f52336004525f805160206122b983398151915260245260445ffd5b335f9081525f80516020612259833981519152602052604090205460ff16156119a357565b63e2517d3f60e01b5f52336004525f8051602061221983398151915260245260445ffd5b5f8181525f805160206122798339815191526020908152604080832033845290915290205460ff16156119f75750565b63e2517d3f60e01b5f523360045260245260445ffd5b611a178282611daa565b9182611a2257505090565b5f9182525f805160206121d98339815191526020526040909120611a4f916001600160a01b031690612068565b5090565b611a5d8282611f82565b9182611a6857505090565b5f9182525f805160206121d98339815191526020526040909120611a4f916001600160a01b03169061212d565b60ff5f805160206122998339815191525416611aad57565b63d93c066560e01b5f5260045ffd5b805482101561063f575f5260205f2001905f90565b5f198114611adf5760010190565b634e487b7160e01b5f52601160045260245ffd5b8015611adf575f190190565b67ffffffffffffffff81116111b75760051b60200190565b805182101561063f5760209160051b010190565b81611b3b91949392948351612020565b8015611c5057611b4a81611aff565b91611b5860405193846117d2565b818352601f19611b6783611aff565b015f5b818110611c1557505082945f5b838110611b85575050505050565b80820190818311611adf57611b9c60019285611b17565b515f52603760205260405f20600360405191611bb7836117b6565b805460ff81161515845260ff8160081c1615156020850152858060a01b039060101c16604084015284810154606084015260028101546080840152015460a0820152611c038288611b17565b52611c0e8187611b17565b5001611b77565b602090604051611c24816117b6565b5f81525f838201525f60408201525f60608201525f60808201525f60a082015282828801015201611b6a565b506060925050565b60ff5f805160206122f98339815191525460401c1615611c7457565b631afcd79f60e31b5f5260045ffd5b6001600160a01b0381165f9081525f805160206121f9833981519152602052604090205460ff1615611d14576001600160a01b03165f8181525f805160206121f983398151915260205260408120805460ff191690553391905f805160206122b9833981519152907ff6391f5c32d9c69d2a47ea670b442974b53935d1edc7fd64eb21e047a839171b9080a4600190565b505f90565b6001600160a01b0381165f9081525f80516020612259833981519152602052604090205460ff1615611d14576001600160a01b03165f8181525f8051602061225983398151915260205260408120805460ff191690553391905f80516020612219833981519152907ff6391f5c32d9c69d2a47ea670b442974b53935d1edc7fd64eb21e047a839171b9080a4600190565b5f8181525f80516020612279833981519152602090815260408083206001600160a01b038616845290915290205460ff1615611e46575f8181525f80516020612279833981519152602090815260408083206001600160a01b0395909516808452949091528120805460ff19169055339291907ff6391f5c32d9c69d2a47ea670b442974b53935d1edc7fd64eb21e047a839171b9080a4600190565b50505f90565b6001600160a01b03161561163257565b6001600160a01b0381165f9081525f80516020612259833981519152602052604090205460ff16611d14576001600160a01b03165f8181525f8051602061225983398151915260205260408120805460ff191660011790553391905f80516020612219833981519152907f2f8788117e7eff1d82e926ec794901d17c78024a50270940304540a733656f0d9080a4600190565b6001600160a01b0381165f9081525f805160206121f9833981519152602052604090205460ff16611d14576001600160a01b03165f8181525f805160206121f983398151915260205260408120805460ff191660011790553391905f805160206122b9833981519152907f2f8788117e7eff1d82e926ec794901d17c78024a50270940304540a733656f0d9080a4600190565b5f8181525f80516020612279833981519152602090815260408083206001600160a01b038616845290915290205460ff16611e46575f8181525f80516020612279833981519152602090815260408083206001600160a01b0395909516808452949091528120805460ff19166001179055339291907f2f8788117e7eff1d82e926ec794901d17c78024a50270940304540a733656f0d9080a4600190565b9182158015612060575b8015612056575b61204f578203918211611adf578181111561204a575090565b905090565b5050505f90565b5082811015612031565b50811561202a565b906001820191815f528260205260405f20548015155f14612125575f198101818111611adf5782545f19810191908211611adf578181036120f0575b505050805480156120dc575f1901906120bd8282611abc565b8154905f199060031b1b19169055555f526020525f6040812055600190565b634e487b7160e01b5f52603160045260245ffd5b6121106121006110c39386611abc565b90549060031b1c92839286611abc565b90555f528360205260405f20555f80806120a4565b505050505f90565b6001810190825f528160205260405f2054155f1461204f578054600160401b8110156111b7576121676110c3826001879401855584611abc565b905554915f5260205260405f2055600190565b9061219e575080511561218f57805190602001fd5b63d6bda27560e01b5f5260045ffd5b815115806121cf575b6121af575090565b639996b31560e01b5f9081526001600160a01b0391909116600452602490fd5b50803b156121a756fec1f6fe24621ce81ec5827caf0253cadb74709b061630e6b55e82371705932000b16e88c42fd4e48df2dd6a2eabd6bc9aec654ec170056b470819f8892cc6431cb19546dff01e856fb3f010c267a7b1c60363cf8a4664e21cc89c26224620214e360894a13ba1a3210667c828492db98dca3e2076cc3735a920a3ca505d382bbcc32d4dc01d07c436ad8a6f9a20eadd61263c71fe16f6b5956005ba3b341f51dd02dd7bc7dec4dceedda775e58dd541e08a116c6c53815c0bd028192f7b626800cd5ed15c6e187e77e9aee88184c21f4f2182ab5827cb3b7e07fbedcd63f03300a49807205ce4d355092ef5a8a18f56e8913cf4a201fbe287825b095693c21775008963063c520970ed64c693e920074e4588acd3631097247bb3559890ad6a67f0c57e16840df040f15088dc2f81fe391c3923bec73e23a9662efc9c229c6a00a2646970667358221220473c9b795fa33c571660a5c31c2c0ba3b0f44c8c2913b949c0d3b3ee984c5d6964736f6c634300081a0033","linkReferences":{}},"methodIdentifiers":{"ADMIN_ROLE()":"75b238fc","DEFAULT_ADMIN_ROLE()":"a217fddf","OWNER_ROLE()":"e58378bb","UPGRADE_INTERFACE_VERSION()":"ad3cb1cc","addAdmin(address)":"70480275","contractAddressManager()":"ade9ae97","expectedSigner()":"2cb3e494","getRoleAdmin(bytes32)":"248a9ca3","getRoleMember(bytes32,uint256)":"9010d07c","getRoleMemberCount(bytes32)":"ca15c873","getRoleMembers(bytes32)":"a3246ad3","grantRole(bytes32,address)":"2f2ff15d","hasRole(bytes32,address)":"91d14854","hasVotedFor(uint256,address,uint256)":"a36bf06e","initialize(address,address,address,address,address)":"1459457a","pause()":"8456cb59","paused()":"5c975abb","proxiableUUID()":"52d1902d","removeAdmin(address)":"1785f53c","renounceRole(bytes32,address)":"36568abe","revokeRole(bytes32,address)":"d547741f","signatureUsed(bytes)":"bb10c829","signatureVerifier()":"fde919f6","supportsInterface(bytes4)":"01ffc9a7","unpause()":"3f4ba83a","updateContractAddressManager(address)":"08473f64","updateExpectedSigner(address)":"2bdd87ff","updateOwner(address)":"880cdc31","updateSignatureVerifier(address)":"5667981b","upgradeToAndCall(address,bytes)":"4f1ef286","voteCount()":"c6384071","voteFor(address,uint256,bool)":"31547ea6","voteIndexFor(uint256,address,uint256)":"4a8052f4","votes(uint256)":"5df81330","votesCountFor(address,uint256)":"fc7e353f","votesInRangeFor(address,uint256,uint256,uint256)":"571e71e1"},"id":118}