{"abi":[{"type":"constructor","inputs":[],"stateMutability":"nonpayable"},{"type":"function","name":"ADMIN_ROLE","inputs":[],"outputs":[{"name":"","type":"bytes32","internalType":"bytes32"}],"stateMutability":"view"},{"type":"function","name":"DEFAULT_ADMIN_ROLE","inputs":[],"outputs":[{"name":"","type":"bytes32","internalType":"bytes32"}],"stateMutability":"view"},{"type":"function","name":"OWNER_ROLE","inputs":[],"outputs":[{"name":"","type":"bytes32","internalType":"bytes32"}],"stateMutability":"view"},{"type":"function","name":"UPGRADE_INTERFACE_VERSION","inputs":[],"outputs":[{"name":"","type":"string","internalType":"string"}],"stateMutability":"view"},{"type":"function","name":"addAdmin","inputs":[{"name":"admin","type":"address","internalType":"address"}],"outputs":[],"stateMutability":"nonpayable"},{"type":"function","name":"addReview","inputs":[{"name":"score","type":"uint8","internalType":"enum EthosReview.Score"},{"name":"subject","type":"address","internalType":"address"},{"name":"paymentToken","type":"address","internalType":"address"},{"name":"comment","type":"string","internalType":"string"},{"name":"metadata","type":"string","internalType":"string"},{"name":"attestationDetails","type":"tuple","internalType":"struct AttestationDetails","components":[{"name":"account","type":"string","internalType":"string"},{"name":"service","type":"string","internalType":"string"}]}],"outputs":[],"stateMutability":"payable"},{"type":"function","name":"archiveReview","inputs":[{"name":"reviewId","type":"uint256","internalType":"uint256"}],"outputs":[],"stateMutability":"nonpayable"},{"type":"function","name":"contractAddressManager","inputs":[],"outputs":[{"name":"","type":"address","internalType":"contract IContractAddressManager"}],"stateMutability":"view"},{"type":"function","name":"editReview","inputs":[{"name":"reviewId","type":"uint256","internalType":"uint256"},{"name":"comment","type":"string","internalType":"string"},{"name":"metadata","type":"string","internalType":"string"}],"outputs":[],"stateMutability":"nonpayable"},{"type":"function","name":"expectedSigner","inputs":[],"outputs":[{"name":"","type":"address","internalType":"address"}],"stateMutability":"view"},{"type":"function","name":"getRoleAdmin","inputs":[{"name":"role","type":"bytes32","internalType":"bytes32"}],"outputs":[{"name":"","type":"bytes32","internalType":"bytes32"}],"stateMutability":"view"},{"type":"function","name":"getRoleMember","inputs":[{"name":"role","type":"bytes32","internalType":"bytes32"},{"name":"index","type":"uint256","internalType":"uint256"}],"outputs":[{"name":"","type":"address","internalType":"address"}],"stateMutability":"view"},{"type":"function","name":"getRoleMemberCount","inputs":[{"name":"role","type":"bytes32","internalType":"bytes32"}],"outputs":[{"name":"","type":"uint256","internalType":"uint256"}],"stateMutability":"view"},{"type":"function","name":"getRoleMembers","inputs":[{"name":"role","type":"bytes32","internalType":"bytes32"}],"outputs":[{"name":"","type":"address[]","internalType":"address[]"}],"stateMutability":"view"},{"type":"function","name":"grantRole","inputs":[{"name":"role","type":"bytes32","internalType":"bytes32"},{"name":"account","type":"address","internalType":"address"}],"outputs":[],"stateMutability":"nonpayable"},{"type":"function","name":"hasRole","inputs":[{"name":"role","type":"bytes32","internalType":"bytes32"},{"name":"account","type":"address","internalType":"address"}],"outputs":[{"name":"","type":"bool","internalType":"bool"}],"stateMutability":"view"},{"type":"function","name":"initialize","inputs":[{"name":"owner","type":"address","internalType":"address"},{"name":"admin","type":"address","internalType":"address"},{"name":"expectedSigner","type":"address","internalType":"address"},{"name":"signatureVerifier","type":"address","internalType":"address"},{"name":"contractAddressManagerAddr","type":"address","internalType":"address"}],"outputs":[],"stateMutability":"nonpayable"},{"type":"function","name":"pause","inputs":[],"outputs":[],"stateMutability":"nonpayable"},{"type":"function","name":"paused","inputs":[],"outputs":[{"name":"","type":"bool","internalType":"bool"}],"stateMutability":"view"},{"type":"function","name":"proxiableUUID","inputs":[],"outputs":[{"name":"","type":"bytes32","internalType":"bytes32"}],"stateMutability":"view"},{"type":"function","name":"removeAdmin","inputs":[{"name":"admin","type":"address","internalType":"address"}],"outputs":[],"stateMutability":"nonpayable"},{"type":"function","name":"renounceRole","inputs":[{"name":"role","type":"bytes32","internalType":"bytes32"},{"name":"callerConfirmation","type":"address","internalType":"address"}],"outputs":[],"stateMutability":"nonpayable"},{"type":"function","name":"restoreReview","inputs":[{"name":"reviewId","type":"uint256","internalType":"uint256"}],"outputs":[],"stateMutability":"nonpayable"},{"type":"function","name":"reviewCount","inputs":[],"outputs":[{"name":"","type":"uint256","internalType":"uint256"}],"stateMutability":"view"},{"type":"function","name":"reviewIdsByAttestationHash","inputs":[{"name":"","type":"bytes32","internalType":"bytes32"},{"name":"","type":"uint256","internalType":"uint256"}],"outputs":[{"name":"","type":"uint256","internalType":"uint256"}],"stateMutability":"view"},{"type":"function","name":"reviewIdsByAuthorAddress","inputs":[{"name":"","type":"address","internalType":"address"},{"name":"","type":"uint256","internalType":"uint256"}],"outputs":[{"name":"","type":"uint256","internalType":"uint256"}],"stateMutability":"view"},{"type":"function","name":"reviewIdsBySubjectAddress","inputs":[{"name":"","type":"address","internalType":"address"},{"name":"","type":"uint256","internalType":"uint256"}],"outputs":[{"name":"","type":"uint256","internalType":"uint256"}],"stateMutability":"view"},{"type":"function","name":"reviewPrice","inputs":[{"name":"","type":"address","internalType":"address"}],"outputs":[{"name":"allowed","type":"bool","internalType":"bool"},{"name":"price","type":"uint256","internalType":"uint256"}],"stateMutability":"view"},{"type":"function","name":"reviews","inputs":[{"name":"","type":"uint256","internalType":"uint256"}],"outputs":[{"name":"archived","type":"bool","internalType":"bool"},{"name":"score","type":"uint8","internalType":"enum EthosReview.Score"},{"name":"author","type":"address","internalType":"address"},{"name":"subject","type":"address","internalType":"address"},{"name":"reviewId","type":"uint256","internalType":"uint256"},{"name":"createdAt","type":"uint256","internalType":"uint256"},{"name":"comment","type":"string","internalType":"string"},{"name":"metadata","type":"string","internalType":"string"},{"name":"attestationDetails","type":"tuple","internalType":"struct AttestationDetails","components":[{"name":"account","type":"string","internalType":"string"},{"name":"service","type":"string","internalType":"string"}]}],"stateMutability":"view"},{"type":"function","name":"revokeRole","inputs":[{"name":"role","type":"bytes32","internalType":"bytes32"},{"name":"account","type":"address","internalType":"address"}],"outputs":[],"stateMutability":"nonpayable"},{"type":"function","name":"setReviewPrice","inputs":[{"name":"allowed","type":"bool","internalType":"bool"},{"name":"paymentToken","type":"address","internalType":"address"},{"name":"price","type":"uint256","internalType":"uint256"}],"outputs":[],"stateMutability":"nonpayable"},{"type":"function","name":"signatureUsed","inputs":[{"name":"","type":"bytes","internalType":"bytes"}],"outputs":[{"name":"","type":"bool","internalType":"bool"}],"stateMutability":"view"},{"type":"function","name":"signatureVerifier","inputs":[],"outputs":[{"name":"","type":"address","internalType":"address"}],"stateMutability":"view"},{"type":"function","name":"supportsInterface","inputs":[{"name":"interfaceId","type":"bytes4","internalType":"bytes4"}],"outputs":[{"name":"","type":"bool","internalType":"bool"}],"stateMutability":"view"},{"type":"function","name":"targetExistsAndAllowedForId","inputs":[{"name":"targetId","type":"uint256","internalType":"uint256"}],"outputs":[{"name":"exists","type":"bool","internalType":"bool"},{"name":"allowed","type":"bool","internalType":"bool"}],"stateMutability":"view"},{"type":"function","name":"unpause","inputs":[],"outputs":[],"stateMutability":"nonpayable"},{"type":"function","name":"updateContractAddressManager","inputs":[{"name":"contractAddressesAddr","type":"address","internalType":"address"}],"outputs":[],"stateMutability":"nonpayable"},{"type":"function","name":"updateExpectedSigner","inputs":[{"name":"signer","type":"address","internalType":"address"}],"outputs":[],"stateMutability":"nonpayable"},{"type":"function","name":"updateOwner","inputs":[{"name":"owner","type":"address","internalType":"address"}],"outputs":[],"stateMutability":"nonpayable"},{"type":"function","name":"updateSignatureVerifier","inputs":[{"name":"sinatureVerifier","type":"address","internalType":"address"}],"outputs":[],"stateMutability":"nonpayable"},{"type":"function","name":"upgradeToAndCall","inputs":[{"name":"newImplementation","type":"address","internalType":"address"},{"name":"data","type":"bytes","internalType":"bytes"}],"outputs":[],"stateMutability":"payable"},{"type":"function","name":"withdrawFunds","inputs":[{"name":"paymentToken","type":"address","internalType":"address"}],"outputs":[],"stateMutability":"nonpayable"},{"type":"event","name":"Initialized","inputs":[{"name":"version","type":"uint64","indexed":false,"internalType":"uint64"}],"anonymous":false},{"type":"event","name":"Paused","inputs":[{"name":"account","type":"address","indexed":false,"internalType":"address"}],"anonymous":false},{"type":"event","name":"ReviewArchived","inputs":[{"name":"reviewId","type":"uint256","indexed":true,"internalType":"uint256"},{"name":"author","type":"address","indexed":true,"internalType":"address"},{"name":"subject","type":"address","indexed":true,"internalType":"address"}],"anonymous":false},{"type":"event","name":"ReviewCreated","inputs":[{"name":"score","type":"uint8","indexed":false,"internalType":"enum EthosReview.Score"},{"name":"author","type":"address","indexed":true,"internalType":"address"},{"name":"attestationHash","type":"bytes32","indexed":true,"internalType":"bytes32"},{"name":"subject","type":"address","indexed":true,"internalType":"address"},{"name":"reviewId","type":"uint256","indexed":false,"internalType":"uint256"},{"name":"profileId","type":"uint256","indexed":false,"internalType":"uint256"}],"anonymous":false},{"type":"event","name":"ReviewEdited","inputs":[{"name":"reviewId","type":"uint256","indexed":true,"internalType":"uint256"},{"name":"author","type":"address","indexed":true,"internalType":"address"},{"name":"subject","type":"address","indexed":true,"internalType":"address"}],"anonymous":false},{"type":"event","name":"ReviewRestored","inputs":[{"name":"reviewId","type":"uint256","indexed":true,"internalType":"uint256"},{"name":"author","type":"address","indexed":true,"internalType":"address"},{"name":"subject","type":"address","indexed":true,"internalType":"address"}],"anonymous":false},{"type":"event","name":"RoleAdminChanged","inputs":[{"name":"role","type":"bytes32","indexed":true,"internalType":"bytes32"},{"name":"previousAdminRole","type":"bytes32","indexed":true,"internalType":"bytes32"},{"name":"newAdminRole","type":"bytes32","indexed":true,"internalType":"bytes32"}],"anonymous":false},{"type":"event","name":"RoleGranted","inputs":[{"name":"role","type":"bytes32","indexed":true,"internalType":"bytes32"},{"name":"account","type":"address","indexed":true,"internalType":"address"},{"name":"sender","type":"address","indexed":true,"internalType":"address"}],"anonymous":false},{"type":"event","name":"RoleRevoked","inputs":[{"name":"role","type":"bytes32","indexed":true,"internalType":"bytes32"},{"name":"account","type":"address","indexed":true,"internalType":"address"},{"name":"sender","type":"address","indexed":true,"internalType":"address"}],"anonymous":false},{"type":"event","name":"Unpaused","inputs":[{"name":"account","type":"address","indexed":false,"internalType":"address"}],"anonymous":false},{"type":"event","name":"Upgraded","inputs":[{"name":"implementation","type":"address","indexed":true,"internalType":"address"}],"anonymous":false},{"type":"error","name":"AccessControlBadConfirmation","inputs":[]},{"type":"error","name":"AccessControlUnauthorizedAccount","inputs":[{"name":"account","type":"address","internalType":"address"},{"name":"neededRole","type":"bytes32","internalType":"bytes32"}]},{"type":"error","name":"AddressEmptyCode","inputs":[{"name":"target","type":"address","internalType":"address"}]},{"type":"error","name":"ERC1967InvalidImplementation","inputs":[{"name":"implementation","type":"address","internalType":"address"}]},{"type":"error","name":"ERC1967NonPayable","inputs":[]},{"type":"error","name":"EnforcedPause","inputs":[]},{"type":"error","name":"ExpectedPause","inputs":[]},{"type":"error","name":"FailedCall","inputs":[]},{"type":"error","name":"InvalidInitialization","inputs":[]},{"type":"error","name":"InvalidReviewDetails","inputs":[{"name":"message","type":"string","internalType":"string"}]},{"type":"error","name":"InvalidSignature","inputs":[]},{"type":"error","name":"NotInitializing","inputs":[]},{"type":"error","name":"ReviewIsArchived","inputs":[{"name":"reviewId","type":"uint256","internalType":"uint256"}]},{"type":"error","name":"ReviewNotArchived","inputs":[{"name":"reviewId","type":"uint256","internalType":"uint256"}]},{"type":"error","name":"ReviewNotFound","inputs":[{"name":"reviewId","type":"uint256","internalType":"uint256"}]},{"type":"error","name":"SelfReview","inputs":[{"name":"subject","type":"address","internalType":"address"}]},{"type":"error","name":"SignatureWasUsed","inputs":[]},{"type":"error","name":"UUPSUnauthorizedCallContext","inputs":[]},{"type":"error","name":"UUPSUnsupportedProxiableUUID","inputs":[{"name":"slot","type":"bytes32","internalType":"bytes32"}]},{"type":"error","name":"UnauthorizedEdit","inputs":[{"name":"reviewId","type":"uint256","internalType":"uint256"}]},{"type":"error","name":"WrongPaymentAmount","inputs":[{"name":"paymentToken","type":"address","internalType":"address"},{"name":"amount","type":"uint256","internalType":"uint256"}]},{"type":"error","name":"WrongPaymentToken","inputs":[{"name":"paymentToken","type":"address","internalType":"address"}]},{"type":"error","name":"ZeroAddress","inputs":[]}],"bytecode":{"object":"0x60a06040523461003c57610011610040565b3060805261001d610040565b6040516133bf90816100fd8239608051818181611c1f0152611cb00152f35b5f80fd5b7ff0c57e16840df040f15088dc2f81fe391c3923bec73e23a9662efc9c229c6a005460ff8160401c166100ed576002600160401b03196001600160401b038216016100885750565b6001600160401b0319166001600160401b039081177ff0c57e16840df040f15088dc2f81fe391c3923bec73e23a9662efc9c229c6a00556040519081527fc7f505b2f371ae2175ee4913f4499e1f2633a7b5936321eed1cdaeb6115181d290602090a1565b63f92ee8a960e01b5f5260045ffdfe6080806040526004361015610012575f80fd5b5f3560e01c90816301ffc9a71461252c5750806303f6e47f1461247657806304515c291461243057806308473f64146123ed5780631459457a146120d55780631785f53c14612051578063248a9ca31461202b5780632bdd87ff14611fe05780632cb3e49414611fb95780632f2ff15d14611f8857806336568abe14611f445780633f4ba83a14611e705780634f1ef28614611c7357806352d1902d14611c0d5780635667981b14611bc15780635c975abb14611b935780636232249914611b4a5780636821435a14611aa157806368742da6146119a2578063704802751461191e578063725641ac146118ef57806375b238fc146118c85780637b95e94e14610c265780638456cb5914610aea578063880cdc31146109cf5780639010d07c1461098757806391d14854146109325780639c4d5d5f146106c9578063a12c64b51461068a578063a217fddf14610670578063a3246ad3146105b5578063ad3cb1cc1461056e578063ade9ae9714610546578063bb10c829146104ec578063ca15c873146104b6578063d547741f1461047e578063e070b805146103cc578063e58378bb146103a5578063e83ddcea1461028b578063eff5924f1461026e578063f3300ce7146102165763fde919f6146101ea575f80fd5b34610212575f366003190112610212576001546040516001600160a01b039091168152602090f35b5f80fd5b346102125760403660031901126102125761022f612599565b6001600160a01b03165f908152603960205260409020805460243591908210156102125760209161025f91612686565b90549060031b1c604051908152f35b34610212575f366003190112610212576020603654604051908152f35b34610212576020366003190112610212576004355f52603860205261033860206103a160405f2080549061039161037860018060a01b0360018401541661036a600285015460038601546102e16004880161273a565b916102ee6005890161273a565b9461031560076040519a6103018c6125db565b61030d6006820161273a565b8c520161273a565b998c8a019a8b526040519d8e9d8e60ff8416151581520160ff8360081c166127da565b60101c6001600160a01b031660408d015260608c015260808b015260a08a015261012060c08a018190528901906126de565b9087820360e08901526126de565b91858303610100870152516040835260408301906126de565b91519060208184039101526126de565b0390f35b34610212575f3660031901126102125760206040515f8051602061328a8339815191528152f35b34610212576020366003190112610212576004356103e861297b565b5f8181526038602052604090208054601081901c6001600160a01b03161561046b5760ff8116156104585761041c836129a2565b60ff19168155600101546001600160a01b03169033907fd1e776670553de8351018778f951226744cf387276a4a6bc85346de6bc0c9dc15f80a4005b8263594af9b960e01b5f5260045260245ffd5b82633d9c511560e11b5f5260045260245ffd5b34610212576040366003190112610212576104b460043561049d6125af565b906104af6104aa826127e7565b612b46565b612b8c565b005b34610212576020366003190112610212576004355f525f8051602061324a833981519152602052602060405f2054604051908152f35b34610212576020366003190112610212576004356001600160401b0381116102125760ff60208061052281943690600401612668565b604051928184925191829101835e8101600281520301902054166040519015158152f35b34610212575f366003190112610212576003546040516001600160a01b039091168152602090f35b34610212575f366003190112610212576103a160405161058f6040826125f6565b60058152640352e302e360dc1b60208201526040519182916020835260208301906126de565b34610212576020366003190112610212576004355f525f8051602061324a83398151915260205260405f20604051806020835491828152019081935f5260205f20905f5b81811061065a575050508161060f9103826125f6565b604051918291602083019060208452518091526040830191905f5b818110610638575050500390f35b82516001600160a01b031684528594506020938401939092019160010161062a565b82548452602090930192600192830192016105f9565b34610212575f3660031901126102125760206040515f8152f35b346102125760203660031901126102125760406106b96004355f526038602052600360405f2001541515908190565b8251911515825215156020820152f35b34610212576060366003190112610212576004356024356001600160401b038111610212576106fc9036906004016126b1565b6044929192356001600160401b0381116102125761071e9036906004016126b1565b909361072861297b565b835f52603860205260405f209260ff84541661091f57610747856129a2565b60048401916001600160401b03821161089c5761076e826107688554612702565b856128f0565b5f90601f83116001146108bb5761079c92915f91836108b0575b50508160011b915f199060031b1c19161790565b90555b60058201906001600160401b03811161089c576107c6816107c08454612702565b846128f0565b5f601f82116001146108395781906107f5939495965f9261082e5750508160011b915f199060031b1c19161790565b90555b600101546001600160a01b03169033907fd50d53f79201cac5bff0d80f7335371be90a3cb399bdcba65cc73b382dd353bd5f80a4005b013590508680610788565b601f19821695835f5260205f20915f5b8881106108845750836001959697981061086b575b505050811b0190556107f8565b01355f19600384901b60f8161c1916905585808061085e565b90926020600181928686013581550194019101610849565b634e487b7160e01b5f52604160045260245ffd5b013590508880610788565b601f19831691845f5260205f20925f5b81811061090757509084600195949392106108ee575b505050811b01905561079f565b01355f19600384901b60f8161c191690558780806108e1565b919360206001819287870135815501950192016108cb565b84630cef71ed60e21b5f5260045260245ffd5b346102125760403660031901126102125761094b6125af565b6004355f525f805160206132ea83398151915260205260405f209060018060a01b03165f52602052602060ff60405f2054166040519015158152f35b346102125760206109b661099a3661269b565b905f525f8051602061324a833981519152835260405f20612686565b905460405160039290921b1c6001600160a01b03168152f35b34610212576020366003190112610212576109e8612599565b6109f0612afd565b5f8051602061328a8339815191525f525f8051602061324a8339815191526020525f8051602061334a833981519152805415610ad6575f90815260209020546001600160a01b0316610a4181612dcb565b610a97575b50610a5081612f0e565b610a5657005b5f8051602061328a8339815191525f525f8051602061324a8339815191526020526104b4906001600160a01b03165f8051602061334a833981519152613197565b5f8051602061328a8339815191525f525f8051602061324a833981519152602052610acf905f8051602061334a8339815191526130d2565b5081610a46565b634e487b7160e01b5f52603260045260245ffd5b34610212575f36600319011261021257600354610b38906020906001600160a01b0316610b15612805565b90604051808095819463d57f7aa360e01b835286600484015260248301906126de565b03915afa908115610c1b575f91610bec575b50336001600160a01b0390911603610bb557610b6461297b565b600160ff195f8051602061330a8339815191525416175f8051602061330a833981519152557f62e78cea01bee320cd4e420270b5ea74000d11b0c9f74754ebdbfc544b05a2586020604051338152a1005b63e2517d3f60e01b5f52336004527f261fea28325784de45eba41a3fbb84c4196fbab02ee802566edfe26616ba5afb60245260445ffd5b610c0e915060203d602011610c14575b610c0681836125f6565b810190612840565b81610b4a565b503d610bfc565b6040513d5f823e3d90fd5b60c036600319011261021257600435600381101561021257610c466125af565b610c4e6125c5565b916064356001600160401b03811161021257610c6e9036906004016126b1565b6084929192356001600160401b03811161021257610c909036906004016126b1565b949060a4356001600160401b0381116102125780600401926040600319833603011261021257610cbe61297b565b6001600160a01b0316968715808061189f575b61186e5715948580611843575b6118125733891461167a57602460206001600160a01b03610cfd612c14565b16604051928380926389a9132b60e01b82523360048301525afa908115610c1b575f916117e0575b5086156116c1576001600160a01b03610d3c612c14565b169060208b6024604051809581936389a9132b60e01b835260048301525afa918215610c1b575f9261168d575b501461167a575b6001600160a01b03610d80612c14565b169760405163b8861c2360e01b81523360048201526020816024818d5afa8015610c1b5761164b575b505f9887156114d1576040516389a9132b60e01b8152600481018c9052602081602481855afa908115610c1b575f9161149f575b5080611498575060205f9160648d60405194859384926315c3e15560e21b845282600485015260248401528160448401525af1908115610c1b575f91611466575b505b9a5b6001600160a01b03165f8181526037602052604090205460ff161561145457805f526037602052600160405f200154806113a2575b5050603654604051956101208701918783106001600160401b0384111761089c578c926040525f885260208801908b8252610ec360408a019333855260608b01958652610eb460808c019784895260a08d0199428b523691612632565b9860c08c01998a523691612632565b9760e08a019889526040519a610ed88c6125db565b356001600160401b03811161021257610ef79060043691840101612668565b8b526024810135906001600160401b038211610212576004610f1c9236920101612668565b60208b01526101008901998a525f526038602052610f4d60405f2098511515899060ff801983541691151516179055565b5190600382101561138e5787549051610100600160b01b031990911660089290921b61ff00169190911760109190911b62010000600160b01b0316178655516001860180546001600160a01b0319166001600160a01b039290921691909117905551600285015551600384015551805160048401916001600160401b03821161089c57610fde826107688554612702565b602090601f831160011461132b5761100c92915f91836113205750508160011b915f199060031b1c19161790565b90555b51805160058301916001600160401b03821161089c57611033826107688554612702565b602090601f83116001146112bd5761106192915f91836112b25750508160011b915f199060031b1c19161790565b90555b6006810191519182518051906001600160401b03821161089c5761108c826107688554612702565b602090601f8311600114611249578260209593600795936110c1935f9261123e5750508160011b915f199060031b1c19161790565b90555b019101518051906001600160401b03821161089c576110e7826107688554612702565b602090601f83116001146111db5761111592915f91836111d05750508160011b915f199060031b1c19161790565b90555b335f52603960205261113060405f206036549061293f565b156111b357825f52603a60205261114d60405f206036549061293f565b6036549361115e60405180936127da565b84602083015260408201527fbcba601f87e317f5f2e5d40544c705eb73096974a8f4836ca5c4cd8f012451d960603392a45f19811461119f57600101603655005b634e487b7160e01b5f52601160045260245ffd5b815f52603b6020526111cb60405f206036549061293f565b61114d565b015190508980610788565b90601f19831691845f52815f20925f5b818110611226575090846001959493921061120e575b505050811b019055611118565b01515f1960f88460031b161c19169055888080611201565b929360206001819287860151815501950193016111eb565b015190508d80610788565b90601f19831691845f52815f20925f5b81811061129a5750926001928592602098966007989610611282575b505050811b0190556110c4565b01515f1960f88460031b161c191690558c8080611275565b92936020600181928786015181550195019301611259565b015190508b80610788565b90601f19831691845f52815f20925f5b81811061130857509084600195949392106112f0575b505050811b019055611064565b01515f1960f88460031b161c191690558a80806112e3565b929360206001819287860151815501950193016112cd565b015190508c80610788565b90601f19831691845f52815f20925f5b818110611376575090846001959493921061135e575b505050811b01905561100f565b01515f1960f88460031b161c191690558b8080611351565b9293602060018192878601518155019501930161133b565b634e487b7160e01b5f52602160045260245ffd5b816113cc5734036113b657505b8b80610e57565b6306e0823560e21b5f526004523460245260445ffd5b3461143d575f91606460209260405194859384926323b872dd60e01b845233600485015230602485015260448401525af18015610c1b5761140e575b506113af565b61142f9060203d602011611436575b61142781836125f6565b81019061285f565b508b611408565b503d61141d565b6306e0823560e21b5f525f6004523460245260445ffd5b634dbdbad960e11b5f5260045260245ffd5b90506020813d602011611490575b81611481602093836125f6565b8101031261021257518c610e1e565b3d9150611474565b9050610e20565b90506020813d6020116114c9575b816114ba602093836125f6565b8101031261021257518d610ddd565b3d91506114ad565b98506001600160a01b036114e3612cac565b16986114f26024860188612877565b9a906114fe8980612877565b60405163236dc36960e21b81529d8e93849361152093929091600486016128c9565b03815a93602094fa998a15610c1b575f9a611617575b5089604051637dec74d760e01b8152816004820152602081602481865afa908115610c1b575f916115e5575b50806115dd575060209060648d5f60405195869485936315c3e15560e21b855260016004860152602485015260448401525af1908115610c1b575f916115ab575b505b9a610e22565b90506020813d6020116115d5575b816115c6602093836125f6565b8101031261021257518c6115a3565b3d91506115b9565b9150506115a5565b90506020813d60201161160f575b81611600602093836125f6565b8101031261021257518e611562565b3d91506115f3565b9099506020813d602011611643575b81611633602093836125f6565b810103126102125751988c611536565b3d9150611626565b6020813d602011611672575b81611664602093836125f6565b810103126102125751610da9565b3d9150611657565b8863d63f320360e01b5f5260045260245ffd5b9091506020813d6020116116b9575b816116a9602093836125f6565b810103126102125751908c610d69565b3d915061169c565b6001600160a01b036116d1612cac565b169060206116e26024870189612877565b936116ed8a80612877565b60405163236dc36960e21b815296879485938493611710939092600486016128c9565b03915afa918215610c1b575f926117ac575b5060206001600160a01b03611735612c14565b1692602460405180958193637dec74d760e01b835260048301525afa918215610c1b575f92611778575b5003610d70578863d63f320360e01b5f5260045260245ffd5b9091506020813d6020116117a4575b81611794602093836125f6565b810103126102125751908c61175f565b3d9150611787565b9091506020813d6020116117d8575b816117c8602093836125f6565b810103126102125751908c611722565b3d91506117bb565b90506020813d60201161180a575b816117fb602093836125f6565b8101031261021257518b610d25565b3d91506117ee565b60405163ac15c56760e01b8152602060048201526008602482015267109bdd1a081cd95d60c21b6044820152606490fd5b5061184e8580612877565b1515905080610cde57506118656024840186612877565b90501515610cde565b60405163ac15c56760e01b8152602060048201526008602482015267139bdb99481cd95d60c21b6044820152606490fd5b506118aa8580612877565b90501580610cd157506118c06024840186612877565b905015610cd1565b34610212575f3660031901126102125760206040515f8051602061332a8339815191528152f35b34610212576118fd3661269b565b905f52603b60205260405f2080548210156102125760209161025f91612686565b3461021257602036600319011261021257611937612599565b61193f612afd565b61194881612fa1565b61194e57005b5f8051602061332a8339815191525f525f8051602061324a8339815191526020526104b4906001600160a01b03167f46448fd7a7b40360a1323cb3199d0aafeb92ce905bb512a6bb7d3d3f685cf1b1613197565b34610212576020366003190112610212576119bb612599565b6119c3612afd565b6119cb61297b565b6001600160a01b0316806119fa57505f808080478181156119f1575b3390f115610c1b57005b506108fc6119e7565b6040516370a0823160e01b8152306004820152602081602481855afa908115610c1b575f91611a6f575b505f916044602092604051948593849263a9059cbb60e01b845233600485015260248401525af18015610c1b57611a5757005b6104b49060203d6020116114365761142781836125f6565b90506020813d602011611a99575b81611a8a602093836125f6565b8101031261021257515f611a24565b3d9150611a7d565b34610212576060366003190112610212576004358015159081810361021257611ac86125af565b90611ad1612ab4565b611ad961297b565b15611b2b5760019060405192611aee846125db565b835260208301906044358252828060a01b03165f526037602052611b2560405f2093511515849060ff801983541691151516179055565b51910155005b6001600160a01b03165f90815260376020526040812081815560010155005b3461021257604036600319011261021257611b63612599565b6001600160a01b03165f908152603a60205260409020805460243591908210156102125760209161025f91612686565b34610212575f36600319011261021257602060ff5f8051602061330a83398151915254166040519015158152f35b3461021257602036600319011261021257611bda612599565b611be2612ab4565b611beb81612efe565b600180546001600160a01b0319166001600160a01b0392909216919091179055005b34610212575f366003190112610212577f00000000000000000000000000000000000000000000000000000000000000006001600160a01b03163003611c645760206040515f805160206132aa8339815191528152f35b63703e46dd60e11b5f5260045ffd5b604036600319011261021257611c87612599565b6024356001600160401b03811161021257611ca6903690600401612668565b6001600160a01b037f000000000000000000000000000000000000000000000000000000000000000016308114908115611e4e575b50611c6457611ce8612afd565b611cf182612efe565b6040516352d1902d60e01b81526001600160a01b0383169290602081600481875afa5f9181611e1a575b50611d335783634c9c8ce360e01b5f5260045260245ffd5b805f805160206132aa833981519152859203611e085750813b15611df6575f805160206132aa83398151915280546001600160a01b031916821790557fbc7cd75a20ee27fd9adebab32041f755214dbc6bffa90cc0225b39da2e5c2d3b5f80a2815115611dde575f808360206104b495519101845af43d15611dd6573d91611dba83612617565b92611dc860405194856125f6565b83523d5f602085013e6131eb565b6060916131eb565b505034611de757005b63b398979f60e01b5f5260045ffd5b634c9c8ce360e01b5f5260045260245ffd5b632a87526960e21b5f5260045260245ffd5b9091506020813d602011611e46575b81611e36602093836125f6565b8101031261021257519085611d1b565b3d9150611e29565b5f805160206132aa833981519152546001600160a01b03161415905083611cdb565b34610212575f36600319011261021257600354611e9b906020906001600160a01b0316610b15612805565b03915afa908115610c1b575f91611f25575b50336001600160a01b0390911603610bb5575f8051602061330a8339815191525460ff811615611f165760ff19165f8051602061330a833981519152557f5db9ee0a495bf2e6ff9c91a7834c1ba4fdd244a5e8aa4e537bd38aeae4b073aa6020604051338152a1005b638dfc202b60e01b5f5260045ffd5b611f3e915060203d602011610c1457610c0681836125f6565b81611ead565b3461021257604036600319011261021257611f5d6125af565b336001600160a01b03821603611f79576104b490600435612b8c565b63334bd91960e11b5f5260045ffd5b34610212576040366003190112610212576104b4600435611fa76125af565b90611fb46104aa826127e7565b612bd2565b34610212575f366003190112610212575f546040516001600160a01b039091168152602090f35b3461021257602036600319011261021257611ff9612599565b612001612ab4565b61200a81612efe565b5f80546001600160a01b0319166001600160a01b0392909216919091179055005b346102125760203660031901126102125760206120496004356127e7565b604051908152f35b346102125760203660031901126102125761206a612599565b612072612afd565b61207b81612d35565b61208157005b5f8051602061332a8339815191525f525f8051602061324a8339815191526020526104b4906001600160a01b03167f46448fd7a7b40360a1323cb3199d0aafeb92ce905bb512a6bb7d3d3f685cf1b16130d2565b346102125760a0366003190112610212576120ee612599565b6120f66125af565b6120fe6125c5565b6064356001600160a01b03811693848203610212576084356001600160a01b03811690819003610212575f8051602061336a833981519152549560ff8760401c1615966001600160401b038116801590816123e5575b60011490816123db575b1590816123d2575b506123c35767ffffffffffffffff1981166001175f8051602061336a8339815191525587612397575b50612198612d0a565b6001600160a01b0383169485158015612386575b801561237e575b61236f57612219946121ee916121c7612d0a565b6121d081612efe565b60018060a01b03166001600160601b0360a01b5f5416175f55612efe565b6001600160601b0360a01b60015416176001556001600160601b0360a01b6003541617600355612f0e565b612330575b5061222881612fa1565b6122d5575b5060405161223a816125db565b600181526001602082015f81525f8052603760205261226c60405f2093511515849060ff801983541691151516179055565b51910155612278612d0a565b61227e57005b68ff0000000000000000195f8051602061336a83398151915254165f8051602061336a833981519152557fc7f505b2f371ae2175ee4913f4499e1f2633a7b5936321eed1cdaeb6115181d2602060405160018152a1005b5f8051602061332a8339815191525f525f8051602061324a833981519152602052612329906001600160a01b03167f46448fd7a7b40360a1323cb3199d0aafeb92ce905bb512a6bb7d3d3f685cf1b1613197565b508161222d565b5f8051602061328a8339815191525f525f8051602061324a833981519152602052612368905f8051602061334a833981519152613197565b508261221e565b63d92e233d60e01b5f5260045ffd5b5082156121b3565b506001600160a01b038716156121ac565b68ffffffffffffffffff191668010000000000000001175f8051602061336a833981519152558761218f565b63f92ee8a960e01b5f5260045ffd5b90501589612166565b303b15915061215e565b899150612154565b3461021257602036600319011261021257612406612599565b61240e612ab4565b600380546001600160a01b0319166001600160a01b0392909216919091179055005b34610212576020366003190112610212576001600160a01b03612451612599565b165f5260376020526040805f20600160ff825416910154825191151582526020820152f35b346102125760203660031901126102125760043561249261297b565b5f818152603860205260409020600301541561251a57805f52603860205260405f20805460ff8116612507576001906124ca846129a2565b60ff1916178155600101546001600160a01b03169033907f6e0a97d527a534d3590091587040d4d934863526c2be2dd3d89180017f49ed105f80a4005b82630cef71ed60e21b5f5260045260245ffd5b633d9c511560e11b5f5260045260245ffd5b34610212576020366003190112610212576004359063ffffffff60e01b821680920361021257602091635a05180f60e01b811490811561256e575b5015158152f35b637965db0b60e01b811491508115612588575b5083612567565b6301ffc9a760e01b14905083612581565b600435906001600160a01b038216820361021257565b602435906001600160a01b038216820361021257565b604435906001600160a01b038216820361021257565b604081019081106001600160401b0382111761089c57604052565b90601f801991011681019081106001600160401b0382111761089c57604052565b6001600160401b03811161089c57601f01601f191660200190565b92919261263e82612617565b9161264c60405193846125f6565b829481845281830111610212578281602093845f960137010152565b9080601f830112156102125781602061268393359101612632565b90565b8054821015610ad6575f5260205f2001905f90565b6040906003190112610212576004359060243590565b9181601f84011215610212578235916001600160401b038311610212576020838186019501011161021257565b805180835260209291819084018484015e5f828201840152601f01601f1916010190565b90600182811c92168015612730575b602083101461271c57565b634e487b7160e01b5f52602260045260245ffd5b91607f1691612711565b9060405191825f82549261274d84612702565b80845293600181169081156127b85750600114612774575b50612772925003836125f6565b565b90505f9291925260205f20905f915b81831061279c575050906020612772928201015f612765565b6020919350806001915483858901015201910190918492612783565b90506020925061277294915060ff191682840152151560051b8201015f612765565b90600382101561138e5752565b5f525f805160206132ea833981519152602052600160405f20015490565b604051906128146040836125f6565b601982527f4554484f535f494e544552414354494f4e5f434f4e54524f4c000000000000006020830152565b9081602091031261021257516001600160a01b03811681036102125790565b90816020910312610212575180151581036102125790565b903590601e198136030182121561021257018035906001600160401b0382116102125760200191813603831361021257565b908060209392818452848401375f828201840152601f01601f1916010190565b92906128e29061268395936040865260408601916128a9565b9260208185039101526128a9565b601f82116128fd57505050565b5f5260205f20906020601f840160051c83019310612935575b601f0160051c01905b81811061292a575050565b5f815560010161291f565b9091508190612916565b805490600160401b82101561089c578161296191600161297794018155612686565b819391549060031b91821b915f19901b19161790565b9055565b60ff5f8051602061330a833981519152541661299357565b63d93c066560e01b5f5260045ffd5b602460206001600160a01b036129b6612c14565b166040519283809263b8861c2360e01b82523360048301525afa908115610c1b575f91612a82575b506001600160a01b036129ef612c14565b1690825f526038602052602060018060a01b0360405f205460101c1660246040518095819363b8861c2360e01b835260048301525afa918215610c1b575f92612a4e575b5003612a3c5750565b63c43bcfe160e01b5f5260045260245ffd5b9091506020813d602011612a7a575b81612a6a602093836125f6565b810103126102125751905f612a33565b3d9150612a5d565b90506020813d602011612aac575b81612a9d602093836125f6565b8101031261021257515f6129de565b3d9150612a90565b335f9081525f8051602061326a833981519152602052604090205460ff1615612ad957565b63e2517d3f60e01b5f52336004525f8051602061332a83398151915260245260445ffd5b335f9081525f805160206132ca833981519152602052604090205460ff1615612b2257565b63e2517d3f60e01b5f52336004525f8051602061328a83398151915260245260445ffd5b5f8181525f805160206132ea8339815191526020908152604080832033845290915290205460ff1615612b765750565b63e2517d3f60e01b5f523360045260245260445ffd5b612b968282612e5c565b9182612ba157505090565b5f9182525f8051602061324a8339815191526020526040909120612bce916001600160a01b0316906130d2565b5090565b612bdc8282613034565b9182612be757505090565b5f9182525f8051602061324a8339815191526020526040909120612bce916001600160a01b031690613197565b612c6e602060018060a01b036003541660405190612c336040836125f6565b600d82526c4554484f535f50524f46494c4560981b83830152604051808095819463d57f7aa360e01b835286600484015260248301906126de565b03915afa908115610c1b575f91612c8d575b506001600160a01b031690565b612ca6915060203d602011610c1457610c0681836125f6565b5f612c80565b612c6e602060018060a01b036003541660405190612ccb6040836125f6565b601182527022aa2427a9afa0aa2a22a9aa20aa24a7a760791b83830152604051808095819463d57f7aa360e01b835286600484015260248301906126de565b60ff5f8051602061336a8339815191525460401c1615612d2657565b631afcd79f60e31b5f5260045ffd5b6001600160a01b0381165f9081525f8051602061326a833981519152602052604090205460ff1615612dc6576001600160a01b03165f8181525f8051602061326a83398151915260205260408120805460ff191690553391905f8051602061332a833981519152907ff6391f5c32d9c69d2a47ea670b442974b53935d1edc7fd64eb21e047a839171b9080a4600190565b505f90565b6001600160a01b0381165f9081525f805160206132ca833981519152602052604090205460ff1615612dc6576001600160a01b03165f8181525f805160206132ca83398151915260205260408120805460ff191690553391905f8051602061328a833981519152907ff6391f5c32d9c69d2a47ea670b442974b53935d1edc7fd64eb21e047a839171b9080a4600190565b5f8181525f805160206132ea833981519152602090815260408083206001600160a01b038616845290915290205460ff1615612ef8575f8181525f805160206132ea833981519152602090815260408083206001600160a01b0395909516808452949091528120805460ff19169055339291907ff6391f5c32d9c69d2a47ea670b442974b53935d1edc7fd64eb21e047a839171b9080a4600190565b50505f90565b6001600160a01b03161561236f57565b6001600160a01b0381165f9081525f805160206132ca833981519152602052604090205460ff16612dc6576001600160a01b03165f8181525f805160206132ca83398151915260205260408120805460ff191660011790553391905f8051602061328a833981519152907f2f8788117e7eff1d82e926ec794901d17c78024a50270940304540a733656f0d9080a4600190565b6001600160a01b0381165f9081525f8051602061326a833981519152602052604090205460ff16612dc6576001600160a01b03165f8181525f8051602061326a83398151915260205260408120805460ff191660011790553391905f8051602061332a833981519152907f2f8788117e7eff1d82e926ec794901d17c78024a50270940304540a733656f0d9080a4600190565b5f8181525f805160206132ea833981519152602090815260408083206001600160a01b038616845290915290205460ff16612ef8575f8181525f805160206132ea833981519152602090815260408083206001600160a01b0395909516808452949091528120805460ff19166001179055339291907f2f8788117e7eff1d82e926ec794901d17c78024a50270940304540a733656f0d9080a4600190565b906001820191815f528260205260405f20548015155f1461318f575f19810181811161119f5782545f1981019190821161119f5781810361315a575b50505080548015613146575f1901906131278282612686565b8154905f199060031b1b19169055555f526020525f6040812055600190565b634e487b7160e01b5f52603160045260245ffd5b61317a61316a6129619386612686565b90549060031b1c92839286612686565b90555f528360205260405f20555f808061310e565b505050505f90565b6001810190825f528160205260405f2054155f146131e4578054600160401b81101561089c576131d1612961826001879401855584612686565b905554915f5260205260405f2055600190565b5050505f90565b9061320f575080511561320057805190602001fd5b63d6bda27560e01b5f5260045ffd5b81511580613240575b613220575090565b639996b31560e01b5f9081526001600160a01b0391909116600452602490fd5b50803b1561321856fec1f6fe24621ce81ec5827caf0253cadb74709b061630e6b55e82371705932000b16e88c42fd4e48df2dd6a2eabd6bc9aec654ec170056b470819f8892cc6431cb19546dff01e856fb3f010c267a7b1c60363cf8a4664e21cc89c26224620214e360894a13ba1a3210667c828492db98dca3e2076cc3735a920a3ca505d382bbcc32d4dc01d07c436ad8a6f9a20eadd61263c71fe16f6b5956005ba3b341f51dd02dd7bc7dec4dceedda775e58dd541e08a116c6c53815c0bd028192f7b626800cd5ed15c6e187e77e9aee88184c21f4f2182ab5827cb3b7e07fbedcd63f03300a49807205ce4d355092ef5a8a18f56e8913cf4a201fbe287825b095693c21775008963063c520970ed64c693e920074e4588acd3631097247bb3559890ad6a67f0c57e16840df040f15088dc2f81fe391c3923bec73e23a9662efc9c229c6a00a2646970667358221220ab5a5a721121e5b5048a22376970db9859bc2de7501aa1dea02039b13145043264736f6c634300081a0033","linkReferences":{}},"methodIdentifiers":{"ADMIN_ROLE()":"75b238fc","DEFAULT_ADMIN_ROLE()":"a217fddf","OWNER_ROLE()":"e58378bb","UPGRADE_INTERFACE_VERSION()":"ad3cb1cc","addAdmin(address)":"70480275","addReview(uint8,address,address,string,string,(string,string))":"7b95e94e","archiveReview(uint256)":"03f6e47f","contractAddressManager()":"ade9ae97","editReview(uint256,string,string)":"9c4d5d5f","expectedSigner()":"2cb3e494","getRoleAdmin(bytes32)":"248a9ca3","getRoleMember(bytes32,uint256)":"9010d07c","getRoleMemberCount(bytes32)":"ca15c873","getRoleMembers(bytes32)":"a3246ad3","grantRole(bytes32,address)":"2f2ff15d","hasRole(bytes32,address)":"91d14854","initialize(address,address,address,address,address)":"1459457a","pause()":"8456cb59","paused()":"5c975abb","proxiableUUID()":"52d1902d","removeAdmin(address)":"1785f53c","renounceRole(bytes32,address)":"36568abe","restoreReview(uint256)":"e070b805","reviewCount()":"eff5924f","reviewIdsByAttestationHash(bytes32,uint256)":"725641ac","reviewIdsByAuthorAddress(address,uint256)":"f3300ce7","reviewIdsBySubjectAddress(address,uint256)":"62322499","reviewPrice(address)":"04515c29","reviews(uint256)":"e83ddcea","revokeRole(bytes32,address)":"d547741f","setReviewPrice(bool,address,uint256)":"6821435a","signatureUsed(bytes)":"bb10c829","signatureVerifier()":"fde919f6","supportsInterface(bytes4)":"01ffc9a7","targetExistsAndAllowedForId(uint256)":"a12c64b5","unpause()":"3f4ba83a","updateContractAddressManager(address)":"08473f64","updateExpectedSigner(address)":"2bdd87ff","updateOwner(address)":"880cdc31","updateSignatureVerifier(address)":"5667981b","upgradeToAndCall(address,bytes)":"4f1ef286","withdrawFunds(address)":"68742da6"},"id":117}