{"abi":[{"type":"function","name":"checkIsEthosContract","inputs":[{"name":"targetAddress","type":"address","internalType":"address"}],"outputs":[{"name":"","type":"bool","internalType":"bool"}],"stateMutability":"view"},{"type":"function","name":"getContractAddressForName","inputs":[{"name":"name","type":"string","internalType":"string"}],"outputs":[{"name":"","type":"address","internalType":"address"}],"stateMutability":"view"},{"type":"function","name":"owner","inputs":[],"outputs":[{"name":"","type":"address","internalType":"address"}],"stateMutability":"view"},{"type":"function","name":"renounceOwnership","inputs":[],"outputs":[],"stateMutability":"nonpayable"},{"type":"function","name":"transferOwnership","inputs":[{"name":"newOwner","type":"address","internalType":"address"}],"outputs":[],"stateMutability":"nonpayable"},{"type":"function","name":"updateContractAddressesForNames","inputs":[{"name":"contractAddresses","type":"address[]","internalType":"address[]"},{"name":"names","type":"string[]","internalType":"string[]"}],"outputs":[],"stateMutability":"nonpayable"},{"type":"event","name":"ContractAddressUpdated","inputs":[{"name":"name","type":"string","indexed":true,"internalType":"string"},{"name":"contractAddress","type":"address","indexed":true,"internalType":"address"}],"anonymous":false},{"type":"event","name":"OwnershipTransferred","inputs":[{"name":"previousOwner","type":"address","indexed":true,"internalType":"address"},{"name":"newOwner","type":"address","indexed":true,"internalType":"address"}],"anonymous":false},{"type":"error","name":"InvalidInputLength","inputs":[]},{"type":"error","name":"OwnableInvalidOwner","inputs":[{"name":"owner","type":"address","internalType":"address"}]},{"type":"error","name":"OwnableUnauthorizedAccount","inputs":[{"name":"account","type":"address","internalType":"address"}]}],"bytecode":{"object":"0x608080604052346071573315605e575f8054336001600160a01b0319821681178355916001600160a01b03909116907f8be0079c531659141344cd1fd0a4f28419497f9722a3daafe3b4186f6b6457e09080a361057890816100768239f35b631e4fbdf760e01b5f525f60045260245ffd5b5f80fdfe60806040526004361015610011575f80fd5b5f3560e01c806348355f8414610209578063715018a6146101b25780638da5cb5b1461018b578063d57f7aa314610129578063db5389ab146100e85763f2fde38b1461005b575f80fd5b346100e45760203660031901126100e4576004356001600160a01b038116908190036100e45761008961051c565b80156100d1575f80546001600160a01b03198116831782556001600160a01b0316907f8be0079c531659141344cd1fd0a4f28419497f9722a3daafe3b4186f6b6457e09080a3005b631e4fbdf760e01b5f525f60045260245ffd5b5f80fd5b346100e45760203660031901126100e4576004356001600160a01b038116908190036100e4575f526002602052602060ff60405f2054166040519015158152f35b346100e45760203660031901126100e45760043567ffffffffffffffff81116100e45761015c602091369060040161045f565b8160405191805191829101835e600190820190815281900382019020546040516001600160a01b039091168152f35b346100e4575f3660031901126100e4575f546040516001600160a01b039091168152602090f35b346100e4575f3660031901126100e4576101ca61051c565b5f80546001600160a01b0319811682556001600160a01b03167f8be0079c531659141344cd1fd0a4f28419497f9722a3daafe3b4186f6b6457e08280a3005b346100e45760403660031901126100e45760043567ffffffffffffffff81116100e457366023820112156100e457806004013567ffffffffffffffff81116100e4576024820191602436918360051b0101116100e4576024359167ffffffffffffffff83116100e457366023840112156100e45782600401359267ffffffffffffffff8411610425578360051b90602460206102a6818501610439565b809781520192820101903682116100e45760248101925b8284106103f557505050506102d061051c565b825182036103e6575f5b8281106102e357005b6001906001600160a01b036103016102fb83886104b1565b516104d9565b5416806103cd575b5061031d6103188286866104f8565b610508565b61032a6102fb83886104b1565b80546001600160a01b03191660a085901b8590039283161790556103526103188387876104f8565b165f52600260205260405f208260ff1982541617905561037281866104b1565b5160206103836103188488886104f8565b91604051918183925191829101835e81015f815203902090838060a01b0316907fa42de6429c1410f4470a8ff5afeeae27c734519ac1693e8eb58798a81715c9475f80a3016102da565b5f52600260205260405f2060ff19815416905585610309565b637db491eb60e01b5f5260045ffd5b833567ffffffffffffffff81116100e45760209161041a83926024369187010161045f565b8152019301926102bd565b634e487b7160e01b5f52604160045260245ffd5b6040519190601f01601f1916820167ffffffffffffffff81118382101761042557604052565b81601f820112156100e45780359067ffffffffffffffff82116104255761048f601f8301601f1916602001610439565b92828452602083830101116100e457815f926020809301838601378301015290565b80518210156104c55760209160051b010190565b634e487b7160e01b5f52603260045260245ffd5b60208091604051928184925191829101835e8101600181520301902090565b91908110156104c55760051b0190565b356001600160a01b03811681036100e45790565b5f546001600160a01b0316330361052f57565b63118cdaa760e01b5f523360045260245ffdfea264697066735822122056bb649802373931e96fdd18ed690fc6f8895e24de994c0b9330787bcd78832b64736f6c634300081a0033","linkReferences":{}},"methodIdentifiers":{"checkIsEthosContract(address)":"db5389ab","getContractAddressForName(string)":"d57f7aa3","owner()":"8da5cb5b","renounceOwnership()":"715018a6","transferOwnership(address)":"f2fde38b","updateContractAddressesForNames(address[],string[])":"48355f84"},"id":148}