{"abi":[{"type":"constructor","inputs":[{"name":"owner","type":"address","internalType":"address"},{"name":"contractAddressManagerAddr","type":"address","internalType":"address"}],"stateMutability":"nonpayable"},{"type":"function","name":"addControlledContractNames","inputs":[{"name":"contractNames","type":"string[]","internalType":"string[]"}],"outputs":[],"stateMutability":"nonpayable"},{"type":"function","name":"contractAddressManager","inputs":[],"outputs":[{"name":"","type":"address","internalType":"address"}],"stateMutability":"view"},{"type":"function","name":"getControlledContractNames","inputs":[],"outputs":[{"name":"","type":"string[]","internalType":"string[]"}],"stateMutability":"view"},{"type":"function","name":"owner","inputs":[],"outputs":[{"name":"","type":"address","internalType":"address"}],"stateMutability":"view"},{"type":"function","name":"pauseAll","inputs":[],"outputs":[],"stateMutability":"nonpayable"},{"type":"function","name":"pauseContract","inputs":[{"name":"contractName","type":"string","internalType":"string"}],"outputs":[],"stateMutability":"nonpayable"},{"type":"function","name":"removeControlledContractName","inputs":[{"name":"contractName","type":"string","internalType":"string"}],"outputs":[],"stateMutability":"nonpayable"},{"type":"function","name":"renounceOwnership","inputs":[],"outputs":[],"stateMutability":"nonpayable"},{"type":"function","name":"transferOwnership","inputs":[{"name":"newOwner","type":"address","internalType":"address"}],"outputs":[],"stateMutability":"nonpayable"},{"type":"function","name":"unpauseAll","inputs":[],"outputs":[],"stateMutability":"nonpayable"},{"type":"function","name":"unpauseContract","inputs":[{"name":"contractName","type":"string","internalType":"string"}],"outputs":[],"stateMutability":"nonpayable"},{"type":"function","name":"updateContractAddressManager","inputs":[{"name":"contractAddressManagerAddr","type":"address","internalType":"address"}],"outputs":[],"stateMutability":"nonpayable"},{"type":"event","name":"OwnershipTransferred","inputs":[{"name":"previousOwner","type":"address","indexed":true,"internalType":"address"},{"name":"newOwner","type":"address","indexed":true,"internalType":"address"}],"anonymous":false},{"type":"error","name":"OwnableInvalidOwner","inputs":[{"name":"owner","type":"address","internalType":"address"}]},{"type":"error","name":"OwnableUnauthorizedAccount","inputs":[{"name":"account","type":"address","internalType":"address"}]}],"bytecode":{"object":"0x6080346100ea57601f610eda38819003918201601f19168301916001600160401b038311848410176100ee5780849260409485528339810103126100ea57610052602061004b83610102565b9201610102565b6001600160a01b039091169081156100d7575f80546001600160a01b031981168417825560405193916001600160a01b03909116907f8be0079c531659141344cd1fd0a4f28419497f9722a3daafe3b4186f6b6457e09080a3600180546001600160a01b0319166001600160a01b0392909216919091179055610dc390816101178239f35b631e4fbdf760e01b5f525f60045260245ffd5b5f80fd5b634e487b7160e01b5f52604160045260245ffd5b51906001600160a01b03821682036100ea5756fe60806040526004361015610011575f80fd5b5f3560e01c806308473f64146108f15780631c741a1e1461071d578063454d8c37146104f25780634e8ff580146103e7578063595c6a6714610364578063672cb02e14610317578063715018a6146102c05780638a2ddd03146102195780638da5cb5b146101f2578063ade9ae97146101ca578063d3a1e7f81461012a5763f2fde38b1461009d575f80fd5b34610126576020366003190112610126576004356001600160a01b03811690819003610126576100cb610c2c565b8015610113575f80546001600160a01b03198116831782556001600160a01b0316907f8be0079c531659141344cd1fd0a4f28419497f9722a3daafe3b4186f6b6457e09080a3005b631e4fbdf760e01b5f525f60045260245ffd5b5f80fd5b3461012657610173602061013d3661093b565b90610146610c2c565b60015460405163d57f7aa360e01b81529485936001600160a01b0390921692849283929160048401610c05565b03915afa80156101bf5761018e915f91610190575b50610d09565b005b6101b2915060203d6020116101b8575b6101aa818361098c565b810190610be6565b82610188565b503d6101a0565b6040513d5f823e3d90fd5b34610126575f366003190112610126576001546040516001600160a01b039091168152602090f35b34610126575f366003190112610126575f546040516001600160a01b039091168152602090f35b34610126575f36600319011261012657610231610c2c565b5f5b60025481101561018e5760015461027e91906020906001600160a01b031661025a836109c6565b5090604051808096819463d57f7aa360e01b83528660048401526024830190610b65565b03915afa9182156101bf5760019261029c915f916102a25750610d09565b01610233565b6102ba915060203d81116101b8576101aa818361098c565b84610188565b34610126575f366003190112610126576102d8610c2c565b5f80546001600160a01b0319811682556001600160a01b03167f8be0079c531659141344cd1fd0a4f28419497f9722a3daafe3b4186f6b6457e08280a3005b346101265761032a602061013d3661093b565b03915afa80156101bf5761018e915f91610345575b50610c6a565b61035e915060203d6020116101b8576101aa818361098c565b8261033f565b34610126575f3660031901126101265761037c610c2c565b5f5b60025481101561018e576001546103a591906020906001600160a01b031661025a836109c6565b03915afa9182156101bf576001926103c3915f916103c95750610c6a565b0161037e565b6103e1915060203d81116101b8576101aa818361098c565b8461033f565b34610126575f36600319011261012657600254610403816109ae565b90610411604051928361098c565b80825260208201908160025f527f405787fa12a823e0f2b7631cc41b3ba8828b3321ca811111fa75cd3aa3bb5ace5f915b8383106104c657848660405191829160208301906020845251809152604083019060408160051b85010192915f905b82821061048057505050500390f35b91936001919395506020808092603f198a82030186528189518051918291828552018484015e5f838284010152601f801991011601019601920192018594939192610471565b6001602081926040516104e4816104dd8189610b65565b038261098c565b815201920192019190610442565b346101265760203660031901126101265760043567ffffffffffffffff8111610126573660238201121561012657806004013561052e816109ae565b9161053c604051938461098c565b8183526024602084019260051b820101903682116101265760248101925b8284106106a6578461056a610c2c565b5f5b815181101561018e5760208160051b830101516002546801000000000000000081101561067f578060016105a392016002556109c6565b9190916106935780519067ffffffffffffffff821161067f576105d0826105ca85546109f2565b85610a40565b602090601f83116001146106185791806106049260019695945f9261060d575b50508160011b915f199060031b1c19161790565b90555b0161056c565b0151905087806105f0565b90601f19831691845f52815f20925f5b81811061066757509160019695949291838895931061064f575b505050811b019055610607565b01515f1960f88460031b161c19169055868080610642565b92936020600181928786015181550195019301610628565b634e487b7160e01b5f52604160045260245ffd5b634e487b7160e01b5f525f60045260245ffd5b833567ffffffffffffffff8111610126578201366043820112156101265760248101359167ffffffffffffffff831161067f576040516106f0601f8501601f19166020018261098c565b8381523660448486010111610126575f60208581966044839701838601378301015281520193019261055a565b346101265761072b3661093b565b90610734610c2c565b5f5b6002548082101561018e5761074a826109c6565b506040516020810191815f825492610761846109f2565b93600181169081156108d35750600114610895575b5061078a925003601f19810183528261098c565b5190206040516020810190868683376107b66020828981015f838201520301601f19810183528261098c565b519020146107c75750600101610736565b9092505f19810191508111610881576107e26107e9916109c6565b50916109c6565b919091610693576107f991610a85565b600254801561086d575f190161080e816109c6565b6106935761081c81546109f2565b908161082a575b5050600255005b81601f5f93116001146108415750555b8180610823565b8183526020832061085d91601f0160051c810190600101610a2a565b808252816020812091555561083a565b634e487b7160e01b5f52603160045260245ffd5b634e487b7160e01b5f52601160045260245ffd5b9150505f5260205f205f905b8282106108ba57505081602061078a9282010189610776565b80546020838601810191909152909101906001016108a1565b60ff191687525061078a9380151502830160200191508a9050610776565b34610126576020366003190112610126576004356001600160a01b038116908190036101265761091f610c2c565b6bffffffffffffffffffffffff60a01b60015416176001555f80f35b9060206003198301126101265760043567ffffffffffffffff811161012657826023820112156101265780600401359267ffffffffffffffff84116101265760248483010111610126576024019190565b90601f8019910116810190811067ffffffffffffffff82111761067f57604052565b67ffffffffffffffff811161067f5760051b60200190565b6002548110156109de5760025f5260205f2001905f90565b634e487b7160e01b5f52603260045260245ffd5b90600182811c92168015610a20575b6020831014610a0c57565b634e487b7160e01b5f52602260045260245ffd5b91607f1691610a01565b818110610a35575050565b5f8155600101610a2a565b9190601f8111610a4f57505050565b610a79925f5260205f20906020601f840160051c83019310610a7b575b601f0160051c0190610a2a565b565b9091508190610a6c565b919091828114610b6057610a9983546109f2565b67ffffffffffffffff811161067f57610abc81610ab684546109f2565b84610a40565b5f93601f8211600114610afa57610aeb92939482915f92610aef5750508160011b915f199060031b1c19161790565b9055565b015490505f806105f0565b601f198216905f5260205f2094835f5260205f20915f5b818110610b4857509583600195969710610b30575b505050811b019055565b01545f1960f88460031b161c191690555f8080610b26565b9192600180602092868b015481550194019201610b11565b509050565b5f9291815491610b74836109f2565b8083529260018116908115610bc95750600114610b9057505050565b5f9081526020812093945091925b838310610baf575060209250010190565b600181602092949394548385870101520191019190610b9e565b915050602093945060ff929192191683830152151560051b010190565b9081602091031261012657516001600160a01b03811681036101265790565b90918060409360208452816020850152848401375f828201840152601f01601f1916010190565b5f546001600160a01b03163303610c3f57565b63118cdaa760e01b5f523360045260245ffd5b90816020910312610126575180151581036101265790565b604051635c975abb60e01b81526001600160a01b039190911690602081600481855afa9081156101bf575f91610cda575b5015610ca45750565b803b15610126575f8091600460405180948193638456cb5960e01b83525af180156101bf57610cd05750565b5f610a799161098c565b610cfc915060203d602011610d02575b610cf4818361098c565b810190610c52565b5f610c9b565b503d610cea565b604051635c975abb60e01b81526001600160a01b039190911690602081600481855afa9081156101bf575f91610d6e575b50610d425750565b803b15610126575f8091600460405180948193631fa5d41d60e11b83525af180156101bf57610cd05750565b610d87915060203d602011610d0257610cf4818361098c565b5f610d3a56fea2646970667358221220e49c4cb5df48cb089a0d8cd45f71aa29d510ac1e0fd526dc89dac3060ac47c4464736f6c634300081a0033","linkReferences":{}},"methodIdentifiers":{"addControlledContractNames(string[])":"454d8c37","contractAddressManager()":"ade9ae97","getControlledContractNames()":"4e8ff580","owner()":"8da5cb5b","pauseAll()":"595c6a67","pauseContract(string)":"672cb02e","removeControlledContractName(string)":"1c741a1e","renounceOwnership()":"715018a6","transferOwnership(address)":"f2fde38b","unpauseAll()":"8a2ddd03","unpauseContract(string)":"d3a1e7f8","updateContractAddressManager(address)":"08473f64"},"id":149}