{"abi":[{"type":"function","name":"getCost","inputs":[{"name":"currentYesVotes","type":"uint256","internalType":"uint256"},{"name":"currentNoVotes","type":"uint256","internalType":"uint256"},{"name":"outcomeYesVotes","type":"uint256","internalType":"uint256"},{"name":"outcomeNoVotes","type":"uint256","internalType":"uint256"},{"name":"liquidityParameter","type":"uint256","internalType":"uint256"}],"outputs":[{"name":"","type":"int256","internalType":"int256"}],"stateMutability":"pure"},{"type":"function","name":"getOdds","inputs":[{"name":"yesVotes","type":"uint256","internalType":"uint256"},{"name":"noVotes","type":"uint256","internalType":"uint256"},{"name":"liquidityParameter","type":"uint256","internalType":"uint256"},{"name":"isTrust","type":"bool","internalType":"bool"}],"outputs":[{"name":"","type":"uint256","internalType":"uint256"}],"stateMutability":"pure"}],"bytecode":{"object":"0x608080604052346015576101d4908161001a8239f35b5f80fdfe6080806040526004361015610012575f80fd5b5f3560e01c9081635af41cea146100ef575063da805cd314610032575f80fd5b346100d85760a03660031901126100d85760405163da805cd360e01b81526004356004820152602435602482015260443560448201526064356064820152608435608482015260208160a48173__$ded9343eca248ff118fa635efa27984c74$__5af480156100e4575f906100ad575b602090604051908152f35b506020813d6020116100dc575b816100c760209383610168565b810103126100d857602090516100a2565b5f80fd5b3d91506100ba565b6040513d5f823e3d90fd5b346100d85760803660031901126100d8576064358015158091036100d857632d7a0e7560e11b8252600435600483015260243560248301526044356044830152606482015260208160848173__$ded9343eca248ff118fa635efa27984c74$__5af480156100e4575f906100ad57602090604051908152f35b90601f8019910116810190811067ffffffffffffffff82111761018a57604052565b634e487b7160e01b5f52604160045260245ffdfea264697066735822122072c34a203b6ae37c3d30687fbd34f9702df31b2b6e45910921e5ff92769d47bb64736f6c634300081a0033","linkReferences":{"contracts/utils/LMSR.sol":{"LMSR":[{"start":154,"length":20},{"start":342,"length":20}]}}},"methodIdentifiers":{"getCost(uint256,uint256,uint256,uint256,uint256)":"da805cd3","getOdds(uint256,uint256,uint256,bool)":"5af41cea"},"id":116}