{"abi":[{"type":"function","name":"ADMIN_ROLE","inputs":[],"outputs":[{"name":"","type":"bytes32","internalType":"bytes32"}],"stateMutability":"view"},{"type":"function","name":"BASIS_POINT_SCALE","inputs":[],"outputs":[{"name":"","type":"uint256","internalType":"uint256"}],"stateMutability":"view"},{"type":"function","name":"DEFAULT_ADMIN_ROLE","inputs":[],"outputs":[{"name":"","type":"bytes32","internalType":"bytes32"}],"stateMutability":"view"},{"type":"function","name":"MAX_SLASH_PERCENTAGE","inputs":[],"outputs":[{"name":"","type":"uint256","internalType":"uint256"}],"stateMutability":"view"},{"type":"function","name":"MAX_TOTAL_FEES","inputs":[],"outputs":[{"name":"","type":"uint256","internalType":"uint256"}],"stateMutability":"view"},{"type":"function","name":"OWNER_ROLE","inputs":[],"outputs":[{"name":"","type":"bytes32","internalType":"bytes32"}],"stateMutability":"view"},{"type":"function","name":"UPGRADE_INTERFACE_VERSION","inputs":[],"outputs":[{"name":"","type":"string","internalType":"string"}],"stateMutability":"view"},{"type":"function","name":"addAdmin","inputs":[{"name":"admin","type":"address","internalType":"address"}],"outputs":[],"stateMutability":"nonpayable"},{"type":"function","name":"claimRewards","inputs":[],"outputs":[],"stateMutability":"nonpayable"},{"type":"function","name":"configuredMinimumVouchAmount","inputs":[],"outputs":[{"name":"","type":"uint256","internalType":"uint256"}],"stateMutability":"view"},{"type":"function","name":"contractAddressManager","inputs":[],"outputs":[{"name":"","type":"address","internalType":"contract IContractAddressManager"}],"stateMutability":"view"},{"type":"function","name":"entryDonationFeeBasisPoints","inputs":[],"outputs":[{"name":"","type":"uint256","internalType":"uint256"}],"stateMutability":"view"},{"type":"function","name":"entryProtocolFeeBasisPoints","inputs":[],"outputs":[{"name":"","type":"uint256","internalType":"uint256"}],"stateMutability":"view"},{"type":"function","name":"entryVouchersPoolFeeBasisPoints","inputs":[],"outputs":[{"name":"","type":"uint256","internalType":"uint256"}],"stateMutability":"view"},{"type":"function","name":"exitFeeBasisPoints","inputs":[],"outputs":[{"name":"","type":"uint256","internalType":"uint256"}],"stateMutability":"view"},{"type":"function","name":"expectedSigner","inputs":[],"outputs":[{"name":"","type":"address","internalType":"address"}],"stateMutability":"view"},{"type":"function","name":"getRoleAdmin","inputs":[{"name":"role","type":"bytes32","internalType":"bytes32"}],"outputs":[{"name":"","type":"bytes32","internalType":"bytes32"}],"stateMutability":"view"},{"type":"function","name":"getRoleMember","inputs":[{"name":"role","type":"bytes32","internalType":"bytes32"},{"name":"index","type":"uint256","internalType":"uint256"}],"outputs":[{"name":"","type":"address","internalType":"address"}],"stateMutability":"view"},{"type":"function","name":"getRoleMemberCount","inputs":[{"name":"role","type":"bytes32","internalType":"bytes32"}],"outputs":[{"name":"","type":"uint256","internalType":"uint256"}],"stateMutability":"view"},{"type":"function","name":"getRoleMembers","inputs":[{"name":"role","type":"bytes32","internalType":"bytes32"}],"outputs":[{"name":"","type":"address[]","internalType":"address[]"}],"stateMutability":"view"},{"type":"function","name":"grantRole","inputs":[{"name":"role","type":"bytes32","internalType":"bytes32"},{"name":"account","type":"address","internalType":"address"}],"outputs":[],"stateMutability":"nonpayable"},{"type":"function","name":"hasRole","inputs":[{"name":"role","type":"bytes32","internalType":"bytes32"},{"name":"account","type":"address","internalType":"address"}],"outputs":[{"name":"","type":"bool","internalType":"bool"}],"stateMutability":"view"},{"type":"function","name":"increaseVouch","inputs":[{"name":"vouchId","type":"uint256","internalType":"uint256"}],"outputs":[],"stateMutability":"payable"},{"type":"function","name":"initialize","inputs":[{"name":"_owner","type":"address","internalType":"address"},{"name":"_admin","type":"address","internalType":"address"},{"name":"_expectedSigner","type":"address","internalType":"address"},{"name":"_signatureVerifier","type":"address","internalType":"address"},{"name":"_contractAddressManagerAddr","type":"address","internalType":"address"},{"name":"_feeProtocolAddress","type":"address","internalType":"address"},{"name":"_entryProtocolFeeBasisPoints","type":"uint256","internalType":"uint256"},{"name":"_entryDonationFeeBasisPoints","type":"uint256","internalType":"uint256"},{"name":"_entryVouchersPoolFeeBasisPoints","type":"uint256","internalType":"uint256"},{"name":"_exitFeeBasisPoints","type":"uint256","internalType":"uint256"}],"outputs":[],"stateMutability":"nonpayable"},{"type":"function","name":"markUnhealthy","inputs":[{"name":"vouchId","type":"uint256","internalType":"uint256"}],"outputs":[],"stateMutability":"nonpayable"},{"type":"function","name":"maximumVouches","inputs":[],"outputs":[{"name":"","type":"uint256","internalType":"uint256"}],"stateMutability":"view"},{"type":"function","name":"pause","inputs":[],"outputs":[],"stateMutability":"nonpayable"},{"type":"function","name":"paused","inputs":[],"outputs":[{"name":"","type":"bool","internalType":"bool"}],"stateMutability":"view"},{"type":"function","name":"protocolFeeAddress","inputs":[],"outputs":[{"name":"","type":"address","internalType":"address"}],"stateMutability":"view"},{"type":"function","name":"proxiableUUID","inputs":[],"outputs":[{"name":"","type":"bytes32","internalType":"bytes32"}],"stateMutability":"view"},{"type":"function","name":"removeAdmin","inputs":[{"name":"admin","type":"address","internalType":"address"}],"outputs":[],"stateMutability":"nonpayable"},{"type":"function","name":"renounceRole","inputs":[{"name":"role","type":"bytes32","internalType":"bytes32"},{"name":"callerConfirmation","type":"address","internalType":"address"}],"outputs":[],"stateMutability":"nonpayable"},{"type":"function","name":"revokeRole","inputs":[{"name":"role","type":"bytes32","internalType":"bytes32"},{"name":"account","type":"address","internalType":"address"}],"outputs":[],"stateMutability":"nonpayable"},{"type":"function","name":"rewards","inputs":[{"name":"","type":"uint256","internalType":"uint256"}],"outputs":[{"name":"","type":"uint256","internalType":"uint256"}],"stateMutability":"view"},{"type":"function","name":"setEntryDonationFeeBasisPoints","inputs":[{"name":"_newEntryDonationFeeBasisPoints","type":"uint256","internalType":"uint256"}],"outputs":[],"stateMutability":"nonpayable"},{"type":"function","name":"setEntryProtocolFeeBasisPoints","inputs":[{"name":"_newEntryProtocolFeeBasisPoints","type":"uint256","internalType":"uint256"}],"outputs":[],"stateMutability":"nonpayable"},{"type":"function","name":"setEntryVouchersPoolFeeBasisPoints","inputs":[{"name":"_newEntryVouchersPoolFeeBasisPoints","type":"uint256","internalType":"uint256"}],"outputs":[],"stateMutability":"nonpayable"},{"type":"function","name":"setExitFeeBasisPoints","inputs":[{"name":"_newExitFeeBasisPoints","type":"uint256","internalType":"uint256"}],"outputs":[],"stateMutability":"nonpayable"},{"type":"function","name":"setMinimumVouchAmount","inputs":[{"name":"amount","type":"uint256","internalType":"uint256"}],"outputs":[],"stateMutability":"nonpayable"},{"type":"function","name":"setProtocolFeeAddress","inputs":[{"name":"_protocolFeeAddress","type":"address","internalType":"address"}],"outputs":[],"stateMutability":"nonpayable"},{"type":"function","name":"setTestValue","inputs":[{"name":"_testValue","type":"uint256","internalType":"uint256"}],"outputs":[],"stateMutability":"nonpayable"},{"type":"function","name":"signatureUsed","inputs":[{"name":"","type":"bytes","internalType":"bytes"}],"outputs":[{"name":"","type":"bool","internalType":"bool"}],"stateMutability":"view"},{"type":"function","name":"signatureVerifier","inputs":[],"outputs":[{"name":"","type":"address","internalType":"address"}],"stateMutability":"view"},{"type":"function","name":"slash","inputs":[{"name":"authorProfileId","type":"uint256","internalType":"uint256"},{"name":"slashBasisPoints","type":"uint256","internalType":"uint256"}],"outputs":[{"name":"","type":"uint256","internalType":"uint256"}],"stateMutability":"nonpayable"},{"type":"function","name":"supportsInterface","inputs":[{"name":"interfaceId","type":"bytes4","internalType":"bytes4"}],"outputs":[{"name":"","type":"bool","internalType":"bool"}],"stateMutability":"view"},{"type":"function","name":"targetExistsAndAllowedForId","inputs":[{"name":"targetId","type":"uint256","internalType":"uint256"}],"outputs":[{"name":"exists","type":"bool","internalType":"bool"},{"name":"allowed","type":"bool","internalType":"bool"}],"stateMutability":"view"},{"type":"function","name":"testValue","inputs":[],"outputs":[{"name":"","type":"uint256","internalType":"uint256"}],"stateMutability":"view"},{"type":"function","name":"unhealthyResponsePeriod","inputs":[],"outputs":[{"name":"","type":"uint256","internalType":"uint256"}],"stateMutability":"view"},{"type":"function","name":"unpause","inputs":[],"outputs":[],"stateMutability":"nonpayable"},{"type":"function","name":"unvouch","inputs":[{"name":"vouchId","type":"uint256","internalType":"uint256"}],"outputs":[],"stateMutability":"nonpayable"},{"type":"function","name":"unvouchUnhealthy","inputs":[{"name":"vouchId","type":"uint256","internalType":"uint256"}],"outputs":[],"stateMutability":"nonpayable"},{"type":"function","name":"updateContractAddressManager","inputs":[{"name":"contractAddressesAddr","type":"address","internalType":"address"}],"outputs":[],"stateMutability":"nonpayable"},{"type":"function","name":"updateExpectedSigner","inputs":[{"name":"signer","type":"address","internalType":"address"}],"outputs":[],"stateMutability":"nonpayable"},{"type":"function","name":"updateMaximumVouches","inputs":[{"name":"maximumVouches_","type":"uint256","internalType":"uint256"}],"outputs":[],"stateMutability":"nonpayable"},{"type":"function","name":"updateOwner","inputs":[{"name":"owner","type":"address","internalType":"address"}],"outputs":[],"stateMutability":"nonpayable"},{"type":"function","name":"updateSignatureVerifier","inputs":[{"name":"sinatureVerifier","type":"address","internalType":"address"}],"outputs":[],"stateMutability":"nonpayable"},{"type":"function","name":"updateUnhealthyResponsePeriod","inputs":[{"name":"unhealthyResponsePeriodDuration","type":"uint256","internalType":"uint256"}],"outputs":[],"stateMutability":"nonpayable"},{"type":"function","name":"upgradeToAndCall","inputs":[{"name":"newImplementation","type":"address","internalType":"address"},{"name":"data","type":"bytes","internalType":"bytes"}],"outputs":[],"stateMutability":"payable"},{"type":"function","name":"verifiedVouchByAuthorForSubjectAddress","inputs":[{"name":"author","type":"uint256","internalType":"uint256"},{"name":"subjectAddress","type":"address","internalType":"address"}],"outputs":[{"name":"","type":"tuple","internalType":"struct EthosVouch.Vouch","components":[{"name":"archived","type":"bool","internalType":"bool"},{"name":"unhealthy","type":"bool","internalType":"bool"},{"name":"authorProfileId","type":"uint256","internalType":"uint256"},{"name":"authorAddress","type":"address","internalType":"address"},{"name":"vouchId","type":"uint256","internalType":"uint256"},{"name":"subjectProfileId","type":"uint256","internalType":"uint256"},{"name":"balance","type":"uint256","internalType":"uint256"},{"name":"comment","type":"string","internalType":"string"},{"name":"metadata","type":"string","internalType":"string"},{"name":"activityCheckpoints","type":"tuple","internalType":"struct EthosVouch.ActivityCheckpoints","components":[{"name":"vouchedAt","type":"uint256","internalType":"uint256"},{"name":"unvouchedAt","type":"uint256","internalType":"uint256"},{"name":"unhealthyAt","type":"uint256","internalType":"uint256"}]}]}],"stateMutability":"view"},{"type":"function","name":"verifiedVouchByAuthorForSubjectProfileId","inputs":[{"name":"author","type":"uint256","internalType":"uint256"},{"name":"subjectProfileId","type":"uint256","internalType":"uint256"}],"outputs":[{"name":"","type":"tuple","internalType":"struct EthosVouch.Vouch","components":[{"name":"archived","type":"bool","internalType":"bool"},{"name":"unhealthy","type":"bool","internalType":"bool"},{"name":"authorProfileId","type":"uint256","internalType":"uint256"},{"name":"authorAddress","type":"address","internalType":"address"},{"name":"vouchId","type":"uint256","internalType":"uint256"},{"name":"subjectProfileId","type":"uint256","internalType":"uint256"},{"name":"balance","type":"uint256","internalType":"uint256"},{"name":"comment","type":"string","internalType":"string"},{"name":"metadata","type":"string","internalType":"string"},{"name":"activityCheckpoints","type":"tuple","internalType":"struct EthosVouch.ActivityCheckpoints","components":[{"name":"vouchedAt","type":"uint256","internalType":"uint256"},{"name":"unvouchedAt","type":"uint256","internalType":"uint256"},{"name":"unhealthyAt","type":"uint256","internalType":"uint256"}]}]}],"stateMutability":"view"},{"type":"function","name":"vouchByAddress","inputs":[{"name":"subjectAddress","type":"address","internalType":"address"},{"name":"comment","type":"string","internalType":"string"},{"name":"metadata","type":"string","internalType":"string"}],"outputs":[],"stateMutability":"payable"},{"type":"function","name":"vouchByProfileId","inputs":[{"name":"subjectProfileId","type":"uint256","internalType":"uint256"},{"name":"comment","type":"string","internalType":"string"},{"name":"metadata","type":"string","internalType":"string"}],"outputs":[],"stateMutability":"payable"},{"type":"function","name":"vouchCount","inputs":[],"outputs":[{"name":"","type":"uint256","internalType":"uint256"}],"stateMutability":"view"},{"type":"function","name":"vouchExistsFor","inputs":[{"name":"author","type":"uint256","internalType":"uint256"},{"name":"subjectProfileId","type":"uint256","internalType":"uint256"}],"outputs":[{"name":"","type":"bool","internalType":"bool"}],"stateMutability":"view"},{"type":"function","name":"vouchIdByAuthorForSubjectProfileId","inputs":[{"name":"","type":"uint256","internalType":"uint256"},{"name":"","type":"uint256","internalType":"uint256"}],"outputs":[{"name":"","type":"uint256","internalType":"uint256"}],"stateMutability":"view"},{"type":"function","name":"vouchIdsByAuthor","inputs":[{"name":"","type":"uint256","internalType":"uint256"},{"name":"","type":"uint256","internalType":"uint256"}],"outputs":[{"name":"","type":"uint256","internalType":"uint256"}],"stateMutability":"view"},{"type":"function","name":"vouchIdsByAuthorIndex","inputs":[{"name":"","type":"uint256","internalType":"uint256"},{"name":"","type":"uint256","internalType":"uint256"}],"outputs":[{"name":"","type":"uint256","internalType":"uint256"}],"stateMutability":"view"},{"type":"function","name":"vouchIdsForSubjectProfileId","inputs":[{"name":"","type":"uint256","internalType":"uint256"},{"name":"","type":"uint256","internalType":"uint256"}],"outputs":[{"name":"","type":"uint256","internalType":"uint256"}],"stateMutability":"view"},{"type":"function","name":"vouchIdsForSubjectProfileIdIndex","inputs":[{"name":"","type":"uint256","internalType":"uint256"},{"name":"","type":"uint256","internalType":"uint256"}],"outputs":[{"name":"","type":"uint256","internalType":"uint256"}],"stateMutability":"view"},{"type":"function","name":"vouches","inputs":[{"name":"","type":"uint256","internalType":"uint256"}],"outputs":[{"name":"archived","type":"bool","internalType":"bool"},{"name":"unhealthy","type":"bool","internalType":"bool"},{"name":"authorProfileId","type":"uint256","internalType":"uint256"},{"name":"authorAddress","type":"address","internalType":"address"},{"name":"vouchId","type":"uint256","internalType":"uint256"},{"name":"subjectProfileId","type":"uint256","internalType":"uint256"},{"name":"balance","type":"uint256","internalType":"uint256"},{"name":"comment","type":"string","internalType":"string"},{"name":"metadata","type":"string","internalType":"string"},{"name":"activityCheckpoints","type":"tuple","internalType":"struct EthosVouch.ActivityCheckpoints","components":[{"name":"vouchedAt","type":"uint256","internalType":"uint256"},{"name":"unvouchedAt","type":"uint256","internalType":"uint256"},{"name":"unhealthyAt","type":"uint256","internalType":"uint256"}]}],"stateMutability":"view"},{"type":"event","name":"DepositedToRewards","inputs":[{"name":"recipientProfileId","type":"uint256","indexed":true,"internalType":"uint256"},{"name":"amount","type":"uint256","indexed":false,"internalType":"uint256"}],"anonymous":false},{"type":"event","name":"EntryDonationFeeBasisPointsUpdated","inputs":[{"name":"newDonationFeeBasisPoints","type":"uint256","indexed":false,"internalType":"uint256"}],"anonymous":false},{"type":"event","name":"EntryProtocolFeeBasisPointsUpdated","inputs":[{"name":"newProtocolFeeBasisPoints","type":"uint256","indexed":false,"internalType":"uint256"}],"anonymous":false},{"type":"event","name":"EntryVouchersPoolFeeBasisPointsUpdated","inputs":[{"name":"newVouchersPoolFeeBasisPoints","type":"uint256","indexed":false,"internalType":"uint256"}],"anonymous":false},{"type":"event","name":"ExitFeeBasisPointsUpdated","inputs":[{"name":"newExitFeeBasisPoints","type":"uint256","indexed":false,"internalType":"uint256"}],"anonymous":false},{"type":"event","name":"Initialized","inputs":[{"name":"version","type":"uint64","indexed":false,"internalType":"uint64"}],"anonymous":false},{"type":"event","name":"MarkedUnhealthy","inputs":[{"name":"vouchId","type":"uint256","indexed":true,"internalType":"uint256"},{"name":"authorProfileId","type":"uint256","indexed":true,"internalType":"uint256"},{"name":"subjectProfileId","type":"uint256","indexed":true,"internalType":"uint256"}],"anonymous":false},{"type":"event","name":"Paused","inputs":[{"name":"account","type":"address","indexed":false,"internalType":"address"}],"anonymous":false},{"type":"event","name":"ProtocolFeeAddressUpdated","inputs":[{"name":"newFeeProtocolAddress","type":"address","indexed":false,"internalType":"address"}],"anonymous":false},{"type":"event","name":"RoleAdminChanged","inputs":[{"name":"role","type":"bytes32","indexed":true,"internalType":"bytes32"},{"name":"previousAdminRole","type":"bytes32","indexed":true,"internalType":"bytes32"},{"name":"newAdminRole","type":"bytes32","indexed":true,"internalType":"bytes32"}],"anonymous":false},{"type":"event","name":"RoleGranted","inputs":[{"name":"role","type":"bytes32","indexed":true,"internalType":"bytes32"},{"name":"account","type":"address","indexed":true,"internalType":"address"},{"name":"sender","type":"address","indexed":true,"internalType":"address"}],"anonymous":false},{"type":"event","name":"RoleRevoked","inputs":[{"name":"role","type":"bytes32","indexed":true,"internalType":"bytes32"},{"name":"account","type":"address","indexed":true,"internalType":"address"},{"name":"sender","type":"address","indexed":true,"internalType":"address"}],"anonymous":false},{"type":"event","name":"Slashed","inputs":[{"name":"authorProfileId","type":"uint256","indexed":true,"internalType":"uint256"},{"name":"slashBasisPoints","type":"uint256","indexed":false,"internalType":"uint256"},{"name":"totalSlashed","type":"uint256","indexed":false,"internalType":"uint256"}],"anonymous":false},{"type":"event","name":"Unpaused","inputs":[{"name":"account","type":"address","indexed":false,"internalType":"address"}],"anonymous":false},{"type":"event","name":"Unvouched","inputs":[{"name":"vouchId","type":"uint256","indexed":true,"internalType":"uint256"},{"name":"authorProfileId","type":"uint256","indexed":true,"internalType":"uint256"},{"name":"subjectProfileId","type":"uint256","indexed":true,"internalType":"uint256"},{"name":"amountWithdrawn","type":"uint256","indexed":false,"internalType":"uint256"}],"anonymous":false},{"type":"event","name":"Upgraded","inputs":[{"name":"implementation","type":"address","indexed":true,"internalType":"address"}],"anonymous":false},{"type":"event","name":"VouchIncreased","inputs":[{"name":"vouchId","type":"uint256","indexed":true,"internalType":"uint256"},{"name":"authorProfileId","type":"uint256","indexed":true,"internalType":"uint256"},{"name":"subjectProfileId","type":"uint256","indexed":true,"internalType":"uint256"},{"name":"amountStaked","type":"uint256","indexed":false,"internalType":"uint256"},{"name":"amountDeposited","type":"uint256","indexed":false,"internalType":"uint256"}],"anonymous":false},{"type":"event","name":"Vouched","inputs":[{"name":"vouchId","type":"uint256","indexed":true,"internalType":"uint256"},{"name":"authorProfileId","type":"uint256","indexed":true,"internalType":"uint256"},{"name":"subjectProfileId","type":"uint256","indexed":true,"internalType":"uint256"},{"name":"amountStaked","type":"uint256","indexed":false,"internalType":"uint256"},{"name":"amountDeposited","type":"uint256","indexed":false,"internalType":"uint256"}],"anonymous":false},{"type":"event","name":"WithdrawnFromRewards","inputs":[{"name":"accountProfileId","type":"uint256","indexed":true,"internalType":"uint256"},{"name":"amount","type":"uint256","indexed":false,"internalType":"uint256"}],"anonymous":false},{"type":"error","name":"AccessControlBadConfirmation","inputs":[]},{"type":"error","name":"AccessControlUnauthorizedAccount","inputs":[{"name":"account","type":"address","internalType":"address"},{"name":"neededRole","type":"bytes32","internalType":"bytes32"}]},{"type":"error","name":"AddressEmptyCode","inputs":[{"name":"target","type":"address","internalType":"address"}]},{"type":"error","name":"AddressNotVouchAuthor","inputs":[{"name":"vouchId","type":"uint256","internalType":"uint256"},{"name":"caller","type":"address","internalType":"address"},{"name":"author","type":"address","internalType":"address"}]},{"type":"error","name":"AlreadyUnvouched","inputs":[{"name":"vouchId","type":"uint256","internalType":"uint256"}]},{"type":"error","name":"AlreadyVouched","inputs":[{"name":"author","type":"uint256","internalType":"uint256"},{"name":"voucheeEthosProfileId","type":"uint256","internalType":"uint256"}]},{"type":"error","name":"CannotMarkVouchAsUnhealthy","inputs":[{"name":"vouchId","type":"uint256","internalType":"uint256"}]},{"type":"error","name":"ERC1967InvalidImplementation","inputs":[{"name":"implementation","type":"address","internalType":"address"}]},{"type":"error","name":"ERC1967NonPayable","inputs":[]},{"type":"error","name":"EnforcedPause","inputs":[]},{"type":"error","name":"ExpectedPause","inputs":[]},{"type":"error","name":"FailedCall","inputs":[]},{"type":"error","name":"FeeTransferFailed","inputs":[{"name":"message","type":"string","internalType":"string"}]},{"type":"error","name":"FeesExceedMaximum","inputs":[{"name":"totalFees","type":"uint256","internalType":"uint256"},{"name":"maxFees","type":"uint256","internalType":"uint256"}]},{"type":"error","name":"InsufficientProtocolFeeBalance","inputs":[]},{"type":"error","name":"InsufficientRewardsBalance","inputs":[]},{"type":"error","name":"InvalidEthosProfileForVouch","inputs":[{"name":"ethosProfileId","type":"uint256","internalType":"uint256"}]},{"type":"error","name":"InvalidFeeMultiplier","inputs":[{"name":"newFee","type":"uint256","internalType":"uint256"}]},{"type":"error","name":"InvalidFeeProtocolAddress","inputs":[]},{"type":"error","name":"InvalidInitialization","inputs":[]},{"type":"error","name":"InvalidSignature","inputs":[]},{"type":"error","name":"InvalidSlashPercentage","inputs":[]},{"type":"error","name":"MaximumVouchesExceeded","inputs":[{"name":"vouches","type":"uint256","internalType":"uint256"},{"name":"message","type":"string","internalType":"string"}]},{"type":"error","name":"MinimumVouchAmount","inputs":[{"name":"amount","type":"uint256","internalType":"uint256"}]},{"type":"error","name":"NotAuthorForVouch","inputs":[{"name":"vouchId","type":"uint256","internalType":"uint256"},{"name":"user","type":"uint256","internalType":"uint256"}]},{"type":"error","name":"NotInitializing","inputs":[]},{"type":"error","name":"NotSlasher","inputs":[]},{"type":"error","name":"ProfileNotFoundForAddress","inputs":[{"name":"userAddress","type":"address","internalType":"address"}]},{"type":"error","name":"ReentrancyGuardReentrantCall","inputs":[]},{"type":"error","name":"SelfVouch","inputs":[{"name":"author","type":"uint256","internalType":"uint256"},{"name":"voucheeEthosProfileId","type":"uint256","internalType":"uint256"}]},{"type":"error","name":"SignatureWasUsed","inputs":[]},{"type":"error","name":"UUPSUnauthorizedCallContext","inputs":[]},{"type":"error","name":"UUPSUnsupportedProxiableUUID","inputs":[{"name":"slot","type":"bytes32","internalType":"bytes32"}]},{"type":"error","name":"VouchNotFound","inputs":[{"name":"vouchId","type":"uint256","internalType":"uint256"}]},{"type":"error","name":"WithdrawalFailed","inputs":[{"name":"data","type":"bytes","internalType":"bytes"},{"name":"message","type":"string","internalType":"string"}]},{"type":"error","name":"WrongSubjectProfileIdForVouch","inputs":[{"name":"vouchId","type":"uint256","internalType":"uint256"},{"name":"subjectProfileId","type":"uint256","internalType":"uint256"}]},{"type":"error","name":"ZeroAddress","inputs":[]}],"bytecode":{"object":"0x60a06040523461004157610011610045565b306080526001603655610022610045565b6040516147eb90816101028239608051818181612695015261279b0152f35b5f80fd5b7ff0c57e16840df040f15088dc2f81fe391c3923bec73e23a9662efc9c229c6a005460ff8160401c166100f2576002600160401b03196001600160401b0382160161008d5750565b6001600160401b0319166001600160401b039081177ff0c57e16840df040f15088dc2f81fe391c3923bec73e23a9662efc9c229c6a00556040519081527fc7f505b2f371ae2175ee4913f4499e1f2633a7b5936321eed1cdaeb6115181d290602090a1565b63f92ee8a960e01b5f5260045ffdfe6080806040526004361015610012575f80fd5b5f3560e01c90816301ffc9a714613335575080630723550f1461331857806308473f64146132d557806308b91ff8146132ac5780630adb6cdc1461327d5780631371f142146131265780631785f53c146130a2578063248a9ca31461307c5780632bdd87ff146130315780632cb3e4941461300a5780632e5ff09414612fdb5780632f2ff15d14612faa5780633596010514612f9157806336568abe14612f4d578063372500ab14612d6b5780633986de6a14612a255780633f4ba83a146129515780633fadfc0a146129345780634f1ef2861461275e578063502ff96b1461274157806352368f2f146126e957806352d1902d146126835780635667981b146126375780635b201d831461261b5780635b63b05c146125c35780635c975abb14612595578063626f78f21461253d57806366f1e3061461251a5780636b7b91121461249a578063704802751461241657806375b238fc146123ef5780637bd4f28e146123675780638456cb5914612269578063869155731461224c578063880cdc31146121315780638af5de72146121145780638e5ec774146120f85780639010d07c146120a657806391d148541461205157806398be1d9c14611ff95780639a4de7ea14611fdc5780639c00ba4a14611a415780639d5091de14611893578063a12c64b514611860578063a217fddf14611846578063a22a642814611654578063a3246ad314611599578063a817c68a146114ae578063ac7e0f8614611494578063acedd27414611477578063ad3cb1cc14611430578063ade9ae9714611408578063b36fed5f146113eb578063b4846d84146112cb578063b6e7ec9214610990578063bb10c82914610936578063c3a1ed481461034a578063ca15c87314610900578063cb2a781714610508578063cce516b7146104e0578063cde13956146104a2578063d34790b614610485578063d547741f1461044d578063d745c07f1461041e578063e2d31d5f146103cf578063e58378bb146103a8578063f301af421461037e578063f570332a1461034f578063fc69603c1461034a5763fde919f61461031e575f80fd5b34610346575f366003190112610346576001546040516001600160a01b039091168152602090f35b5f80fd5b6136c2565b346103465761035d366133ce565b905f52604560205260405f20905f52602052602060405f2054604051908152f35b34610346576020366003190112610346576004355f526046602052602060405f2054604051908152f35b34610346575f3660031901126103465760206040515f805160206146968339815191528152f35b34610346576020366003190112610346576004356103eb6139d2565b6103f3613aaa565b655af3107a4000811061040557603755005b633a4425f960e21b5f52655af3107a400060045260245ffd5b346103465761042c366133ce565b905f52604260205260405f20905f52602052602060405f2054604051908152f35b346103465760403660031901126103465761048360043561046c6133b8565b9061047e61047982613735565b613a64565b613c59565b005b34610346575f366003190112610346576020603e54604051908152f35b34610346576104b0366133ce565b905f52604360205260405f208054821015610346576020916104d1916133e4565b90549060031b1c604051908152f35b34610346575f36600319011261034657603b546040516001600160a01b039091168152602090f35b3461034657602036600319011261034657600435610524613aaa565b61052c613aaa565b610534613ad1565b805f52604060205260405f2061054982613d2f565b61055282613b20565b5f828152604060208190529020600201546001600160a01b031633036108cd575f90600160ff1982541617815542600982015560018101805480845260426020526105c86040852091600385019283548752602052604086205481875260416020526105c36040882092838361432e565b6143c7565b815484526042602052604084208154855260205283604081205583808080600487019661061f885480845260446020526040842088548552602052604084205481855260436020526105c36040862092838361437b565b87548252604460205260408220865483526020528160408120558654825260456020526040822088548352602052816040812055600581019061066782548a548a5491613c1e565b50999091556002015488906001600160a01b03165af1610685613760565b50156108875760207f8b28de604075dff119c6b0dfaacbdb9785e71214b6494176e4f821a265f2585d91549254935494604051908152a460016036556106c9613aaa565b805f52604060205260405f20610710602060018060a01b03600354166106ed6136de565b90604051808095819463d57f7aa360e01b835286600484015260248301906135ed565b03915afa90811561084f576024916020915f9161085a575b5060405163b8861c2360e01b815233600482015292839182906001600160a01b03165afa90811561084f575f9161081d575b5061076483613d2f565b825f52604060205260405f20610781600982015460395490613728565b421190549060ff82161591821561080f575b508115610807575b506107f4576107aa9192613af1565b61010061ff001982541617815542600a82015560038101549060046001820154910154917f1d43a4d386e31f83c3173b8bc4b3dc733d238461f3950205c74d34ea6db8161d5f80a4005b8263aa4b9a6560e01b5f5260045260245ffd5b90508461079b565b60081c60ff16915085610793565b90506020813d602011610847575b8161083860209383613430565b8101031261034657518361075a565b3d915061082b565b6040513d5f823e3d90fd5b61087a9150823d8411610880575b6108728183613430565b810190613709565b85610728565b503d610868565b60405163123cc24f60e31b815260206004820152601c60248201527f4661696c656420746f2073656e642045544820746f20617574686f72000000006044820152606490fd5b50805f52604060205260018060a01b03600260405f20015416906308a5114760e41b5f526004523360245260445260645ffd5b34610346576020366003190112610346576004355f525f80516020614656833981519152602052602060405f2054604051908152f35b34610346576020366003190112610346576004356001600160401b0381116103465760ff60208061096c819436906004016134a2565b604051928184925191829101835e8101600281520301902054166040519015158152f35b6060366003190112610346576109a46133a2565b6024356001600160401b038111610346576109c39036906004016134c0565b6044929192356001600160401b038111610346576109e59036906004016134c0565b9190936109f184613d66565b6109f9613aaa565b600354610a14906020906001600160a01b03166106ed6136de565b03915afa90811561084f575f916112ac575b5060405163b8861c2360e01b81523360048201526001600160a01b039190911694602082602481895afa801561084f5761127a575b6040516389a9132b60e01b81526001600160a01b0390911660048201529460209150859060249082905afa93841561084f575f94611244575b50610ae19394610aa2613aaa565b610aaa613ad1565b6003546001600160a01b03166020610ac06136de565b6040518098819263d57f7aa360e01b835284600484015260248301906135ed565b0381845afa95861561084f576024966020915f91611227575b5060405163b8861c2360e01b815233600482015297889182906001600160a01b03165afa95861561084f575f966111f3575b508686146111dc57855f52604160205260405f205490603a5480921015611184578715611171576020610b61916106ed6136de565b03915afa90811561084f576024916060915f91611152575b50604051633b79ed1960e11b8152600481018b905292839182906001600160a01b03165afa801561084f575f905f925f916110fa575b5082156110e0575b50506110cd57610bc787876137ca565b6110b657865f52604360205260405f2054101561105e5760375480341061104c5750610bf4858734613b49565b509260385494865f526041602052610c0f8660405f2061381c565b865f52604160205260405f20545f19810190811161103857875f52604260205260405f20875f5260205260405f2055875f526043602052610c538660405f2061381c565b875f52604360205260405f20545f198101908111611038578887610d09968893835f52604460205260405f20835f5260205260405f20558a5f52604560205260405f20835f526020528160405f20558a610d65610d1860405199610cb68b6133f9565b428b525f60208c01525f60408c01526040519b8c95610cd487613414565b5f8752602087019b5f8d526040880196875260c06060890198338a52608081019a8b5260a081019b8c52019a8b52369161346c565b9860e08d01998a52369161346c565b976101008b019889526101208b01998a528c5f526040602052610d4e60405f209b5115158c9060ff801983541691151516179055565b518a5461ff00191690151560081b61ff0016178a55565b516001890155516002880180546001600160a01b0319166001600160a01b039290921691909117905551600387015551600486015551600585015551805160068501916001600160401b038211610f66578190610dc284546134ed565b601f8111610fe8575b50602090601f8311600114610f85575f92610f7a575b50508160011b915f199060031b1c19161790555b51805160078401916001600160401b038211610f6657610e1583546134ed565b601f8111610f21575b50602090601f8311600114610ea657936040959383600a9488945f805160206146f68339815191529a985f92610e9b575b50508160011b915f199060031b1c19161790555b51805160088501556020810151600985015501519101558151903482526020820152a4610e91603854613865565b6038556001603655005b015190508d80610e4f565b90601f19831691845f52815f20925f5b818110610f095750846040989692945f805160206146f68339815191529a98948a96600a9860019510610ef1575b505050811b019055610e63565b01515f1960f88460031b161c191690558d8080610ee4565b92936020600181928786015181550195019301610eb6565b835f5260205f20601f840160051c81019160208510610f5c575b601f0160051c01905b818110610f515750610e1e565b5f8155600101610f44565b9091508190610f3b565b634e487b7160e01b5f52604160045260245ffd5b015190508a80610de1565b5f8581528281209350601f198516905b818110610fd05750908460019594939210610fb8575b505050811b019055610df5565b01515f1960f88460031b161c191690558a8080610fab565b92936020600181928786015181550195019301610f95565b909150835f5260205f20601f840160051c8101916020851061102e575b90601f859493920160051c01905b8181106110205750610dcb565b5f8155849350600101611013565b9091508190611005565b634e487b7160e01b5f52601160045260245ffd5b633a4425f960e21b5f5260045260245ffd5b855f526043602052608460405f205460405190637dfb145560e11b8252600482015260406024820152601b60448201527f45786365656473207375626a65637420766f756368206c696d697400000000006064820152fd5b8686633d6ef0d360e21b5f5260045260245260445ffd5b86636a34893960e01b5f5260045260245ffd5b159150816110f1575b508880610bb7565b905015886110e9565b925050506060813d60601161114a575b8161111760609383613430565b810103126103465761112881613753565b90611141604061113a60208401613753565b9201613753565b9190918a610baf565b3d915061110a565b61116b915060203d602011610880576108728183613430565b8a610b79565b87636a34893960e01b5f5260045260245ffd5b865f526041602052608460405f205460405190637dfb145560e11b8252600482015260406024820152601a60448201527f4578636565647320617574686f7220766f756368206c696d69740000000000006064820152fd5b868663625de82560e11b5f5260045260245260445ffd5b9095506020813d60201161121f575b8161120f60209383613430565b8101031261034657519487610b2c565b3d9150611202565b61123e9150823d8411610880576108728183613430565b89610afa565b93506020843d602011611272575b8161125f60209383613430565b8101031261034657610ae1935193610a94565b3d9150611252565b6020823d6020116112a4575b8161129360209383613430565b810103126103465760209150610a5b565b3d9150611286565b6112c5915060203d602011610880576108728183613430565b86610a26565b346103465760403660031901126103465761132a6112e76133b8565b6112ef613873565b506003546020906001600160a01b03166113076136de565b90604051808096819463d57f7aa360e01b835286600484015260248301906135ed565b03915afa91821561084f575f926113c9575b5060405163b8861c2360e01b81526001600160a01b0391821660048201529160209183916024918391165afa90811561084f575f91611395575b611391611385836004356138da565b60405191829182613611565b0390f35b90506020813d6020116113c1575b816113b060209383613430565b810103126103465751611385611376565b3d91506113a3565b60209192506113e490823d8411610880576108728183613430565b919061133c565b34610346575f366003190112610346576020603c54604051908152f35b34610346575f366003190112610346576003546040516001600160a01b039091168152602090f35b34610346575f36600319011261034657611391604051611451604082613430565b60058152640352e302e360dc1b60208201526040519182916020835260208301906135ed565b34610346575f366003190112610346576020603854604051908152f35b34610346576113916113856114a8366133ce565b906138da565b34610346576020366003190112610346576004355f52604060205260ff60405f2080549061139161157860018301549261156960018060a01b036002830154166003830154600484015460058501549161150a60068701613525565b93611523600861151c60078a01613525565b98016135c5565b996040519c8c8e82819f161515905260081c16151560208d015260408c015260608b015260808a015260a089015260c088015261018060e08801526101808701906135ed565b908582036101008701526135ed565b82516101208501526020830151610140850152604090920151610160840152565b34610346576020366003190112610346576004355f525f8051602061465683398151915260205260405f20604051806020835491828152019081935f5260205f20905f5b81811061163e57505050816115f3910382613430565b604051918291602083019060208452518091526040830191905f5b81811061161c575050500390f35b82516001600160a01b031684528594506020938401939092019160010161160e565b82548452602090930192600192830192016115dd565b3461034657611662366133ce565b906064602060018060a01b03600354166040519283809263d57f7aa360e01b8252846004830152600760248301526629a620a9a422a960c91b60448301525afa90811561084f575f91611827575b506001600160a01b03163303611818576116c8613aaa565b6116d0613ad1565b6103e8821161180a575f91815f52604160205260405f205f5b8154811015611766576116fc81836133e4565b90549060031b1c5f52604060205260405f2060ff81541615611722575b506001016116e9565b6005018054906117356127108684614440565b9182611743575b5050611719565b96829161175661175d946001969a613858565b9055613728565b9490868061173c565b828585816117ad575b7f856bee22e79c8cadb8433b5c4953a46653e713608f53730229c38e534c8fb1cb604060209481519081528486820152a26001603655604051908152f35b5f8080808560018060a01b03603b54165af16117c7613760565b5061176f5760405163123cc24f60e31b815260206004820152601560248201527414db185cda081d1c985b9cd9995c8819985a5b1959605a1b6044820152606490fd5b62de051d60e61b5f5260045ffd5b63dabc4ad960e01b5f5260045ffd5b611840915060203d602011610880576108728183613430565b836116b0565b34610346575f3660031901126103465760206040515f8152f35b34610346576020366003190112610346576004355f52604060205260406008815f20015415158151908082526020820152f35b34610346576020366003190112610346576004356118af613aaa565b6118b7613ad1565b805f52604060205260405f206118cc82613d2f565b6118d582613b20565b5f828152604060208190529020600201546001600160a01b031633036108cd575f90600160ff1982541617815542600982015560018101805480845260426020526119466040852091600385019283548752602052604086205481875260416020526105c36040882092838361432e565b815484526042602052604084208154855260205283604081205583808080600487019661199d885480845260446020526040842088548552602052604084205481855260436020526105c36040862092838361437b565b8754825260446020526040822086548352602052816040812055865482526045602052604082208854835260205281604081205560058101906119e582548a548a5491613c1e565b50999091556002015488906001600160a01b03165af1611a03613760565b50156108875760207f8b28de604075dff119c6b0dfaacbdb9785e71214b6494176e4f821a265f2585d91549254935494604051908152a46001603655005b6060366003190112610346576004356024356001600160401b03811161034657611a6f9036906004016134c0565b90604435916001600160401b03831161034657611a93611a9d9336906004016134c0565b9290610aa2613aaa565b0381845afa95861561084f576024966020915f91611fbf575b5060405163b8861c2360e01b815233600482015297889182906001600160a01b03165afa95861561084f575f96611f8b575b508686146111dc57855f52604160205260405f205490603a5480921015611184578715611171576020611b1d916106ed6136de565b03915afa90811561084f576024916060915f91611f6c575b50604051633b79ed1960e11b8152600481018b905292839182906001600160a01b03165afa801561084f575f905f925f91611f1b575b508215611f01575b50506110cd57611b8387876137ca565b6110b657865f52604360205260405f2054101561105e5760375480341061104c5750611bb0858734613b49565b509260385494865f526041602052611bcb8660405f2061381c565b865f52604160205260405f20545f19810190811161103857875f52604260205260405f20875f5260205260405f2055875f526043602052611c0f8660405f2061381c565b875f52604360205260405f20545f198101908111611038578887610d09968893835f52604460205260405f20835f5260205260405f20558a5f52604560205260405f20835f526020528160405f20558a611c72610d1860405199610cb68b6133f9565b516001890155516002880180546001600160a01b0319166001600160a01b039290921691909117905551600387015551600486015551600585015551805160068501916001600160401b038211610f66578190611ccf84546134ed565b601f8111611eb1575b50602090601f8311600114611e4e575f92611e43575b50508160011b915f199060031b1c19161790555b51805160078401916001600160401b038211610f6657611d2283546134ed565b601f8111611dfe575b50602090601f8311600114611d9c57936040959383600a9488945f805160206146f68339815191529a985f92610e9b5750508160011b915f199060031b1c191617905551805160088501556020810151600985015501519101558151903482526020820152a4610e91603854613865565b90601f19831691845f52815f20925f5b818110611de65750846040989692945f805160206146f68339815191529a98948a96600a9860019510610ef157505050811b019055610e63565b92936020600181928786015181550195019301611dac565b835f5260205f20601f840160051c81019160208510611e39575b601f0160051c01905b818110611e2e5750611d2b565b5f8155600101611e21565b9091508190611e18565b015190508a80611cee565b5f8581528281209350601f198516905b818110611e995750908460019594939210611e81575b505050811b019055611d02565b01515f1960f88460031b161c191690558a8080611e74565b92936020600181928786015181550195019301611e5e565b909150835f5260205f20601f840160051c81019160208510611ef7575b90601f859493920160051c01905b818110611ee95750611cd8565b5f8155849350600101611edc565b9091508190611ece565b15915081611f12575b508880611b73565b90501588611f0a565b925050506060813d606011611f64575b81611f3860609383613430565b8101031261034657611f4981613753565b90611f5b604061113a60208401613753565b9190918a611b6b565b3d9150611f2b565b611f85915060203d602011610880576108728183613430565b8a611b35565b9095506020813d602011611fb7575b81611fa760209383613430565b8101031261034657519487611ae8565b3d9150611f9a565b611fd69150823d8411610880576108728183613430565b89611ab6565b34610346575f366003190112610346576020603d54604051908152f35b34610346576020366003190112610346577fa9dd0e7d47437ea99fedf4542c134ab9c1e8d6a3355f6b0fc81841c24ddfe07b60206004356120386139d2565b61204481603d54613ce1565b80603d55604051908152a1005b346103465760403660031901126103465761206a6133b8565b6004355f525f8051602061471683398151915260205260405f209060018060a01b03165f52602052602060ff60405f2054166040519015158152f35b34610346576040366003190112610346576004355f525f8051602061465683398151915260205260206120df60405f20602435906133e4565b905460405160039290921b1c6001600160a01b03168152f35b34610346576020366003190112610346576004356106c9613aaa565b34610346575f366003190112610346576020607954604051908152f35b346103465760203660031901126103465761214a6133a2565b612152613a1b565b5f805160206146968339815191525f525f805160206146568339815191526020525f80516020614776833981519152805415612238575f90815260209020546001600160a01b03166121a38161400c565b6121f9575b506121b28161413f565b6121b857005b5f805160206146968339815191525f525f80516020614656833981519152602052610483906001600160a01b03165f805160206147768339815191526145a3565b5f805160206146968339815191525f525f80516020614656833981519152602052612231905f805160206147768339815191526144f2565b50816121a8565b634e487b7160e01b5f52603260045260245ffd5b34610346575f366003190112610346576020603f54604051908152f35b34610346575f36600319011261034657600354612294906020906001600160a01b03166106ed61378f565b03915afa90811561084f575f91612348575b50336001600160a01b0390911603612311576122c0613aaa565b600160ff195f805160206147368339815191525416175f80516020614736833981519152557f62e78cea01bee320cd4e420270b5ea74000d11b0c9f74754ebdbfc544b05a2586020604051338152a1005b63e2517d3f60e01b5f52336004527f261fea28325784de45eba41a3fbb84c4196fbab02ee802566edfe26616ba5afb60245260445ffd5b612361915060203d602011610880576108728183613430565b816122a6565b34610346576020366003190112610346576004356123836139d2565b61238b613aaa565b610100811161239957603a55005b60a49060405190637dfb145560e11b8252600482015260406024820152602160448201527f4d6178696d756d20766f75636865732063616e6e6f74206578636565642032356064820152601b60f91b6084820152fd5b34610346575f3660031901126103465760206040515f805160206147568339815191528152f35b346103465760203660031901126103465761242f6133a2565b612437613a1b565b612440816141d2565b61244657005b5f805160206147568339815191525f525f80516020614656833981519152602052610483906001600160a01b03167f46448fd7a7b40360a1323cb3199d0aafeb92ce905bb512a6bb7d3d3f685cf1b16145a3565b34610346576020366003190112610346576124b36133a2565b6124bb613a1b565b6001600160a01b0316801561250b576020817f8d8b53938970adbc0746601e47c7fae038957c8cba773c77b7a4a36df468b67b926001600160601b0360a01b603b541617603b55604051908152a1005b6344a973b760e11b5f5260045ffd5b3461034657602061253361252d366133ce565b906137ca565b6040519015158152f35b34610346576020366003190112610346577fb61039210d9c96923ed2c530e79d7be7aa95ddc2e105804f2d793c7b66a3b5e1602060043561257c6139d2565b61258881603c54613ce1565b80603c55604051908152a1005b34610346575f36600319011261034657602060ff5f8051602061473683398151915254166040519015158152f35b34610346576020366003190112610346577f3c74ea171b2182d07fadf8e9e8a6ae80fb339ed21627f8f5a4639c6df337d3e260206004356126026139d2565b61260e81603f54613ce1565b80603f55604051908152a1005b34610346575f3660031901126103465760206040516127108152f35b34610346576020366003190112610346576126506133a2565b6126586139d2565b61266181613d66565b600180546001600160a01b0319166001600160a01b0392909216919091179055005b34610346575f366003190112610346577f00000000000000000000000000000000000000000000000000000000000000006001600160a01b031630036126da5760206040515f805160206146b68339815191528152f35b63703e46dd60e11b5f5260045ffd5b34610346576020366003190112610346577f96184d3c69d6647eafda9cff46a6a303879e193fcf2a4ec6754aed974ca3db1060206004356127286139d2565b61273481603e54613ce1565b80603e55604051908152a1005b34610346575f366003190112610346576020603a54604051908152f35b6040366003190112610346576127726133a2565b6024356001600160401b038111610346576127919036906004016134a2565b6001600160a01b037f000000000000000000000000000000000000000000000000000000000000000016308114908115612912575b506126da576127d3613a1b565b6127dc82613d66565b6040516352d1902d60e01b81526001600160a01b0383169290602081600481875afa5f91816128de575b5061281e5783634c9c8ce360e01b5f5260045260245ffd5b805f805160206146b68339815191528592036128cc5750813b156128ba575f805160206146b683398151915280546001600160a01b031916821790557fbc7cd75a20ee27fd9adebab32041f755214dbc6bffa90cc0225b39da2e5c2d3b5f80a28151156128a2575f8083602061048395519101845af461289c613760565b916145f7565b5050346128ab57005b63b398979f60e01b5f5260045ffd5b634c9c8ce360e01b5f5260045260245ffd5b632a87526960e21b5f5260045260245ffd5b9091506020813d60201161290a575b816128fa60209383613430565b8101031261034657519085612806565b3d91506128ed565b5f805160206146b6833981519152546001600160a01b031614159050836127c6565b34610346575f366003190112610346576020603954604051908152f35b34610346575f3660031901126103465760035461297c906020906001600160a01b03166106ed61378f565b03915afa90811561084f575f91612a06575b50336001600160a01b0390911603612311575f805160206147368339815191525460ff8116156129f75760ff19165f80516020614736833981519152557f5db9ee0a495bf2e6ff9c91a7834c1ba4fdd244a5e8aa4e537bd38aeae4b073aa6020604051338152a1005b638dfc202b60e01b5f5260045ffd5b612a1f915060203d602011610880576108728183613430565b8161298e565b346103465761014036600319011261034657612a3f6133a2565b612a476133b8565b60443591906001600160a01b0383168303610346576064356001600160a01b0381169390848103610346576084356001600160a01b03811694908590036103465760a4356001600160a01b0381169590869003610346575f80516020614796833981519152549660ff8860401c1615976001600160401b03811680159081612d63575b6001149081612d59575b159081612d50575b50612d415767ffffffffffffffff1981166001175f805160206147968339815191525588612d15575b50612b0e614303565b6001600160a01b0383169485158015612d04575b8015612cfc575b612ced57612b8f94612b6491612b3d614303565b612b4681613d66565b60018060a01b03166001600160601b0360a01b5f5416175f55613d66565b6001600160601b0360a01b60015416176001556001600160601b0360a01b600354161760035561413f565b612cae575b50612b9e816141d2565b612c53575b50612bac614303565b801561250b576001600160601b0360a01b603b541617603b5560c435603c5560e435603d5561010435603e5561012435603f55655af3107a4000603755610100603a5562015180603955612bfc57005b68ff0000000000000000195f8051602061479683398151915254165f80516020614796833981519152557fc7f505b2f371ae2175ee4913f4499e1f2633a7b5936321eed1cdaeb6115181d2602060405160018152a1005b5f805160206147568339815191525f525f80516020614656833981519152602052612ca7906001600160a01b03167f46448fd7a7b40360a1323cb3199d0aafeb92ce905bb512a6bb7d3d3f685cf1b16145a3565b5082612ba3565b5f805160206146968339815191525f525f80516020614656833981519152602052612ce6905f805160206147768339815191526145a3565b5083612b94565b63d92e233d60e01b5f5260045ffd5b508215612b29565b506001600160a01b03871615612b22565b68ffffffffffffffffff191668010000000000000001175f805160206147968339815191525588612b05565b63f92ee8a960e01b5f5260045ffd5b9050158a612adc565b303b159150612ad4565b8a9150612aca565b34610346575f36600319011261034657612d83613aaa565b612d8b613ad1565b600354612da6906020906001600160a01b03166106ed6136de565b03915afa90811561084f576024916080915f91612f2e575b50604051634a5b307d60e01b815233600482015292839182906001600160a01b03165afa90811561084f575f80915f93612ed2575b5015908115612eca575b50612eb757805f52604660205260405f20548015612ea857815f5260466020525f60408120555f80808084335af1612e33613760565b5015612e6b5760207f0fd71e1a24b0c2958f3dd4643783c66613d7548ee2689c4cc5a7651a971402a191604051908152a26001603655005b60405163123cc24f60e31b815260206004820152601460248201527314995dd85c991cc818db185a5b4819985a5b195960621b6044820152606490fd5b635772cb5960e11b5f5260045ffd5b63529f6aeb60e11b5f523360045260245ffd5b905082612dfd565b925050506080813d608011612f26575b81612eef60809383613430565b8101031261034657612f0081613753565b612f0c60208301613753565b506060612f1b60408401613753565b920151919083612df3565b3d9150612ee2565b612f47915060203d602011610880576108728183613430565b83612dbe565b3461034657604036600319011261034657612f666133b8565b336001600160a01b03821603612f825761048390600435613c59565b63334bd91960e11b5f5260045ffd5b3461034657602036600319011261034657600435607955005b3461034657604036600319011261034657610483600435612fc96133b8565b90612fd661047982613735565b613c9f565b3461034657612fe9366133ce565b905f52604460205260405f20905f52602052602060405f2054604051908152f35b34610346575f366003190112610346575f546040516001600160a01b039091168152602090f35b346103465760203660031901126103465761304a6133a2565b6130526139d2565b61305b81613d66565b5f80546001600160a01b0319166001600160a01b0392909216919091179055005b3461034657602036600319011261034657602061309a600435613735565b604051908152f35b34610346576020366003190112610346576130bb6133a2565b6130c3613a1b565b6130cc81613f76565b6130d257005b5f805160206147568339815191525f525f80516020614656833981519152602052610483906001600160a01b03167f46448fd7a7b40360a1323cb3199d0aafeb92ce905bb512a6bb7d3d3f685cf1b16144f2565b60203660031901126103465760043561313d613ad1565b60375480341061104c5750600354613163906020906001600160a01b03166106ed6136de565b03915afa90811561084f576024916020915f91613260575b5060405163b8861c2360e01b815233600482015292839182906001600160a01b03165afa90811561084f575f9161322e575b506131b88183613af1565b6131c182613b20565b815f526040602052600460405f200154917fbe50f0cc0cada0cf913ba88024e2867df78bcb199a86c624783aa9f63f82c1dc6040613200848634613b49565b50835f52816020526005825f2001613219828254613728565b90558151903482526020820152a46001603655005b90506020813d602011613258575b8161324960209383613430565b810103126103465751826131ad565b3d915061323c565b6132779150823d8411610880576108728183613430565b8461317b565b346103465761328b366133ce565b905f52604160205260405f208054821015610346576020916104d1916133e4565b34610346576020366003190112610346576132c56139d2565b6132cd613aaa565b600435603955005b34610346576020366003190112610346576132ee6133a2565b6132f66139d2565b600380546001600160a01b0319166001600160a01b0392909216919091179055005b34610346575f366003190112610346576020603754604051908152f35b34610346576020366003190112610346576004359063ffffffff60e01b821680920361034657602091635a05180f60e01b8114908115613377575b5015158152f35b637965db0b60e01b811491508115613391575b5083613370565b6301ffc9a760e01b1490508361338a565b600435906001600160a01b038216820361034657565b602435906001600160a01b038216820361034657565b6040906003190112610346576004359060243590565b8054821015612238575f5260205f2001905f90565b606081019081106001600160401b03821117610f6657604052565b61014081019081106001600160401b03821117610f6657604052565b90601f801991011681019081106001600160401b03821117610f6657604052565b6001600160401b038111610f6657601f01601f191660200190565b92919261347882613451565b916134866040519384613430565b829481845281830111610346578281602093845f960137010152565b9080601f83011215610346578160206134bd9335910161346c565b90565b9181601f84011215610346578235916001600160401b038311610346576020838186019501011161034657565b90600182811c9216801561351b575b602083101461350757565b634e487b7160e01b5f52602260045260245ffd5b91607f16916134fc565b9060405191825f825492613538846134ed565b80845293600181169081156135a3575060011461355f575b5061355d92500383613430565b565b90505f9291925260205f20905f915b81831061358757505090602061355d928201015f613550565b602091935080600191548385890101520191019091849261356e565b90506020925061355d94915060ff191682840152151560051b8201015f613550565b906040516135d2816133f9565b60406002829480548452600181015460208501520154910152565b805180835260209291819084018484015e5f828201840152601f01601f1916010190565b6134bd90602081528251151560208201526020830151151560408201526040830151606082015260018060a01b036060840151166080820152608083015160a082015260a083015160c082015260c083015160e08201526101406101206136a361368d60e08701516101806101008701526101a08601906135ed565b610100870151858203601f1901848701526135ed565b9401519101906040809180518452602081015160208501520151910152565b34610346575f3660031901126103465760206040516103e88152f35b604051906136ed604083613430565b600d82526c4554484f535f50524f46494c4560981b6020830152565b9081602091031261034657516001600160a01b03811681036103465790565b9190820180921161103857565b5f525f80516020614716833981519152602052600160405f20015490565b5190811515820361034657565b3d1561378a573d9061377182613451565b9161377f6040519384613430565b82523d5f602084013e565b606090565b6040519061379e604083613430565b601982527f4554484f535f494e544552414354494f4e5f434f4e54524f4c000000000000006020830152565b805f52604560205260405f20825f5260205260405f20545f52604060205260405f2090600182015414918261380e575b5081613804575090565b6009915001541590565b60048201541491505f6137fa565b805490600160401b821015610f66578161383e916001613854940181556133e4565b819391549060031b91821b915f19901b19161790565b9055565b9190820391821161103857565b5f1981146110385760010190565b6040519061388082613414565b815f81525f60208201525f60408201525f60608201525f60808201525f60a08201525f60c0820152606060e08201526060610100820152610120604051916138c7836133f9565b5f83525f60208401525f60408401520152565b906138e3613873565b50815f52604560205260405f20815f5260205261390560405f20549283613af1565b815f52604060205280600460405f200154036139bc57505f52604060205260405f206139b360086040519261393984613414565b805460ff8181161515865290831c16151560208501526001810154604085015260028101546001600160a01b0316606085015260038101546080850152600481015460a0850152600581015460c085015261399660068201613525565b60e08501526139a760078201613525565b610100850152016135c5565b61012082015290565b90634212788f60e01b5f5260045260245260445ffd5b335f9081525f80516020614676833981519152602052604090205460ff16156139f757565b63e2517d3f60e01b5f52336004525f8051602061475683398151915260245260445ffd5b335f9081525f805160206146d6833981519152602052604090205460ff1615613a4057565b63e2517d3f60e01b5f52336004525f8051602061469683398151915260245260445ffd5b5f8181525f805160206147168339815191526020908152604080832033845290915290205460ff1615613a945750565b63e2517d3f60e01b5f523360045260245260445ffd5b60ff5f805160206147368339815191525416613ac257565b63d93c066560e01b5f5260045ffd5b600260365414613ae2576002603655565b633ee5aeb560e01b5f5260045ffd5b805f52604060205281600160405f20015403613b0b575050565b632145a39360e21b5f5260045260245260445ffd5b805f52604060205260ff60405f205416613b375750565b63e4ef536160e01b5f5260045260245ffd5b9291603c5493603d54613b68613b5f8288613728565b603e5490613728565b908115613c1257816127100180612710116110385782613b94613b8e613b9b9387613d59565b86613858565b9889614440565b91613ba69188614440565b92613bdf948794613bc081613bbb8689613858565b613858565b9380613c03575b508181613bf3575b505082613be3575b505050613858565b9190565b613bec92613e27565b5f80613bd7565b613bfc91613de2565b5f81613bcf565b613c0c90613d76565b5f613bc7565b50509293505050905f90565b92915050603f5461271001806127101161103857613c48613c42613bdf9285613d59565b84613858565b8093811561385857613bbb82613d76565b613c63828261409d565b9182613c6e57505090565b5f9182525f805160206146568339815191526020526040909120613c9b916001600160a01b0316906144f2565b5090565b613ca98282614265565b9182613cb457505090565b5f9182525f805160206146568339815191526020526040909120613c9b916001600160a01b0316906145a3565b613bbb613d0b92613d06613b5f613cfd603c54603f5490613728565b603d5490613728565b613728565b6103e88111613d175750565b63bdd9af3960e01b5f526004526103e860245260445ffd5b805f526040602052600860405f20015415613d475750565b6362d97be560e11b5f5260045260245ffd5b906127106134bd92614440565b6001600160a01b031615612ced57565b603b545f918291829182916001600160a01b03165af1613d94613760565b5015613d9c57565b60405163123cc24f60e31b815260206004820152601b60248201527f50726f746f636f6c20666565206465706f736974206661696c656400000000006044820152606490fd5b60207f197d09c3f6a1c74d6407de0ac61eba84272dfc73f05b859ae362baddfdd7bbf291835f526046825260405f20613e1c828254613728565b9055604051908152a2565b90805f52604360205260405f20928354935f955f5b868110613f1957508615613f0e5784935f5b87811080613f05575b15613ee957613e6681856133e4565b90549060031b1c5f52604060205260405f2060ff8154161580613edb575b613e98575b50613e9390613865565b613e4e565b600501805490613ea98b838b614440565b9182613eb7575b5050613e89565b978291613ecb613ed294613e93969b613728565b9055613858565b95905f80613eb0565b508560018201541415613e84565b50939495509550505081613efc57505090565b6134bd91613de2565b50851515613e57565b955050505050505f90565b613f2381846133e4565b90549060031b1c5f52604060205260405f2060ff8154161580613f68575b613f4f575b50600101613e3c565b600191986005613f6192015490613728565b9790613f46565b508460018201541415613f41565b6001600160a01b0381165f9081525f80516020614676833981519152602052604090205460ff1615614007576001600160a01b03165f8181525f8051602061467683398151915260205260408120805460ff191690553391905f80516020614756833981519152907ff6391f5c32d9c69d2a47ea670b442974b53935d1edc7fd64eb21e047a839171b9080a4600190565b505f90565b6001600160a01b0381165f9081525f805160206146d6833981519152602052604090205460ff1615614007576001600160a01b03165f8181525f805160206146d683398151915260205260408120805460ff191690553391905f80516020614696833981519152907ff6391f5c32d9c69d2a47ea670b442974b53935d1edc7fd64eb21e047a839171b9080a4600190565b5f8181525f80516020614716833981519152602090815260408083206001600160a01b038616845290915290205460ff1615614139575f8181525f80516020614716833981519152602090815260408083206001600160a01b0395909516808452949091528120805460ff19169055339291907ff6391f5c32d9c69d2a47ea670b442974b53935d1edc7fd64eb21e047a839171b9080a4600190565b50505f90565b6001600160a01b0381165f9081525f805160206146d6833981519152602052604090205460ff16614007576001600160a01b03165f8181525f805160206146d683398151915260205260408120805460ff191660011790553391905f80516020614696833981519152907f2f8788117e7eff1d82e926ec794901d17c78024a50270940304540a733656f0d9080a4600190565b6001600160a01b0381165f9081525f80516020614676833981519152602052604090205460ff16614007576001600160a01b03165f8181525f8051602061467683398151915260205260408120805460ff191660011790553391905f80516020614756833981519152907f2f8788117e7eff1d82e926ec794901d17c78024a50270940304540a733656f0d9080a4600190565b5f8181525f80516020614716833981519152602090815260408083206001600160a01b038616845290915290205460ff16614139575f8181525f80516020614716833981519152602090815260408083206001600160a01b0395909516808452949091528120805460ff19166001179055339291907f2f8788117e7eff1d82e926ec794901d17c78024a50270940304540a733656f0d9080a4600190565b60ff5f805160206147968339815191525460401c161561431f57565b631afcd79f60e31b5f5260045ffd5b919080545f1981019081116110385780841061434b575b50505050565b614354916133e4565b90549060031b1c905f52604260205260405f20905f5260205260405f20555f808080614345565b919080545f198101908111611038578084106143975750505050565b6143a0916133e4565b90549060031b1c905f52604460205260405f20905f5260205260405f20555f808080614345565b81545f19810190811161103857808210614419575b505080548015614405575f1901906143f482826133e4565b8154905f199060031b1b1916905555565b634e487b7160e01b5f52603160045260245ffd5b61383e61442961443792856133e4565b90549060031b1c92846133e4565b90555f806143dc565b91818302915f19818509938380861095039480860395146144d057848311156144b85790829109815f0382168092046002816003021880820260020302808202600203028082026002030280820260020302808202600203028091026002030293600183805f03040190848311900302920304170290565b82634e487b715f52156003026011186020526024601cfd5b5050809250156144de570490565b634e487b7160e01b5f52601260045260245ffd5b906001820191815f528260205260405f20548015155f1461459b575f1981018181116110385782545f1981019190821161103857818103614566575b50505080548015614405575f19019061454782826133e4565b8154905f199060031b1b19169055555f526020525f6040812055600190565b61458661457661383e93866133e4565b90549060031b1c928392866133e4565b90555f528360205260405f20555f808061452e565b505050505f90565b6001810190825f528160205260405f2054155f146145f0578054600160401b811015610f66576145dd61383e8260018794018555846133e4565b905554915f5260205260405f2055600190565b5050505f90565b9061461b575080511561460c57805190602001fd5b63d6bda27560e01b5f5260045ffd5b8151158061464c575b61462c575090565b639996b31560e01b5f9081526001600160a01b0391909116600452602490fd5b50803b1561462456fec1f6fe24621ce81ec5827caf0253cadb74709b061630e6b55e82371705932000b16e88c42fd4e48df2dd6a2eabd6bc9aec654ec170056b470819f8892cc6431cb19546dff01e856fb3f010c267a7b1c60363cf8a4664e21cc89c26224620214e360894a13ba1a3210667c828492db98dca3e2076cc3735a920a3ca505d382bbcc32d4dc01d07c436ad8a6f9a20eadd61263c71fe16f6b5956005ba3b341f51dda8c32c8d41712c25f951dc34a8740489675d881c099b5a1641efdec4d7a957d902dd7bc7dec4dceedda775e58dd541e08a116c6c53815c0bd028192f7b626800cd5ed15c6e187e77e9aee88184c21f4f2182ab5827cb3b7e07fbedcd63f03300a49807205ce4d355092ef5a8a18f56e8913cf4a201fbe287825b095693c21775008963063c520970ed64c693e920074e4588acd3631097247bb3559890ad6a67f0c57e16840df040f15088dc2f81fe391c3923bec73e23a9662efc9c229c6a00a264697066735822122013e740da19fbe8eb161e2e48b3a31f6cac56710a54d9fbd82551446227a21fe664736f6c634300081a0033","linkReferences":{}},"methodIdentifiers":{"ADMIN_ROLE()":"75b238fc","BASIS_POINT_SCALE()":"5b201d83","DEFAULT_ADMIN_ROLE()":"a217fddf","MAX_SLASH_PERCENTAGE()":"fc69603c","MAX_TOTAL_FEES()":"c3a1ed48","OWNER_ROLE()":"e58378bb","UPGRADE_INTERFACE_VERSION()":"ad3cb1cc","addAdmin(address)":"70480275","claimRewards()":"372500ab","configuredMinimumVouchAmount()":"0723550f","contractAddressManager()":"ade9ae97","entryDonationFeeBasisPoints()":"9a4de7ea","entryProtocolFeeBasisPoints()":"b36fed5f","entryVouchersPoolFeeBasisPoints()":"d34790b6","exitFeeBasisPoints()":"86915573","expectedSigner()":"2cb3e494","getRoleAdmin(bytes32)":"248a9ca3","getRoleMember(bytes32,uint256)":"9010d07c","getRoleMemberCount(bytes32)":"ca15c873","getRoleMembers(bytes32)":"a3246ad3","grantRole(bytes32,address)":"2f2ff15d","hasRole(bytes32,address)":"91d14854","increaseVouch(uint256)":"1371f142","initialize(address,address,address,address,address,address,uint256,uint256,uint256,uint256)":"3986de6a","markUnhealthy(uint256)":"8e5ec774","maximumVouches()":"502ff96b","pause()":"8456cb59","paused()":"5c975abb","protocolFeeAddress()":"cce516b7","proxiableUUID()":"52d1902d","removeAdmin(address)":"1785f53c","renounceRole(bytes32,address)":"36568abe","revokeRole(bytes32,address)":"d547741f","rewards(uint256)":"f301af42","setEntryDonationFeeBasisPoints(uint256)":"98be1d9c","setEntryProtocolFeeBasisPoints(uint256)":"626f78f2","setEntryVouchersPoolFeeBasisPoints(uint256)":"52368f2f","setExitFeeBasisPoints(uint256)":"5b63b05c","setMinimumVouchAmount(uint256)":"e2d31d5f","setProtocolFeeAddress(address)":"6b7b9112","setTestValue(uint256)":"35960105","signatureUsed(bytes)":"bb10c829","signatureVerifier()":"fde919f6","slash(uint256,uint256)":"a22a6428","supportsInterface(bytes4)":"01ffc9a7","targetExistsAndAllowedForId(uint256)":"a12c64b5","testValue()":"8af5de72","unhealthyResponsePeriod()":"3fadfc0a","unpause()":"3f4ba83a","unvouch(uint256)":"9d5091de","unvouchUnhealthy(uint256)":"cb2a7817","updateContractAddressManager(address)":"08473f64","updateExpectedSigner(address)":"2bdd87ff","updateMaximumVouches(uint256)":"7bd4f28e","updateOwner(address)":"880cdc31","updateSignatureVerifier(address)":"5667981b","updateUnhealthyResponsePeriod(uint256)":"08b91ff8","upgradeToAndCall(address,bytes)":"4f1ef286","verifiedVouchByAuthorForSubjectAddress(uint256,address)":"b4846d84","verifiedVouchByAuthorForSubjectProfileId(uint256,uint256)":"ac7e0f86","vouchByAddress(address,string,string)":"b6e7ec92","vouchByProfileId(uint256,string,string)":"9c00ba4a","vouchCount()":"acedd274","vouchExistsFor(uint256,uint256)":"66f1e306","vouchIdByAuthorForSubjectProfileId(uint256,uint256)":"f570332a","vouchIdsByAuthor(uint256,uint256)":"0adb6cdc","vouchIdsByAuthorIndex(uint256,uint256)":"d745c07f","vouchIdsForSubjectProfileId(uint256,uint256)":"cde13956","vouchIdsForSubjectProfileIdIndex(uint256,uint256)":"2e5ff094","vouches(uint256)":"a817c68a"},"id":141}