{"abi":[{"type":"constructor","inputs":[],"stateMutability":"nonpayable"},{"type":"function","name":"ADMIN_ROLE","inputs":[],"outputs":[{"name":"","type":"bytes32","internalType":"bytes32"}],"stateMutability":"view"},{"type":"function","name":"BASIS_POINT_SCALE","inputs":[],"outputs":[{"name":"","type":"uint256","internalType":"uint256"}],"stateMutability":"view"},{"type":"function","name":"DEFAULT_ADMIN_ROLE","inputs":[],"outputs":[{"name":"","type":"bytes32","internalType":"bytes32"}],"stateMutability":"view"},{"type":"function","name":"MAX_SLASH_PERCENTAGE","inputs":[],"outputs":[{"name":"","type":"uint256","internalType":"uint256"}],"stateMutability":"view"},{"type":"function","name":"MAX_TOTAL_FEES","inputs":[],"outputs":[{"name":"","type":"uint256","internalType":"uint256"}],"stateMutability":"view"},{"type":"function","name":"OWNER_ROLE","inputs":[],"outputs":[{"name":"","type":"bytes32","internalType":"bytes32"}],"stateMutability":"view"},{"type":"function","name":"UPGRADE_INTERFACE_VERSION","inputs":[],"outputs":[{"name":"","type":"string","internalType":"string"}],"stateMutability":"view"},{"type":"function","name":"addAdmin","inputs":[{"name":"admin","type":"address","internalType":"address"}],"outputs":[],"stateMutability":"nonpayable"},{"type":"function","name":"claimRewards","inputs":[],"outputs":[],"stateMutability":"nonpayable"},{"type":"function","name":"configuredMinimumVouchAmount","inputs":[],"outputs":[{"name":"","type":"uint256","internalType":"uint256"}],"stateMutability":"view"},{"type":"function","name":"contractAddressManager","inputs":[],"outputs":[{"name":"","type":"address","internalType":"contract IContractAddressManager"}],"stateMutability":"view"},{"type":"function","name":"entryDonationFeeBasisPoints","inputs":[],"outputs":[{"name":"","type":"uint256","internalType":"uint256"}],"stateMutability":"view"},{"type":"function","name":"entryProtocolFeeBasisPoints","inputs":[],"outputs":[{"name":"","type":"uint256","internalType":"uint256"}],"stateMutability":"view"},{"type":"function","name":"entryVouchersPoolFeeBasisPoints","inputs":[],"outputs":[{"name":"","type":"uint256","internalType":"uint256"}],"stateMutability":"view"},{"type":"function","name":"exitFeeBasisPoints","inputs":[],"outputs":[{"name":"","type":"uint256","internalType":"uint256"}],"stateMutability":"view"},{"type":"function","name":"expectedSigner","inputs":[],"outputs":[{"name":"","type":"address","internalType":"address"}],"stateMutability":"view"},{"type":"function","name":"getRoleAdmin","inputs":[{"name":"role","type":"bytes32","internalType":"bytes32"}],"outputs":[{"name":"","type":"bytes32","internalType":"bytes32"}],"stateMutability":"view"},{"type":"function","name":"getRoleMember","inputs":[{"name":"role","type":"bytes32","internalType":"bytes32"},{"name":"index","type":"uint256","internalType":"uint256"}],"outputs":[{"name":"","type":"address","internalType":"address"}],"stateMutability":"view"},{"type":"function","name":"getRoleMemberCount","inputs":[{"name":"role","type":"bytes32","internalType":"bytes32"}],"outputs":[{"name":"","type":"uint256","internalType":"uint256"}],"stateMutability":"view"},{"type":"function","name":"getRoleMembers","inputs":[{"name":"role","type":"bytes32","internalType":"bytes32"}],"outputs":[{"name":"","type":"address[]","internalType":"address[]"}],"stateMutability":"view"},{"type":"function","name":"grantRole","inputs":[{"name":"role","type":"bytes32","internalType":"bytes32"},{"name":"account","type":"address","internalType":"address"}],"outputs":[],"stateMutability":"nonpayable"},{"type":"function","name":"hasRole","inputs":[{"name":"role","type":"bytes32","internalType":"bytes32"},{"name":"account","type":"address","internalType":"address"}],"outputs":[{"name":"","type":"bool","internalType":"bool"}],"stateMutability":"view"},{"type":"function","name":"increaseVouch","inputs":[{"name":"vouchId","type":"uint256","internalType":"uint256"}],"outputs":[],"stateMutability":"payable"},{"type":"function","name":"initialize","inputs":[{"name":"_owner","type":"address","internalType":"address"},{"name":"_admin","type":"address","internalType":"address"},{"name":"_expectedSigner","type":"address","internalType":"address"},{"name":"_signatureVerifier","type":"address","internalType":"address"},{"name":"_contractAddressManagerAddr","type":"address","internalType":"address"},{"name":"_feeProtocolAddress","type":"address","internalType":"address"},{"name":"_entryProtocolFeeBasisPoints","type":"uint256","internalType":"uint256"},{"name":"_entryDonationFeeBasisPoints","type":"uint256","internalType":"uint256"},{"name":"_entryVouchersPoolFeeBasisPoints","type":"uint256","internalType":"uint256"},{"name":"_exitFeeBasisPoints","type":"uint256","internalType":"uint256"}],"outputs":[],"stateMutability":"nonpayable"},{"type":"function","name":"markUnhealthy","inputs":[{"name":"vouchId","type":"uint256","internalType":"uint256"}],"outputs":[],"stateMutability":"nonpayable"},{"type":"function","name":"maximumVouches","inputs":[],"outputs":[{"name":"","type":"uint256","internalType":"uint256"}],"stateMutability":"view"},{"type":"function","name":"pause","inputs":[],"outputs":[],"stateMutability":"nonpayable"},{"type":"function","name":"paused","inputs":[],"outputs":[{"name":"","type":"bool","internalType":"bool"}],"stateMutability":"view"},{"type":"function","name":"protocolFeeAddress","inputs":[],"outputs":[{"name":"","type":"address","internalType":"address"}],"stateMutability":"view"},{"type":"function","name":"proxiableUUID","inputs":[],"outputs":[{"name":"","type":"bytes32","internalType":"bytes32"}],"stateMutability":"view"},{"type":"function","name":"removeAdmin","inputs":[{"name":"admin","type":"address","internalType":"address"}],"outputs":[],"stateMutability":"nonpayable"},{"type":"function","name":"renounceRole","inputs":[{"name":"role","type":"bytes32","internalType":"bytes32"},{"name":"callerConfirmation","type":"address","internalType":"address"}],"outputs":[],"stateMutability":"nonpayable"},{"type":"function","name":"revokeRole","inputs":[{"name":"role","type":"bytes32","internalType":"bytes32"},{"name":"account","type":"address","internalType":"address"}],"outputs":[],"stateMutability":"nonpayable"},{"type":"function","name":"rewards","inputs":[{"name":"","type":"uint256","internalType":"uint256"}],"outputs":[{"name":"","type":"uint256","internalType":"uint256"}],"stateMutability":"view"},{"type":"function","name":"setEntryDonationFeeBasisPoints","inputs":[{"name":"_newEntryDonationFeeBasisPoints","type":"uint256","internalType":"uint256"}],"outputs":[],"stateMutability":"nonpayable"},{"type":"function","name":"setEntryProtocolFeeBasisPoints","inputs":[{"name":"_newEntryProtocolFeeBasisPoints","type":"uint256","internalType":"uint256"}],"outputs":[],"stateMutability":"nonpayable"},{"type":"function","name":"setEntryVouchersPoolFeeBasisPoints","inputs":[{"name":"_newEntryVouchersPoolFeeBasisPoints","type":"uint256","internalType":"uint256"}],"outputs":[],"stateMutability":"nonpayable"},{"type":"function","name":"setExitFeeBasisPoints","inputs":[{"name":"_newExitFeeBasisPoints","type":"uint256","internalType":"uint256"}],"outputs":[],"stateMutability":"nonpayable"},{"type":"function","name":"setMinimumVouchAmount","inputs":[{"name":"amount","type":"uint256","internalType":"uint256"}],"outputs":[],"stateMutability":"nonpayable"},{"type":"function","name":"setProtocolFeeAddress","inputs":[{"name":"_protocolFeeAddress","type":"address","internalType":"address"}],"outputs":[],"stateMutability":"nonpayable"},{"type":"function","name":"signatureUsed","inputs":[{"name":"","type":"bytes","internalType":"bytes"}],"outputs":[{"name":"","type":"bool","internalType":"bool"}],"stateMutability":"view"},{"type":"function","name":"signatureVerifier","inputs":[],"outputs":[{"name":"","type":"address","internalType":"address"}],"stateMutability":"view"},{"type":"function","name":"slash","inputs":[{"name":"authorProfileId","type":"uint256","internalType":"uint256"},{"name":"slashBasisPoints","type":"uint256","internalType":"uint256"}],"outputs":[{"name":"","type":"uint256","internalType":"uint256"}],"stateMutability":"nonpayable"},{"type":"function","name":"supportsInterface","inputs":[{"name":"interfaceId","type":"bytes4","internalType":"bytes4"}],"outputs":[{"name":"","type":"bool","internalType":"bool"}],"stateMutability":"view"},{"type":"function","name":"targetExistsAndAllowedForId","inputs":[{"name":"targetId","type":"uint256","internalType":"uint256"}],"outputs":[{"name":"exists","type":"bool","internalType":"bool"},{"name":"allowed","type":"bool","internalType":"bool"}],"stateMutability":"view"},{"type":"function","name":"unhealthyResponsePeriod","inputs":[],"outputs":[{"name":"","type":"uint256","internalType":"uint256"}],"stateMutability":"view"},{"type":"function","name":"unpause","inputs":[],"outputs":[],"stateMutability":"nonpayable"},{"type":"function","name":"unvouch","inputs":[{"name":"vouchId","type":"uint256","internalType":"uint256"}],"outputs":[],"stateMutability":"nonpayable"},{"type":"function","name":"unvouchUnhealthy","inputs":[{"name":"vouchId","type":"uint256","internalType":"uint256"}],"outputs":[],"stateMutability":"nonpayable"},{"type":"function","name":"updateContractAddressManager","inputs":[{"name":"contractAddressesAddr","type":"address","internalType":"address"}],"outputs":[],"stateMutability":"nonpayable"},{"type":"function","name":"updateExpectedSigner","inputs":[{"name":"signer","type":"address","internalType":"address"}],"outputs":[],"stateMutability":"nonpayable"},{"type":"function","name":"updateMaximumVouches","inputs":[{"name":"maximumVouches_","type":"uint256","internalType":"uint256"}],"outputs":[],"stateMutability":"nonpayable"},{"type":"function","name":"updateOwner","inputs":[{"name":"owner","type":"address","internalType":"address"}],"outputs":[],"stateMutability":"nonpayable"},{"type":"function","name":"updateSignatureVerifier","inputs":[{"name":"sinatureVerifier","type":"address","internalType":"address"}],"outputs":[],"stateMutability":"nonpayable"},{"type":"function","name":"updateUnhealthyResponsePeriod","inputs":[{"name":"unhealthyResponsePeriodDuration","type":"uint256","internalType":"uint256"}],"outputs":[],"stateMutability":"nonpayable"},{"type":"function","name":"upgradeToAndCall","inputs":[{"name":"newImplementation","type":"address","internalType":"address"},{"name":"data","type":"bytes","internalType":"bytes"}],"outputs":[],"stateMutability":"payable"},{"type":"function","name":"verifiedVouchByAuthorForSubjectAddress","inputs":[{"name":"author","type":"uint256","internalType":"uint256"},{"name":"subjectAddress","type":"address","internalType":"address"}],"outputs":[{"name":"","type":"tuple","internalType":"struct EthosVouch.Vouch","components":[{"name":"archived","type":"bool","internalType":"bool"},{"name":"unhealthy","type":"bool","internalType":"bool"},{"name":"authorProfileId","type":"uint256","internalType":"uint256"},{"name":"authorAddress","type":"address","internalType":"address"},{"name":"vouchId","type":"uint256","internalType":"uint256"},{"name":"subjectProfileId","type":"uint256","internalType":"uint256"},{"name":"balance","type":"uint256","internalType":"uint256"},{"name":"comment","type":"string","internalType":"string"},{"name":"metadata","type":"string","internalType":"string"},{"name":"activityCheckpoints","type":"tuple","internalType":"struct EthosVouch.ActivityCheckpoints","components":[{"name":"vouchedAt","type":"uint256","internalType":"uint256"},{"name":"unvouchedAt","type":"uint256","internalType":"uint256"},{"name":"unhealthyAt","type":"uint256","internalType":"uint256"}]}]}],"stateMutability":"view"},{"type":"function","name":"verifiedVouchByAuthorForSubjectProfileId","inputs":[{"name":"author","type":"uint256","internalType":"uint256"},{"name":"subjectProfileId","type":"uint256","internalType":"uint256"}],"outputs":[{"name":"","type":"tuple","internalType":"struct EthosVouch.Vouch","components":[{"name":"archived","type":"bool","internalType":"bool"},{"name":"unhealthy","type":"bool","internalType":"bool"},{"name":"authorProfileId","type":"uint256","internalType":"uint256"},{"name":"authorAddress","type":"address","internalType":"address"},{"name":"vouchId","type":"uint256","internalType":"uint256"},{"name":"subjectProfileId","type":"uint256","internalType":"uint256"},{"name":"balance","type":"uint256","internalType":"uint256"},{"name":"comment","type":"string","internalType":"string"},{"name":"metadata","type":"string","internalType":"string"},{"name":"activityCheckpoints","type":"tuple","internalType":"struct EthosVouch.ActivityCheckpoints","components":[{"name":"vouchedAt","type":"uint256","internalType":"uint256"},{"name":"unvouchedAt","type":"uint256","internalType":"uint256"},{"name":"unhealthyAt","type":"uint256","internalType":"uint256"}]}]}],"stateMutability":"view"},{"type":"function","name":"vouchByAddress","inputs":[{"name":"subjectAddress","type":"address","internalType":"address"},{"name":"comment","type":"string","internalType":"string"},{"name":"metadata","type":"string","internalType":"string"}],"outputs":[],"stateMutability":"payable"},{"type":"function","name":"vouchByProfileId","inputs":[{"name":"subjectProfileId","type":"uint256","internalType":"uint256"},{"name":"comment","type":"string","internalType":"string"},{"name":"metadata","type":"string","internalType":"string"}],"outputs":[],"stateMutability":"payable"},{"type":"function","name":"vouchCount","inputs":[],"outputs":[{"name":"","type":"uint256","internalType":"uint256"}],"stateMutability":"view"},{"type":"function","name":"vouchExistsFor","inputs":[{"name":"author","type":"uint256","internalType":"uint256"},{"name":"subjectProfileId","type":"uint256","internalType":"uint256"}],"outputs":[{"name":"","type":"bool","internalType":"bool"}],"stateMutability":"view"},{"type":"function","name":"vouchIdByAuthorForSubjectProfileId","inputs":[{"name":"","type":"uint256","internalType":"uint256"},{"name":"","type":"uint256","internalType":"uint256"}],"outputs":[{"name":"","type":"uint256","internalType":"uint256"}],"stateMutability":"view"},{"type":"function","name":"vouchIdsByAuthor","inputs":[{"name":"","type":"uint256","internalType":"uint256"},{"name":"","type":"uint256","internalType":"uint256"}],"outputs":[{"name":"","type":"uint256","internalType":"uint256"}],"stateMutability":"view"},{"type":"function","name":"vouchIdsByAuthorIndex","inputs":[{"name":"","type":"uint256","internalType":"uint256"},{"name":"","type":"uint256","internalType":"uint256"}],"outputs":[{"name":"","type":"uint256","internalType":"uint256"}],"stateMutability":"view"},{"type":"function","name":"vouchIdsForSubjectProfileId","inputs":[{"name":"","type":"uint256","internalType":"uint256"},{"name":"","type":"uint256","internalType":"uint256"}],"outputs":[{"name":"","type":"uint256","internalType":"uint256"}],"stateMutability":"view"},{"type":"function","name":"vouchIdsForSubjectProfileIdIndex","inputs":[{"name":"","type":"uint256","internalType":"uint256"},{"name":"","type":"uint256","internalType":"uint256"}],"outputs":[{"name":"","type":"uint256","internalType":"uint256"}],"stateMutability":"view"},{"type":"function","name":"vouches","inputs":[{"name":"","type":"uint256","internalType":"uint256"}],"outputs":[{"name":"archived","type":"bool","internalType":"bool"},{"name":"unhealthy","type":"bool","internalType":"bool"},{"name":"authorProfileId","type":"uint256","internalType":"uint256"},{"name":"authorAddress","type":"address","internalType":"address"},{"name":"vouchId","type":"uint256","internalType":"uint256"},{"name":"subjectProfileId","type":"uint256","internalType":"uint256"},{"name":"balance","type":"uint256","internalType":"uint256"},{"name":"comment","type":"string","internalType":"string"},{"name":"metadata","type":"string","internalType":"string"},{"name":"activityCheckpoints","type":"tuple","internalType":"struct EthosVouch.ActivityCheckpoints","components":[{"name":"vouchedAt","type":"uint256","internalType":"uint256"},{"name":"unvouchedAt","type":"uint256","internalType":"uint256"},{"name":"unhealthyAt","type":"uint256","internalType":"uint256"}]}],"stateMutability":"view"},{"type":"event","name":"DepositedToRewards","inputs":[{"name":"recipientProfileId","type":"uint256","indexed":true,"internalType":"uint256"},{"name":"amount","type":"uint256","indexed":false,"internalType":"uint256"}],"anonymous":false},{"type":"event","name":"EntryDonationFeeBasisPointsUpdated","inputs":[{"name":"newDonationFeeBasisPoints","type":"uint256","indexed":false,"internalType":"uint256"}],"anonymous":false},{"type":"event","name":"EntryProtocolFeeBasisPointsUpdated","inputs":[{"name":"newProtocolFeeBasisPoints","type":"uint256","indexed":false,"internalType":"uint256"}],"anonymous":false},{"type":"event","name":"EntryVouchersPoolFeeBasisPointsUpdated","inputs":[{"name":"newVouchersPoolFeeBasisPoints","type":"uint256","indexed":false,"internalType":"uint256"}],"anonymous":false},{"type":"event","name":"ExitFeeBasisPointsUpdated","inputs":[{"name":"newExitFeeBasisPoints","type":"uint256","indexed":false,"internalType":"uint256"}],"anonymous":false},{"type":"event","name":"Initialized","inputs":[{"name":"version","type":"uint64","indexed":false,"internalType":"uint64"}],"anonymous":false},{"type":"event","name":"MarkedUnhealthy","inputs":[{"name":"vouchId","type":"uint256","indexed":true,"internalType":"uint256"},{"name":"authorProfileId","type":"uint256","indexed":true,"internalType":"uint256"},{"name":"subjectProfileId","type":"uint256","indexed":true,"internalType":"uint256"}],"anonymous":false},{"type":"event","name":"Paused","inputs":[{"name":"account","type":"address","indexed":false,"internalType":"address"}],"anonymous":false},{"type":"event","name":"ProtocolFeeAddressUpdated","inputs":[{"name":"newFeeProtocolAddress","type":"address","indexed":false,"internalType":"address"}],"anonymous":false},{"type":"event","name":"RoleAdminChanged","inputs":[{"name":"role","type":"bytes32","indexed":true,"internalType":"bytes32"},{"name":"previousAdminRole","type":"bytes32","indexed":true,"internalType":"bytes32"},{"name":"newAdminRole","type":"bytes32","indexed":true,"internalType":"bytes32"}],"anonymous":false},{"type":"event","name":"RoleGranted","inputs":[{"name":"role","type":"bytes32","indexed":true,"internalType":"bytes32"},{"name":"account","type":"address","indexed":true,"internalType":"address"},{"name":"sender","type":"address","indexed":true,"internalType":"address"}],"anonymous":false},{"type":"event","name":"RoleRevoked","inputs":[{"name":"role","type":"bytes32","indexed":true,"internalType":"bytes32"},{"name":"account","type":"address","indexed":true,"internalType":"address"},{"name":"sender","type":"address","indexed":true,"internalType":"address"}],"anonymous":false},{"type":"event","name":"Slashed","inputs":[{"name":"authorProfileId","type":"uint256","indexed":true,"internalType":"uint256"},{"name":"slashBasisPoints","type":"uint256","indexed":false,"internalType":"uint256"},{"name":"totalSlashed","type":"uint256","indexed":false,"internalType":"uint256"}],"anonymous":false},{"type":"event","name":"Unpaused","inputs":[{"name":"account","type":"address","indexed":false,"internalType":"address"}],"anonymous":false},{"type":"event","name":"Unvouched","inputs":[{"name":"vouchId","type":"uint256","indexed":true,"internalType":"uint256"},{"name":"authorProfileId","type":"uint256","indexed":true,"internalType":"uint256"},{"name":"subjectProfileId","type":"uint256","indexed":true,"internalType":"uint256"},{"name":"amountWithdrawn","type":"uint256","indexed":false,"internalType":"uint256"}],"anonymous":false},{"type":"event","name":"Upgraded","inputs":[{"name":"implementation","type":"address","indexed":true,"internalType":"address"}],"anonymous":false},{"type":"event","name":"VouchIncreased","inputs":[{"name":"vouchId","type":"uint256","indexed":true,"internalType":"uint256"},{"name":"authorProfileId","type":"uint256","indexed":true,"internalType":"uint256"},{"name":"subjectProfileId","type":"uint256","indexed":true,"internalType":"uint256"},{"name":"amountStaked","type":"uint256","indexed":false,"internalType":"uint256"},{"name":"amountDeposited","type":"uint256","indexed":false,"internalType":"uint256"}],"anonymous":false},{"type":"event","name":"Vouched","inputs":[{"name":"vouchId","type":"uint256","indexed":true,"internalType":"uint256"},{"name":"authorProfileId","type":"uint256","indexed":true,"internalType":"uint256"},{"name":"subjectProfileId","type":"uint256","indexed":true,"internalType":"uint256"},{"name":"amountStaked","type":"uint256","indexed":false,"internalType":"uint256"},{"name":"amountDeposited","type":"uint256","indexed":false,"internalType":"uint256"}],"anonymous":false},{"type":"event","name":"WithdrawnFromRewards","inputs":[{"name":"accountProfileId","type":"uint256","indexed":true,"internalType":"uint256"},{"name":"amount","type":"uint256","indexed":false,"internalType":"uint256"}],"anonymous":false},{"type":"error","name":"AccessControlBadConfirmation","inputs":[]},{"type":"error","name":"AccessControlUnauthorizedAccount","inputs":[{"name":"account","type":"address","internalType":"address"},{"name":"neededRole","type":"bytes32","internalType":"bytes32"}]},{"type":"error","name":"AddressEmptyCode","inputs":[{"name":"target","type":"address","internalType":"address"}]},{"type":"error","name":"AddressNotVouchAuthor","inputs":[{"name":"vouchId","type":"uint256","internalType":"uint256"},{"name":"caller","type":"address","internalType":"address"},{"name":"author","type":"address","internalType":"address"}]},{"type":"error","name":"AlreadyUnvouched","inputs":[{"name":"vouchId","type":"uint256","internalType":"uint256"}]},{"type":"error","name":"AlreadyVouched","inputs":[{"name":"author","type":"uint256","internalType":"uint256"},{"name":"voucheeEthosProfileId","type":"uint256","internalType":"uint256"}]},{"type":"error","name":"CannotMarkVouchAsUnhealthy","inputs":[{"name":"vouchId","type":"uint256","internalType":"uint256"}]},{"type":"error","name":"ERC1967InvalidImplementation","inputs":[{"name":"implementation","type":"address","internalType":"address"}]},{"type":"error","name":"ERC1967NonPayable","inputs":[]},{"type":"error","name":"EnforcedPause","inputs":[]},{"type":"error","name":"ExpectedPause","inputs":[]},{"type":"error","name":"FailedCall","inputs":[]},{"type":"error","name":"FeeTransferFailed","inputs":[{"name":"message","type":"string","internalType":"string"}]},{"type":"error","name":"FeesExceedMaximum","inputs":[{"name":"totalFees","type":"uint256","internalType":"uint256"},{"name":"maxFees","type":"uint256","internalType":"uint256"}]},{"type":"error","name":"InsufficientProtocolFeeBalance","inputs":[]},{"type":"error","name":"InsufficientRewardsBalance","inputs":[]},{"type":"error","name":"InvalidEthosProfileForVouch","inputs":[{"name":"ethosProfileId","type":"uint256","internalType":"uint256"}]},{"type":"error","name":"InvalidFeeMultiplier","inputs":[{"name":"newFee","type":"uint256","internalType":"uint256"}]},{"type":"error","name":"InvalidFeeProtocolAddress","inputs":[]},{"type":"error","name":"InvalidInitialization","inputs":[]},{"type":"error","name":"InvalidSignature","inputs":[]},{"type":"error","name":"InvalidSlashPercentage","inputs":[]},{"type":"error","name":"MaximumVouchesExceeded","inputs":[{"name":"vouches","type":"uint256","internalType":"uint256"},{"name":"message","type":"string","internalType":"string"}]},{"type":"error","name":"MinimumVouchAmount","inputs":[{"name":"amount","type":"uint256","internalType":"uint256"}]},{"type":"error","name":"NotAuthorForVouch","inputs":[{"name":"vouchId","type":"uint256","internalType":"uint256"},{"name":"user","type":"uint256","internalType":"uint256"}]},{"type":"error","name":"NotInitializing","inputs":[]},{"type":"error","name":"NotSlasher","inputs":[]},{"type":"error","name":"ProfileNotFoundForAddress","inputs":[{"name":"userAddress","type":"address","internalType":"address"}]},{"type":"error","name":"ReentrancyGuardReentrantCall","inputs":[]},{"type":"error","name":"SelfVouch","inputs":[{"name":"author","type":"uint256","internalType":"uint256"},{"name":"voucheeEthosProfileId","type":"uint256","internalType":"uint256"}]},{"type":"error","name":"SignatureWasUsed","inputs":[]},{"type":"error","name":"UUPSUnauthorizedCallContext","inputs":[]},{"type":"error","name":"UUPSUnsupportedProxiableUUID","inputs":[{"name":"slot","type":"bytes32","internalType":"bytes32"}]},{"type":"error","name":"VouchNotFound","inputs":[{"name":"vouchId","type":"uint256","internalType":"uint256"}]},{"type":"error","name":"WithdrawalFailed","inputs":[{"name":"data","type":"bytes","internalType":"bytes"},{"name":"message","type":"string","internalType":"string"}]},{"type":"error","name":"WrongSubjectProfileIdForVouch","inputs":[{"name":"vouchId","type":"uint256","internalType":"uint256"},{"name":"subjectProfileId","type":"uint256","internalType":"uint256"}]},{"type":"error","name":"ZeroAddress","inputs":[]}],"bytecode":{"object":"0x60a06040523461004157610011610045565b306080526001603655610022610045565b60405161479f9081610102823960805181818161266201526127680152f35b5f80fd5b7ff0c57e16840df040f15088dc2f81fe391c3923bec73e23a9662efc9c229c6a005460ff8160401c166100f2576002600160401b03196001600160401b0382160161008d5750565b6001600160401b0319166001600160401b039081177ff0c57e16840df040f15088dc2f81fe391c3923bec73e23a9662efc9c229c6a00556040519081527fc7f505b2f371ae2175ee4913f4499e1f2633a7b5936321eed1cdaeb6115181d290602090a1565b63f92ee8a960e01b5f5260045ffdfe6080806040526004361015610012575f80fd5b5f3560e01c90816301ffc9a7146132e9575080630723550f146132cc57806308473f641461328957806308b91ff8146132605780630adb6cdc146132315780631371f142146130da5780631785f53c14613056578063248a9ca3146130305780632bdd87ff14612fe55780632cb3e49414612fbe5780632e5ff09414612f8f5780632f2ff15d14612f5e57806336568abe14612f1a578063372500ab14612d385780633986de6a146129f25780633f4ba83a1461291e5780633fadfc0a146129015780634f1ef2861461272b578063502ff96b1461270e57806352368f2f146126b657806352d1902d146126505780635667981b146126045780635b201d83146125e85780635b63b05c146125905780635c975abb14612562578063626f78f21461250a57806366f1e306146124e75780636b7b91121461246757806370480275146123e357806375b238fc146123bc5780637bd4f28e146123345780638456cb59146122365780638691557314612219578063880cdc31146120fe5780638e5ec774146120e25780639010d07c1461209057806391d148541461203b57806398be1d9c14611fe35780639a4de7ea14611fc65780639c00ba4a14611a2b5780639d5091de1461187d578063a12c64b51461184a578063a217fddf14611830578063a22a64281461163e578063a3246ad314611583578063a817c68a14611498578063ac7e0f861461147e578063acedd27414611461578063ad3cb1cc1461141a578063ade9ae97146113f2578063b36fed5f146113d5578063b4846d84146112b5578063b6e7ec921461097a578063bb10c82914610920578063c3a1ed4814610334578063ca15c873146108ea578063cb2a7817146104f2578063cce516b7146104ca578063cde139561461048c578063d34790b61461046f578063d547741f14610437578063d745c07f14610408578063e2d31d5f146103b9578063e58378bb14610392578063f301af4214610368578063f570332a14610339578063fc69603c146103345763fde919f614610308575f80fd5b34610330575f366003190112610330576001546040516001600160a01b039091168152602090f35b5f80fd5b613676565b346103305761034736613382565b905f52604560205260405f20905f52602052602060405f2054604051908152f35b34610330576020366003190112610330576004355f526046602052602060405f2054604051908152f35b34610330575f3660031901126103305760206040515f8051602061464a8339815191528152f35b34610330576020366003190112610330576004356103d5613986565b6103dd613a5e565b655af3107a400081106103ef57603755005b633a4425f960e21b5f52655af3107a400060045260245ffd5b346103305761041636613382565b905f52604260205260405f20905f52602052602060405f2054604051908152f35b346103305760403660031901126103305761046d60043561045661336c565b90610468610463826136e9565b613a18565b613c0d565b005b34610330575f366003190112610330576020603e54604051908152f35b346103305761049a36613382565b905f52604360205260405f208054821015610330576020916104bb91613398565b90549060031b1c604051908152f35b34610330575f36600319011261033057603b546040516001600160a01b039091168152602090f35b346103305760203660031901126103305760043561050e613a5e565b610516613a5e565b61051e613a85565b805f52604060205260405f2061053382613ce3565b61053c82613ad4565b5f828152604060208190529020600201546001600160a01b031633036108b7575f90600160ff1982541617815542600982015560018101805480845260426020526105b26040852091600385019283548752602052604086205481875260416020526105ad604088209283836142e2565b61437b565b8154845260426020526040842081548552602052836040812055838080806004870196610609885480845260446020526040842088548552602052604084205481855260436020526105ad6040862092838361432f565b87548252604460205260408220865483526020528160408120558654825260456020526040822088548352602052816040812055600581019061065182548a548a5491613bd2565b50999091556002015488906001600160a01b03165af161066f613714565b50156108715760207f8b28de604075dff119c6b0dfaacbdb9785e71214b6494176e4f821a265f2585d91549254935494604051908152a460016036556106b3613a5e565b805f52604060205260405f206106fa602060018060a01b03600354166106d7613692565b90604051808095819463d57f7aa360e01b835286600484015260248301906135a1565b03915afa908115610839576024916020915f91610844575b5060405163b8861c2360e01b815233600482015292839182906001600160a01b03165afa908115610839575f91610807575b5061074e83613ce3565b825f52604060205260405f2061076b6009820154603954906136dc565b421190549060ff8216159182156107f9575b5081156107f1575b506107de576107949192613aa5565b61010061ff001982541617815542600a82015560038101549060046001820154910154917f1d43a4d386e31f83c3173b8bc4b3dc733d238461f3950205c74d34ea6db8161d5f80a4005b8263aa4b9a6560e01b5f5260045260245ffd5b905084610785565b60081c60ff1691508561077d565b90506020813d602011610831575b81610822602093836133e4565b81010312610330575183610744565b3d9150610815565b6040513d5f823e3d90fd5b6108649150823d841161086a575b61085c81836133e4565b8101906136bd565b85610712565b503d610852565b60405163123cc24f60e31b815260206004820152601c60248201527f4661696c656420746f2073656e642045544820746f20617574686f72000000006044820152606490fd5b50805f52604060205260018060a01b03600260405f20015416906308a5114760e41b5f526004523360245260445260645ffd5b34610330576020366003190112610330576004355f525f8051602061460a833981519152602052602060405f2054604051908152f35b34610330576020366003190112610330576004356001600160401b0381116103305760ff60208061095681943690600401613456565b604051928184925191829101835e8101600281520301902054166040519015158152f35b60603660031901126103305761098e613356565b6024356001600160401b038111610330576109ad903690600401613474565b6044929192356001600160401b038111610330576109cf903690600401613474565b9190936109db84613d1a565b6109e3613a5e565b6003546109fe906020906001600160a01b03166106d7613692565b03915afa908115610839575f91611296575b5060405163b8861c2360e01b81523360048201526001600160a01b039190911694602082602481895afa801561083957611264575b6040516389a9132b60e01b81526001600160a01b0390911660048201529460209150859060249082905afa938415610839575f9461122e575b50610acb9394610a8c613a5e565b610a94613a85565b6003546001600160a01b03166020610aaa613692565b6040518098819263d57f7aa360e01b835284600484015260248301906135a1565b0381845afa958615610839576024966020915f91611211575b5060405163b8861c2360e01b815233600482015297889182906001600160a01b03165afa958615610839575f966111dd575b508686146111c657855f52604160205260405f205490603a548092101561116e57871561115b576020610b4b916106d7613692565b03915afa908115610839576024916060915f9161113c575b50604051633b79ed1960e11b8152600481018b905292839182906001600160a01b03165afa8015610839575f905f925f916110e4575b5082156110ca575b50506110b757610bb1878761377e565b6110a057865f52604360205260405f20541015611048576037548034106110365750610bde858734613afd565b509260385494865f526041602052610bf98660405f206137d0565b865f52604160205260405f20545f19810190811161102257875f52604260205260405f20875f5260205260405f2055875f526043602052610c3d8660405f206137d0565b875f52604360205260405f20545f198101908111611022578887610cf3968893835f52604460205260405f20835f5260205260405f20558a5f52604560205260405f20835f526020528160405f20558a610d4f610d0260405199610ca08b6133ad565b428b525f60208c01525f60408c01526040519b8c95610cbe876133c8565b5f8752602087019b5f8d526040880196875260c06060890198338a52608081019a8b5260a081019b8c52019a8b523691613420565b9860e08d01998a523691613420565b976101008b019889526101208b01998a528c5f526040602052610d3860405f209b5115158c9060ff801983541691151516179055565b518a5461ff00191690151560081b61ff0016178a55565b516001890155516002880180546001600160a01b0319166001600160a01b039290921691909117905551600387015551600486015551600585015551805160068501916001600160401b038211610f50578190610dac84546134a1565b601f8111610fd2575b50602090601f8311600114610f6f575f92610f64575b50508160011b915f199060031b1c19161790555b51805160078401916001600160401b038211610f5057610dff83546134a1565b601f8111610f0b575b50602090601f8311600114610e9057936040959383600a9488945f805160206146aa8339815191529a985f92610e85575b50508160011b915f199060031b1c19161790555b51805160088501556020810151600985015501519101558151903482526020820152a4610e7b603854613819565b6038556001603655005b015190508d80610e39565b90601f19831691845f52815f20925f5b818110610ef35750846040989692945f805160206146aa8339815191529a98948a96600a9860019510610edb575b505050811b019055610e4d565b01515f1960f88460031b161c191690558d8080610ece565b92936020600181928786015181550195019301610ea0565b835f5260205f20601f840160051c81019160208510610f46575b601f0160051c01905b818110610f3b5750610e08565b5f8155600101610f2e565b9091508190610f25565b634e487b7160e01b5f52604160045260245ffd5b015190508a80610dcb565b5f8581528281209350601f198516905b818110610fba5750908460019594939210610fa2575b505050811b019055610ddf565b01515f1960f88460031b161c191690558a8080610f95565b92936020600181928786015181550195019301610f7f565b909150835f5260205f20601f840160051c81019160208510611018575b90601f859493920160051c01905b81811061100a5750610db5565b5f8155849350600101610ffd565b9091508190610fef565b634e487b7160e01b5f52601160045260245ffd5b633a4425f960e21b5f5260045260245ffd5b855f526043602052608460405f205460405190637dfb145560e11b8252600482015260406024820152601b60448201527f45786365656473207375626a65637420766f756368206c696d697400000000006064820152fd5b8686633d6ef0d360e21b5f5260045260245260445ffd5b86636a34893960e01b5f5260045260245ffd5b159150816110db575b508880610ba1565b905015886110d3565b925050506060813d606011611134575b81611101606093836133e4565b810103126103305761111281613707565b9061112b604061112460208401613707565b9201613707565b9190918a610b99565b3d91506110f4565b611155915060203d60201161086a5761085c81836133e4565b8a610b63565b87636a34893960e01b5f5260045260245ffd5b865f526041602052608460405f205460405190637dfb145560e11b8252600482015260406024820152601a60448201527f4578636565647320617574686f7220766f756368206c696d69740000000000006064820152fd5b868663625de82560e11b5f5260045260245260445ffd5b9095506020813d602011611209575b816111f9602093836133e4565b8101031261033057519487610b16565b3d91506111ec565b6112289150823d841161086a5761085c81836133e4565b89610ae4565b93506020843d60201161125c575b81611249602093836133e4565b8101031261033057610acb935193610a7e565b3d915061123c565b6020823d60201161128e575b8161127d602093836133e4565b810103126103305760209150610a45565b3d9150611270565b6112af915060203d60201161086a5761085c81836133e4565b86610a10565b34610330576040366003190112610330576113146112d161336c565b6112d9613827565b506003546020906001600160a01b03166112f1613692565b90604051808096819463d57f7aa360e01b835286600484015260248301906135a1565b03915afa918215610839575f926113b3575b5060405163b8861c2360e01b81526001600160a01b0391821660048201529160209183916024918391165afa908115610839575f9161137f575b61137b61136f8360043561388e565b604051918291826135c5565b0390f35b90506020813d6020116113ab575b8161139a602093836133e4565b81010312610330575161136f611360565b3d915061138d565b60209192506113ce90823d841161086a5761085c81836133e4565b9190611326565b34610330575f366003190112610330576020603c54604051908152f35b34610330575f366003190112610330576003546040516001600160a01b039091168152602090f35b34610330575f3660031901126103305761137b60405161143b6040826133e4565b60058152640352e302e360dc1b60208201526040519182916020835260208301906135a1565b34610330575f366003190112610330576020603854604051908152f35b346103305761137b61136f61149236613382565b9061388e565b34610330576020366003190112610330576004355f52604060205260ff60405f2080549061137b61156260018301549261155360018060a01b03600283015416600383015460048401546005850154916114f4600687016134d9565b9361150d600861150660078a016134d9565b9801613579565b996040519c8c8e82819f161515905260081c16151560208d015260408c015260608b015260808a015260a089015260c088015261018060e08801526101808701906135a1565b908582036101008701526135a1565b82516101208501526020830151610140850152604090920151610160840152565b34610330576020366003190112610330576004355f525f8051602061460a83398151915260205260405f20604051806020835491828152019081935f5260205f20905f5b81811061162857505050816115dd9103826133e4565b604051918291602083019060208452518091526040830191905f5b818110611606575050500390f35b82516001600160a01b03168452859450602093840193909201916001016115f8565b82548452602090930192600192830192016115c7565b346103305761164c36613382565b906064602060018060a01b03600354166040519283809263d57f7aa360e01b8252846004830152600760248301526629a620a9a422a960c91b60448301525afa908115610839575f91611811575b506001600160a01b03163303611802576116b2613a5e565b6116ba613a85565b6103e882116117f4575f91815f52604160205260405f205f5b8154811015611750576116e68183613398565b90549060031b1c5f52604060205260405f2060ff8154161561170c575b506001016116d3565b60050180549061171f61271086846143f4565b918261172d575b5050611703565b968291611740611747946001969a61380c565b90556136dc565b94908680611726565b82858581611797575b7f856bee22e79c8cadb8433b5c4953a46653e713608f53730229c38e534c8fb1cb604060209481519081528486820152a26001603655604051908152f35b5f8080808560018060a01b03603b54165af16117b1613714565b506117595760405163123cc24f60e31b815260206004820152601560248201527414db185cda081d1c985b9cd9995c8819985a5b1959605a1b6044820152606490fd5b62de051d60e61b5f5260045ffd5b63dabc4ad960e01b5f5260045ffd5b61182a915060203d60201161086a5761085c81836133e4565b8361169a565b34610330575f3660031901126103305760206040515f8152f35b34610330576020366003190112610330576004355f52604060205260406008815f20015415158151908082526020820152f35b3461033057602036600319011261033057600435611899613a5e565b6118a1613a85565b805f52604060205260405f206118b682613ce3565b6118bf82613ad4565b5f828152604060208190529020600201546001600160a01b031633036108b7575f90600160ff1982541617815542600982015560018101805480845260426020526119306040852091600385019283548752602052604086205481875260416020526105ad604088209283836142e2565b8154845260426020526040842081548552602052836040812055838080806004870196611987885480845260446020526040842088548552602052604084205481855260436020526105ad6040862092838361432f565b8754825260446020526040822086548352602052816040812055865482526045602052604082208854835260205281604081205560058101906119cf82548a548a5491613bd2565b50999091556002015488906001600160a01b03165af16119ed613714565b50156108715760207f8b28de604075dff119c6b0dfaacbdb9785e71214b6494176e4f821a265f2585d91549254935494604051908152a46001603655005b6060366003190112610330576004356024356001600160401b03811161033057611a59903690600401613474565b90604435916001600160401b03831161033057611a7d611a87933690600401613474565b9290610a8c613a5e565b0381845afa958615610839576024966020915f91611fa9575b5060405163b8861c2360e01b815233600482015297889182906001600160a01b03165afa958615610839575f96611f75575b508686146111c657855f52604160205260405f205490603a548092101561116e57871561115b576020611b07916106d7613692565b03915afa908115610839576024916060915f91611f56575b50604051633b79ed1960e11b8152600481018b905292839182906001600160a01b03165afa8015610839575f905f925f91611f05575b508215611eeb575b50506110b757611b6d878761377e565b6110a057865f52604360205260405f20541015611048576037548034106110365750611b9a858734613afd565b509260385494865f526041602052611bb58660405f206137d0565b865f52604160205260405f20545f19810190811161102257875f52604260205260405f20875f5260205260405f2055875f526043602052611bf98660405f206137d0565b875f52604360205260405f20545f198101908111611022578887610cf3968893835f52604460205260405f20835f5260205260405f20558a5f52604560205260405f20835f526020528160405f20558a611c5c610d0260405199610ca08b6133ad565b516001890155516002880180546001600160a01b0319166001600160a01b039290921691909117905551600387015551600486015551600585015551805160068501916001600160401b038211610f50578190611cb984546134a1565b601f8111611e9b575b50602090601f8311600114611e38575f92611e2d575b50508160011b915f199060031b1c19161790555b51805160078401916001600160401b038211610f5057611d0c83546134a1565b601f8111611de8575b50602090601f8311600114611d8657936040959383600a9488945f805160206146aa8339815191529a985f92610e855750508160011b915f199060031b1c191617905551805160088501556020810151600985015501519101558151903482526020820152a4610e7b603854613819565b90601f19831691845f52815f20925f5b818110611dd05750846040989692945f805160206146aa8339815191529a98948a96600a9860019510610edb57505050811b019055610e4d565b92936020600181928786015181550195019301611d96565b835f5260205f20601f840160051c81019160208510611e23575b601f0160051c01905b818110611e185750611d15565b5f8155600101611e0b565b9091508190611e02565b015190508a80611cd8565b5f8581528281209350601f198516905b818110611e835750908460019594939210611e6b575b505050811b019055611cec565b01515f1960f88460031b161c191690558a8080611e5e565b92936020600181928786015181550195019301611e48565b909150835f5260205f20601f840160051c81019160208510611ee1575b90601f859493920160051c01905b818110611ed35750611cc2565b5f8155849350600101611ec6565b9091508190611eb8565b15915081611efc575b508880611b5d565b90501588611ef4565b925050506060813d606011611f4e575b81611f22606093836133e4565b8101031261033057611f3381613707565b90611f45604061112460208401613707565b9190918a611b55565b3d9150611f15565b611f6f915060203d60201161086a5761085c81836133e4565b8a611b1f565b9095506020813d602011611fa1575b81611f91602093836133e4565b8101031261033057519487611ad2565b3d9150611f84565b611fc09150823d841161086a5761085c81836133e4565b89611aa0565b34610330575f366003190112610330576020603d54604051908152f35b34610330576020366003190112610330577fa9dd0e7d47437ea99fedf4542c134ab9c1e8d6a3355f6b0fc81841c24ddfe07b6020600435612022613986565b61202e81603d54613c95565b80603d55604051908152a1005b346103305760403660031901126103305761205461336c565b6004355f525f805160206146ca83398151915260205260405f209060018060a01b03165f52602052602060ff60405f2054166040519015158152f35b34610330576040366003190112610330576004355f525f8051602061460a83398151915260205260206120c960405f2060243590613398565b905460405160039290921b1c6001600160a01b03168152f35b34610330576020366003190112610330576004356106b3613a5e565b3461033057602036600319011261033057612117613356565b61211f6139cf565b5f8051602061464a8339815191525f525f8051602061460a8339815191526020525f8051602061472a833981519152805415612205575f90815260209020546001600160a01b031661217081613fc0565b6121c6575b5061217f816140f3565b61218557005b5f8051602061464a8339815191525f525f8051602061460a83398151915260205261046d906001600160a01b03165f8051602061472a833981519152614557565b5f8051602061464a8339815191525f525f8051602061460a8339815191526020526121fe905f8051602061472a8339815191526144a6565b5081612175565b634e487b7160e01b5f52603260045260245ffd5b34610330575f366003190112610330576020603f54604051908152f35b34610330575f36600319011261033057600354612261906020906001600160a01b03166106d7613743565b03915afa908115610839575f91612315575b50336001600160a01b03909116036122de5761228d613a5e565b600160ff195f805160206146ea8339815191525416175f805160206146ea833981519152557f62e78cea01bee320cd4e420270b5ea74000d11b0c9f74754ebdbfc544b05a2586020604051338152a1005b63e2517d3f60e01b5f52336004527f261fea28325784de45eba41a3fbb84c4196fbab02ee802566edfe26616ba5afb60245260445ffd5b61232e915060203d60201161086a5761085c81836133e4565b81612273565b3461033057602036600319011261033057600435612350613986565b612358613a5e565b610100811161236657603a55005b60a49060405190637dfb145560e11b8252600482015260406024820152602160448201527f4d6178696d756d20766f75636865732063616e6e6f74206578636565642032356064820152601b60f91b6084820152fd5b34610330575f3660031901126103305760206040515f8051602061470a8339815191528152f35b34610330576020366003190112610330576123fc613356565b6124046139cf565b61240d81614186565b61241357005b5f8051602061470a8339815191525f525f8051602061460a83398151915260205261046d906001600160a01b03167f46448fd7a7b40360a1323cb3199d0aafeb92ce905bb512a6bb7d3d3f685cf1b1614557565b3461033057602036600319011261033057612480613356565b6124886139cf565b6001600160a01b031680156124d8576020817f8d8b53938970adbc0746601e47c7fae038957c8cba773c77b7a4a36df468b67b926001600160601b0360a01b603b541617603b55604051908152a1005b6344a973b760e11b5f5260045ffd5b346103305760206125006124fa36613382565b9061377e565b6040519015158152f35b34610330576020366003190112610330577fb61039210d9c96923ed2c530e79d7be7aa95ddc2e105804f2d793c7b66a3b5e16020600435612549613986565b61255581603c54613c95565b80603c55604051908152a1005b34610330575f36600319011261033057602060ff5f805160206146ea83398151915254166040519015158152f35b34610330576020366003190112610330577f3c74ea171b2182d07fadf8e9e8a6ae80fb339ed21627f8f5a4639c6df337d3e260206004356125cf613986565b6125db81603f54613c95565b80603f55604051908152a1005b34610330575f3660031901126103305760206040516127108152f35b346103305760203660031901126103305761261d613356565b612625613986565b61262e81613d1a565b600180546001600160a01b0319166001600160a01b0392909216919091179055005b34610330575f366003190112610330577f00000000000000000000000000000000000000000000000000000000000000006001600160a01b031630036126a75760206040515f8051602061466a8339815191528152f35b63703e46dd60e11b5f5260045ffd5b34610330576020366003190112610330577f96184d3c69d6647eafda9cff46a6a303879e193fcf2a4ec6754aed974ca3db1060206004356126f5613986565b61270181603e54613c95565b80603e55604051908152a1005b34610330575f366003190112610330576020603a54604051908152f35b60403660031901126103305761273f613356565b6024356001600160401b0381116103305761275e903690600401613456565b6001600160a01b037f0000000000000000000000000000000000000000000000000000000000000000163081149081156128df575b506126a7576127a06139cf565b6127a982613d1a565b6040516352d1902d60e01b81526001600160a01b0383169290602081600481875afa5f91816128ab575b506127eb5783634c9c8ce360e01b5f5260045260245ffd5b805f8051602061466a8339815191528592036128995750813b15612887575f8051602061466a83398151915280546001600160a01b031916821790557fbc7cd75a20ee27fd9adebab32041f755214dbc6bffa90cc0225b39da2e5c2d3b5f80a281511561286f575f8083602061046d95519101845af4612869613714565b916145ab565b50503461287857005b63b398979f60e01b5f5260045ffd5b634c9c8ce360e01b5f5260045260245ffd5b632a87526960e21b5f5260045260245ffd5b9091506020813d6020116128d7575b816128c7602093836133e4565b81010312610330575190856127d3565b3d91506128ba565b5f8051602061466a833981519152546001600160a01b03161415905083612793565b34610330575f366003190112610330576020603954604051908152f35b34610330575f36600319011261033057600354612949906020906001600160a01b03166106d7613743565b03915afa908115610839575f916129d3575b50336001600160a01b03909116036122de575f805160206146ea8339815191525460ff8116156129c45760ff19165f805160206146ea833981519152557f5db9ee0a495bf2e6ff9c91a7834c1ba4fdd244a5e8aa4e537bd38aeae4b073aa6020604051338152a1005b638dfc202b60e01b5f5260045ffd5b6129ec915060203d60201161086a5761085c81836133e4565b8161295b565b346103305761014036600319011261033057612a0c613356565b612a1461336c565b60443591906001600160a01b0383168303610330576064356001600160a01b0381169390848103610330576084356001600160a01b03811694908590036103305760a4356001600160a01b0381169590869003610330575f8051602061474a833981519152549660ff8860401c1615976001600160401b03811680159081612d30575b6001149081612d26575b159081612d1d575b50612d0e5767ffffffffffffffff1981166001175f8051602061474a8339815191525588612ce2575b50612adb6142b7565b6001600160a01b0383169485158015612cd1575b8015612cc9575b612cba57612b5c94612b3191612b0a6142b7565b612b1381613d1a565b60018060a01b03166001600160601b0360a01b5f5416175f55613d1a565b6001600160601b0360a01b60015416176001556001600160601b0360a01b60035416176003556140f3565b612c7b575b50612b6b81614186565b612c20575b50612b796142b7565b80156124d8576001600160601b0360a01b603b541617603b5560c435603c5560e435603d5561010435603e5561012435603f55655af3107a4000603755610100603a5562015180603955612bc957005b68ff0000000000000000195f8051602061474a83398151915254165f8051602061474a833981519152557fc7f505b2f371ae2175ee4913f4499e1f2633a7b5936321eed1cdaeb6115181d2602060405160018152a1005b5f8051602061470a8339815191525f525f8051602061460a833981519152602052612c74906001600160a01b03167f46448fd7a7b40360a1323cb3199d0aafeb92ce905bb512a6bb7d3d3f685cf1b1614557565b5082612b70565b5f8051602061464a8339815191525f525f8051602061460a833981519152602052612cb3905f8051602061472a833981519152614557565b5083612b61565b63d92e233d60e01b5f5260045ffd5b508215612af6565b506001600160a01b03871615612aef565b68ffffffffffffffffff191668010000000000000001175f8051602061474a8339815191525588612ad2565b63f92ee8a960e01b5f5260045ffd5b9050158a612aa9565b303b159150612aa1565b8a9150612a97565b34610330575f36600319011261033057612d50613a5e565b612d58613a85565b600354612d73906020906001600160a01b03166106d7613692565b03915afa908115610839576024916080915f91612efb575b50604051634a5b307d60e01b815233600482015292839182906001600160a01b03165afa908115610839575f80915f93612e9f575b5015908115612e97575b50612e8457805f52604660205260405f20548015612e7557815f5260466020525f60408120555f80808084335af1612e00613714565b5015612e385760207f0fd71e1a24b0c2958f3dd4643783c66613d7548ee2689c4cc5a7651a971402a191604051908152a26001603655005b60405163123cc24f60e31b815260206004820152601460248201527314995dd85c991cc818db185a5b4819985a5b195960621b6044820152606490fd5b635772cb5960e11b5f5260045ffd5b63529f6aeb60e11b5f523360045260245ffd5b905082612dca565b925050506080813d608011612ef3575b81612ebc608093836133e4565b8101031261033057612ecd81613707565b612ed960208301613707565b506060612ee860408401613707565b920151919083612dc0565b3d9150612eaf565b612f14915060203d60201161086a5761085c81836133e4565b83612d8b565b3461033057604036600319011261033057612f3361336c565b336001600160a01b03821603612f4f5761046d90600435613c0d565b63334bd91960e11b5f5260045ffd5b346103305760403660031901126103305761046d600435612f7d61336c565b90612f8a610463826136e9565b613c53565b3461033057612f9d36613382565b905f52604460205260405f20905f52602052602060405f2054604051908152f35b34610330575f366003190112610330575f546040516001600160a01b039091168152602090f35b3461033057602036600319011261033057612ffe613356565b613006613986565b61300f81613d1a565b5f80546001600160a01b0319166001600160a01b0392909216919091179055005b3461033057602036600319011261033057602061304e6004356136e9565b604051908152f35b346103305760203660031901126103305761306f613356565b6130776139cf565b61308081613f2a565b61308657005b5f8051602061470a8339815191525f525f8051602061460a83398151915260205261046d906001600160a01b03167f46448fd7a7b40360a1323cb3199d0aafeb92ce905bb512a6bb7d3d3f685cf1b16144a6565b6020366003190112610330576004356130f1613a85565b6037548034106110365750600354613117906020906001600160a01b03166106d7613692565b03915afa908115610839576024916020915f91613214575b5060405163b8861c2360e01b815233600482015292839182906001600160a01b03165afa908115610839575f916131e2575b5061316c8183613aa5565b61317582613ad4565b815f526040602052600460405f200154917fbe50f0cc0cada0cf913ba88024e2867df78bcb199a86c624783aa9f63f82c1dc60406131b4848634613afd565b50835f52816020526005825f20016131cd8282546136dc565b90558151903482526020820152a46001603655005b90506020813d60201161320c575b816131fd602093836133e4565b81010312610330575182613161565b3d91506131f0565b61322b9150823d841161086a5761085c81836133e4565b8461312f565b346103305761323f36613382565b905f52604160205260405f208054821015610330576020916104bb91613398565b3461033057602036600319011261033057613279613986565b613281613a5e565b600435603955005b34610330576020366003190112610330576132a2613356565b6132aa613986565b600380546001600160a01b0319166001600160a01b0392909216919091179055005b34610330575f366003190112610330576020603754604051908152f35b34610330576020366003190112610330576004359063ffffffff60e01b821680920361033057602091635a05180f60e01b811490811561332b575b5015158152f35b637965db0b60e01b811491508115613345575b5083613324565b6301ffc9a760e01b1490508361333e565b600435906001600160a01b038216820361033057565b602435906001600160a01b038216820361033057565b6040906003190112610330576004359060243590565b8054821015612205575f5260205f2001905f90565b606081019081106001600160401b03821117610f5057604052565b61014081019081106001600160401b03821117610f5057604052565b90601f801991011681019081106001600160401b03821117610f5057604052565b6001600160401b038111610f5057601f01601f191660200190565b92919261342c82613405565b9161343a60405193846133e4565b829481845281830111610330578281602093845f960137010152565b9080601f830112156103305781602061347193359101613420565b90565b9181601f84011215610330578235916001600160401b038311610330576020838186019501011161033057565b90600182811c921680156134cf575b60208310146134bb57565b634e487b7160e01b5f52602260045260245ffd5b91607f16916134b0565b9060405191825f8254926134ec846134a1565b80845293600181169081156135575750600114613513575b50613511925003836133e4565b565b90505f9291925260205f20905f915b81831061353b575050906020613511928201015f613504565b6020919350806001915483858901015201910190918492613522565b90506020925061351194915060ff191682840152151560051b8201015f613504565b90604051613586816133ad565b60406002829480548452600181015460208501520154910152565b805180835260209291819084018484015e5f828201840152601f01601f1916010190565b61347190602081528251151560208201526020830151151560408201526040830151606082015260018060a01b036060840151166080820152608083015160a082015260a083015160c082015260c083015160e082015261014061012061365761364160e08701516101806101008701526101a08601906135a1565b610100870151858203601f1901848701526135a1565b9401519101906040809180518452602081015160208501520151910152565b34610330575f3660031901126103305760206040516103e88152f35b604051906136a16040836133e4565b600d82526c4554484f535f50524f46494c4560981b6020830152565b9081602091031261033057516001600160a01b03811681036103305790565b9190820180921161102257565b5f525f805160206146ca833981519152602052600160405f20015490565b5190811515820361033057565b3d1561373e573d9061372582613405565b9161373360405193846133e4565b82523d5f602084013e565b606090565b604051906137526040836133e4565b601982527f4554484f535f494e544552414354494f4e5f434f4e54524f4c000000000000006020830152565b805f52604560205260405f20825f5260205260405f20545f52604060205260405f209060018201541491826137c2575b50816137b8575090565b6009915001541590565b60048201541491505f6137ae565b805490600160401b821015610f5057816137f291600161380894018155613398565b819391549060031b91821b915f19901b19161790565b9055565b9190820391821161102257565b5f1981146110225760010190565b60405190613834826133c8565b815f81525f60208201525f60408201525f60608201525f60808201525f60a08201525f60c0820152606060e082015260606101008201526101206040519161387b836133ad565b5f83525f60208401525f60408401520152565b90613897613827565b50815f52604560205260405f20815f526020526138b960405f20549283613aa5565b815f52604060205280600460405f2001540361397057505f52604060205260405f206139676008604051926138ed846133c8565b805460ff8181161515865290831c16151560208501526001810154604085015260028101546001600160a01b0316606085015260038101546080850152600481015460a0850152600581015460c085015261394a600682016134d9565b60e085015261395b600782016134d9565b61010085015201613579565b61012082015290565b90634212788f60e01b5f5260045260245260445ffd5b335f9081525f8051602061462a833981519152602052604090205460ff16156139ab57565b63e2517d3f60e01b5f52336004525f8051602061470a83398151915260245260445ffd5b335f9081525f8051602061468a833981519152602052604090205460ff16156139f457565b63e2517d3f60e01b5f52336004525f8051602061464a83398151915260245260445ffd5b5f8181525f805160206146ca8339815191526020908152604080832033845290915290205460ff1615613a485750565b63e2517d3f60e01b5f523360045260245260445ffd5b60ff5f805160206146ea8339815191525416613a7657565b63d93c066560e01b5f5260045ffd5b600260365414613a96576002603655565b633ee5aeb560e01b5f5260045ffd5b805f52604060205281600160405f20015403613abf575050565b632145a39360e21b5f5260045260245260445ffd5b805f52604060205260ff60405f205416613aeb5750565b63e4ef536160e01b5f5260045260245ffd5b9291603c5493603d54613b1c613b1382886136dc565b603e54906136dc565b908115613bc657816127100180612710116110225782613b48613b42613b4f9387613d0d565b8661380c565b98896143f4565b91613b5a91886143f4565b92613b93948794613b7481613b6f868961380c565b61380c565b9380613bb7575b508181613ba7575b505082613b97575b50505061380c565b9190565b613ba092613ddb565b5f80613b8b565b613bb091613d96565b5f81613b83565b613bc090613d2a565b5f613b7b565b50509293505050905f90565b92915050603f5461271001806127101161102257613bfc613bf6613b939285613d0d565b8461380c565b8093811561380c57613b6f82613d2a565b613c178282614051565b9182613c2257505090565b5f9182525f8051602061460a8339815191526020526040909120613c4f916001600160a01b0316906144a6565b5090565b613c5d8282614219565b9182613c6857505090565b5f9182525f8051602061460a8339815191526020526040909120613c4f916001600160a01b031690614557565b613b6f613cbf92613cba613b13613cb1603c54603f54906136dc565b603d54906136dc565b6136dc565b6103e88111613ccb5750565b63bdd9af3960e01b5f526004526103e860245260445ffd5b805f526040602052600860405f20015415613cfb5750565b6362d97be560e11b5f5260045260245ffd5b90612710613471926143f4565b6001600160a01b031615612cba57565b603b545f918291829182916001600160a01b03165af1613d48613714565b5015613d5057565b60405163123cc24f60e31b815260206004820152601b60248201527f50726f746f636f6c20666565206465706f736974206661696c656400000000006044820152606490fd5b60207f197d09c3f6a1c74d6407de0ac61eba84272dfc73f05b859ae362baddfdd7bbf291835f526046825260405f20613dd08282546136dc565b9055604051908152a2565b90805f52604360205260405f20928354935f955f5b868110613ecd57508615613ec25784935f5b87811080613eb9575b15613e9d57613e1a8185613398565b90549060031b1c5f52604060205260405f2060ff8154161580613e8f575b613e4c575b50613e4790613819565b613e02565b600501805490613e5d8b838b6143f4565b9182613e6b575b5050613e3d565b978291613e7f613e8694613e47969b6136dc565b905561380c565b95905f80613e64565b508560018201541415613e38565b50939495509550505081613eb057505090565b61347191613d96565b50851515613e0b565b955050505050505f90565b613ed78184613398565b90549060031b1c5f52604060205260405f2060ff8154161580613f1c575b613f03575b50600101613df0565b600191986005613f15920154906136dc565b9790613efa565b508460018201541415613ef5565b6001600160a01b0381165f9081525f8051602061462a833981519152602052604090205460ff1615613fbb576001600160a01b03165f8181525f8051602061462a83398151915260205260408120805460ff191690553391905f8051602061470a833981519152907ff6391f5c32d9c69d2a47ea670b442974b53935d1edc7fd64eb21e047a839171b9080a4600190565b505f90565b6001600160a01b0381165f9081525f8051602061468a833981519152602052604090205460ff1615613fbb576001600160a01b03165f8181525f8051602061468a83398151915260205260408120805460ff191690553391905f8051602061464a833981519152907ff6391f5c32d9c69d2a47ea670b442974b53935d1edc7fd64eb21e047a839171b9080a4600190565b5f8181525f805160206146ca833981519152602090815260408083206001600160a01b038616845290915290205460ff16156140ed575f8181525f805160206146ca833981519152602090815260408083206001600160a01b0395909516808452949091528120805460ff19169055339291907ff6391f5c32d9c69d2a47ea670b442974b53935d1edc7fd64eb21e047a839171b9080a4600190565b50505f90565b6001600160a01b0381165f9081525f8051602061468a833981519152602052604090205460ff16613fbb576001600160a01b03165f8181525f8051602061468a83398151915260205260408120805460ff191660011790553391905f8051602061464a833981519152907f2f8788117e7eff1d82e926ec794901d17c78024a50270940304540a733656f0d9080a4600190565b6001600160a01b0381165f9081525f8051602061462a833981519152602052604090205460ff16613fbb576001600160a01b03165f8181525f8051602061462a83398151915260205260408120805460ff191660011790553391905f8051602061470a833981519152907f2f8788117e7eff1d82e926ec794901d17c78024a50270940304540a733656f0d9080a4600190565b5f8181525f805160206146ca833981519152602090815260408083206001600160a01b038616845290915290205460ff166140ed575f8181525f805160206146ca833981519152602090815260408083206001600160a01b0395909516808452949091528120805460ff19166001179055339291907f2f8788117e7eff1d82e926ec794901d17c78024a50270940304540a733656f0d9080a4600190565b60ff5f8051602061474a8339815191525460401c16156142d357565b631afcd79f60e31b5f5260045ffd5b919080545f198101908111611022578084106142ff575b50505050565b61430891613398565b90549060031b1c905f52604260205260405f20905f5260205260405f20555f8080806142f9565b919080545f1981019081116110225780841061434b5750505050565b61435491613398565b90549060031b1c905f52604460205260405f20905f5260205260405f20555f8080806142f9565b81545f198101908111611022578082106143cd575b5050805480156143b9575f1901906143a88282613398565b8154905f199060031b1b1916905555565b634e487b7160e01b5f52603160045260245ffd5b6137f26143dd6143eb9285613398565b90549060031b1c9284613398565b90555f80614390565b91818302915f1981850993838086109503948086039514614484578483111561446c5790829109815f0382168092046002816003021880820260020302808202600203028082026002030280820260020302808202600203028091026002030293600183805f03040190848311900302920304170290565b82634e487b715f52156003026011186020526024601cfd5b505080925015614492570490565b634e487b7160e01b5f52601260045260245ffd5b906001820191815f528260205260405f20548015155f1461454f575f1981018181116110225782545f198101919082116110225781810361451a575b505050805480156143b9575f1901906144fb8282613398565b8154905f199060031b1b19169055555f526020525f6040812055600190565b61453a61452a6137f29386613398565b90549060031b1c92839286613398565b90555f528360205260405f20555f80806144e2565b505050505f90565b6001810190825f528160205260405f2054155f146145a4578054600160401b811015610f50576145916137f2826001879401855584613398565b905554915f5260205260405f2055600190565b5050505f90565b906145cf57508051156145c057805190602001fd5b63d6bda27560e01b5f5260045ffd5b81511580614600575b6145e0575090565b639996b31560e01b5f9081526001600160a01b0391909116600452602490fd5b50803b156145d856fec1f6fe24621ce81ec5827caf0253cadb74709b061630e6b55e82371705932000b16e88c42fd4e48df2dd6a2eabd6bc9aec654ec170056b470819f8892cc6431cb19546dff01e856fb3f010c267a7b1c60363cf8a4664e21cc89c26224620214e360894a13ba1a3210667c828492db98dca3e2076cc3735a920a3ca505d382bbcc32d4dc01d07c436ad8a6f9a20eadd61263c71fe16f6b5956005ba3b341f51dda8c32c8d41712c25f951dc34a8740489675d881c099b5a1641efdec4d7a957d902dd7bc7dec4dceedda775e58dd541e08a116c6c53815c0bd028192f7b626800cd5ed15c6e187e77e9aee88184c21f4f2182ab5827cb3b7e07fbedcd63f03300a49807205ce4d355092ef5a8a18f56e8913cf4a201fbe287825b095693c21775008963063c520970ed64c693e920074e4588acd3631097247bb3559890ad6a67f0c57e16840df040f15088dc2f81fe391c3923bec73e23a9662efc9c229c6a00a26469706673582212206ca4706b513497a526cee7d0a967e7f7cc33b1a94112e44c7c8bbeecba8ab60864736f6c634300081a0033","linkReferences":{}},"methodIdentifiers":{"ADMIN_ROLE()":"75b238fc","BASIS_POINT_SCALE()":"5b201d83","DEFAULT_ADMIN_ROLE()":"a217fddf","MAX_SLASH_PERCENTAGE()":"fc69603c","MAX_TOTAL_FEES()":"c3a1ed48","OWNER_ROLE()":"e58378bb","UPGRADE_INTERFACE_VERSION()":"ad3cb1cc","addAdmin(address)":"70480275","claimRewards()":"372500ab","configuredMinimumVouchAmount()":"0723550f","contractAddressManager()":"ade9ae97","entryDonationFeeBasisPoints()":"9a4de7ea","entryProtocolFeeBasisPoints()":"b36fed5f","entryVouchersPoolFeeBasisPoints()":"d34790b6","exitFeeBasisPoints()":"86915573","expectedSigner()":"2cb3e494","getRoleAdmin(bytes32)":"248a9ca3","getRoleMember(bytes32,uint256)":"9010d07c","getRoleMemberCount(bytes32)":"ca15c873","getRoleMembers(bytes32)":"a3246ad3","grantRole(bytes32,address)":"2f2ff15d","hasRole(bytes32,address)":"91d14854","increaseVouch(uint256)":"1371f142","initialize(address,address,address,address,address,address,uint256,uint256,uint256,uint256)":"3986de6a","markUnhealthy(uint256)":"8e5ec774","maximumVouches()":"502ff96b","pause()":"8456cb59","paused()":"5c975abb","protocolFeeAddress()":"cce516b7","proxiableUUID()":"52d1902d","removeAdmin(address)":"1785f53c","renounceRole(bytes32,address)":"36568abe","revokeRole(bytes32,address)":"d547741f","rewards(uint256)":"f301af42","setEntryDonationFeeBasisPoints(uint256)":"98be1d9c","setEntryProtocolFeeBasisPoints(uint256)":"626f78f2","setEntryVouchersPoolFeeBasisPoints(uint256)":"52368f2f","setExitFeeBasisPoints(uint256)":"5b63b05c","setMinimumVouchAmount(uint256)":"e2d31d5f","setProtocolFeeAddress(address)":"6b7b9112","signatureUsed(bytes)":"bb10c829","signatureVerifier()":"fde919f6","slash(uint256,uint256)":"a22a6428","supportsInterface(bytes4)":"01ffc9a7","targetExistsAndAllowedForId(uint256)":"a12c64b5","unhealthyResponsePeriod()":"3fadfc0a","unpause()":"3f4ba83a","unvouch(uint256)":"9d5091de","unvouchUnhealthy(uint256)":"cb2a7817","updateContractAddressManager(address)":"08473f64","updateExpectedSigner(address)":"2bdd87ff","updateMaximumVouches(uint256)":"7bd4f28e","updateOwner(address)":"880cdc31","updateSignatureVerifier(address)":"5667981b","updateUnhealthyResponsePeriod(uint256)":"08b91ff8","upgradeToAndCall(address,bytes)":"4f1ef286","verifiedVouchByAuthorForSubjectAddress(uint256,address)":"b4846d84","verifiedVouchByAuthorForSubjectProfileId(uint256,uint256)":"ac7e0f86","vouchByAddress(address,string,string)":"b6e7ec92","vouchByProfileId(uint256,string,string)":"9c00ba4a","vouchCount()":"acedd274","vouchExistsFor(uint256,uint256)":"66f1e306","vouchIdByAuthorForSubjectProfileId(uint256,uint256)":"f570332a","vouchIdsByAuthor(uint256,uint256)":"0adb6cdc","vouchIdsByAuthorIndex(uint256,uint256)":"d745c07f","vouchIdsForSubjectProfileId(uint256,uint256)":"cde13956","vouchIdsForSubjectProfileIdIndex(uint256,uint256)":"2e5ff094","vouches(uint256)":"a817c68a"},"id":119}