{"abi":[{"type":"constructor","inputs":[],"stateMutability":"nonpayable"},{"type":"function","name":"ADMIN_ROLE","inputs":[],"outputs":[{"name":"","type":"bytes32","internalType":"bytes32"}],"stateMutability":"view"},{"type":"function","name":"DEFAULT_ADMIN_ROLE","inputs":[],"outputs":[{"name":"","type":"bytes32","internalType":"bytes32"}],"stateMutability":"view"},{"type":"function","name":"OWNER_ROLE","inputs":[],"outputs":[{"name":"","type":"bytes32","internalType":"bytes32"}],"stateMutability":"view"},{"type":"function","name":"UPGRADE_INTERFACE_VERSION","inputs":[],"outputs":[{"name":"","type":"string","internalType":"string"}],"stateMutability":"view"},{"type":"function","name":"addAdmin","inputs":[{"name":"admin","type":"address","internalType":"address"}],"outputs":[],"stateMutability":"nonpayable"},{"type":"function","name":"addInvites","inputs":[{"name":"user","type":"address","internalType":"address"},{"name":"amount","type":"uint256","internalType":"uint256"}],"outputs":[],"stateMutability":"nonpayable"},{"type":"function","name":"addInvitesBatch","inputs":[{"name":"users","type":"address[]","internalType":"address[]"},{"name":"amount","type":"uint256","internalType":"uint256"}],"outputs":[],"stateMutability":"nonpayable"},{"type":"function","name":"addressBelongsToProfile","inputs":[{"name":"addressStr","type":"address","internalType":"address"},{"name":"profileId","type":"uint256","internalType":"uint256"}],"outputs":[{"name":"","type":"bool","internalType":"bool"}],"stateMutability":"view"},{"type":"function","name":"addressesForProfile","inputs":[{"name":"profileId","type":"uint256","internalType":"uint256"}],"outputs":[{"name":"","type":"address[]","internalType":"address[]"}],"stateMutability":"view"},{"type":"function","name":"archiveProfile","inputs":[],"outputs":[],"stateMutability":"nonpayable"},{"type":"function","name":"assignExistingProfileToAttestation","inputs":[{"name":"attestationHash","type":"bytes32","internalType":"bytes32"},{"name":"profileId","type":"uint256","internalType":"uint256"}],"outputs":[],"stateMutability":"nonpayable"},{"type":"function","name":"bulkInviteAddresses","inputs":[{"name":"invitees","type":"address[]","internalType":"address[]"}],"outputs":[],"stateMutability":"nonpayable"},{"type":"function","name":"contractAddressManager","inputs":[],"outputs":[{"name":"","type":"address","internalType":"contract IContractAddressManager"}],"stateMutability":"view"},{"type":"function","name":"createProfile","inputs":[{"name":"inviterId","type":"uint256","internalType":"uint256"}],"outputs":[],"stateMutability":"nonpayable"},{"type":"function","name":"defaultNumberOfInvites","inputs":[],"outputs":[{"name":"","type":"uint256","internalType":"uint256"}],"stateMutability":"view"},{"type":"function","name":"deleteAddress","inputs":[{"name":"addressStr","type":"address","internalType":"address"},{"name":"markAsCompromised","type":"bool","internalType":"bool"}],"outputs":[],"stateMutability":"nonpayable"},{"type":"function","name":"deleteAddressAtIndex","inputs":[{"name":"addressIndex","type":"uint256","internalType":"uint256"},{"name":"markAsCompromised","type":"bool","internalType":"bool"}],"outputs":[],"stateMutability":"nonpayable"},{"type":"function","name":"expectedSigner","inputs":[],"outputs":[{"name":"","type":"address","internalType":"address"}],"stateMutability":"view"},{"type":"function","name":"getProfile","inputs":[{"name":"id","type":"uint256","internalType":"uint256"}],"outputs":[{"name":"profile","type":"tuple","internalType":"struct IEthosProfile.Profile","components":[{"name":"archived","type":"bool","internalType":"bool"},{"name":"profileId","type":"uint256","internalType":"uint256"},{"name":"createdAt","type":"uint256","internalType":"uint256"},{"name":"addresses","type":"address[]","internalType":"address[]"},{"name":"inviteInfo","type":"tuple","internalType":"struct IEthosProfile.InviteInfo","components":[{"name":"sent","type":"address[]","internalType":"address[]"},{"name":"acceptedIds","type":"uint256[]","internalType":"uint256[]"},{"name":"available","type":"uint256","internalType":"uint256"},{"name":"invitedBy","type":"uint256","internalType":"uint256"}]}]}],"stateMutability":"view"},{"type":"function","name":"getRoleAdmin","inputs":[{"name":"role","type":"bytes32","internalType":"bytes32"}],"outputs":[{"name":"","type":"bytes32","internalType":"bytes32"}],"stateMutability":"view"},{"type":"function","name":"getRoleMember","inputs":[{"name":"role","type":"bytes32","internalType":"bytes32"},{"name":"index","type":"uint256","internalType":"uint256"}],"outputs":[{"name":"","type":"address","internalType":"address"}],"stateMutability":"view"},{"type":"function","name":"getRoleMemberCount","inputs":[{"name":"role","type":"bytes32","internalType":"bytes32"}],"outputs":[{"name":"","type":"uint256","internalType":"uint256"}],"stateMutability":"view"},{"type":"function","name":"getRoleMembers","inputs":[{"name":"role","type":"bytes32","internalType":"bytes32"}],"outputs":[{"name":"","type":"address[]","internalType":"address[]"}],"stateMutability":"view"},{"type":"function","name":"grantRole","inputs":[{"name":"role","type":"bytes32","internalType":"bytes32"},{"name":"account","type":"address","internalType":"address"}],"outputs":[],"stateMutability":"nonpayable"},{"type":"function","name":"hasRole","inputs":[{"name":"role","type":"bytes32","internalType":"bytes32"},{"name":"account","type":"address","internalType":"address"}],"outputs":[{"name":"","type":"bool","internalType":"bool"}],"stateMutability":"view"},{"type":"function","name":"incrementProfileCount","inputs":[{"name":"isAttestation","type":"bool","internalType":"bool"},{"name":"subject","type":"address","internalType":"address"},{"name":"attestation","type":"bytes32","internalType":"bytes32"}],"outputs":[{"name":"profileId","type":"uint256","internalType":"uint256"}],"stateMutability":"nonpayable"},{"type":"function","name":"initialize","inputs":[{"name":"owner","type":"address","internalType":"address"},{"name":"admin","type":"address","internalType":"address"},{"name":"expectedSigner","type":"address","internalType":"address"},{"name":"signatureVerifier","type":"address","internalType":"address"},{"name":"contractAddressManagerAddr","type":"address","internalType":"address"}],"outputs":[],"stateMutability":"nonpayable"},{"type":"function","name":"inviteAddress","inputs":[{"name":"invitee","type":"address","internalType":"address"}],"outputs":[],"stateMutability":"nonpayable"},{"type":"function","name":"inviteInfoForProfileId","inputs":[{"name":"profileId","type":"uint256","internalType":"uint256"}],"outputs":[{"name":"","type":"tuple","internalType":"struct IEthosProfile.InviteInfo","components":[{"name":"sent","type":"address[]","internalType":"address[]"},{"name":"acceptedIds","type":"uint256[]","internalType":"uint256[]"},{"name":"available","type":"uint256","internalType":"uint256"},{"name":"invitedBy","type":"uint256","internalType":"uint256"}]}],"stateMutability":"view"},{"type":"function","name":"invitedIdsForProfile","inputs":[{"name":"profileId","type":"uint256","internalType":"uint256"}],"outputs":[{"name":"","type":"uint256[]","internalType":"uint256[]"}],"stateMutability":"view"},{"type":"function","name":"isAddressCompromised","inputs":[{"name":"","type":"address","internalType":"address"}],"outputs":[{"name":"","type":"bool","internalType":"bool"}],"stateMutability":"view"},{"type":"function","name":"maxNumberOfAddresses","inputs":[],"outputs":[{"name":"","type":"uint256","internalType":"uint256"}],"stateMutability":"view"},{"type":"function","name":"maxNumberOfInvites","inputs":[],"outputs":[{"name":"","type":"uint256","internalType":"uint256"}],"stateMutability":"view"},{"type":"function","name":"pause","inputs":[],"outputs":[],"stateMutability":"nonpayable"},{"type":"function","name":"paused","inputs":[],"outputs":[{"name":"","type":"bool","internalType":"bool"}],"stateMutability":"view"},{"type":"function","name":"profileCount","inputs":[],"outputs":[{"name":"","type":"uint256","internalType":"uint256"}],"stateMutability":"view"},{"type":"function","name":"profileExistsAndArchivedForId","inputs":[{"name":"profileId","type":"uint256","internalType":"uint256"}],"outputs":[{"name":"verified","type":"bool","internalType":"bool"},{"name":"archived","type":"bool","internalType":"bool"}],"stateMutability":"view"},{"type":"function","name":"profileIdByAddress","inputs":[{"name":"","type":"address","internalType":"address"}],"outputs":[{"name":"","type":"uint256","internalType":"uint256"}],"stateMutability":"view"},{"type":"function","name":"profileIdByAttestation","inputs":[{"name":"","type":"bytes32","internalType":"bytes32"}],"outputs":[{"name":"","type":"uint256","internalType":"uint256"}],"stateMutability":"view"},{"type":"function","name":"profileStatusByAddress","inputs":[{"name":"addressStr","type":"address","internalType":"address"}],"outputs":[{"name":"verified","type":"bool","internalType":"bool"},{"name":"archived","type":"bool","internalType":"bool"},{"name":"mock","type":"bool","internalType":"bool"},{"name":"profileId","type":"uint256","internalType":"uint256"}],"stateMutability":"view"},{"type":"function","name":"profileStatusById","inputs":[{"name":"profileId","type":"uint256","internalType":"uint256"}],"outputs":[{"name":"verified","type":"bool","internalType":"bool"},{"name":"archived","type":"bool","internalType":"bool"},{"name":"mock","type":"bool","internalType":"bool"}],"stateMutability":"view"},{"type":"function","name":"proxiableUUID","inputs":[],"outputs":[{"name":"","type":"bytes32","internalType":"bytes32"}],"stateMutability":"view"},{"type":"function","name":"registerAddress","inputs":[{"name":"addressStr","type":"address","internalType":"address"},{"name":"profileId","type":"uint256","internalType":"uint256"},{"name":"randValue","type":"uint256","internalType":"uint256"},{"name":"signature","type":"bytes","internalType":"bytes"}],"outputs":[],"stateMutability":"nonpayable"},{"type":"function","name":"removeAdmin","inputs":[{"name":"admin","type":"address","internalType":"address"}],"outputs":[],"stateMutability":"nonpayable"},{"type":"function","name":"renounceRole","inputs":[{"name":"role","type":"bytes32","internalType":"bytes32"},{"name":"callerConfirmation","type":"address","internalType":"address"}],"outputs":[],"stateMutability":"nonpayable"},{"type":"function","name":"restoreCompromisedAddress","inputs":[{"name":"addressStr","type":"address","internalType":"address"}],"outputs":[],"stateMutability":"nonpayable"},{"type":"function","name":"restoreProfile","inputs":[],"outputs":[],"stateMutability":"nonpayable"},{"type":"function","name":"revokeRole","inputs":[{"name":"role","type":"bytes32","internalType":"bytes32"},{"name":"account","type":"address","internalType":"address"}],"outputs":[],"stateMutability":"nonpayable"},{"type":"function","name":"sentAt","inputs":[{"name":"","type":"uint256","internalType":"uint256"},{"name":"","type":"address","internalType":"address"}],"outputs":[{"name":"","type":"uint256","internalType":"uint256"}],"stateMutability":"view"},{"type":"function","name":"sentInvitationsForProfile","inputs":[{"name":"profileId","type":"uint256","internalType":"uint256"}],"outputs":[{"name":"","type":"address[]","internalType":"address[]"}],"stateMutability":"view"},{"type":"function","name":"setDefaultNumberOfInvites","inputs":[{"name":"defaultInvites","type":"uint256","internalType":"uint256"}],"outputs":[],"stateMutability":"nonpayable"},{"type":"function","name":"setMaxAddresses","inputs":[{"name":"maxAddresses","type":"uint256","internalType":"uint256"}],"outputs":[],"stateMutability":"nonpayable"},{"type":"function","name":"setMaxInvites","inputs":[{"name":"maxInvites","type":"uint256","internalType":"uint256"}],"outputs":[],"stateMutability":"nonpayable"},{"type":"function","name":"signatureUsed","inputs":[{"name":"","type":"bytes","internalType":"bytes"}],"outputs":[{"name":"","type":"bool","internalType":"bool"}],"stateMutability":"view"},{"type":"function","name":"signatureVerifier","inputs":[],"outputs":[{"name":"","type":"address","internalType":"address"}],"stateMutability":"view"},{"type":"function","name":"supportsInterface","inputs":[{"name":"interfaceId","type":"bytes4","internalType":"bytes4"}],"outputs":[{"name":"","type":"bool","internalType":"bool"}],"stateMutability":"view"},{"type":"function","name":"targetExistsAndAllowedForId","inputs":[{"name":"targetId","type":"uint256","internalType":"uint256"}],"outputs":[{"name":"exist","type":"bool","internalType":"bool"},{"name":"allowed","type":"bool","internalType":"bool"}],"stateMutability":"view"},{"type":"function","name":"uninviteUser","inputs":[{"name":"user","type":"address","internalType":"address"}],"outputs":[],"stateMutability":"nonpayable"},{"type":"function","name":"unpause","inputs":[],"outputs":[],"stateMutability":"nonpayable"},{"type":"function","name":"updateContractAddressManager","inputs":[{"name":"contractAddressesAddr","type":"address","internalType":"address"}],"outputs":[],"stateMutability":"nonpayable"},{"type":"function","name":"updateExpectedSigner","inputs":[{"name":"signer","type":"address","internalType":"address"}],"outputs":[],"stateMutability":"nonpayable"},{"type":"function","name":"updateOwner","inputs":[{"name":"owner","type":"address","internalType":"address"}],"outputs":[],"stateMutability":"nonpayable"},{"type":"function","name":"updateSignatureVerifier","inputs":[{"name":"sinatureVerifier","type":"address","internalType":"address"}],"outputs":[],"stateMutability":"nonpayable"},{"type":"function","name":"upgradeToAndCall","inputs":[{"name":"newImplementation","type":"address","internalType":"address"},{"name":"data","type":"bytes","internalType":"bytes"}],"outputs":[],"stateMutability":"payable"},{"type":"function","name":"verifiedProfileIdForAddress","inputs":[{"name":"_address","type":"address","internalType":"address"}],"outputs":[{"name":"","type":"uint256","internalType":"uint256"}],"stateMutability":"view"},{"type":"event","name":"AddressClaim","inputs":[{"name":"profileId","type":"uint256","indexed":true,"internalType":"uint256"},{"name":"addr","type":"address","indexed":true,"internalType":"address"},{"name":"claim","type":"uint8","indexed":true,"internalType":"enum EthosProfile.AddressClaimStatus"}],"anonymous":false},{"type":"event","name":"DefaultInvitesChanged","inputs":[{"name":"defaultInvites","type":"uint256","indexed":false,"internalType":"uint256"}],"anonymous":false},{"type":"event","name":"Initialized","inputs":[{"name":"version","type":"uint64","indexed":false,"internalType":"uint64"}],"anonymous":false},{"type":"event","name":"InvitesAdded","inputs":[{"name":"profileId","type":"uint256","indexed":false,"internalType":"uint256"},{"name":"amount","type":"uint256","indexed":false,"internalType":"uint256"}],"anonymous":false},{"type":"event","name":"MockProfileCreated","inputs":[{"name":"mockId","type":"uint256","indexed":true,"internalType":"uint256"}],"anonymous":false},{"type":"event","name":"Paused","inputs":[{"name":"account","type":"address","indexed":false,"internalType":"address"}],"anonymous":false},{"type":"event","name":"ProfileArchived","inputs":[{"name":"profileId","type":"uint256","indexed":true,"internalType":"uint256"}],"anonymous":false},{"type":"event","name":"ProfileCreated","inputs":[{"name":"profileId","type":"uint256","indexed":true,"internalType":"uint256"},{"name":"addr","type":"address","indexed":true,"internalType":"address"}],"anonymous":false},{"type":"event","name":"ProfileRestored","inputs":[{"name":"profileId","type":"uint256","indexed":true,"internalType":"uint256"}],"anonymous":false},{"type":"event","name":"RoleAdminChanged","inputs":[{"name":"role","type":"bytes32","indexed":true,"internalType":"bytes32"},{"name":"previousAdminRole","type":"bytes32","indexed":true,"internalType":"bytes32"},{"name":"newAdminRole","type":"bytes32","indexed":true,"internalType":"bytes32"}],"anonymous":false},{"type":"event","name":"RoleGranted","inputs":[{"name":"role","type":"bytes32","indexed":true,"internalType":"bytes32"},{"name":"account","type":"address","indexed":true,"internalType":"address"},{"name":"sender","type":"address","indexed":true,"internalType":"address"}],"anonymous":false},{"type":"event","name":"RoleRevoked","inputs":[{"name":"role","type":"bytes32","indexed":true,"internalType":"bytes32"},{"name":"account","type":"address","indexed":true,"internalType":"address"},{"name":"sender","type":"address","indexed":true,"internalType":"address"}],"anonymous":false},{"type":"event","name":"Uninvited","inputs":[{"name":"inviterId","type":"uint256","indexed":false,"internalType":"uint256"},{"name":"inviterAddress","type":"address","indexed":false,"internalType":"address"},{"name":"remainingInvites","type":"uint256","indexed":false,"internalType":"uint256"},{"name":"uninvitedUser","type":"address","indexed":false,"internalType":"address"}],"anonymous":false},{"type":"event","name":"Unpaused","inputs":[{"name":"account","type":"address","indexed":false,"internalType":"address"}],"anonymous":false},{"type":"event","name":"Upgraded","inputs":[{"name":"implementation","type":"address","indexed":true,"internalType":"address"}],"anonymous":false},{"type":"event","name":"UserInvited","inputs":[{"name":"inviterID","type":"uint256","indexed":false,"internalType":"uint256"},{"name":"inviteeAddress","type":"address","indexed":false,"internalType":"address"}],"anonymous":false},{"type":"error","name":"AccessControlBadConfirmation","inputs":[]},{"type":"error","name":"AccessControlUnauthorizedAccount","inputs":[{"name":"account","type":"address","internalType":"address"},{"name":"neededRole","type":"bytes32","internalType":"bytes32"}]},{"type":"error","name":"AddressAlreadyInvited","inputs":[{"name":"profileId","type":"uint256","internalType":"uint256"},{"name":"user","type":"address","internalType":"address"}]},{"type":"error","name":"AddressAuthorization","inputs":[{"name":"userAddress","type":"address","internalType":"address"},{"name":"message","type":"string","internalType":"string"}]},{"type":"error","name":"AddressCompromised","inputs":[{"name":"user","type":"address","internalType":"address"}]},{"type":"error","name":"AddressEmptyCode","inputs":[{"name":"target","type":"address","internalType":"address"}]},{"type":"error","name":"AddressNotInvited","inputs":[]},{"type":"error","name":"ERC1967InvalidImplementation","inputs":[{"name":"implementation","type":"address","internalType":"address"}]},{"type":"error","name":"ERC1967NonPayable","inputs":[]},{"type":"error","name":"EnforcedPause","inputs":[]},{"type":"error","name":"ExpectedPause","inputs":[]},{"type":"error","name":"FailedCall","inputs":[]},{"type":"error","name":"IndexOutOfBounds","inputs":[]},{"type":"error","name":"InsufficientInvites","inputs":[{"name":"profileId","type":"uint256","internalType":"uint256"}]},{"type":"error","name":"InvalidIndex","inputs":[]},{"type":"error","name":"InvalidInitialization","inputs":[]},{"type":"error","name":"InvalidSender","inputs":[]},{"type":"error","name":"InvalidSignature","inputs":[]},{"type":"error","name":"MaxAddressesReached","inputs":[{"name":"profileId","type":"uint256","internalType":"uint256"}]},{"type":"error","name":"MaxInvitesReached","inputs":[{"name":"profileId","type":"uint256","internalType":"uint256"}]},{"type":"error","name":"NotInitializing","inputs":[]},{"type":"error","name":"ProfileAccess","inputs":[{"name":"profileId","type":"uint256","internalType":"uint256"},{"name":"message","type":"string","internalType":"string"}]},{"type":"error","name":"ProfileExists","inputs":[{"name":"profileId","type":"uint256","internalType":"uint256"}]},{"type":"error","name":"ProfileExistsForAddress","inputs":[{"name":"userAddress","type":"address","internalType":"address"}]},{"type":"error","name":"ProfileNotFound","inputs":[{"name":"profileId","type":"uint256","internalType":"uint256"}]},{"type":"error","name":"ProfileNotFoundForAddress","inputs":[{"name":"userAddress","type":"address","internalType":"address"}]},{"type":"error","name":"SignatureWasUsed","inputs":[]},{"type":"error","name":"UUPSUnauthorizedCallContext","inputs":[]},{"type":"error","name":"UUPSUnsupportedProxiableUUID","inputs":[{"name":"slot","type":"bytes32","internalType":"bytes32"}]},{"type":"error","name":"ZeroAddress","inputs":[]}],"bytecode":{"object":"0x60a06040523461003c57610011610040565b3060805261001d610040565b604051613a7b90816100fd82396080518181816117eb015261187d0152f35b5f80fd5b7ff0c57e16840df040f15088dc2f81fe391c3923bec73e23a9662efc9c229c6a005460ff8160401c166100ed576002600160401b03196001600160401b038216016100885750565b6001600160401b0319166001600160401b039081177ff0c57e16840df040f15088dc2f81fe391c3923bec73e23a9662efc9c229c6a00556040519081527fc7f505b2f371ae2175ee4913f4499e1f2633a7b5936321eed1cdaeb6115181d290602090a1565b63f92ee8a960e01b5f5260045ffdfe6080806040526004361015610012575f80fd5b5f3560e01c90816301ffc9a714612b875750806305c3d52214612b3d57806308473f6414612afa5780630db4a5bb146128d85780630fa5a1d41461287a57806310c7080114612835578063123a9e87146128185780631459457a146124c75780631785f53c146124435780631e95c11d146123d557806320d26736146122d2578063248a9ca3146122ac57806325d0b09e1461224c5780632bdd87ff146122015780632cb3e494146121da5780632f2ff15d146121a957806333bc3ccf14611fe157806334ca272c14611f9057806336568abe14611f4c5780633ba0a71814611bf75780633ba836a214611b7f5780633eb3ebd814611b525780633f4ba83a14611a7e5780634a5b307d14611a3d5780634f1ef2861461183f57806352d1902d146117d95780635667981b1461178d578063570f8554146115cf5780635c76577c146113e45780635c975abb146113b65780635d649cbe146112f0578063665de3cb146112c3578063704802751461123f57806375b238fc1461121857806376f3da32146111e15780637ca64266146111525780637dec74d7146111285780638456cb5914610ff3578063880cdc3114610ed857806389a9132b14610ea05780638bcebdb814610d305780639010d07c14610ce857806391d1485414610c93578063923160db14610c6f578063a12c64b514610c35578063a217fddf14610c1b578063a238f7b414610a75578063a3246ad3146109f9578063ad3cb1cc146109ba578063ade9ae9714610992578063b07b7e7f14610975578063b8861c2314610900578063bb10c829146108a5578063bd7029fd14610861578063c33b84f314610824578063ca15c873146107ee578063d1a44585146107a5578063d547741f1461076d578063e01290a1146104d4578063e58378bb146104ad578063eed38b8614610468578063ef43acef1461044b578063f08f4f6414610330578063f275cda9146103135763fde919f6146102e7575f80fd5b3461030f575f36600319011261030f576001546040516001600160a01b039091168152602090f35b5f80fd5b3461030f575f36600319011261030f576020603754604051908152f35b3461030f57602036600319011261030f5760043560405161035081612d37565b5f81525f60208201525f6040820152606080820152608061036f612e42565b9101528015801561043f575b61042d575f52603860205260405f2060405161039681612d37565b60ff8254161515815261042960018301549260208301938452610416600282015491604085019283526103de60046103d060038401612e66565b926060880193845201612f01565b92608086019384526040519687966020885251151560208801525160408701525160608601525160a0608086015260c0850190612bf4565b9051838203601f190160a0850152612c30565b0390f35b635595b91560e11b5f5260045260245ffd5b5060365481101561037b565b3461030f575f36600319011261030f576020603654604051908152f35b3461030f57602036600319011261030f576108006004356104876130fa565b61048f6131d2565b80603e551161049a57005b635a092a1d60e11b5f525f60045260245ffd5b3461030f575f36600319011261030f5760206040515f805160206139468339815191528152f35b3461030f57604036600319011261030f576104ed612c98565b6104f5612df3565b906104fe6131d2565b335f52603960205260405f20545f52604160205260405f209060018060a01b03165f5260205260405f2054906105326131d2565b335f52603960205260405f2054610548816130aa565b90911561075a578115610752575b5061070b57805f526038602052600360405f20019280845411156106fc5761057e8185612f90565b905460039190911b1c6001600160a01b0316923384146106b85761069c575b6105a78185612f90565b60018060a01b0391549060031b1c16908454945f198601958611610688576105ec6105d35f9783612f90565b905460039190911b1c6001600160a01b0316918361334b565b828103610656575b50503384526039602052604084205484526041602052604084209060018060a01b0316845260205282604081205581835260396020528260408120557fcdc318b415c4f74ecd1a3bbaf637fe42594b23d3e706bdea4031084fed4f6c738380a4005b3386526039602052604086205486526041602052604086209060018060a01b03168652602052604085205584806105f4565b634e487b7160e01b5f52601160045260245ffd5b825f52603a60205260405f20600160ff1982541617905561059d565b608484604051906366d2949d60e01b8252600482015260406024820152601560448201527420b2323932b9b9901e9e9036b9b39739b2b73232b960591b6064820152fd5b6363df817160e01b5f5260045ffd5b60408051630742992760e11b8152600481019290925260248201526013604482015272141c9bd99a5b19481a5cc8185c98da1a5d9959606a1b6064820152608490fd5b0390fd5b905084610556565b63529f6aeb60e11b5f523360045260245ffd5b3461030f57604036600319011261030f576107a360043561078c612cae565b9061079e61079982612f72565b61318c565b6132b3565b005b3461030f57602036600319011261030f576107be612c98565b6107c66130fa565b6107ce6131d2565b6001600160a01b03165f908152603a60205260409020805460ff19169055005b3461030f57602036600319011261030f576004355f525f80516020613906833981519152602052602060405f2054604051908152f35b3461030f57602036600319011261030f576001600160a01b03610845612c98565b165f52603a602052602060ff60405f2054166040519015158152f35b3461030f57604036600319011261030f5761087a612cae565b6004355f52603c60205260405f209060018060a01b03165f52602052602060405f2054604051908152f35b3461030f57602036600319011261030f5760043567ffffffffffffffff811161030f5760ff6020806108dc81943690600401612dad565b604051928184925191829101835e8101600281520301902054166040519015158152f35b3461030f57602036600319011261030f57610919612c98565b61092281613046565b921591821561096d575b508115610965575b5061094457602090604051908152f35b5063529f6aeb60e11b5f9081526001600160a01b0391909116600452602490fd5b905083610934565b91508461092c565b3461030f575f36600319011261030f576020603e54604051908152f35b3461030f575f36600319011261030f576003546040516001600160a01b039091168152602090f35b3461030f575f36600319011261030f576104296040516109db604082612d6f565b60058152640352e302e360dc1b602082015260405191829182612e18565b3461030f57602036600319011261030f576004355f525f8051602061390683398151915260205260405f206040519081602082549182815201915f5260205f20905f5b818110610a5f5761042985610a5381870382612d6f565b60405191829182612cf5565b8254845260209093019260019283019201610a3c565b3461030f57602036600319011261030f57610a8e612c98565b610a966131d2565b610a9f8161333b565b335f52603960205260405f205490815f52603860205260405f209160ff83541661070b57805f52603f60205260405f2060018060a01b0383165f5260205260405f2054926004810190815490818610801590610bf2575b610be3575f198201918211610688577fc99deea7564c4617f54b6c22cd96a31e991cc2f5524a5d19919cbeef7c4d2c6395608095610b52610b3960069587612f90565b905460039190911b1c6001600160a01b0316958361334b565b6001600160a01b031693848103610bbd575b5050835f52603f60205260405f20835f526020525f604081205501610b89815461309c565b8155825f52603c60205260405f20825f526020525f60408120555460405192835233602084015260408301526060820152a1005b855f52603f60205260405f209060018060a01b03165f5260205260405f20558680610b64565b63914f33db60e01b5f5260045ffd5b50610bfd8684612f90565b905460039190911b1c6001600160a01b039081169086161415610af6565b3461030f575f36600319011261030f5760206040515f8152f35b3461030f57602036600319011261030f576004355f9081526038602090815260409182902060020154825190151580825291810191909152f35b3461030f57604036600319011261030f57600435610c8b612df3565b6105326131d2565b3461030f57604036600319011261030f57610cac612cae565b6004355f525f805160206139a683398151915260205260405f209060018060a01b03165f52602052602060ff60405f2054166040519015158152f35b3461030f576020610d17610cfb36612e02565b905f525f80516020613906833981519152835260405f20612f90565b905460405160039290921b1c6001600160a01b03168152f35b3461030f57604036600319011261030f5760043567ffffffffffffffff811161030f57610d61903690600401612cc4565b60243591610d6d6130fa565b610d756131d2565b5f5b828110610d8057005b610d93610d8e828585612f41565b612f51565b610d9b6130fa565b610da36131d2565b610dac81613046565b939215918215610e98575b508115610e90575b50610e705750805f526038602052600660405f2001610ddf868254612f65565b90555f8181526038602052604090206006810154600490910154610e1d91610e079190612f65565b825f526038602052600560405f20015490612f65565b603e5410610e5e57907fac52b63ac21eb6a0502ba1afddeff39668a3e6c7ceb05367e6563c8bd14cd80560406001938151908152876020820152a101610d77565b635a092a1d60e11b5f5260045260245ffd5b63529f6aeb60e11b5f9081526001600160a01b0391909116600452602490fd5b905087610dbf565b915088610db7565b3461030f57602036600319011261030f576001600160a01b03610ec1612c98565b165f526039602052602060405f2054604051908152f35b3461030f57602036600319011261030f57610ef1612c98565b610ef9613143565b5f805160206139468339815191525f525f805160206139068339815191526020525f80516020613a06833981519152805415610fdf575f90815260209020546001600160a01b0316610f4a816134ab565b610fa0575b50610f59816135de565b610f5f57005b5f805160206139468339815191525f525f805160206139068339815191526020526107a3906001600160a01b03165f80516020613a06833981519152613853565b5f805160206139468339815191525f525f80516020613906833981519152602052610fd8905f80516020613a068339815191526137a2565b5081610f4f565b634e487b7160e01b5f52603260045260245ffd5b3461030f575f36600319011261030f5760035461103a906020906001600160a01b031661101e612fec565b90604051808095819463d57f7aa360e01b835260048301612e18565b03915afa90811561111d575f916110ee575b50336001600160a01b03909116036110b7576110666131d2565b600160ff195f805160206139c68339815191525416175f805160206139c6833981519152557f62e78cea01bee320cd4e420270b5ea74000d11b0c9f74754ebdbfc544b05a2586020604051338152a1005b63e2517d3f60e01b5f52336004527f261fea28325784de45eba41a3fbb84c4196fbab02ee802566edfe26616ba5afb60245260445ffd5b611110915060203d602011611116575b6111088183612d6f565b810190613027565b8161104c565b503d6110fe565b6040513d5f823e3d90fd5b3461030f57602036600319011261030f576004355f52603b602052602060405f2054604051908152f35b3461030f5761116036612e02565b90611179602060018060a01b036003541661101e61306d565b03915afa90811561111d575f916111c2575b506001600160a01b031633036111b3576111a36131d2565b5f52603b60205260405f20555f80f35b636edaef2f60e11b5f5260045ffd5b6111db915060203d602011611116576111088183612d6f565b8361118b565b3461030f57602036600319011261030f5760606111ff6004356130aa565b9060405192151583521515602083015215156040820152f35b3461030f575f36600319011261030f5760206040515f805160206139e68339815191528152f35b3461030f57602036600319011261030f57611258612c98565b611260613143565b61126981613671565b61126f57005b5f805160206139e68339815191525f525f805160206139068339815191526020526107a3906001600160a01b03167f46448fd7a7b40360a1323cb3199d0aafeb92ce905bb512a6bb7d3d3f685cf1b1613853565b3461030f57602036600319011261030f576004355f526038602052610429610a53600360405f2001612e66565b3461030f575f36600319011261030f576113086131d2565b61131133613046565b929190911561075a57159081156113ae575b5061136257805f52603860205260405f2060ff1981541690557fad0c07c6e15db6a51fed6c1d42d277ed0fa53f2eef0d1830c060c1cba8638adc5f80a2005b60849060405190630742992760e11b8252600482015260406024820152601760448201527f50726f66696c65206973206e6f742061726368697665640000000000000000006064820152fd5b905082611323565b3461030f575f36600319011261030f57602060ff5f805160206139c683398151915254166040519015158152f35b3461030f57602036600319011261030f576113fd612c98565b6114056131d2565b61140e8161333b565b6001600160a01b0381165f818152603a602052604090205490919060ff166115bc5761143933613046565b509091159182156115b4575b5081156115ac575b506111b35761145b81613046565b509050816115a3575b5061159057335f52603960205260405f2054805f526038602052600660405f2001541561157e57805f52603c60205260405f20835f5260205260405f205461156757805f526038602052600460405f200154815f52603f60205260405f20845f5260205260405f2055805f5260386020526114e582600460405f2001612fa5565b805f526038602052600660405f2001928354938415610688577f9c6d622696d829eae44c9559a6e96ae07091e9ca797bc02c35a7770dbcf04580945f19019055815f52603c60205260405f20905f5260205260405f20429055611562604051928392839092916020906040830194835260018060a01b0316910152565b0390a1005b905063330b0ff560e01b5f5260045260245260445ffd5b6314ac648360e21b5f5260045260245ffd5b50639e83c77d60e01b5f5260045260245ffd5b90501583611464565b90508361144d565b915084611445565b50630ad2d8d560e31b5f5260045260245ffd5b3461030f57606036600319011261030f57600435801515810361030f576115f4612cae565b906115fd6131d2565b60018060a01b036003541660409061164d6020835161161c8582612d6f565b600c81526b4554484f535f52455649455760a01b8282015284518093819263d57f7aa360e01b835260048301612e18565b0381855afa908115611783575f91611764575b506001600160a01b031633141590816116eb575b506111b357602092603654925f146116cf57506044355f52603b835281815f20555b6116a160365461309c565b6036555190807f3fd0c2393f291765470cc17997e368eb7ec635d8966232abd9d2016e8ad721cf5f80a28152f35b6001600160a01b03165f90815260398452819020829055611696565b61171691506020906116fb61306d565b908451808095819463d57f7aa360e01b835260048301612e18565b03915afa90811561175a575f9161173b575b506001600160a01b031633141584611674565b611754915060203d602011611116576111088183612d6f565b84611728565b82513d5f823e3d90fd5b61177d915060203d602011611116576111088183612d6f565b85611660565b83513d5f823e3d90fd5b3461030f57602036600319011261030f576117a6612c98565b6117ae6130fa565b6117b78161333b565b600180546001600160a01b0319166001600160a01b0392909216919091179055005b3461030f575f36600319011261030f577f00000000000000000000000000000000000000000000000000000000000000006001600160a01b031630036118305760206040515f805160206139668339815191528152f35b63703e46dd60e11b5f5260045ffd5b604036600319011261030f57611853612c98565b60243567ffffffffffffffff811161030f57611873903690600401612dad565b6001600160a01b037f000000000000000000000000000000000000000000000000000000000000000016308114908115611a1b575b50611830576118b5613143565b6118be8261333b565b6040516352d1902d60e01b81526001600160a01b0383169290602081600481875afa5f91816119e7575b506119005783634c9c8ce360e01b5f5260045260245ffd5b805f805160206139668339815191528592036119d55750813b156119c3575f8051602061396683398151915280546001600160a01b031916821790557fbc7cd75a20ee27fd9adebab32041f755214dbc6bffa90cc0225b39da2e5c2d3b5f80a28151156119ab575f808360206107a395519101845af43d156119a3573d9161198783612d91565b926119956040519485612d6f565b83523d5f602085013e6138a7565b6060916138a7565b5050346119b457005b63b398979f60e01b5f5260045ffd5b634c9c8ce360e01b5f5260045260245ffd5b632a87526960e21b5f5260045260245ffd5b9091506020813d602011611a13575b81611a0360209383612d6f565b8101031261030f575190856118e8565b3d91506119f6565b5f80516020613966833981519152546001600160a01b031614159050836118a8565b3461030f57602036600319011261030f576080611a60611a5b612c98565b613046565b91604051931515845215156020840152151560408301526060820152f35b3461030f575f36600319011261030f57600354611aa9906020906001600160a01b031661101e612fec565b03915afa90811561111d575f91611b33575b50336001600160a01b03909116036110b7575f805160206139c68339815191525460ff811615611b245760ff19165f805160206139c6833981519152557f5db9ee0a495bf2e6ff9c91a7834c1ba4fdd244a5e8aa4e537bd38aeae4b073aa6020604051338152a1005b638dfc202b60e01b5f5260045ffd5b611b4c915060203d602011611116576111088183612d6f565b81611abb565b3461030f57602036600319011261030f576004355f526038602052610429610a53600460405f2001612e66565b3461030f575f36600319011261030f57611b976131d2565b611ba033613046565b921561075a578115611bef575b5061070b57805f52603860205260405f20600160ff198254161790557fe2a74f634d4a5de5ebf5fc6985a469779d12830dd517ce1a08acb22847cdc3ee5f80a2005b905082611bad565b3461030f57608036600319011261030f57611c10612c98565b6024359060643567ffffffffffffffff811161030f573660238201121561030f5780600401359167ffffffffffffffff831161030f576024820191602484369201011161030f57611c5f6131d2565b611c688161333b565b6001600160a01b0381165f818152603a602052604090205490939060ff16611f3957335f5260396020528460405f20540361075a57611ca6856130aa565b909115611f26578115611f1e575b50611ed55784611cc383613046565b91505081929192611eca575b5050611eb75760405160208101906001600160601b03198460601b168252866034820152604435605482015260548152611d0a607482612d6f565b51902060ff6040518386823760208185810160028152030190205416611ea8576001545f54604051622ea33360e31b81526001600160a01b03918216600482015260248101939093526060604484015260648301849052602091839116848760848401375f6084868401015281608481601f19601f89011681010301915afa90811561111d575f91611e6d575b5015611e5e576020611dfc9382604051938492833781016002815203019020600160ff19825416179055835f526038602052600360405f200154845f52604160205260405f20845f5260205260405f2055835f526038602052600360405f2001612fa5565b805f5260396020528160405f2055815f526038602052600360405f200154603d5410611e4b576001917fcdc318b415c4f74ecd1a3bbaf637fe42594b23d3e706bdea4031084fed4f6c735f80a4005b5063b315b31d60e01b5f5260045260245ffd5b638baa579f60e01b5f5260045ffd5b90506020813d602011611ea0575b81611e8860209383612d6f565b8101031261030f5751801515810361030f5786611d97565b3d9150611e7b565b63858c8a1f60e01b5f5260045ffd5b83639e83c77d60e01b5f5260045260245ffd5b141590508587611ccf565b604051630742992760e11b81528061074e87600483016080918152604060208201526013604082015272141c9bd99a5b19481a5cc8185c98da1a5d9959606a1b60608201520190565b905086611cb4565b86635595b91560e11b5f5260045260245ffd5b83630ad2d8d560e31b5f5260045260245ffd5b3461030f57604036600319011261030f57611f65612cae565b336001600160a01b03821603611f81576107a3906004356132b3565b63334bd91960e11b5f5260045ffd5b3461030f57602036600319011261030f57611fac6004356130aa565b82919291611fd8575b82611fcf575b506040805191151582529115156020820152f35b15915082611fbb565b80159150611fb5565b3461030f57602036600319011261030f57600435611ffd6131d2565b335f52603a60205260ff60405f2054166121965761201a816130aa565b90911591821561218e575b508115612186575b506111b3575f818152603860209081526040808320603f8352818420338552909252909120546004909101805491828110801590612161575b610be3575f198301928311610688576120826120a29383612f90565b905460039190911b1c6001600160a01b031633810361213b575b5061334b565b805f52603f60205260405f2060018060a01b0333165f526020525f60408120556120cb336131f9565b90815f52603860205280600760405f2001555f526038602052600560405f2001805490600160401b821015612127578161210d91600161212394018155612f90565b819391549060031b91821b915f19901b19161790565b9055005b634e487b7160e01b5f52604160045260245ffd5b845f52603f60205260405f209060018060a01b03165f526020528060405f20558461209c565b5061216c8183612f90565b905460039190911b1c6001600160a01b0316331415612066565b90508261202d565b915083612025565b630ad2d8d560e31b5f523360045260245ffd5b3461030f57604036600319011261030f576107a36004356121c8612cae565b906121d561079982612f72565b6132f9565b3461030f575f36600319011261030f575f546040516001600160a01b039091168152602090f35b3461030f57602036600319011261030f5761221a612c98565b6122226130fa565b61222b8161333b565b5f80546001600160a01b0319166001600160a01b0392909216919091179055005b3461030f57604036600319011261030f576001600160a01b0361226d612c98565b16805f52603960205260405f20541561229a575f526039602052602060243560405f205414604051908152f35b63529f6aeb60e11b5f5260045260245ffd5b3461030f57602036600319011261030f5760206122ca600435612f72565b604051908152f35b3461030f57604036600319011261030f576122eb612c98565b6024356122f66130fa565b6122fe6131d2565b61230782613046565b9492159182156123cd575b5081156123c5575b50610e705750815f526038602052600660405f200161233a828254612f65565b90555f8281526038602052604090206006810154600490910154612378916123629190612f65565b835f526038602052600560405f20015490612f65565b603e54106123b2577fac52b63ac21eb6a0502ba1afddeff39668a3e6c7ceb05367e6563c8bd14cd8059160409182519182526020820152a1005b50635a092a1d60e11b5f5260045260245ffd5b90508461231a565b915085612312565b3461030f57602036600319011261030f576004355f5260386020526123ff600560405f2001612eb9565b6040518091602082016020835281518091526020604084019201905f5b81811061242a575050500390f35b825184528594506020938401939092019160010161241c565b3461030f57602036600319011261030f5761245c612c98565b612464613143565b61246d81613415565b61247357005b5f805160206139e68339815191525f525f805160206139068339815191526020526107a3906001600160a01b03167f46448fd7a7b40360a1323cb3199d0aafeb92ce905bb512a6bb7d3d3f685cf1b16137a2565b3461030f5760a036600319011261030f576124e0612c98565b6124e8612cae565b604435916001600160a01b038316830361030f576064356001600160a01b0381169390929084840361030f576084356001600160a01b0381169081900361030f575f80516020613a26833981519152549560ff8760401c16159667ffffffffffffffff811680159081612810575b6001149081612806575b1590816127fd575b506127ee5767ffffffffffffffff1981166001175f80516020613a2683398151915255876127c2575b5061259a6133ea565b6001600160a01b03851692831580156127b1575b80156127a9575b61279a57612651966125f0916125c96133ea565b6125d28161333b565b60018060a01b03166001600160601b0360a01b5f5416175f5561333b565b6001600160601b0360a01b60015416176001556001600160601b0360a01b600354161760035561261f836135de565b61275b575b5061262e81613671565b612700575b5061263c6133ea565b610800603e556080603d5560016036556131f9565b5060015f8190526038602052600a7f33a28b70ecab075fc507d0cb5ffac06e3bc912aa6c671a1fa4ccb48318e19b17557f33a28b70ecab075fc507d0cb5ffac06e3bc912aa6c671a1fa4ccb48318e19b18556126a957005b68ff0000000000000000195f80516020613a2683398151915254165f80516020613a26833981519152557fc7f505b2f371ae2175ee4913f4499e1f2633a7b5936321eed1cdaeb6115181d2602060405160018152a1005b5f805160206139e68339815191525f525f80516020613906833981519152602052612754906001600160a01b03167f46448fd7a7b40360a1323cb3199d0aafeb92ce905bb512a6bb7d3d3f685cf1b1613853565b5083612633565b5f805160206139468339815191525f525f80516020613906833981519152602052612793905f80516020613a06833981519152613853565b5084612624565b63d92e233d60e01b5f5260045ffd5b5082156125b5565b506001600160a01b038516156125ae565b68ffffffffffffffffff191668010000000000000001175f80516020613a268339815191525587612591565b63f92ee8a960e01b5f5260045ffd5b90501589612568565b303b159150612560565b899150612556565b3461030f575f36600319011261030f576020603d54604051908152f35b3461030f57602036600319011261030f576108006004356128546130fa565b61285c6131d2565b80603d551161286757005b63b315b31d60e01b5f525f60045260245ffd5b3461030f57602036600319011261030f576004356128966130fa565b61289e6131d2565b80603755603e54811161049a5760207f15aea1769167f83f5fc9ac1bedf10a18732f8a29fc4f74ba0b927418d12fa4ce91604051908152a1005b3461030f57602036600319011261030f5760043567ffffffffffffffff811161030f57612909903690600401612cc4565b906129126131d2565b5f5b82811061291d57005b61292b610d8e828585612f41565b906129346131d2565b61293d8261333b565b6001600160a01b0382165f818152603a602052604090205460ff16612ae85761296533613046565b50909115918215612ae0575b508115612ad8575b506111b35761298783613046565b50905081612acf575b50612abd57335f52603960205260405f205492835f526038602052600660405f20015415612aaa57835f52603c60205260405f20825f5260205260405f2054612a9357835f526038602052600460405f200154845f52603f60205260405f20835f5260205260405f2055835f526038602052612a1281600460405f2001612fa5565b835f526038602052600660405f2001938454928315610688575f19939093019094555f848152603c602090815260408083209483529381529083902042905582519485526001600160a01b0391909116908401526001927f9c6d622696d829eae44c9559a6e96ae07091e9ca797bc02c35a7770dbcf045809190a101612914565b508263330b0ff560e01b5f5260045260245260445ffd5b836314ac648360e21b5f5260045260245ffd5b639e83c77d60e01b5f5260045260245ffd5b90501586612990565b905086612979565b915087612971565b630ad2d8d560e31b5f5260045260245ffd5b3461030f57602036600319011261030f57612b13612c98565b612b1b6130fa565b600380546001600160a01b0319166001600160a01b0392909216919091179055005b3461030f57602036600319011261030f57612b56612e42565b506004355f526038602052610429612b73600460405f2001612f01565b604051918291602083526020830190612c30565b3461030f57602036600319011261030f576004359063ffffffff60e01b821680920361030f57602091635a05180f60e01b8114908115612bc9575b5015158152f35b637965db0b60e01b811491508115612be3575b5083612bc2565b6301ffc9a760e01b14905083612bdc565b90602080835192838152019201905f5b818110612c115750505090565b82516001600160a01b0316845260209384019390920191600101612c04565b90612c448251608083526080830190612bf4565b916020810151928281036020840152602080855192838152019401905f5b818110612c82575050506060816040829301516040850152015191015290565b8251865260209586019590920191600101612c62565b600435906001600160a01b038216820361030f57565b602435906001600160a01b038216820361030f57565b9181601f8401121561030f5782359167ffffffffffffffff831161030f576020808501948460051b01011161030f57565b60206040818301928281528451809452019201905f5b818110612d185750505090565b82516001600160a01b0316845260209384019390920191600101612d0b565b60a0810190811067ffffffffffffffff82111761212757604052565b6080810190811067ffffffffffffffff82111761212757604052565b90601f8019910116810190811067ffffffffffffffff82111761212757604052565b67ffffffffffffffff811161212757601f01601f191660200190565b81601f8201121561030f57803590612dc482612d91565b92612dd26040519485612d6f565b8284526020838301011161030f57815f926020809301838601378301015290565b60243590811515820361030f57565b604090600319011261030f576004359060243590565b602060409281835280519182918282860152018484015e5f828201840152601f01601f1916010190565b60405190612e4f82612d53565b5f6060838181528160208201528260408201520152565b90604051918281549182825260208201905f5260205f20925f5b818110612e97575050612e9592500383612d6f565b565b84546001600160a01b0316835260019485019487945060209093019201612e80565b90604051918281549182825260208201905f5260205f20925f5b818110612ee8575050612e9592500383612d6f565b8454835260019485019487945060209093019201612ed3565b90604051612f0e81612d53565b606060038294612f1d81612e66565b8452612f2b60018201612eb9565b6020850152600281015460408501520154910152565b9190811015610fdf5760051b0190565b356001600160a01b038116810361030f5790565b9190820180921161068857565b5f525f805160206139a6833981519152602052600160405f20015490565b8054821015610fdf575f5260205f2001905f90565b90815491600160401b8310156121275782612fc8916001612e9595018155612f90565b81546001600160a01b0393841660039290921b91821b9390911b1916919091179055565b60405190612ffb604083612d6f565b601982527f4554484f535f494e544552414354494f4e5f434f4e54524f4c000000000000006020830152565b9081602091031261030f57516001600160a01b038116810361030f5790565b6001600160a01b03165f90815260396020526040902054613066816130aa565b9193909290565b6040519061307c604083612d6f565b601182527022aa2427a9afa0aa2a22a9aa20aa24a7a760791b6020830152565b5f1981146106885760010190565b805f52603860205260405f209160018301541580158094816130ee575b509280151591826130e6575b50816130dd575090565b90506036541190565b91505f6130d3565b60ff915054165f6130c7565b335f9081525f80516020613926833981519152602052604090205460ff161561311f57565b63e2517d3f60e01b5f52336004525f805160206139e683398151915260245260445ffd5b335f9081525f80516020613986833981519152602052604090205460ff161561316857565b63e2517d3f60e01b5f52336004525f8051602061394683398151915260245260445ffd5b5f8181525f805160206139a68339815191526020908152604080832033845290915290205460ff16156131bc5750565b63e2517d3f60e01b5f523360045260245260445ffd5b60ff5f805160206139c683398151915254166131ea57565b63d93c066560e01b5f5260045ffd5b9061320382613046565b949290915015613220578363b62e454560e01b5f5260045260245ffd5b919290911561329d57905b6001600160a01b0381165f81815260396020908152604080832086905585835260389091529020600181018490554260028201556037546006820155909161327591600301612fa5565b817f9f150021d8fd04eb219a39e3019273bddf99a9a2e434dd2aa8132e32ea9244b05f80a390565b50603654906132ab8261309c565b60365561322b565b6132bd828261353c565b91826132c857505090565b5f9182525f8051602061390683398151915260205260409091206132f5916001600160a01b0316906137a2565b5090565b6133038282613704565b918261330e57505090565b5f9182525f8051602061390683398151915260205260409091206132f5916001600160a01b031690613853565b6001600160a01b03161561279a57565b815490818110156133db575f198201918211610688578181036133ab575b505080548015613397575f1901906133818282612f90565b81549060018060a01b039060031b1b1916905555565b634e487b7160e01b5f52603160045260245ffd5b612fc86133bb6133d49385612f90565b905460039190911b1c6001600160a01b03169184612f90565b5f80613369565b634e23d03560e01b5f5260045ffd5b60ff5f80516020613a268339815191525460401c161561340657565b631afcd79f60e31b5f5260045ffd5b6001600160a01b0381165f9081525f80516020613926833981519152602052604090205460ff16156134a6576001600160a01b03165f8181525f8051602061392683398151915260205260408120805460ff191690553391905f805160206139e6833981519152907ff6391f5c32d9c69d2a47ea670b442974b53935d1edc7fd64eb21e047a839171b9080a4600190565b505f90565b6001600160a01b0381165f9081525f80516020613986833981519152602052604090205460ff16156134a6576001600160a01b03165f8181525f8051602061398683398151915260205260408120805460ff191690553391905f80516020613946833981519152907ff6391f5c32d9c69d2a47ea670b442974b53935d1edc7fd64eb21e047a839171b9080a4600190565b5f8181525f805160206139a6833981519152602090815260408083206001600160a01b038616845290915290205460ff16156135d8575f8181525f805160206139a6833981519152602090815260408083206001600160a01b0395909516808452949091528120805460ff19169055339291907ff6391f5c32d9c69d2a47ea670b442974b53935d1edc7fd64eb21e047a839171b9080a4600190565b50505f90565b6001600160a01b0381165f9081525f80516020613986833981519152602052604090205460ff166134a6576001600160a01b03165f8181525f8051602061398683398151915260205260408120805460ff191660011790553391905f80516020613946833981519152907f2f8788117e7eff1d82e926ec794901d17c78024a50270940304540a733656f0d9080a4600190565b6001600160a01b0381165f9081525f80516020613926833981519152602052604090205460ff166134a6576001600160a01b03165f8181525f8051602061392683398151915260205260408120805460ff191660011790553391905f805160206139e6833981519152907f2f8788117e7eff1d82e926ec794901d17c78024a50270940304540a733656f0d9080a4600190565b5f8181525f805160206139a6833981519152602090815260408083206001600160a01b038616845290915290205460ff166135d8575f8181525f805160206139a6833981519152602090815260408083206001600160a01b0395909516808452949091528120805460ff19166001179055339291907f2f8788117e7eff1d82e926ec794901d17c78024a50270940304540a733656f0d9080a4600190565b906001820191815f528260205260405f20548015155f1461384b575f1981018181116106885782545f1981019190821161068857818103613816575b50505080548015613397575f1901906137f78282612f90565b8154905f199060031b1b19169055555f526020525f6040812055600190565b61383661382661210d9386612f90565b90549060031b1c92839286612f90565b90555f528360205260405f20555f80806137de565b505050505f90565b6001810190825f528160205260405f2054155f146138a0578054600160401b8110156121275761388d61210d826001879401855584612f90565b905554915f5260205260405f2055600190565b5050505f90565b906138cb57508051156138bc57805190602001fd5b63d6bda27560e01b5f5260045ffd5b815115806138fc575b6138dc575090565b639996b31560e01b5f9081526001600160a01b0391909116600452602490fd5b50803b156138d456fec1f6fe24621ce81ec5827caf0253cadb74709b061630e6b55e82371705932000b16e88c42fd4e48df2dd6a2eabd6bc9aec654ec170056b470819f8892cc6431cb19546dff01e856fb3f010c267a7b1c60363cf8a4664e21cc89c26224620214e360894a13ba1a3210667c828492db98dca3e2076cc3735a920a3ca505d382bbcc32d4dc01d07c436ad8a6f9a20eadd61263c71fe16f6b5956005ba3b341f51dd02dd7bc7dec4dceedda775e58dd541e08a116c6c53815c0bd028192f7b626800cd5ed15c6e187e77e9aee88184c21f4f2182ab5827cb3b7e07fbedcd63f03300a49807205ce4d355092ef5a8a18f56e8913cf4a201fbe287825b095693c21775008963063c520970ed64c693e920074e4588acd3631097247bb3559890ad6a67f0c57e16840df040f15088dc2f81fe391c3923bec73e23a9662efc9c229c6a00a26469706673582212203d7231b8a7c5e6c957e81430ddd10b9dfda186f18beae2b6dc6ded76d792648564736f6c634300081a0033","linkReferences":{}},"methodIdentifiers":{"ADMIN_ROLE()":"75b238fc","DEFAULT_ADMIN_ROLE()":"a217fddf","OWNER_ROLE()":"e58378bb","UPGRADE_INTERFACE_VERSION()":"ad3cb1cc","addAdmin(address)":"70480275","addInvites(address,uint256)":"20d26736","addInvitesBatch(address[],uint256)":"8bcebdb8","addressBelongsToProfile(address,uint256)":"25d0b09e","addressesForProfile(uint256)":"665de3cb","archiveProfile()":"3ba836a2","assignExistingProfileToAttestation(bytes32,uint256)":"7ca64266","bulkInviteAddresses(address[])":"0db4a5bb","contractAddressManager()":"ade9ae97","createProfile(uint256)":"33bc3ccf","defaultNumberOfInvites()":"f275cda9","deleteAddress(address,bool)":"e01290a1","deleteAddressAtIndex(uint256,bool)":"923160db","expectedSigner()":"2cb3e494","getProfile(uint256)":"f08f4f64","getRoleAdmin(bytes32)":"248a9ca3","getRoleMember(bytes32,uint256)":"9010d07c","getRoleMemberCount(bytes32)":"ca15c873","getRoleMembers(bytes32)":"a3246ad3","grantRole(bytes32,address)":"2f2ff15d","hasRole(bytes32,address)":"91d14854","incrementProfileCount(bool,address,bytes32)":"570f8554","initialize(address,address,address,address,address)":"1459457a","inviteAddress(address)":"5c76577c","inviteInfoForProfileId(uint256)":"05c3d522","invitedIdsForProfile(uint256)":"1e95c11d","isAddressCompromised(address)":"c33b84f3","maxNumberOfAddresses()":"123a9e87","maxNumberOfInvites()":"b07b7e7f","pause()":"8456cb59","paused()":"5c975abb","profileCount()":"ef43acef","profileExistsAndArchivedForId(uint256)":"34ca272c","profileIdByAddress(address)":"89a9132b","profileIdByAttestation(bytes32)":"7dec74d7","profileStatusByAddress(address)":"4a5b307d","profileStatusById(uint256)":"76f3da32","proxiableUUID()":"52d1902d","registerAddress(address,uint256,uint256,bytes)":"3ba0a718","removeAdmin(address)":"1785f53c","renounceRole(bytes32,address)":"36568abe","restoreCompromisedAddress(address)":"d1a44585","restoreProfile()":"5d649cbe","revokeRole(bytes32,address)":"d547741f","sentAt(uint256,address)":"bd7029fd","sentInvitationsForProfile(uint256)":"3eb3ebd8","setDefaultNumberOfInvites(uint256)":"0fa5a1d4","setMaxAddresses(uint256)":"10c70801","setMaxInvites(uint256)":"eed38b86","signatureUsed(bytes)":"bb10c829","signatureVerifier()":"fde919f6","supportsInterface(bytes4)":"01ffc9a7","targetExistsAndAllowedForId(uint256)":"a12c64b5","uninviteUser(address)":"a238f7b4","unpause()":"3f4ba83a","updateContractAddressManager(address)":"08473f64","updateExpectedSigner(address)":"2bdd87ff","updateOwner(address)":"880cdc31","updateSignatureVerifier(address)":"5667981b","upgradeToAndCall(address,bytes)":"4f1ef286","verifiedProfileIdForAddress(address)":"b8861c23"},"id":116}