{"abi":[{"type":"function","name":"expectedSigner","inputs":[],"outputs":[{"name":"","type":"address","internalType":"address"}],"stateMutability":"view"},{"type":"function","name":"shouldFail","inputs":[],"outputs":[],"stateMutability":"nonpayable"},{"type":"function","name":"signatureUsed","inputs":[{"name":"","type":"bytes","internalType":"bytes"}],"outputs":[{"name":"","type":"bool","internalType":"bool"}],"stateMutability":"view"},{"type":"function","name":"signatureVerifier","inputs":[],"outputs":[{"name":"","type":"address","internalType":"address"}],"stateMutability":"view"},{"type":"event","name":"Initialized","inputs":[{"name":"version","type":"uint64","indexed":false,"internalType":"uint64"}],"anonymous":false},{"type":"error","name":"InvalidInitialization","inputs":[]},{"type":"error","name":"InvalidSignature","inputs":[]},{"type":"error","name":"NotInitializing","inputs":[]},{"type":"error","name":"SignatureWasUsed","inputs":[]},{"type":"error","name":"ZeroAddress","inputs":[]}],"bytecode":{"object":"0x60808060405234601557610202908161001a8239f35b5f80fdfe6080806040526004361015610012575f80fd5b5f3560e01c9081632cb3e494146101aa57508063678d22041461013d578063bb10c829146100745763fde919f614610048575f80fd5b34610070575f366003190112610070576001546040516001600160a01b039091168152602090f35b5f80fd5b346100705760203660031901126100705760043567ffffffffffffffff8111610070573660238201121561007057806004013567ffffffffffffffff81116101295760405191601f8201601f19908116603f0116830167ffffffffffffffff8111848210176101295760405281835260208301903660248483010111610070576020935f858560ff966024839601873783010152604051928391518091835e8101600281520301902054166040519015158152f35b634e487b7160e01b5f52604160045260245ffd5b34610070575f3660031901126100705760ff7ff0c57e16840df040f15088dc2f81fe391c3923bec73e23a9662efc9c229c6a005460401c161561019b575f80546001600160a01b031990811660019081179092558154166002179055005b631afcd79f60e31b5f5260045ffd5b34610070575f366003190112610070575f546001600160a01b03168152602090f3fea264697066735822122032949557890d0774845faf538d0e4057fb38a84100743cc631b547fb438cdc5c64736f6c634300081a0033","linkReferences":{}},"methodIdentifiers":{"expectedSigner()":"2cb3e494","shouldFail()":"678d2204","signatureUsed(bytes)":"bb10c829","signatureVerifier()":"fde919f6"},"id":143}