{"abi":[{"type":"constructor","inputs":[],"stateMutability":"nonpayable"},{"type":"function","name":"ADMIN_ROLE","inputs":[],"outputs":[{"name":"","type":"bytes32","internalType":"bytes32"}],"stateMutability":"view"},{"type":"function","name":"DEFAULT_ADMIN_ROLE","inputs":[],"outputs":[{"name":"","type":"bytes32","internalType":"bytes32"}],"stateMutability":"view"},{"type":"function","name":"OWNER_ROLE","inputs":[],"outputs":[{"name":"","type":"bytes32","internalType":"bytes32"}],"stateMutability":"view"},{"type":"function","name":"UPGRADE_INTERFACE_VERSION","inputs":[],"outputs":[{"name":"","type":"string","internalType":"string"}],"stateMutability":"view"},{"type":"function","name":"addAdmin","inputs":[{"name":"admin","type":"address","internalType":"address"}],"outputs":[],"stateMutability":"nonpayable"},{"type":"function","name":"archiveAttestation","inputs":[{"name":"attestationHash","type":"bytes32","internalType":"bytes32"}],"outputs":[],"stateMutability":"nonpayable"},{"type":"function","name":"attestationByHash","inputs":[{"name":"attestationHash","type":"bytes32","internalType":"bytes32"}],"outputs":[{"name":"","type":"tuple","internalType":"struct IEthosAttestation.Attestation","components":[{"name":"archived","type":"bool","internalType":"bool"},{"name":"attestationId","type":"uint256","internalType":"uint256"},{"name":"profileId","type":"uint256","internalType":"uint256"},{"name":"createdAt","type":"uint256","internalType":"uint256"},{"name":"account","type":"string","internalType":"string"},{"name":"service","type":"string","internalType":"string"}]}],"stateMutability":"view"},{"type":"function","name":"attestationById","inputs":[{"name":"","type":"uint256","internalType":"uint256"}],"outputs":[{"name":"archived","type":"bool","internalType":"bool"},{"name":"attestationId","type":"uint256","internalType":"uint256"},{"name":"profileId","type":"uint256","internalType":"uint256"},{"name":"createdAt","type":"uint256","internalType":"uint256"},{"name":"account","type":"string","internalType":"string"},{"name":"service","type":"string","internalType":"string"}],"stateMutability":"view"},{"type":"function","name":"attestationCount","inputs":[],"outputs":[{"name":"","type":"uint256","internalType":"uint256"}],"stateMutability":"view"},{"type":"function","name":"attestationExistsForHash","inputs":[{"name":"attestationHash","type":"bytes32","internalType":"bytes32"}],"outputs":[{"name":"","type":"bool","internalType":"bool"}],"stateMutability":"view"},{"type":"function","name":"attestationHashesByProfileId","inputs":[{"name":"","type":"uint256","internalType":"uint256"},{"name":"","type":"uint256","internalType":"uint256"}],"outputs":[{"name":"","type":"bytes32","internalType":"bytes32"}],"stateMutability":"view"},{"type":"function","name":"attestationIdByHash","inputs":[{"name":"","type":"bytes32","internalType":"bytes32"}],"outputs":[{"name":"","type":"uint256","internalType":"uint256"}],"stateMutability":"view"},{"type":"function","name":"contractAddressManager","inputs":[],"outputs":[{"name":"","type":"address","internalType":"contract IContractAddressManager"}],"stateMutability":"view"},{"type":"function","name":"createAttestation","inputs":[{"name":"profileId","type":"uint256","internalType":"uint256"},{"name":"randValue","type":"uint256","internalType":"uint256"},{"name":"attestationDetails","type":"tuple","internalType":"struct AttestationDetails","components":[{"name":"account","type":"string","internalType":"string"},{"name":"service","type":"string","internalType":"string"}]},{"name":"evidence","type":"string","internalType":"string"},{"name":"signature","type":"bytes","internalType":"bytes"}],"outputs":[],"stateMutability":"nonpayable"},{"type":"function","name":"expectedSigner","inputs":[],"outputs":[{"name":"","type":"address","internalType":"address"}],"stateMutability":"view"},{"type":"function","name":"getAttestationByHash","inputs":[{"name":"_hash","type":"bytes32","internalType":"bytes32"}],"outputs":[{"name":"attestation","type":"tuple","internalType":"struct IEthosAttestation.Attestation","components":[{"name":"archived","type":"bool","internalType":"bool"},{"name":"attestationId","type":"uint256","internalType":"uint256"},{"name":"profileId","type":"uint256","internalType":"uint256"},{"name":"createdAt","type":"uint256","internalType":"uint256"},{"name":"account","type":"string","internalType":"string"},{"name":"service","type":"string","internalType":"string"}]}],"stateMutability":"view"},{"type":"function","name":"getAttestationHashesByProfileId","inputs":[{"name":"profileId","type":"uint256","internalType":"uint256"}],"outputs":[{"name":"","type":"bytes32[]","internalType":"bytes32[]"}],"stateMutability":"view"},{"type":"function","name":"getAttestationIndexByProfileIdAndHash","inputs":[{"name":"profileId","type":"uint256","internalType":"uint256"},{"name":"attestationHash","type":"bytes32","internalType":"bytes32"}],"outputs":[{"name":"","type":"uint256","internalType":"uint256"}],"stateMutability":"view"},{"type":"function","name":"getRoleAdmin","inputs":[{"name":"role","type":"bytes32","internalType":"bytes32"}],"outputs":[{"name":"","type":"bytes32","internalType":"bytes32"}],"stateMutability":"view"},{"type":"function","name":"getRoleMember","inputs":[{"name":"role","type":"bytes32","internalType":"bytes32"},{"name":"index","type":"uint256","internalType":"uint256"}],"outputs":[{"name":"","type":"address","internalType":"address"}],"stateMutability":"view"},{"type":"function","name":"getRoleMemberCount","inputs":[{"name":"role","type":"bytes32","internalType":"bytes32"}],"outputs":[{"name":"","type":"uint256","internalType":"uint256"}],"stateMutability":"view"},{"type":"function","name":"getRoleMembers","inputs":[{"name":"role","type":"bytes32","internalType":"bytes32"}],"outputs":[{"name":"","type":"address[]","internalType":"address[]"}],"stateMutability":"view"},{"type":"function","name":"getServiceAndAccountHash","inputs":[{"name":"service","type":"string","internalType":"string"},{"name":"account","type":"string","internalType":"string"}],"outputs":[{"name":"","type":"bytes32","internalType":"bytes32"}],"stateMutability":"pure"},{"type":"function","name":"grantRole","inputs":[{"name":"role","type":"bytes32","internalType":"bytes32"},{"name":"account","type":"address","internalType":"address"}],"outputs":[],"stateMutability":"nonpayable"},{"type":"function","name":"hasRole","inputs":[{"name":"role","type":"bytes32","internalType":"bytes32"},{"name":"account","type":"address","internalType":"address"}],"outputs":[{"name":"","type":"bool","internalType":"bool"}],"stateMutability":"view"},{"type":"function","name":"initialize","inputs":[{"name":"owner","type":"address","internalType":"address"},{"name":"admin","type":"address","internalType":"address"},{"name":"expectedSigner","type":"address","internalType":"address"},{"name":"signatureVerifier","type":"address","internalType":"address"},{"name":"contractAddressManagerAddr","type":"address","internalType":"address"}],"outputs":[],"stateMutability":"nonpayable"},{"type":"function","name":"pause","inputs":[],"outputs":[],"stateMutability":"nonpayable"},{"type":"function","name":"paused","inputs":[],"outputs":[{"name":"","type":"bool","internalType":"bool"}],"stateMutability":"view"},{"type":"function","name":"proxiableUUID","inputs":[],"outputs":[{"name":"","type":"bytes32","internalType":"bytes32"}],"stateMutability":"view"},{"type":"function","name":"removeAdmin","inputs":[{"name":"admin","type":"address","internalType":"address"}],"outputs":[],"stateMutability":"nonpayable"},{"type":"function","name":"renounceRole","inputs":[{"name":"role","type":"bytes32","internalType":"bytes32"},{"name":"callerConfirmation","type":"address","internalType":"address"}],"outputs":[],"stateMutability":"nonpayable"},{"type":"function","name":"restoreAttestation","inputs":[{"name":"attestationHash","type":"bytes32","internalType":"bytes32"}],"outputs":[],"stateMutability":"nonpayable"},{"type":"function","name":"revokeRole","inputs":[{"name":"role","type":"bytes32","internalType":"bytes32"},{"name":"account","type":"address","internalType":"address"}],"outputs":[],"stateMutability":"nonpayable"},{"type":"function","name":"signatureUsed","inputs":[{"name":"","type":"bytes","internalType":"bytes"}],"outputs":[{"name":"","type":"bool","internalType":"bool"}],"stateMutability":"view"},{"type":"function","name":"signatureVerifier","inputs":[],"outputs":[{"name":"","type":"address","internalType":"address"}],"stateMutability":"view"},{"type":"function","name":"supportsInterface","inputs":[{"name":"interfaceId","type":"bytes4","internalType":"bytes4"}],"outputs":[{"name":"","type":"bool","internalType":"bool"}],"stateMutability":"view"},{"type":"function","name":"targetExistsAndAllowedForId","inputs":[{"name":"targetId","type":"uint256","internalType":"uint256"}],"outputs":[{"name":"exist","type":"bool","internalType":"bool"},{"name":"allowed","type":"bool","internalType":"bool"}],"stateMutability":"view"},{"type":"function","name":"unpause","inputs":[],"outputs":[],"stateMutability":"nonpayable"},{"type":"function","name":"updateContractAddressManager","inputs":[{"name":"contractAddressesAddr","type":"address","internalType":"address"}],"outputs":[],"stateMutability":"nonpayable"},{"type":"function","name":"updateExpectedSigner","inputs":[{"name":"signer","type":"address","internalType":"address"}],"outputs":[],"stateMutability":"nonpayable"},{"type":"function","name":"updateOwner","inputs":[{"name":"owner","type":"address","internalType":"address"}],"outputs":[],"stateMutability":"nonpayable"},{"type":"function","name":"updateSignatureVerifier","inputs":[{"name":"sinatureVerifier","type":"address","internalType":"address"}],"outputs":[],"stateMutability":"nonpayable"},{"type":"function","name":"upgradeToAndCall","inputs":[{"name":"newImplementation","type":"address","internalType":"address"},{"name":"data","type":"bytes","internalType":"bytes"}],"outputs":[],"stateMutability":"payable"},{"type":"event","name":"AttestationArchived","inputs":[{"name":"profileId","type":"uint256","indexed":true,"internalType":"uint256"},{"name":"service","type":"string","indexed":false,"internalType":"string"},{"name":"account","type":"string","indexed":false,"internalType":"string"},{"name":"attestationId","type":"uint256","indexed":true,"internalType":"uint256"}],"anonymous":false},{"type":"event","name":"AttestationClaimed","inputs":[{"name":"attestationId","type":"uint256","indexed":true,"internalType":"uint256"},{"name":"service","type":"string","indexed":false,"internalType":"string"},{"name":"account","type":"string","indexed":false,"internalType":"string"},{"name":"evidence","type":"string","indexed":false,"internalType":"string"},{"name":"profileId","type":"uint256","indexed":true,"internalType":"uint256"}],"anonymous":false},{"type":"event","name":"AttestationCreated","inputs":[{"name":"profileId","type":"uint256","indexed":true,"internalType":"uint256"},{"name":"service","type":"string","indexed":false,"internalType":"string"},{"name":"account","type":"string","indexed":false,"internalType":"string"},{"name":"evidence","type":"string","indexed":false,"internalType":"string"},{"name":"attestationId","type":"uint256","indexed":true,"internalType":"uint256"}],"anonymous":false},{"type":"event","name":"AttestationRestored","inputs":[{"name":"attestationId","type":"uint256","indexed":true,"internalType":"uint256"},{"name":"service","type":"string","indexed":false,"internalType":"string"},{"name":"account","type":"string","indexed":false,"internalType":"string"},{"name":"profileId","type":"uint256","indexed":true,"internalType":"uint256"}],"anonymous":false},{"type":"event","name":"Initialized","inputs":[{"name":"version","type":"uint64","indexed":false,"internalType":"uint64"}],"anonymous":false},{"type":"event","name":"Paused","inputs":[{"name":"account","type":"address","indexed":false,"internalType":"address"}],"anonymous":false},{"type":"event","name":"RoleAdminChanged","inputs":[{"name":"role","type":"bytes32","indexed":true,"internalType":"bytes32"},{"name":"previousAdminRole","type":"bytes32","indexed":true,"internalType":"bytes32"},{"name":"newAdminRole","type":"bytes32","indexed":true,"internalType":"bytes32"}],"anonymous":false},{"type":"event","name":"RoleGranted","inputs":[{"name":"role","type":"bytes32","indexed":true,"internalType":"bytes32"},{"name":"account","type":"address","indexed":true,"internalType":"address"},{"name":"sender","type":"address","indexed":true,"internalType":"address"}],"anonymous":false},{"type":"event","name":"RoleRevoked","inputs":[{"name":"role","type":"bytes32","indexed":true,"internalType":"bytes32"},{"name":"account","type":"address","indexed":true,"internalType":"address"},{"name":"sender","type":"address","indexed":true,"internalType":"address"}],"anonymous":false},{"type":"event","name":"Unpaused","inputs":[{"name":"account","type":"address","indexed":false,"internalType":"address"}],"anonymous":false},{"type":"event","name":"Upgraded","inputs":[{"name":"implementation","type":"address","indexed":true,"internalType":"address"}],"anonymous":false},{"type":"error","name":"AccessControlBadConfirmation","inputs":[]},{"type":"error","name":"AccessControlUnauthorizedAccount","inputs":[{"name":"account","type":"address","internalType":"address"},{"name":"neededRole","type":"bytes32","internalType":"bytes32"}]},{"type":"error","name":"AddressEmptyCode","inputs":[{"name":"target","type":"address","internalType":"address"}]},{"type":"error","name":"AddressNotInProfile","inputs":[{"name":"_address","type":"address","internalType":"address"},{"name":"profileId","type":"uint256","internalType":"uint256"}]},{"type":"error","name":"AttestationAlreadyExists","inputs":[{"name":"attestationHash","type":"bytes32","internalType":"bytes32"}]},{"type":"error","name":"AttestationInvalid","inputs":[{"name":"service","type":"string","internalType":"string"},{"name":"account","type":"string","internalType":"string"}]},{"type":"error","name":"AttestationNotArchived","inputs":[{"name":"attestationHash","type":"bytes32","internalType":"bytes32"}]},{"type":"error","name":"AttestationNotFound","inputs":[{"name":"attestationHash","type":"bytes32","internalType":"bytes32"}]},{"type":"error","name":"ERC1967InvalidImplementation","inputs":[{"name":"implementation","type":"address","internalType":"address"}]},{"type":"error","name":"ERC1967NonPayable","inputs":[]},{"type":"error","name":"EnforcedPause","inputs":[]},{"type":"error","name":"ExpectedPause","inputs":[]},{"type":"error","name":"FailedCall","inputs":[]},{"type":"error","name":"InvalidInitialization","inputs":[]},{"type":"error","name":"InvalidSignature","inputs":[]},{"type":"error","name":"NotInitializing","inputs":[]},{"type":"error","name":"ProfileNotFound","inputs":[{"name":"profileId","type":"uint256","internalType":"uint256"}]},{"type":"error","name":"SignatureWasUsed","inputs":[]},{"type":"error","name":"UUPSUnauthorizedCallContext","inputs":[]},{"type":"error","name":"UUPSUnsupportedProxiableUUID","inputs":[{"name":"slot","type":"bytes32","internalType":"bytes32"}]},{"type":"error","name":"ZeroAddress","inputs":[]}],"bytecode":{"object":"0x60a06040523461003c57610011610040565b3060805261001d610040565b6040516133e990816100fd8239608051818181610ba20152610c330152f35b5f80fd5b7ff0c57e16840df040f15088dc2f81fe391c3923bec73e23a9662efc9c229c6a005460ff8160401c166100ed576002600160401b03196001600160401b038216016100885750565b6001600160401b0319166001600160401b039081177ff0c57e16840df040f15088dc2f81fe391c3923bec73e23a9662efc9c229c6a00556040519081527fc7f505b2f371ae2175ee4913f4499e1f2633a7b5936321eed1cdaeb6115181d290602090a1565b63f92ee8a960e01b5f5260045ffdfe60806040526004361015610011575f80fd5b5f3560e01c8063018a198c1461183957806301ffc9a7146117c9578063051d0702146115e557806308473f64146115a25780631459457a146112bc5780631785f53c1461123857806320eb5997146111ac578063248a9ca31461118e5780632bdd87ff146111435780632cb3e4941461111c5780632f2ff15d146110eb57806336568abe146110a75780633f4ba83a14610fd357806341345d9614610df35780634f1ef28614610bf657806352d1902d14610b905780635667981b14610b445780635c975abb14610b165780637048027514610a925780637193894714610a0657806375b238fc146109df5780638456cb59146108a3578063880cdc31146107885780638db70da4146107225780639010d07c146106d057806391d148541461067b5780639d29a503146104d9578063a12c64b5146105f6578063a15b9321146105d9578063a217fddf146105bf578063a3246ad314610504578063a55d54e0146104d9578063ad3cb1cc1461048e578063ade9ae9714610466578063bb10c8291461040c578063bd27df1014610366578063c3c4920114610320578063ca15c873146102ea578063d547741f146102b2578063e58378bb1461028b578063ed6a24e114610261578063efb329941461021e5763fde919f6146101f2575f80fd5b3461021a575f36600319011261021a576001546040516001600160a01b039091168152602090f35b5f80fd5b3461021a57602036600319011261021a5760206102576004355f52603860205260405f20545f526037602052600360405f200154151590565b6040519015158152f35b3461021a57602036600319011261021a576004355f526038602052602060405f2054604051908152f35b3461021a575f36600319011261021a5760206040515f805160206132b48339815191528152f35b3461021a57604036600319011261021a576102e86004356102d1611870565b906102e36102de826123a6565b6126ac565b6126f2565b005b3461021a57602036600319011261021a576004355f525f80516020613274833981519152602052602060405f2054604051908152f35b3461021a57604036600319011261021a576024356004355f52603960205260405f20805482101561021a5760209161035791611acd565b90549060031b1c604051908152f35b3461021a57602036600319011261021a576004355f52603960205260405f20604051806020835491828152019081935f5260205f20905f5b8181106103f657505050816103b49103826118e2565b604051918291602083019060208452518091526040830191905f5b8181106103dd575050500390f35b82518452859450602093840193909201916001016103cf565b825484526020909301926001928301920161039e565b3461021a57602036600319011261021a576004356001600160401b03811161021a5760ff60208061044281943690600401611954565b604051928184925191829101835e8101600281520301902054166040519015158152f35b3461021a575f36600319011261021a576003546040516001600160a01b039091168152602090f35b3461021a575f36600319011261021a576104d56040516104af6040826118e2565b60058152640352e302e360dc1b6020820152604051918291602083526020830190611a4a565b0390f35b3461021a57602036600319011261021a576104d56104f86004356124f3565b60405191829182611a6e565b3461021a57602036600319011261021a576004355f525f8051602061327483398151915260205260405f20604051806020835491828152019081935f5260205f20905f5b8181106105a9575050508161055e9103826118e2565b604051918291602083019060208452518091526040830191905f5b818110610587575050500390f35b82516001600160a01b0316845285945060209384019390920191600101610579565b8254845260209093019260019283019201610548565b3461021a575f36600319011261021a5760206040515f8152f35b3461021a575f36600319011261021a576020603654604051908152f35b3461021a57602036600319011261021a576004355f5260376020526040805f208151610621816118b3565b60ff825416151581526001820154602082015260028201548382015260a061066860056003850154946060850195865261065d600482016119aa565b6080860152016119aa565b9101525115158151908082526020820152f35b3461021a57604036600319011261021a57610694611870565b6004355f525f8051602061331483398151915260205260405f209060018060a01b03165f52602052602060ff60405f2054166040519015158152f35b3461021a57604036600319011261021a576004355f525f80516020613274833981519152602052602061070960405f2060243590611acd565b905460405160039290921b1c6001600160a01b03168152f35b3461021a57604036600319011261021a576004356001600160401b03811161021a57610752903690600401611886565b602435906001600160401b03821161021a57602092610778610780933690600401611886565b92909161246b565b604051908152f35b3461021a57602036600319011261021a576107a161185a565b6107a9612663565b5f805160206132b48339815191525f525f805160206132748339815191526020525f8051602061337483398151915280541561088f575f90815260209020546001600160a01b03166107fa81612e03565b610850575b5061080981612f81565b61080f57005b5f805160206132b48339815191525f525f805160206132748339815191526020526102e8906001600160a01b03165f805160206133748339815191526131db565b5f805160206132b48339815191525f525f80516020613274833981519152602052610888905f80516020613374833981519152613145565b50816107ff565b634e487b7160e01b5f52603260045260245ffd5b3461021a575f36600319011261021a576003546108f1906020906001600160a01b03166108ce6123c4565b90604051808095819463d57f7aa360e01b83528660048401526024830190611a4a565b03915afa9081156109d4575f916109a5575b50336001600160a01b039091160361096e5761091d61256b565b600160ff195f805160206133348339815191525416175f80516020613334833981519152557f62e78cea01bee320cd4e420270b5ea74000d11b0c9f74754ebdbfc544b05a2586020604051338152a1005b63e2517d3f60e01b5f52336004527f261fea28325784de45eba41a3fbb84c4196fbab02ee802566edfe26616ba5afb60245260445ffd5b6109c7915060203d6020116109cd575b6109bf81836118e2565b8101906123ff565b81610903565b503d6109b5565b6040513d5f823e3d90fd5b3461021a575f36600319011261021a5760206040515f805160206133548339815191528152f35b3461021a57602036600319011261021a576004355f52603760205260405f2060ff8154166104d5600183015492610a846002820154916003810154610a596005610a52600485016119aa565b93016119aa565b936040519788971515885260208801526040870152606086015260c0608086015260c0850190611a4a565b9083820360a0850152611a4a565b3461021a57602036600319011261021a57610aab61185a565b610ab3612663565b610abc81613014565b610ac257005b5f805160206133548339815191525f525f805160206132748339815191526020526102e8906001600160a01b03167f46448fd7a7b40360a1323cb3199d0aafeb92ce905bb512a6bb7d3d3f685cf1b16131db565b3461021a575f36600319011261021a57602060ff5f8051602061333483398151915254166040519015158152f35b3461021a57602036600319011261021a57610b5d61185a565b610b6561261a565b610b6e81612f71565b600180546001600160a01b0319166001600160a01b0392909216919091179055005b3461021a575f36600319011261021a577f00000000000000000000000000000000000000000000000000000000000000006001600160a01b03163003610be75760206040515f805160206132d48339815191528152f35b63703e46dd60e11b5f5260045ffd5b604036600319011261021a57610c0a61185a565b6024356001600160401b03811161021a57610c29903690600401611954565b6001600160a01b037f000000000000000000000000000000000000000000000000000000000000000016308114908115610dd1575b50610be757610c6b612663565b610c7482612f71565b6040516352d1902d60e01b81526001600160a01b0383169290602081600481875afa5f9181610d9d575b50610cb65783634c9c8ce360e01b5f5260045260245ffd5b805f805160206132d4833981519152859203610d8b5750813b15610d79575f805160206132d483398151915280546001600160a01b031916821790557fbc7cd75a20ee27fd9adebab32041f755214dbc6bffa90cc0225b39da2e5c2d3b5f80a2815115610d61575f808360206102e895519101845af43d15610d59573d91610d3d83611903565b92610d4b60405194856118e2565b83523d5f602085013e613215565b606091613215565b505034610d6a57005b63b398979f60e01b5f5260045ffd5b634c9c8ce360e01b5f5260045260245ffd5b632a87526960e21b5f5260045260245ffd5b9091506020813d602011610dc9575b81610db9602093836118e2565b8101031261021a57519085610c9e565b3d9150610dac565b5f805160206132d4833981519152546001600160a01b03161415905083610c5e565b3461021a57602036600319011261021a57600435610e0f61256b565b805f52603860205260405f20545f52603760205260405f2090600382015415610fc1576002820154906001600160a01b03610e48612592565b6040516312e8584f60e11b815233600482015260248101859052911690602081604481855afa9081156109d4575f91610f87575b5015610f7057606060249160405192838092633b79ed1960e11b82528760048301525afa80156109d4575f915f91610f3c575b508115610f34575b50610f21575f52603860205260405f20545f52603760205260405f20600160ff198254161790557f3a9c110aa9485f987acfe7d0f79ad35d9b6d77338a705c49b505a0e07e73a737610f1c600184015493604051918160056004859401910183611bd0565b0390a3005b50635595b91560e11b5f5260045260245ffd5b905084610eb7565b9050610f60915060603d606011610f69575b610f5881836118e2565b81019061241e565b91509085610eaf565b503d610f4e565b8263c1b3b1dd60e01b5f523360045260245260445ffd5b90506020813d602011610fb9575b81610fa2602093836118e2565b8101031261021a57610fb390611b21565b85610e7c565b3d9150610f95565b6301fb6dd160e01b5f5260045260245ffd5b3461021a575f36600319011261021a57600354610ffe906020906001600160a01b03166108ce6123c4565b03915afa9081156109d4575f91611088575b50336001600160a01b039091160361096e575f805160206133348339815191525460ff8116156110795760ff19165f80516020613334833981519152557f5db9ee0a495bf2e6ff9c91a7834c1ba4fdd244a5e8aa4e537bd38aeae4b073aa6020604051338152a1005b638dfc202b60e01b5f5260045ffd5b6110a1915060203d6020116109cd576109bf81836118e2565b81611010565b3461021a57604036600319011261021a576110c0611870565b336001600160a01b038216036110dc576102e8906004356126f2565b63334bd91960e11b5f5260045ffd5b3461021a57604036600319011261021a576102e860043561110a611870565b906111176102de826123a6565b612d05565b3461021a575f36600319011261021a575f546040516001600160a01b039091168152602090f35b3461021a57602036600319011261021a5761115c61185a565b61116461261a565b61116d81612f71565b5f80546001600160a01b0319166001600160a01b0392909216919091179055005b3461021a57602036600319011261021a5760206107806004356123a6565b3461021a5760a036600319011261021a576044356001600160401b03811161021a576040600319823603011261021a576064356001600160401b03811161021a576111fb903690600401611886565b91608435926001600160401b03841161021a5761121f6102e8943690600401611886565b93909261122a61256b565b600401602435600435611c88565b3461021a57602036600319011261021a5761125161185a565b611259612663565b61126281612d72565b61126857005b5f805160206133548339815191525f525f805160206132748339815191526020526102e8906001600160a01b03167f46448fd7a7b40360a1323cb3199d0aafeb92ce905bb512a6bb7d3d3f685cf1b1613145565b3461021a5760a036600319011261021a576112d561185a565b6112dd611870565b6044356001600160a01b038116810361021a576064356001600160a01b0381169384820361021a576084356001600160a01b0381169081900361021a575f80516020613394833981519152549560ff8760401c1615966001600160401b0381168015908161159a575b6001149081611590575b159081611587575b506115785767ffffffffffffffff1981166001175f80516020613394833981519152558761154c575b5061138a612d47565b6001600160a01b038316948515801561153b575b8015611533575b6115245761140b946113e0916113b9612d47565b6113c281612f71565b60018060a01b03166001600160601b0360a01b5f5416175f55612f71565b6001600160601b0360a01b60015416176001556001600160601b0360a01b6003541617600355612f81565b6114e5575b5061141a81613014565b61148a575b50611428612d47565b600160365561143357005b68ff0000000000000000195f8051602061339483398151915254165f80516020613394833981519152557fc7f505b2f371ae2175ee4913f4499e1f2633a7b5936321eed1cdaeb6115181d2602060405160018152a1005b5f805160206133548339815191525f525f805160206132748339815191526020526114de906001600160a01b03167f46448fd7a7b40360a1323cb3199d0aafeb92ce905bb512a6bb7d3d3f685cf1b16131db565b508161141f565b5f805160206132b48339815191525f525f8051602061327483398151915260205261151d905f805160206133748339815191526131db565b5082611410565b63d92e233d60e01b5f5260045ffd5b5082156113a5565b506001600160a01b0387161561139e565b68ffffffffffffffffff191668010000000000000001175f805160206133948339815191525587611381565b63f92ee8a960e01b5f5260045ffd5b90501589611358565b303b159150611350565b899150611346565b3461021a57602036600319011261021a576115bb61185a565b6115c361261a565b600380546001600160a01b0319166001600160a01b0392909216919091179055005b3461021a57602036600319011261021a5760043561160161256b565b805f52603860205260405f20545f526037602052600260405f2001549060018060a01b0361162d612592565b16604051630d3289cb60e21b8152836004820152604081602481855afa9081156109d4575f91611798575b50611785576040516312e8584f60e11b81523360048201526024810184905290602090829060449082905afa9081156109d4575f9161174b575b501561173457805f52603860205260405f20545f52603760205260ff60405f20541615611722575f908152603860209081526040808320805484526037909252808320805460ff191690559054825290819020600181015491517ffd3c34f2d4fa14871365288f3e4d4aaf9696bef4ae9c3e77452f27025aeea673918190610f1c90600481019060050183611bd0565b636c445ec960e11b5f5260045260245ffd5b5063c1b3b1dd60e01b5f523360045260245260445ffd5b90506020813d60201161177d575b81611766602093836118e2565b8101031261021a5761177790611b21565b83611692565b3d9150611759565b82635595b91560e11b5f5260045260245ffd5b6117ba915060403d6040116117c2575b6117b281836118e2565b810190611b2e565b905084611658565b503d6117a8565b3461021a57602036600319011261021a5760043563ffffffff60e01b811680910361021a57602090635a05180f60e01b811490811561180e575b506040519015158152f35b637965db0b60e01b811491508115611828575b5082611803565b6301ffc9a760e01b14905082611821565b3461021a57604036600319011261021a576020610780602435600435611ae2565b600435906001600160a01b038216820361021a57565b602435906001600160a01b038216820361021a57565b9181601f8401121561021a578235916001600160401b03831161021a576020838186019501011161021a57565b60c081019081106001600160401b038211176118ce57604052565b634e487b7160e01b5f52604160045260245ffd5b90601f801991011681019081106001600160401b038211176118ce57604052565b6001600160401b0381116118ce57601f01601f191660200190565b92919261192a82611903565b9161193860405193846118e2565b82948184528183011161021a578281602093845f960137010152565b9080601f8301121561021a5781602061196f9335910161191e565b90565b90600182811c921680156119a0575b602083101461198c57565b634e487b7160e01b5f52602260045260245ffd5b91607f1691611981565b9060405191825f8254926119bd84611972565b8084529360018116908115611a2857506001146119e4575b506119e2925003836118e2565b565b90505f9291925260205f20905f915b818310611a0c5750509060206119e2928201015f6119d5565b60209193508060019154838589010152019101909184926119f3565b9050602092506119e294915060ff191682840152151560051b8201015f6119d5565b805180835260209291819084018484015e5f828201840152601f01601f1916010190565b9061196f916020815281511515602082015260208201516040820152604082015160608201526060820151608082015260a0611ab8608084015160c08385015260e0840190611a4a565b9201519060c0601f1982850301910152611a4a565b805482101561088f575f5260205f2001905f90565b90815f52603960205260405f20915f52603a60205260405f20815f5260205280611b1160405f20548094611acd565b90549060031b1c03610fc1575090565b5190811515820361021a57565b919082604091031261021a5761196f6020611b4884611b21565b9301611b21565b5f9291815491611b5e83611972565b8083529260018116908115611bb35750600114611b7a57505050565b5f9081526020812093945091925b838310611b99575060209250010190565b600181602092949394548385870101520191019190611b88565b915050602093945060ff929192191683830152151560051b010190565b9091611be761196f93604084526040840190611b4f565b916020818403910152611b4f565b903590601e198136030182121561021a57018035906001600160401b03821161021a5760200191813603831361021a57565b805490680100000000000000008210156118ce5781611c4e916001611c6494018155611acd565b819391549060031b91821b915f19901b19161790565b9055565b908060209392818452848401375f828201840152601f01601f1916010190565b949585939496611c988480611bf5565b611d0e6020879a939a0195611d00611ced611cb3898b611bf5565b611cdb5f9f604051988997602089019b8c52604089015260a0606089015260c0880191611c68565b858103601f1901608087015291611c68565b828103601f190160a08401528d8c611c68565b03601f1981018352826118e2565b51902060ff6040518484823760208186810160028152030190205416612397576001545f54604051622ea33360e31b81526001600160a01b0391821660048201526024810193909352606060448401526020918391168180611d74606482018989611c68565b03915afa9081156109d4575f9161235d575b501561234e5760209082604051938492833781016002815203019020600160ff19825416179055611dc5611dba8284611bf5565b906107788580611bf5565b611dd187868387612738565b61234557611dde81612b5a565b61234557611e06815f52603860205260405f20545f526037602052600360405f200154151590565b612333576001600160a01b03611e1a612592565b169060405163a12c64b560e01b8152856004820152604081602481865afa9081156109d4575f91612313575b50156123005760405163b8861c2360e01b8152336004820152602081602481865afa80156109d45786915f916122cb575b50036122b457845f526039602052611e928160405f20611c27565b845f52603960205260405f20545f1981019081116122a057855f52603a60205260405f20825f5260205260405f205560365485611ecf8680611bf5565b611edc8789949394611bf5565b929093611f2260405195611eef876118b3565b5f8752611f136020880193898552604089019586526060890196428852369161191e565b9560808801968752369161191e565b9560a086019687525f52603760205260405f209451151560ff801987541691161785555160018501555160028401555160038301556004820190518051906001600160401b0382116118ce57611f788354611972565b601f811161225b575b50602090601f83116001146121f4576005949392915f91836121e9575b50508160011b915f199060031b1c19161790555b0190518051906001600160401b0382116118ce578190611fd28454611972565b601f8111612199575b50602090601f8311600114612136575f9261212b575b50508160011b915f199060031b1c19161790555b603654815f52603860205260405f2055813b1561021a575f91604483926040519485938492633e53213360e11b845260048401528960248401525af180156109d4576120ef575b50906120886120c761207f7f4a81ae4b6c9fe46a5f956d2d553758fc90f2a44f9145aaeded49124efc4f7e529484611bf5565b92909380611bf5565b9690986120b96036549a8b996120ab60405198899860608a5260608a0191611c68565b918783036020890152611c68565b918483036040860152611c68565b0390a35f1982146120db5750600101603655565b634e487b7160e01b81526011600452602490fd5b7f4a81ae4b6c9fe46a5f956d2d553758fc90f2a44f9145aaeded49124efc4f7e52929195505f61211e916118e2565b5f9490915061208861204c565b015190505f80611ff1565b5f8581528281209350601f198516905b8181106121815750908460019594939210612169575b505050811b019055612005565b01515f1960f88460031b161c191690555f808061215c565b92936020600181928786015181550195019301612146565b909150835f5260205f20601f840160051c810191602085106121df575b90601f859493920160051c01905b8181106121d15750611fdb565b5f81558493506001016121c4565b90915081906121b6565b015190505f80611f9e565b90601f19831691845f52815f20925f5b81811061224357509160019391856005989796941061222b575b505050811b019055611fb2565b01515f1960f88460031b161c191690555f808061221e565b92936020600181928786015181550195019301612204565b835f5260205f20601f840160051c81019160208510612296575b601f0160051c01905b81811061228b5750611f81565b5f815560010161227e565b9091508190612275565b634e487b7160e01b5f52601160045260245ffd5b8463c1b3b1dd60e01b5f523360045260245260445ffd5b9150506020813d6020116122f8575b816122e7602093836118e2565b8101031261021a578590515f611e77565b3d91506122da565b84635595b91560e11b5f5260045260245ffd5b61232c915060403d6040116117c2576117b281836118e2565b505f611e46565b635488184160e11b5f5260045260245ffd5b50505050505050565b638baa579f60e01b5f5260045ffd5b90506020813d60201161238f575b81612378602093836118e2565b8101031261021a5761238990611b21565b5f611d86565b3d915061236b565b63858c8a1f60e01b5f5260045ffd5b5f525f80516020613314833981519152602052600160405f20015490565b604051906123d36040836118e2565b601982527f4554484f535f494e544552414354494f4e5f434f4e54524f4c000000000000006020830152565b9081602091031261021a57516001600160a01b038116810361021a5790565b9081606091031261021a5761243281611b21565b9161196f6040611b4860208501611b21565b929061245d9061196f9593604086526040860191611c68565b926020818503910152611c68565b92811580156124bb575b6124985790611d0061249292604051948593602085019788612444565b51902090565b6040516356ca8ea960e11b81529384936124b793909160048601612444565b0390fd5b508015612475565b604051906124d0826118b3565b606060a0835f81525f60208201525f60408201525f838201528260808201520152565b6124fb6124c3565b505f52603860205260405f20545f52603760205260405f20612563600560405192612525846118b3565b60ff81541615158452600181015460208501526002810154604085015260038101546060850152612558600482016119aa565b6080850152016119aa565b60a082015290565b60ff5f80516020613334833981519152541661258357565b63d93c066560e01b5f5260045ffd5b6125ec602060018060a01b0360035416604051906125b16040836118e2565b600d82526c4554484f535f50524f46494c4560981b83830152604051808095819463d57f7aa360e01b83528660048401526024830190611a4a565b03915afa9081156109d4575f91612601575090565b61196f915060203d6020116109cd576109bf81836118e2565b335f9081525f80516020613294833981519152602052604090205460ff161561263f57565b63e2517d3f60e01b5f52336004525f8051602061335483398151915260245260445ffd5b335f9081525f805160206132f4833981519152602052604090205460ff161561268857565b63e2517d3f60e01b5f52336004525f805160206132b483398151915260245260445ffd5b5f8181525f805160206133148339815191526020908152604080832033845290915290205460ff16156126dc5750565b63e2517d3f60e01b5f523360045260245260445ffd5b6126fc8282612e94565b918261270757505090565b5f9182525f805160206132748339815191526020526040909120612734916001600160a01b031690613145565b5090565b92915f92612760835f52603860205260405f20545f526037602052600360405f200154151590565b15612b5157825f52603860205260405f20545f52603760205260405f20604051612789816118b3565b60ff825416151581526001820154602082015260a06127c66005600285015494604085019586526003810154606086015261065d600482016119aa565b91015285815114612b47576001600160a01b036127e1612592565b1690604051633b79ed1960e11b8152876004820152606081602481865afa80156109d4575f80925f92612b23575b5015918215612b1b575b508115612b13575b50612b00576040516312e8584f60e11b815233600482015260248101889052602081604481865afa9081156109d4575f91612ac6575b5015612aaf5751805f52603960205260405f208054916128778782611ae2565b92815f52603a60205260405f20905f1981019081116122a0576128ea946128b9926128a28387611acd565b90549060031b1c5f5260205260405f205583611acd565b90549060031b1c905f52603a60205260405f20875f526020526128e3611c4e60405f205484611acd565b9055612f36565b835f52603860205260405f20545f52603760205285600260405f200155855f52603960205261291c8460405f20611c27565b855f52603960205260405f20545f1981019081116122a057865f52603a60205260405f20855f5260205260405f2055835f52603860205260405f20545f52603760205260ff60405f205416612a8a575b803b1561021a575f8091604460405180948193633e53213360e11b83528960048401528b60248401525af180156109d457612a48575b5091612a40612a32927f6e4fa8ef0805b1c89a3b4d2b316590390b768832487015780d5acf23025e453c9483875260386020526040872054875260376020526120b9600460406001818b2001549987815260386020528181205481526037602052600582822001978152603860205281812054815260376020522001604051968796606088526060880190611b4f565b908682036020880152611b4f565b0390a3600190565b7f6e4fa8ef0805b1c89a3b4d2b316590390b768832487015780d5acf23025e453c93919450612a3292612a7e5f612a40936118e2565b5f9592945092506129a2565b835f52603860205260405f20545f52603760205260405f2060ff19815416905561296c565b8663c1b3b1dd60e01b5f523360045260245260445ffd5b90506020813d602011612af8575b81612ae1602093836118e2565b8101031261021a57612af290611b21565b5f612857565b3d9150612ad4565b86635595b91560e11b5f5260045260245ffd5b90505f612821565b91505f612819565b915050612b3f915060603d606011610f6957610f5881836118e2565b90915f61280f565b5050505050505f90565b50505050505f90565b805f52603860205260405f20545f52603760205260ff60405f2054165f14612d0057612b8461256b565b805f52603860205260405f20545f526037602052600260405f2001549060018060a01b03612bb0612592565b16604051630d3289cb60e21b8152836004820152604081602481855afa9081156109d4575f91612cdf575b50611785576040516312e8584f60e11b81523360048201526024810184905290602090829060449082905afa9081156109d4575f91612ca5575b501561173457805f52603860205260405f20545f52603760205260ff60405f20541615611722575f908152603860209081526040808320805484526037909252808320805460ff191690559054825290819020600181015491517ffd3c34f2d4fa14871365288f3e4d4aaf9696bef4ae9c3e77452f27025aeea673918190612a4090600481019060050183611bd0565b90506020813d602011612cd7575b81612cc0602093836118e2565b8101031261021a57612cd190611b21565b5f612c15565b3d9150612cb3565b612cf8915060403d6040116117c2576117b281836118e2565b90505f612bdb565b505f90565b612d0f82826130a7565b9182612d1a57505090565b5f9182525f805160206132748339815191526020526040909120612734916001600160a01b0316906131db565b60ff5f805160206133948339815191525460401c1615612d6357565b631afcd79f60e31b5f5260045ffd5b6001600160a01b0381165f9081525f80516020613294833981519152602052604090205460ff1615612d00576001600160a01b03165f8181525f8051602061329483398151915260205260408120805460ff191690553391905f80516020613354833981519152907ff6391f5c32d9c69d2a47ea670b442974b53935d1edc7fd64eb21e047a839171b9080a4600190565b6001600160a01b0381165f9081525f805160206132f4833981519152602052604090205460ff1615612d00576001600160a01b03165f8181525f805160206132f483398151915260205260408120805460ff191690553391905f805160206132b4833981519152907ff6391f5c32d9c69d2a47ea670b442974b53935d1edc7fd64eb21e047a839171b9080a4600190565b5f8181525f80516020613314833981519152602090815260408083206001600160a01b038616845290915290205460ff1615612f30575f8181525f80516020613314833981519152602090815260408083206001600160a01b0395909516808452949091528120805460ff19169055339291907ff6391f5c32d9c69d2a47ea670b442974b53935d1edc7fd64eb21e047a839171b9080a4600190565b50505f90565b80548015612f5d575f190190612f4c8282611acd565b8154905f199060031b1b1916905555565b634e487b7160e01b5f52603160045260245ffd5b6001600160a01b03161561152457565b6001600160a01b0381165f9081525f805160206132f4833981519152602052604090205460ff16612d00576001600160a01b03165f8181525f805160206132f483398151915260205260408120805460ff191660011790553391905f805160206132b4833981519152907f2f8788117e7eff1d82e926ec794901d17c78024a50270940304540a733656f0d9080a4600190565b6001600160a01b0381165f9081525f80516020613294833981519152602052604090205460ff16612d00576001600160a01b03165f8181525f8051602061329483398151915260205260408120805460ff191660011790553391905f80516020613354833981519152907f2f8788117e7eff1d82e926ec794901d17c78024a50270940304540a733656f0d9080a4600190565b5f8181525f80516020613314833981519152602090815260408083206001600160a01b038616845290915290205460ff16612f30575f8181525f80516020613314833981519152602090815260408083206001600160a01b0395909516808452949091528120805460ff19166001179055339291907f2f8788117e7eff1d82e926ec794901d17c78024a50270940304540a733656f0d9080a4600190565b906001820191815f528260205260405f2054908115155f146131d3575f198201918083116122a05781545f1981019081116122a057838161318e950361319e575b505050612f36565b5f526020525f6040812055600190565b6131be6131ae611c4e9386611acd565b90549060031b1c92839286611acd565b90555f528460205260405f20555f8080613186565b505050505f90565b6001810190825f528160205260405f2054155f1461320e576131fd8382611c27565b54915f5260205260405f2055600190565b5050505f90565b90613239575080511561322a57805190602001fd5b63d6bda27560e01b5f5260045ffd5b8151158061326a575b61324a575090565b639996b31560e01b5f9081526001600160a01b0391909116600452602490fd5b50803b1561324256fec1f6fe24621ce81ec5827caf0253cadb74709b061630e6b55e82371705932000b16e88c42fd4e48df2dd6a2eabd6bc9aec654ec170056b470819f8892cc6431cb19546dff01e856fb3f010c267a7b1c60363cf8a4664e21cc89c26224620214e360894a13ba1a3210667c828492db98dca3e2076cc3735a920a3ca505d382bbcc32d4dc01d07c436ad8a6f9a20eadd61263c71fe16f6b5956005ba3b341f51dd02dd7bc7dec4dceedda775e58dd541e08a116c6c53815c0bd028192f7b626800cd5ed15c6e187e77e9aee88184c21f4f2182ab5827cb3b7e07fbedcd63f03300a49807205ce4d355092ef5a8a18f56e8913cf4a201fbe287825b095693c21775008963063c520970ed64c693e920074e4588acd3631097247bb3559890ad6a67f0c57e16840df040f15088dc2f81fe391c3923bec73e23a9662efc9c229c6a00a26469706673582212206614efd20af8731d5b69f574b341c7e7b68ccd43c3975f2a4e60a32d8334e7b864736f6c634300081a0033","linkReferences":{}},"methodIdentifiers":{"ADMIN_ROLE()":"75b238fc","DEFAULT_ADMIN_ROLE()":"a217fddf","OWNER_ROLE()":"e58378bb","UPGRADE_INTERFACE_VERSION()":"ad3cb1cc","addAdmin(address)":"70480275","archiveAttestation(bytes32)":"41345d96","attestationByHash(bytes32)":"a55d54e0","attestationById(uint256)":"71938947","attestationCount()":"a15b9321","attestationExistsForHash(bytes32)":"efb32994","attestationHashesByProfileId(uint256,uint256)":"c3c49201","attestationIdByHash(bytes32)":"ed6a24e1","contractAddressManager()":"ade9ae97","createAttestation(uint256,uint256,(string,string),string,bytes)":"20eb5997","expectedSigner()":"2cb3e494","getAttestationByHash(bytes32)":"9d29a503","getAttestationHashesByProfileId(uint256)":"bd27df10","getAttestationIndexByProfileIdAndHash(uint256,bytes32)":"018a198c","getRoleAdmin(bytes32)":"248a9ca3","getRoleMember(bytes32,uint256)":"9010d07c","getRoleMemberCount(bytes32)":"ca15c873","getRoleMembers(bytes32)":"a3246ad3","getServiceAndAccountHash(string,string)":"8db70da4","grantRole(bytes32,address)":"2f2ff15d","hasRole(bytes32,address)":"91d14854","initialize(address,address,address,address,address)":"1459457a","pause()":"8456cb59","paused()":"5c975abb","proxiableUUID()":"52d1902d","removeAdmin(address)":"1785f53c","renounceRole(bytes32,address)":"36568abe","restoreAttestation(bytes32)":"051d0702","revokeRole(bytes32,address)":"d547741f","signatureUsed(bytes)":"bb10c829","signatureVerifier()":"fde919f6","supportsInterface(bytes4)":"01ffc9a7","targetExistsAndAllowedForId(uint256)":"a12c64b5","unpause()":"3f4ba83a","updateContractAddressManager(address)":"08473f64","updateExpectedSigner(address)":"2bdd87ff","updateOwner(address)":"880cdc31","updateSignatureVerifier(address)":"5667981b","upgradeToAndCall(address,bytes)":"4f1ef286"},"id":114}