{"abi":[{"type":"constructor","inputs":[],"stateMutability":"nonpayable"},{"type":"function","name":"ADMIN_ROLE","inputs":[],"outputs":[{"name":"","type":"bytes32","internalType":"bytes32"}],"stateMutability":"view"},{"type":"function","name":"DEFAULT_ADMIN_ROLE","inputs":[],"outputs":[{"name":"","type":"bytes32","internalType":"bytes32"}],"stateMutability":"view"},{"type":"function","name":"DEFAULT_PRICE","inputs":[],"outputs":[{"name":"","type":"uint256","internalType":"uint256"}],"stateMutability":"view"},{"type":"function","name":"MINIMUM_BASE_PRICE","inputs":[],"outputs":[{"name":"","type":"uint256","internalType":"uint256"}],"stateMutability":"view"},{"type":"function","name":"OWNER_ROLE","inputs":[],"outputs":[{"name":"","type":"bytes32","internalType":"bytes32"}],"stateMutability":"view"},{"type":"function","name":"UPGRADE_INTERFACE_VERSION","inputs":[],"outputs":[{"name":"","type":"string","internalType":"string"}],"stateMutability":"view"},{"type":"function","name":"addAdmin","inputs":[{"name":"admin","type":"address","internalType":"address"}],"outputs":[],"stateMutability":"nonpayable"},{"type":"function","name":"addMarketConfig","inputs":[{"name":"liquidity","type":"uint256","internalType":"uint256"},{"name":"basePrice","type":"uint256","internalType":"uint256"},{"name":"creationCost","type":"uint256","internalType":"uint256"}],"outputs":[{"name":"","type":"uint256","internalType":"uint256"}],"stateMutability":"nonpayable"},{"type":"function","name":"buyVotes","inputs":[{"name":"profileId","type":"uint256","internalType":"uint256"},{"name":"isPositive","type":"bool","internalType":"bool"},{"name":"maxVotesToBuy","type":"uint256","internalType":"uint256"},{"name":"minVotesToBuy","type":"uint256","internalType":"uint256"}],"outputs":[],"stateMutability":"payable"},{"type":"function","name":"contractAddressManager","inputs":[],"outputs":[{"name":"","type":"address","internalType":"contract IContractAddressManager"}],"stateMutability":"view"},{"type":"function","name":"createMarket","inputs":[],"outputs":[],"stateMutability":"payable"},{"type":"function","name":"createMarketWithConfig","inputs":[{"name":"marketConfigIndex","type":"uint256","internalType":"uint256"}],"outputs":[],"stateMutability":"payable"},{"type":"function","name":"createMarketWithConfigAdmin","inputs":[{"name":"marketOwner","type":"address","internalType":"address"},{"name":"marketConfigIndex","type":"uint256","internalType":"uint256"}],"outputs":[],"stateMutability":"payable"},{"type":"function","name":"donationBasisPoints","inputs":[],"outputs":[{"name":"","type":"uint256","internalType":"uint256"}],"stateMutability":"view"},{"type":"function","name":"donationEscrow","inputs":[{"name":"","type":"address","internalType":"address"}],"outputs":[{"name":"","type":"uint256","internalType":"uint256"}],"stateMutability":"view"},{"type":"function","name":"donationRecipient","inputs":[{"name":"","type":"uint256","internalType":"uint256"}],"outputs":[{"name":"","type":"address","internalType":"address"}],"stateMutability":"view"},{"type":"function","name":"entryProtocolFeeBasisPoints","inputs":[],"outputs":[{"name":"","type":"uint256","internalType":"uint256"}],"stateMutability":"view"},{"type":"function","name":"exitProtocolFeeBasisPoints","inputs":[],"outputs":[{"name":"","type":"uint256","internalType":"uint256"}],"stateMutability":"view"},{"type":"function","name":"expectedSigner","inputs":[],"outputs":[{"name":"","type":"address","internalType":"address"}],"stateMutability":"view"},{"type":"function","name":"getMarket","inputs":[{"name":"profileId","type":"uint256","internalType":"uint256"}],"outputs":[{"name":"","type":"tuple","internalType":"struct ReputationMarket.MarketInfo","components":[{"name":"profileId","type":"uint256","internalType":"uint256"},{"name":"trustVotes","type":"uint256","internalType":"uint256"},{"name":"distrustVotes","type":"uint256","internalType":"uint256"},{"name":"basePrice","type":"uint256","internalType":"uint256"},{"name":"liquidityParameter","type":"uint256","internalType":"uint256"}]}],"stateMutability":"view"},{"type":"function","name":"getMarketConfigCount","inputs":[],"outputs":[{"name":"","type":"uint256","internalType":"uint256"}],"stateMutability":"view"},{"type":"function","name":"getParticipantCount","inputs":[{"name":"profileId","type":"uint256","internalType":"uint256"}],"outputs":[{"name":"","type":"uint256","internalType":"uint256"}],"stateMutability":"view"},{"type":"function","name":"getRoleAdmin","inputs":[{"name":"role","type":"bytes32","internalType":"bytes32"}],"outputs":[{"name":"","type":"bytes32","internalType":"bytes32"}],"stateMutability":"view"},{"type":"function","name":"getRoleMember","inputs":[{"name":"role","type":"bytes32","internalType":"bytes32"},{"name":"index","type":"uint256","internalType":"uint256"}],"outputs":[{"name":"","type":"address","internalType":"address"}],"stateMutability":"view"},{"type":"function","name":"getRoleMemberCount","inputs":[{"name":"role","type":"bytes32","internalType":"bytes32"}],"outputs":[{"name":"","type":"uint256","internalType":"uint256"}],"stateMutability":"view"},{"type":"function","name":"getRoleMembers","inputs":[{"name":"role","type":"bytes32","internalType":"bytes32"}],"outputs":[{"name":"","type":"address[]","internalType":"address[]"}],"stateMutability":"view"},{"type":"function","name":"getUserVotes","inputs":[{"name":"user","type":"address","internalType":"address"},{"name":"profileId","type":"uint256","internalType":"uint256"}],"outputs":[{"name":"","type":"tuple","internalType":"struct ReputationMarket.MarketInfo","components":[{"name":"profileId","type":"uint256","internalType":"uint256"},{"name":"trustVotes","type":"uint256","internalType":"uint256"},{"name":"distrustVotes","type":"uint256","internalType":"uint256"},{"name":"basePrice","type":"uint256","internalType":"uint256"},{"name":"liquidityParameter","type":"uint256","internalType":"uint256"}]}],"stateMutability":"view"},{"type":"function","name":"getVotePrice","inputs":[{"name":"profileId","type":"uint256","internalType":"uint256"},{"name":"isPositive","type":"bool","internalType":"bool"}],"outputs":[{"name":"","type":"uint256","internalType":"uint256"}],"stateMutability":"view"},{"type":"function","name":"graduateMarket","inputs":[{"name":"profileId","type":"uint256","internalType":"uint256"}],"outputs":[],"stateMutability":"nonpayable"},{"type":"function","name":"graduatedMarkets","inputs":[{"name":"","type":"uint256","internalType":"uint256"}],"outputs":[{"name":"","type":"bool","internalType":"bool"}],"stateMutability":"view"},{"type":"function","name":"grantRole","inputs":[{"name":"role","type":"bytes32","internalType":"bytes32"},{"name":"account","type":"address","internalType":"address"}],"outputs":[],"stateMutability":"nonpayable"},{"type":"function","name":"hasRole","inputs":[{"name":"role","type":"bytes32","internalType":"bytes32"},{"name":"account","type":"address","internalType":"address"}],"outputs":[{"name":"","type":"bool","internalType":"bool"}],"stateMutability":"view"},{"type":"function","name":"initialize","inputs":[{"name":"owner","type":"address","internalType":"address"},{"name":"admin","type":"address","internalType":"address"},{"name":"expectedSigner","type":"address","internalType":"address"},{"name":"signatureVerifier","type":"address","internalType":"address"},{"name":"contractAddressManagerAddr","type":"address","internalType":"address"}],"outputs":[],"stateMutability":"nonpayable"},{"type":"function","name":"isAllowedToCreateMarket","inputs":[{"name":"profileId","type":"uint256","internalType":"uint256"}],"outputs":[{"name":"","type":"bool","internalType":"bool"}],"stateMutability":"view"},{"type":"function","name":"isParticipant","inputs":[{"name":"","type":"uint256","internalType":"uint256"},{"name":"","type":"address","internalType":"address"}],"outputs":[{"name":"","type":"bool","internalType":"bool"}],"stateMutability":"view"},{"type":"function","name":"lastMarketUpdates","inputs":[{"name":"","type":"uint256","internalType":"uint256"}],"outputs":[{"name":"voteTrust","type":"uint256","internalType":"uint256"},{"name":"voteDistrust","type":"uint256","internalType":"uint256"},{"name":"positivePrice","type":"uint256","internalType":"uint256"},{"name":"negativePrice","type":"uint256","internalType":"uint256"},{"name":"lastUpdateBlock","type":"uint256","internalType":"uint256"}],"stateMutability":"view"},{"type":"function","name":"marketConfigs","inputs":[{"name":"","type":"uint256","internalType":"uint256"}],"outputs":[{"name":"liquidity","type":"uint256","internalType":"uint256"},{"name":"basePrice","type":"uint256","internalType":"uint256"},{"name":"creationCost","type":"uint256","internalType":"uint256"}],"stateMutability":"view"},{"type":"function","name":"marketFunds","inputs":[{"name":"","type":"uint256","internalType":"uint256"}],"outputs":[{"name":"","type":"uint256","internalType":"uint256"}],"stateMutability":"view"},{"type":"function","name":"participants","inputs":[{"name":"","type":"uint256","internalType":"uint256"},{"name":"","type":"uint256","internalType":"uint256"}],"outputs":[{"name":"","type":"address","internalType":"address"}],"stateMutability":"view"},{"type":"function","name":"pause","inputs":[],"outputs":[],"stateMutability":"nonpayable"},{"type":"function","name":"paused","inputs":[],"outputs":[{"name":"","type":"bool","internalType":"bool"}],"stateMutability":"view"},{"type":"function","name":"protocolFeeAddress","inputs":[],"outputs":[{"name":"","type":"address","internalType":"address"}],"stateMutability":"view"},{"type":"function","name":"proxiableUUID","inputs":[],"outputs":[{"name":"","type":"bytes32","internalType":"bytes32"}],"stateMutability":"view"},{"type":"function","name":"removeAdmin","inputs":[{"name":"admin","type":"address","internalType":"address"}],"outputs":[],"stateMutability":"nonpayable"},{"type":"function","name":"removeMarketConfig","inputs":[{"name":"configIndex","type":"uint256","internalType":"uint256"}],"outputs":[],"stateMutability":"nonpayable"},{"type":"function","name":"renounceRole","inputs":[{"name":"role","type":"bytes32","internalType":"bytes32"},{"name":"callerConfirmation","type":"address","internalType":"address"}],"outputs":[],"stateMutability":"nonpayable"},{"type":"function","name":"revokeRole","inputs":[{"name":"role","type":"bytes32","internalType":"bytes32"},{"name":"account","type":"address","internalType":"address"}],"outputs":[],"stateMutability":"nonpayable"},{"type":"function","name":"sellVotes","inputs":[{"name":"profileId","type":"uint256","internalType":"uint256"},{"name":"isPositive","type":"bool","internalType":"bool"},{"name":"votesToSell","type":"uint256","internalType":"uint256"},{"name":"minimumVotePrice","type":"uint256","internalType":"uint256"}],"outputs":[],"stateMutability":"nonpayable"},{"type":"function","name":"setAllowListEnforcement","inputs":[{"name":"value","type":"bool","internalType":"bool"}],"outputs":[],"stateMutability":"nonpayable"},{"type":"function","name":"setDonationBasisPoints","inputs":[{"name":"basisPoints","type":"uint256","internalType":"uint256"}],"outputs":[],"stateMutability":"nonpayable"},{"type":"function","name":"setEntryProtocolFeeBasisPoints","inputs":[{"name":"basisPoints","type":"uint256","internalType":"uint256"}],"outputs":[],"stateMutability":"nonpayable"},{"type":"function","name":"setExitProtocolFeeBasisPoints","inputs":[{"name":"basisPoints","type":"uint256","internalType":"uint256"}],"outputs":[],"stateMutability":"nonpayable"},{"type":"function","name":"setProtocolFeeAddress","inputs":[{"name":"newProtocolFeeAddress","type":"address","internalType":"address"}],"outputs":[],"stateMutability":"nonpayable"},{"type":"function","name":"setUserAllowedToCreateMarket","inputs":[{"name":"profileId","type":"uint256","internalType":"uint256"},{"name":"value","type":"bool","internalType":"bool"}],"outputs":[],"stateMutability":"nonpayable"},{"type":"function","name":"signatureUsed","inputs":[{"name":"","type":"bytes","internalType":"bytes"}],"outputs":[{"name":"","type":"bool","internalType":"bool"}],"stateMutability":"view"},{"type":"function","name":"signatureVerifier","inputs":[],"outputs":[{"name":"","type":"address","internalType":"address"}],"stateMutability":"view"},{"type":"function","name":"simulateBuy","inputs":[{"name":"profileId","type":"uint256","internalType":"uint256"},{"name":"isPositive","type":"bool","internalType":"bool"},{"name":"votesToBuy","type":"uint256","internalType":"uint256"}],"outputs":[{"name":"purchaseCostBeforeFees","type":"uint256","internalType":"uint256"},{"name":"protocolFee","type":"uint256","internalType":"uint256"},{"name":"donation","type":"uint256","internalType":"uint256"},{"name":"totalCostIncludingFees","type":"uint256","internalType":"uint256"},{"name":"newVotePrice","type":"uint256","internalType":"uint256"}],"stateMutability":"view"},{"type":"function","name":"simulateSell","inputs":[{"name":"profileId","type":"uint256","internalType":"uint256"},{"name":"isPositive","type":"bool","internalType":"bool"},{"name":"votesToSell","type":"uint256","internalType":"uint256"}],"outputs":[{"name":"proceedsBeforeFees","type":"uint256","internalType":"uint256"},{"name":"protocolFee","type":"uint256","internalType":"uint256"},{"name":"proceedsAfterFees","type":"uint256","internalType":"uint256"},{"name":"newVotePrice","type":"uint256","internalType":"uint256"}],"stateMutability":"view"},{"type":"function","name":"supportsInterface","inputs":[{"name":"interfaceId","type":"bytes4","internalType":"bytes4"}],"outputs":[{"name":"","type":"bool","internalType":"bool"}],"stateMutability":"view"},{"type":"function","name":"targetExistsAndAllowedForId","inputs":[{"name":"targetId","type":"uint256","internalType":"uint256"}],"outputs":[{"name":"exists","type":"bool","internalType":"bool"},{"name":"allowed","type":"bool","internalType":"bool"}],"stateMutability":"view"},{"type":"function","name":"unpause","inputs":[],"outputs":[],"stateMutability":"nonpayable"},{"type":"function","name":"updateContractAddressManager","inputs":[{"name":"contractAddressesAddr","type":"address","internalType":"address"}],"outputs":[],"stateMutability":"nonpayable"},{"type":"function","name":"updateDonationRecipient","inputs":[{"name":"profileId","type":"uint256","internalType":"uint256"},{"name":"newRecipient","type":"address","internalType":"address"}],"outputs":[],"stateMutability":"nonpayable"},{"type":"function","name":"updateExpectedSigner","inputs":[{"name":"signer","type":"address","internalType":"address"}],"outputs":[],"stateMutability":"nonpayable"},{"type":"function","name":"updateOwner","inputs":[{"name":"owner","type":"address","internalType":"address"}],"outputs":[],"stateMutability":"nonpayable"},{"type":"function","name":"updateSignatureVerifier","inputs":[{"name":"sinatureVerifier","type":"address","internalType":"address"}],"outputs":[],"stateMutability":"nonpayable"},{"type":"function","name":"upgradeToAndCall","inputs":[{"name":"newImplementation","type":"address","internalType":"address"},{"name":"data","type":"bytes","internalType":"bytes"}],"outputs":[],"stateMutability":"payable"},{"type":"function","name":"withdrawDonations","inputs":[],"outputs":[{"name":"","type":"uint256","internalType":"uint256"}],"stateMutability":"nonpayable"},{"type":"function","name":"withdrawGraduatedMarketFunds","inputs":[{"name":"profileId","type":"uint256","internalType":"uint256"}],"outputs":[],"stateMutability":"nonpayable"},{"type":"event","name":"DonationRecipientUpdated","inputs":[{"name":"profileId","type":"uint256","indexed":true,"internalType":"uint256"},{"name":"oldRecipient","type":"address","indexed":true,"internalType":"address"},{"name":"newRecipient","type":"address","indexed":true,"internalType":"address"}],"anonymous":false},{"type":"event","name":"DonationWithdrawn","inputs":[{"name":"recipient","type":"address","indexed":true,"internalType":"address"},{"name":"amount","type":"uint256","indexed":false,"internalType":"uint256"}],"anonymous":false},{"type":"event","name":"Initialized","inputs":[{"name":"version","type":"uint64","indexed":false,"internalType":"uint64"}],"anonymous":false},{"type":"event","name":"MarketConfigAdded","inputs":[{"name":"configIndex","type":"uint256","indexed":true,"internalType":"uint256"},{"name":"config","type":"tuple","indexed":false,"internalType":"struct ReputationMarket.MarketConfig","components":[{"name":"liquidity","type":"uint256","internalType":"uint256"},{"name":"basePrice","type":"uint256","internalType":"uint256"},{"name":"creationCost","type":"uint256","internalType":"uint256"}]}],"anonymous":false},{"type":"event","name":"MarketConfigRemoved","inputs":[{"name":"configIndex","type":"uint256","indexed":true,"internalType":"uint256"},{"name":"config","type":"tuple","indexed":false,"internalType":"struct ReputationMarket.MarketConfig","components":[{"name":"liquidity","type":"uint256","internalType":"uint256"},{"name":"basePrice","type":"uint256","internalType":"uint256"},{"name":"creationCost","type":"uint256","internalType":"uint256"}]}],"anonymous":false},{"type":"event","name":"MarketCreated","inputs":[{"name":"profileId","type":"uint256","indexed":true,"internalType":"uint256"},{"name":"creator","type":"address","indexed":true,"internalType":"address"},{"name":"config","type":"tuple","indexed":false,"internalType":"struct ReputationMarket.MarketConfig","components":[{"name":"liquidity","type":"uint256","internalType":"uint256"},{"name":"basePrice","type":"uint256","internalType":"uint256"},{"name":"creationCost","type":"uint256","internalType":"uint256"}]}],"anonymous":false},{"type":"event","name":"MarketFundsWithdrawn","inputs":[{"name":"profileId","type":"uint256","indexed":true,"internalType":"uint256"},{"name":"withdrawer","type":"address","indexed":true,"internalType":"address"},{"name":"amount","type":"uint256","indexed":false,"internalType":"uint256"}],"anonymous":false},{"type":"event","name":"MarketGraduated","inputs":[{"name":"profileId","type":"uint256","indexed":true,"internalType":"uint256"}],"anonymous":false},{"type":"event","name":"MarketUpdated","inputs":[{"name":"profileId","type":"uint256","indexed":true,"internalType":"uint256"},{"name":"voteTrust","type":"uint256","indexed":true,"internalType":"uint256"},{"name":"voteDistrust","type":"uint256","indexed":true,"internalType":"uint256"},{"name":"trustPrice","type":"uint256","indexed":false,"internalType":"uint256"},{"name":"distrustPrice","type":"uint256","indexed":false,"internalType":"uint256"},{"name":"deltaVoteTrust","type":"int256","indexed":false,"internalType":"int256"},{"name":"deltaVoteDistrust","type":"int256","indexed":false,"internalType":"int256"},{"name":"deltaTrustPrice","type":"int256","indexed":false,"internalType":"int256"},{"name":"deltaDistrustPrice","type":"int256","indexed":false,"internalType":"int256"},{"name":"blockNumber","type":"uint256","indexed":false,"internalType":"uint256"},{"name":"updatedAt","type":"uint256","indexed":false,"internalType":"uint256"}],"anonymous":false},{"type":"event","name":"Paused","inputs":[{"name":"account","type":"address","indexed":false,"internalType":"address"}],"anonymous":false},{"type":"event","name":"RoleAdminChanged","inputs":[{"name":"role","type":"bytes32","indexed":true,"internalType":"bytes32"},{"name":"previousAdminRole","type":"bytes32","indexed":true,"internalType":"bytes32"},{"name":"newAdminRole","type":"bytes32","indexed":true,"internalType":"bytes32"}],"anonymous":false},{"type":"event","name":"RoleGranted","inputs":[{"name":"role","type":"bytes32","indexed":true,"internalType":"bytes32"},{"name":"account","type":"address","indexed":true,"internalType":"address"},{"name":"sender","type":"address","indexed":true,"internalType":"address"}],"anonymous":false},{"type":"event","name":"RoleRevoked","inputs":[{"name":"role","type":"bytes32","indexed":true,"internalType":"bytes32"},{"name":"account","type":"address","indexed":true,"internalType":"address"},{"name":"sender","type":"address","indexed":true,"internalType":"address"}],"anonymous":false},{"type":"event","name":"Unpaused","inputs":[{"name":"account","type":"address","indexed":false,"internalType":"address"}],"anonymous":false},{"type":"event","name":"Upgraded","inputs":[{"name":"implementation","type":"address","indexed":true,"internalType":"address"}],"anonymous":false},{"type":"event","name":"VotesBought","inputs":[{"name":"profileId","type":"uint256","indexed":true,"internalType":"uint256"},{"name":"buyer","type":"address","indexed":true,"internalType":"address"},{"name":"isPositive","type":"bool","indexed":true,"internalType":"bool"},{"name":"amount","type":"uint256","indexed":false,"internalType":"uint256"},{"name":"funds","type":"uint256","indexed":false,"internalType":"uint256"},{"name":"boughtAt","type":"uint256","indexed":false,"internalType":"uint256"}],"anonymous":false},{"type":"event","name":"VotesSold","inputs":[{"name":"profileId","type":"uint256","indexed":true,"internalType":"uint256"},{"name":"seller","type":"address","indexed":true,"internalType":"address"},{"name":"isPositive","type":"bool","indexed":true,"internalType":"bool"},{"name":"amount","type":"uint256","indexed":false,"internalType":"uint256"},{"name":"funds","type":"uint256","indexed":false,"internalType":"uint256"},{"name":"soldAt","type":"uint256","indexed":false,"internalType":"uint256"}],"anonymous":false},{"type":"error","name":"AccessControlBadConfirmation","inputs":[]},{"type":"error","name":"AccessControlUnauthorizedAccount","inputs":[{"name":"account","type":"address","internalType":"address"},{"name":"neededRole","type":"bytes32","internalType":"bytes32"}]},{"type":"error","name":"AddressEmptyCode","inputs":[{"name":"target","type":"address","internalType":"address"}]},{"type":"error","name":"ERC1967InvalidImplementation","inputs":[{"name":"implementation","type":"address","internalType":"address"}]},{"type":"error","name":"ERC1967NonPayable","inputs":[]},{"type":"error","name":"EnforcedPause","inputs":[]},{"type":"error","name":"ExpectedPause","inputs":[]},{"type":"error","name":"FailedCall","inputs":[]},{"type":"error","name":"FeeTransferFailed","inputs":[{"name":"message","type":"string","internalType":"string"}]},{"type":"error","name":"InactiveMarket","inputs":[{"name":"profileId","type":"uint256","internalType":"uint256"}]},{"type":"error","name":"InsufficientFunds","inputs":[]},{"type":"error","name":"InsufficientLiquidity","inputs":[{"name":"creationCost","type":"uint256","internalType":"uint256"}]},{"type":"error","name":"InsufficientVotesOwned","inputs":[{"name":"profileId","type":"uint256","internalType":"uint256"},{"name":"addressStr","type":"address","internalType":"address"}]},{"type":"error","name":"InsufficientVotesToSell","inputs":[{"name":"profileId","type":"uint256","internalType":"uint256"}]},{"type":"error","name":"InvalidInitialization","inputs":[]},{"type":"error","name":"InvalidMarketConfigOption","inputs":[{"name":"message","type":"string","internalType":"string"}]},{"type":"error","name":"InvalidProfileId","inputs":[]},{"type":"error","name":"InvalidSignature","inputs":[]},{"type":"error","name":"MarketAlreadyExists","inputs":[{"name":"profileId","type":"uint256","internalType":"uint256"}]},{"type":"error","name":"MarketCreationUnauthorized","inputs":[{"name":"code","type":"uint8","internalType":"enum MarketCreationErrorCode"},{"name":"addressStr","type":"address","internalType":"address"},{"name":"profileId","type":"uint256","internalType":"uint256"}]},{"type":"error","name":"MarketDoesNotExist","inputs":[{"name":"profileId","type":"uint256","internalType":"uint256"}]},{"type":"error","name":"MarketNotGraduated","inputs":[]},{"type":"error","name":"NotInitializing","inputs":[]},{"type":"error","name":"ReentrancyGuardReentrantCall","inputs":[]},{"type":"error","name":"SellSlippageLimitExceeded","inputs":[{"name":"minimumPricePerVote","type":"uint256","internalType":"uint256"},{"name":"actualPricePerVote","type":"uint256","internalType":"uint256"}]},{"type":"error","name":"SignatureWasUsed","inputs":[]},{"type":"error","name":"UUPSUnauthorizedCallContext","inputs":[]},{"type":"error","name":"UUPSUnsupportedProxiableUUID","inputs":[{"name":"slot","type":"bytes32","internalType":"bytes32"}]},{"type":"error","name":"UnauthorizedGraduation","inputs":[]},{"type":"error","name":"UnauthorizedWithdrawal","inputs":[]},{"type":"error","name":"ZeroAddress","inputs":[]},{"type":"error","name":"ZeroAddressNotAllowed","inputs":[]}],"bytecode":{"object":"0x60a06040523461004157610011610045565b306080526001603655610022610045565b6040516145de90816101028239608051818181611dcc0152611fee0152f35b5f80fd5b7ff0c57e16840df040f15088dc2f81fe391c3923bec73e23a9662efc9c229c6a005460ff8160401c166100f2576002600160401b03196001600160401b0382160161008d5750565b6001600160401b0319166001600160401b039081177ff0c57e16840df040f15088dc2f81fe391c3923bec73e23a9662efc9c229c6a00556040519081527fc7f505b2f371ae2175ee4913f4499e1f2633a7b5936321eed1cdaeb6115181d290602090a1565b63f92ee8a960e01b5f5260045ffdfe6080806040526004361015610012575f80fd5b5f3560e01c90816301ffc9a714612ea15750806308473f6414612e5e5780631459457a14612ae15780631785f53c14612a5d5780631b2628db14612a2b5780631b6c743b14612a0a578063248a9ca3146129ec5780632a67ef19146129865780632bdd87ff1461293b5780632cb3e494146129145780632f2ff15d146128e357806331c551f8146128b45780633479e549146126fe57806334a7fe06146126be57806336568abe1461267a5780633a5edec5146125e25780633d5a8a891461241b5780633ea686e5146123f15780633f4ba83a1461231d5780634496fda214612300578063451fb954146121d1578063463ed22f146121875780634f1ef28614611fb057806350de8bb814611e2057806352d1902d14611dba5780635667981b14611d6e5780635c59752614611c835780635c975abb14611c55578063606d9be014611b34578063626f78f214611af1578063668739cd14611a795780636b7b911214611a2a5780636bc8316114611a0d5780637048027514611989578063758d9b891461194057806375b238fc1461191957806377166067146118a657806377e414ef146116d557806381fb1fb41461169e5780638456cb591461158457806386ae5fec14611551578063880cdc31146114365780639010d07c146113e457806391d148541461138f578063955113f51461126f578063a12c64b5146111fd578063a217fddf146111e3578063a3246ad314611128578063ad3cb1cc146110e9578063ade9ae97146110c1578063aea0e35f14610e6c578063b16f005514610e4c578063b36fed5f14610e2f578063b481768214610e00578063bb10c82914610da5578063bf0a787114610c25578063c08487af14610b97578063c1f779f214610b7a578063c53c78ec146107d7578063ca15c873146107a1578063cce516b714610779578063ce1b088a14610692578063d547741f1461065a578063e4cfcc2314610606578063e58378bb146105df578063eb44fdd31461053a578063f4e1c7e414610502578063f56bb7a71461033f5763fde919f614610313575f80fd5b3461033b575f36600319011261033b576001546040516001600160a01b039091168152602090f35b5f80fd5b3461033b57602036600319011261033b5760043561035b613269565b6103636133c9565b603b5460018111156104c5578082101561048d57817f087555afdfef1529b3b03cf9188e43c437739621c8ba62c7f582d72868a128896103cc6103a58361308e565b50604080518254815260018301546020820152600290920154908201529081906060820190565b0390a25f1981019081116104795780820361043a575b5050603b548015610426575f19016103f98161308e565b6104135760025f918281558260018201550155603b555f80f35b634e487b7160e01b5f525f60045260245ffd5b634e487b7160e01b5f52603160045260245ffd5b61044661044d9161308e565b509161308e565b919091610413578181146103e257600281819254845560018101546001850155015491015580806103e2565b634e487b7160e01b5f52601160045260245ffd5b6040516326b4a1e160e01b815260206004820152600f60248201526e1a5b99195e081b9bdd08199bdd5b99608a1b6044820152606490fd5b6040516326b4a1e160e01b81526020600482015260146024820152734d757374206b656570206f6e6520636f6e66696760601b6044820152606490fd5b3461033b57602036600319011261033b576001600160a01b03610523612f0e565b165f526043602052602060405f2054604051908152f35b3461033b57602036600319011261033b576105db6004356105596131e3565b505f818152603c60205260409081902060018101548154600283015460039093015493519490919061058a86612f65565b855260208501526040840152606083015260808201526040519182918291909160808060a0830194805184526020810151602085015260408101516040850152606081015160608501520151910152565b0390f35b3461033b575f36600319011261033b5760206040515f805160206144a98339815191528152f35b3461033b57602036600319011261033b57600435603b5481101561033b5761062d9061308e565b5080546105db60026001840154930154604051938493846040919493926060820195825260208201520152565b3461033b57604036600319011261033b57610690600435610679612f24565b9061068b61068682613140565b6132fb565b613341565b005b3461033b575f36600319011261033b576106aa6133c9565b6106b26133f0565b335f52604360205260405f2054801561076a57335f5260436020525f60408120555f80808084335af16106e361323a565b5015610724576020906040518181527f84be5dad61c795759fa50da4da9ff0ffc28c522295c26854247b7d22728d8c01833392a26001603655604051908152f35b60405163123cc24f60e31b815260206004820152601a60248201527f446f6e6174696f6e207769746864726177616c206661696c65640000000000006044820152606490fd5b63356680b760e01b5f5260045ffd5b3461033b575f36600319011261033b576039546040516001600160a01b039091168152602090f35b3461033b57602036600319011261033b576004355f525f80516020614469833981519152602052602060405f2054604051908152f35b6107e036613028565b6107eb9392936133c9565b825f52603e60205260ff60405f205416610b67576108076133f0565b610810836134a1565b825f52603c60205260405f20908460405161082a81612f49565b604051845f825b60028210610b4d57505050610866948161084e6040600394612f81565b83526002810154602084015201546040820152613c4a565b92505050341061076a57815f52603c60205260405f2081846040519261088b84612f49565b604051815f825b60028210610b30575050506108b094918161084e6040600394612f81565b929091905b348411610abe57855f52603c6020526109046108dd60405f20895f14610ab75760019061320d565b81929154906108f189838360031b1c61315e565b919060031b91821b915f19901b19161790565b9055335f52604060205260405f20865f526020526109316108dd60405f20895f14610ab75760019061320d565b90555f86815260426020908152604080832033845290915290205460ff16156109f7575b6109e1966109a38780957f127b56e5a89bb21afd71f9e357b1b6f1249e073579cefeda91e8d4fe76b0270b956109d995835f52603d60205261099c60405f2091825461315e565b90556138cf565b506109ae85346131c5565b806109e8575b5060405191829115159633964291846040919493926060820195825260208201520152565b0390a46139dc565b6001603655005b6109f190613970565b886109b4565b855f52604160205260405f2096875497600160401b891015610aa3578780957f127b56e5a89bb21afd71f9e357b1b6f1249e073579cefeda91e8d4fe76b0270b956109d995610a528d6109a3966109e19f600101815561304f565b81549060031b9033821b9160018060a01b03901b1916179055835f52604260205260405f2060018060a01b0333165f5260205260405f20600160ff1982541617905595509550955050509650610955565b634e487b7160e01b5f52604160045260245ffd5b5f9061320d565b505050508015610479575f1901815f52603c60205260405f20818460405192610ae684612f49565b6040515f82825b60028310610b1457505050610b0b94918161084e6040600394612f81565b929091906108b5565b815481528896508a955060019283019290910190602001610aed565b825481528896508a95506001928301929190910190602001610892565b825481528a95506001928301929190910190602001610831565b82631b3b82ab60e21b5f5260045260245ffd5b3461033b575f36600319011261033b576020603b54604051908152f35b3461033b57602036600319011261033b57600435610bb3613269565b610bbb6133c9565b6039546001600160a01b031615610c16576101f48111610bda57603855005b6040516326b4a1e160e01b81526020600482015260136024820152724665652065786365656473206d6178696d756d60681b6044820152606490fd5b63d92e233d60e01b5f5260045ffd5b3461033b57602036600319011261033b57600435610c416133c9565b610c496133f0565b60035460405163d57f7aa360e01b8152602060048201819052601560248301527411d490511550551253d397d5d2551211149055d053605a1b60448301529091829060649082906001600160a01b03165afa908115610d9a575f91610d6b575b506001600160a01b03163303610d5c57610cc2816134a1565b805f52603e60205260ff60405f20541615610d4d57805f52603d60205260405f20541561076a57805f52603d602052610cfe60405f2054613970565b805f52603d60205260405f2054604051908152817fc513e2f25032def6fadc6ba9ec688cc5ac433480c1da4db9ea2c6a065ff15c1460203393a35f908152603d60205260408120556001603655005b630522bdf560e31b5f5260045ffd5b6360b39bc560e01b5f5260045ffd5b610d8d915060203d602011610d93575b610d858183612f81565b8101906131a6565b82610ca9565b503d610d7b565b6040513d5f823e3d90fd5b3461033b57602036600319011261033b5760043567ffffffffffffffff811161033b5760ff602080610ddc81943690600401612fbf565b604051928184925191829101835e8101600281520301902054166040519015158152f35b3461033b57602036600319011261033b576004355f526045602052602060ff60405f2054166040519015158152f35b3461033b575f36600319011261033b576020603754604051908152f35b3461033b575f36600319011261033b576020604051655af3107a40008152f35b5f36600319011261033b57610e7f6133c9565b610e876133c9565b610e903361359f565b60ff60465416806110aa575b61109057610ea86133f0565b805f52603c602052600160405f2001541580159061107b575b61106957603b541561102c576002610ed76130aa565b500154335f9081525f80516020614489833981519152602052604090205460ff166110185780341061100657815f52603d6020528060405f2055803411610fee575b505b5f818152603c6020526040902060018181018190559081905590610fe99082610f426130aa565b500154815f52603c602052600260405f200155610f5d6130aa565b50545f828152603c6020908152604080832060030193909355604490522080546001600160a01b03191633179055610f936130aa565b50817f3ad3277bf8dd109a480fc999867b6e02a6c352dd8aee06330693349cbb5f3a6f60405180610fe133958291909160406002606083019480548452600181015460208501520154910152565b0390a36139dc565b603655005b610ffb61100091346131c5565b613970565b81610f19565b63c730333f60e01b5f5260045260245ffd5b50805f52603d6020523460405f2055610f1b565b6040516326b4a1e160e01b8152602060048201526014602482015273092dcecc2d8d2c840c6dedcccd2ce40d2dcc8caf60631b6044820152606490fd5b6311453d1960e31b5f5260045260245ffd5b50805f52603c60205260405f20541515610ec1565b631698611760e01b5f525f6004523360245260445260645ffd5b50805f52604560205260ff60405f20541615610e9c565b3461033b575f36600319011261033b576003546040516001600160a01b039091168152602090f35b3461033b575f36600319011261033b576105db60405161110a604082612f81565b60058152640352e302e360dc1b602082015260405191829182613064565b3461033b57602036600319011261033b576004355f525f8051602061446983398151915260205260405f20604051806020835491828152019081935f5260205f20905f5b8181106111cd5750505081611182910382612f81565b604051918291602083019060208452518091526040830191905f5b8181106111ab575050500390f35b82516001600160a01b031684528594506020938401939092019160010161119d565b825484526020909301926001928301920161116c565b3461033b575f36600319011261033b5760206040515f8152f35b3461033b57602036600319011261033b576040600435805f52603c6020526001825f2001541580159061125b575b809181611244575b508251911515825215156020820152f35b90505f52603e60205260ff825f2054161583611233565b50805f52603c602052815f2054151561122b565b3461033b5761127d36613005565b91805f52603e60205260ff60405f20541661137d5761129b816134a1565b5f52603c60205260405f2091604051926112b484612f49565b604051815f825b60028210611367575050506105db9291816112d96040600394612f81565b865260028101546020870152015460408501526113316112fa828587613c4a565b9392969197909461132b825191845f1461135d576113256001915b61131f83866131d2565b5161315e565b926131d2565b526134e5565b91604051958695869192608093969594919660a084019784526020840152604083015260608201520152565b6113255f91611315565b60016020819285548152019301910190916112bb565b631b3b82ab60e21b5f5260045260245ffd5b3461033b57604036600319011261033b576113a8612f24565b6004355f525f8051602061450983398151915260205260405f209060018060a01b03165f52602052602060ff60405f2054166040519015158152f35b3461033b57604036600319011261033b576004355f525f80516020614469833981519152602052602061141d60405f206024359061304f565b905460405160039290921b1c6001600160a01b03168152f35b3461033b57602036600319011261033b5761144f612f0e565b6114576132b2565b5f805160206144a98339815191525f525f805160206144698339815191526020525f8051602061456983398151915280541561153d575f90815260209020546001600160a01b03166114a881613ebb565b6114fe575b506114b781613ffe565b6114bd57005b5f805160206144a98339815191525f525f80516020614469833981519152602052610690906001600160a01b03165f80516020614569833981519152614319565b5f805160206144a98339815191525f525f80516020614469833981519152602052611536905f80516020614569833981519152614252565b50816114ad565b634e487b7160e01b5f52603260045260245ffd5b3461033b57602036600319011261033b5760043561156e816134a1565b5f526041602052602060405f2054604051908152f35b3461033b575f36600319011261033b576003546115cb906020906001600160a01b03166115af61316b565b90604051808095819463d57f7aa360e01b835260048301613064565b03915afa908115610d9a575f9161167f575b50336001600160a01b0390911603611648576115f76133c9565b600160ff195f805160206145298339815191525416175f80516020614529833981519152557f62e78cea01bee320cd4e420270b5ea74000d11b0c9f74754ebdbfc544b05a2586020604051338152a1005b63e2517d3f60e01b5f52336004527f261fea28325784de45eba41a3fbb84c4196fbab02ee802566edfe26616ba5afb60245260445ffd5b611698915060203d602011610d9357610d858183612f81565b816115dd565b3461033b57604036600319011261033b576024356004355f52604160205260405f20805482101561033b5760209161141d9161304f565b3461033b576116e336613028565b6116ee9392936133c9565b825f52603e60205260ff60405f205416610b675761170a6133f0565b611713836134a1565b825f52603c60205260405f208285856040519361172f85612f49565b604051815f825b600282106118875750505061176c9591816117546040600394612f81565b83526002810154602084015201546040820152613635565b92909190841561188057611780858361321c565b905b80821061186b5750506109d96109e19661183d8780957f6ff107c1bb6ab7da6f8a9d94ec83a6e4da26b767fce6471fbae30a6384d70fe695825f52603c602052896117ef6117dc60405f20885f14610ab75760019061320d565b6108f18294925492838360031b1c6131c5565b9055335f52604060205260405f20835f526020528961181d6117dc60405f20885f14610ab75760019061320d565b9055825f52603d60205261183660405f209182546131c5565b9055613841565b5061184785613970565b60405191829115159633964291846040919493926060820195825260208201520152565b632bcaac5d60e11b5f5260045260245260445ffd5b5f90611782565b825481528a97508c96508b955060019283019290910190602001611736565b3461033b57604036600319011261033b576105db6118c2612f0e565b602435906118ce6131e3565b506001600160a01b03165f90815260406020818152818320848452815281832060018101549054603c9092529282902060028101546003909101549251949293909261058a86612f65565b3461033b575f36600319011261033b5760206040515f805160206145498339815191528152f35b3461033b57604036600319011261033b57611959612f24565b6004355f52604260205260405f209060018060a01b03165f52602052602060ff60405f2054166040519015158152f35b3461033b57602036600319011261033b576119a2612f0e565b6119aa6132b2565b6119b381614091565b6119b957005b5f805160206145498339815191525f525f80516020614469833981519152602052610690906001600160a01b03167f46448fd7a7b40360a1323cb3199d0aafeb92ce905bb512a6bb7d3d3f685cf1b1614319565b3461033b575f36600319011261033b576020603854604051908152f35b3461033b57602036600319011261033b57611a43612f0e565b611a4b613269565b611a536133c9565b6001600160a01b03168015610c16576001600160601b0360a01b60395416176039555f80f35b3461033b57602036600319011261033b57600435611a95613269565b611a9d6133c9565b6101f48111611aab57603a55005b6040516326b4a1e160e01b815260206004820152601860248201527f446f6e6174696f6e2065786365656473206d6178696d756d00000000000000006044820152606490fd5b3461033b57602036600319011261033b57600435611b0d613269565b611b156133c9565b6039546001600160a01b031615610c16576101f48111610bda57603755005b3461033b57602036600319011261033b57600435611b506133c9565b805f52603e60205260ff60405f20541661137d57611b6c6133f0565b60035460405163d57f7aa360e01b8152602060048201819052601560248301527411d490511550551253d397d5d2551211149055d053605a1b60448301529091829060649082906001600160a01b03165afa908115610d9a575f91611c36575b506001600160a01b03163303611c2757611be5816134a1565b805f52603e60205260405f20600160ff198254161790557fc64432ddbf1c9080f50761798ca21775e2f22b3a364b325fc193447426ae543d5f80a26001603655005b6344cbf27b60e11b5f5260045ffd5b611c4f915060203d602011610d9357610d858183612f81565b82611bcc565b3461033b575f36600319011261033b57602060ff5f8051602061452983398151915254166040519015158152f35b3461033b57611c9136613005565b825f52603e60205260ff60405f205416610b6757611cae836134a1565b825f52603c60205260405f209160405192611cc884612f49565b604051815f825b60028210611d585750505083836080976003611d369585611cf46040611d0d98612f81565b8a52600281015460208b01520154604089015287613635565b939195909461132b825191845f14611d4e576113256001915b611d3083866131d2565b516131c5565b91604051938452602084015260408301526060820152f35b6113255f91611d26565b6001602081928554815201930191019091611ccf565b3461033b57602036600319011261033b57611d87612f0e565b611d8f613269565b611d9881613fee565b600180546001600160a01b0319166001600160a01b0392909216919091179055005b3461033b575f36600319011261033b577f00000000000000000000000000000000000000000000000000000000000000006001600160a01b03163003611e115760206040515f805160206144c98339815191528152f35b63703e46dd60e11b5f5260045ffd5b604036600319011261033b57611e34612f0e565b60243590611e406133c9565b611e48613269565b611e518161359f565b611e596133f0565b805f52603c602052600160405f20015415801590611f9b575b61106957603b5483101561102c576002611e8b8461308e565b500154335f9081525f80516020614489833981519152602052604090205490939060ff16611f7e57833410611f6b57610f9390610fe99394835f52603d6020528060405f2055803411611f58575b505b5f838152603c602052604090206001818101819055908190559485611eff8361308e565b500154845f52603c602052600260405f200155611f1b8261308e565b5054845f52603c602052600360405f200155835f52604460205260405f209060018060a01b03166001600160601b0360a01b82541617905561308e565b610ffb611f6591346131c5565b85611ed9565b8363c730333f60e01b5f5260045260245ffd5b610fe9929350610f9390825f52603d6020523460405f2055611edb565b50805f52603c60205260405f20541515611e72565b604036600319011261033b57611fc4612f0e565b60243567ffffffffffffffff811161033b57611fe4903690600401612fbf565b6001600160a01b037f000000000000000000000000000000000000000000000000000000000000000016308114908115612165575b50611e11576120266132b2565b61202f82613fee565b6040516352d1902d60e01b81526001600160a01b0383169290602081600481875afa5f9181612131575b506120715783634c9c8ce360e01b5f5260045260245ffd5b805f805160206144c983398151915285920361211f5750813b1561210d575f805160206144c983398151915280546001600160a01b031916821790557fbc7cd75a20ee27fd9adebab32041f755214dbc6bffa90cc0225b39da2e5c2d3b5f80a28151156120f5575f8083602061069095519101845af46120ef61323a565b9161440a565b5050346120fe57005b63b398979f60e01b5f5260045ffd5b634c9c8ce360e01b5f5260045260245ffd5b632a87526960e21b5f5260045260245ffd5b9091506020813d60201161215d575b8161214d60209383612f81565b8101031261033b57519085612059565b3d9150612140565b5f805160206144c9833981519152546001600160a01b03161415905083612019565b3461033b57604036600319011261033b576121a0612f3a565b6121a8613269565b6121b06133c9565b6004355f52604560205260405f209060ff8019835416911515161790555f80f35b3461033b57606036600319011261033b576024356004356121f0613269565b6121f86133c9565b606481106122c257655af3107a4000821061227c57612232916040519161221e83612f49565b8252602082015260443560408201526130dc565b603b545f1981019081116104795780807fda28879299d445916d616634b69d4b83d49de267b7be35bc91e7358a8f0c1f996122716103a560209561308e565b0390a2604051908152f35b6040516326b4a1e160e01b815260206004820152601760248201527f496e73756666696369656e7420626173652070726963650000000000000000006044820152606490fd5b6040516326b4a1e160e01b8152602060048201526015602482015274135a5b881b1a5c5d5a591a5d1e481b9bdd081b595d605a1b6044820152606490fd5b3461033b575f36600319011261033b576020603a54604051908152f35b3461033b575f36600319011261033b57600354612348906020906001600160a01b03166115af61316b565b03915afa908115610d9a575f916123d2575b50336001600160a01b0390911603611648575f805160206145298339815191525460ff8116156123c35760ff19165f80516020614529833981519152557f5db9ee0a495bf2e6ff9c91a7834c1ba4fdd244a5e8aa4e537bd38aeae4b073aa6020604051338152a1005b638dfc202b60e01b5f5260045ffd5b6123eb915060203d602011610d9357610d858183612f81565b8161235a565b3461033b57602036600319011261033b576004355f52603d602052602060405f2054604051908152f35b602036600319011261033b576004356124326133c9565b61243b3361359f565b9060ff60465416806125cb575b6125b0576124546133f0565b815f52603c602052600160405f2001541580159061259b575b61258857603b5481101561102c5760026124868261308e565b500154335f9081525f80516020614489833981519152602052604090205490929060ff1661256f5782341061255c57610fe99192815f52603d6020528060405f2055803411612549575b505b5f818152603c6020526040902060018181018190559081905592610f9390846124fa8261308e565b500154835f52603c602052600260405f2001556125168161308e565b50545f848152603c6020908152604080832060030193909355604490522080546001600160a01b0319163317905561308e565b610ffb61255691346131c5565b836124d0565b8263c730333f60e01b5f5260045260245ffd5b610fe9919250805f52603d6020523460405f20556124d2565b506311453d1960e31b5f5260045260245ffd5b50815f52603c60205260405f2054151561246d565b50631698611760e01b5f525f6004523360245260445260645ffd5b50815f52604560205260ff60405f20541615612448565b3461033b57604036600319011261033b576004356125fe612f3a565b90612608816134a1565b5f52603c60205260405f206040519061262082612f49565b604051815f825b6002821061266457602061265c888860038989612645604082612f81565b8352600281015486840152015460408201526134e5565b604051908152f35b6001602081928554815201930191019091612627565b3461033b57604036600319011261033b57612693612f24565b336001600160a01b038216036126af5761069090600435613341565b63334bd91960e11b5f5260045ffd5b3461033b57602036600319011261033b5760043580151580910361033b576126e4613269565b6126ec6133c9565b60ff8019604654169116176046555f80f35b3461033b57604036600319011261033b5760043561271a612f24565b6127226133c9565b61272a6133f0565b6001600160a01b0316908115610c1657815f52604360205260405f205461286e575f818152604460205260409020546001600160a01b0316330361282a57602460206001600160a01b0361277c613410565b166040519283809263b8861c2360e01b82528760048301525afa8015610d9a5782915f91612839575b500361282a57805f52604460205260405f20826001600160601b0360a01b825416179055335f52604360205260405f2054825f5260436020526127ed60405f2091825461315e565b9055335f5260436020525f604081205533907ffb15575860585f4d6abcf80b6e152cec3b2fca33520fefee464267ac915c109b5f80a46001603655005b6303b925cf60e31b5f5260045ffd5b9150506020813d602011612866575b8161285560209383612f81565b8101031261033b57819051846127a5565b3d9150612848565b6040516326b4a1e160e01b815260206004820152601e60248201527f446f6e6174696f6e20726563697069656e74206861732062616c616e636500006044820152606490fd5b3461033b57602036600319011261033b576004355f52603e602052602060ff60405f2054166040519015158152f35b3461033b57604036600319011261033b57610690600435612902612f24565b9061290f61068682613140565b613387565b3461033b575f36600319011261033b575f546040516001600160a01b039091168152602090f35b3461033b57602036600319011261033b57612954612f0e565b61295c613269565b61296581613fee565b5f80546001600160a01b0319166001600160a01b0392909216919091179055005b3461033b57602036600319011261033b576004355f52603f60205260405f2080546105db6001830154926002810154906004600382015491015491604051958695869192608093969594919660a084019784526020840152604083015260608201520152565b3461033b57602036600319011261033b57602061265c600435613140565b3461033b575f36600319011261033b576020604051662386f26fc100008152f35b3461033b57602036600319011261033b576004355f526044602052602060018060a01b0360405f205416604051908152f35b3461033b57602036600319011261033b57612a76612f0e565b612a7e6132b2565b612a8781613e25565b612a8d57005b5f805160206145498339815191525f525f80516020614469833981519152602052610690906001600160a01b03167f46448fd7a7b40360a1323cb3199d0aafeb92ce905bb512a6bb7d3d3f685cf1b1614252565b3461033b5760a036600319011261033b57612afa612f0e565b612b02612f24565b6044356001600160a01b038116810361033b576064356001600160a01b0381169384820361033b576084356001600160a01b0381169081900361033b575f80516020614589833981519152549560ff8760401c16159667ffffffffffffffff811680159081612e56575b6001149081612e4c575b159081612e43575b50612e345767ffffffffffffffff1981166001175f805160206145898339815191525587612e08575b50612bb0613dfa565b6001600160a01b0383169485158015612df7575b8015612def575b610c1657612c3194612c0691612bdf613dfa565b612be881613fee565b60018060a01b03166001600160601b0360a01b5f5416175f55613fee565b6001600160601b0360a01b60015416176001556001600160601b0360a01b6003541617600355613ffe565b612db0575b50612c4081614091565b612d55575b50612c4e613dfa565b600160ff196046541617604655612c8f604051612c6a81612f49565b6103e88152662386f26fc1000060208201526702c68af0bb14000060408201526130dc565b612cc3604051612c9e81612f49565b6127108152662386f26fc1000060208201526706f05b59d3b2000060408201526130dc565b612cf8604051612cd281612f49565b620186a08152662386f26fc100006020820152670de0b6b3a764000060408201526130dc565b612cfe57005b68ff0000000000000000195f8051602061458983398151915254165f80516020614589833981519152557fc7f505b2f371ae2175ee4913f4499e1f2633a7b5936321eed1cdaeb6115181d2602060405160018152a1005b5f805160206145498339815191525f525f80516020614469833981519152602052612da9906001600160a01b03167f46448fd7a7b40360a1323cb3199d0aafeb92ce905bb512a6bb7d3d3f685cf1b1614319565b5081612c45565b5f805160206144a98339815191525f525f80516020614469833981519152602052612de8905f80516020614569833981519152614319565b5082612c36565b508215612bcb565b506001600160a01b03871615612bc4565b68ffffffffffffffffff191668010000000000000001175f805160206145898339815191525587612ba7565b63f92ee8a960e01b5f5260045ffd5b90501589612b7e565b303b159150612b76565b899150612b6c565b3461033b57602036600319011261033b57612e77612f0e565b612e7f613269565b600380546001600160a01b0319166001600160a01b0392909216919091179055005b3461033b57602036600319011261033b576004359063ffffffff60e01b821680920361033b57602091635a05180f60e01b8114908115612ee3575b5015158152f35b637965db0b60e01b811491508115612efd575b5083612edc565b6301ffc9a760e01b14905083612ef6565b600435906001600160a01b038216820361033b57565b602435906001600160a01b038216820361033b57565b60243590811515820361033b57565b6060810190811067ffffffffffffffff821117610aa357604052565b60a0810190811067ffffffffffffffff821117610aa357604052565b90601f8019910116810190811067ffffffffffffffff821117610aa357604052565b67ffffffffffffffff8111610aa357601f01601f191660200190565b81601f8201121561033b57803590612fd682612fa3565b92612fe46040519485612f81565b8284526020838301011161033b57815f926020809301838601378301015290565b606090600319011261033b5760043590602435801515810361033b579060443590565b608090600319011261033b5760043590602435801515810361033b57906044359060643590565b805482101561153d575f5260205f2001905f90565b602060409281835280519182918282860152018484015e5f828201840152601f01601f1916010190565b603b5481101561153d57603b5f52600360205f20910201905f90565b603b541561153d57603b5f9081527fbbe3212124853f8b0084a66a2d057c2966e251e132af3691db153ab65f0d1a4d91565b603b54600160401b811015610aa35760018101603b55603b5481101561153d57603b5f526003027fbbe3212124853f8b0084a66a2d057c2966e251e132af3691db153ab65f0d1a4d0190604081600292518455602081015160018501550151910155565b5f525f80516020614509833981519152602052600160405f20015490565b9190820180921161047957565b6040519061317a604083612f81565b601982527f4554484f535f494e544552414354494f4e5f434f4e54524f4c000000000000006020830152565b9081602091031261033b57516001600160a01b038116810361033b5790565b9190820391821161047957565b90600281101561153d5760051b0190565b604051906131f082612f65565b5f6080838281528260208201528260408201528260608201520152565b600282101561153d5701905f90565b8115613226570490565b634e487b7160e01b5f52601260045260245ffd5b3d15613264573d9061324b82612fa3565b916132596040519384612f81565b82523d5f602084013e565b606090565b335f9081525f80516020614489833981519152602052604090205460ff161561328e57565b63e2517d3f60e01b5f52336004525f8051602061454983398151915260245260445ffd5b335f9081525f805160206144e9833981519152602052604090205460ff16156132d757565b63e2517d3f60e01b5f52336004525f805160206144a983398151915260245260445ffd5b5f8181525f805160206145098339815191526020908152604080832033845290915290205460ff161561332b5750565b63e2517d3f60e01b5f523360045260245260445ffd5b61334b8282613f4c565b918261335657505090565b5f9182525f805160206144698339815191526020526040909120613383916001600160a01b031690614252565b5090565b6133918282614124565b918261339c57505090565b5f9182525f805160206144698339815191526020526040909120613383916001600160a01b031690614319565b60ff5f8051602061452983398151915254166133e157565b63d93c066560e01b5f5260045ffd5b600260365414613401576002603655565b633ee5aeb560e01b5f5260045ffd5b613463602060018060a01b03600354166040519061342f604083612f81565b600d82526c4554484f535f50524f46494c4560981b83830152604051808095819463d57f7aa360e01b835260048301613064565b03915afa908115610d9a575f91613482575b506001600160a01b031690565b61349b915060203d602011610d9357610d858183612f81565b5f613475565b805f52603c602052600160405f20015415806134d1575b6134bf5750565b630fff01a760e31b5f5260045260245ffd5b50805f52603c60205260405f2054156134b8565b906020825101519082515160408401519060405193632d7a0e7560e11b8552600485015260248401526044830152801515606483015260208260848173__$ded9343eca248ff118fa635efa27984c74$__5af4918215610d9a575f92613568575b50602061355d930151905f14613560575f916141c2565b90565b6001916141c2565b9291506020833d602011613597575b8161358460209383612f81565b8101031261033b57915190916020613546565b3d9150613577565b6001600160a01b031680156136265760206001600160a01b036135c0613410565b169160246040518094819363b8861c2360e01b835260048301525afa908115610d9a575f916135f4575b50801561282a5790565b90506020813d60201161361e575b8161360f60209383612f81565b8101031261033b57515f6135ea565b3d9150613602565b6342bcdf7f60e11b5f5260045ffd5b9190335f52604060205260405f20815f5260205261365f60405f20835f14610ab75760019061320d565b90549060031b1c841161382b57836136818451845f14613824576001906131d2565b5110613812575060405192613697606085612f81565b60028452604036602086013781156137e7576136b8906020845101516131c5565b6136c184614222565b528151516136ce8461422f565b525b60208083510151835151906137326136f16136ea88614222565b519761422f565b51604087015190604051988995869563da805cd360e01b8752600487019192608093969594919660a084019784526020840152604083015260608201520152565b038173__$ded9343eca248ff118fa635efa27984c74$__5af4928315610d9a575f936137b3575b505f83131561379557602061377993925b01519015613560575f916141c2565b809161355d61271061378d6038548561423f565b0480936131c5565b825f03928084055f191490151715610479576020613779939261376a565b9092506020813d6020116137df575b816137cf60209383612f81565b8101031261033b5751915f613759565b3d91506137c2565b613803906020845101516137fa86614222565b528351516131c5565b61380c8461422f565b526136d0565b6334b07dbb60e01b5f5260045260245ffd5b5f906131d2565b63ecf1248b60e01b5f526004523360245260445ffd5b5f9182526044602090815260408320546001600160a01b031690925260439091528061386a5790565b5f8080808460018060a01b03603954165af161388461323a565b5061355d5760405163123cc24f60e31b815260206004820152601b60248201527f50726f746f636f6c20666565206465706f736974206661696c656400000000006044820152606490fd5b915f52604460205260018060a01b0360405f2054165f52604360205260405f206138fa82825461315e565b90558161390b575b61355d9161315e565b5f8080808560018060a01b03603954165af161392561323a565b506139025760405163123cc24f60e31b815260206004820152601b60248201527f50726f746f636f6c20666565206465706f736974206661696c656400000000006044820152606490fd5b5f80808093335af161398061323a565b501561398857565b60405163123cc24f60e31b8152602060048201526013602482015272115512081d1c985b9cd9995c8819985a5b1959606a1b6044820152606490fd5b81810392915f13801582851316918412161761047957565b6139e5816134a1565b6139ee816134a1565b805f52603c60205260405f2060405190613a0782612f49565b604051815f825b60028210613c345750505091600360019284613a2e6040613a4697612f81565b835260028101546020840152015460408201526134e5565b90613a50816134a1565b805f52603c60205260405f2060405190613a6982612f49565b604051815f825b60028210613c1e57505050600493926003613a929383613a2e60405f96612f81565b5f828152603f602052604090208381015415613bd857825f52603c602052613ac3600160405f2001548254906139c4565b90835f52603c602052837f7848c3bf7c98a684210c7cfd1e092dd69365793507a165aa2c49c76ec2924d9d610100613b0460405f20546001860154906139c4565b94613b216003613b1860028801548d6139c4565b960154886139c4565b845f52603c602052600160405f20015495855f52603c60205260405f205497604051938d85528a602086015260408501526060840152608083015260a08201524360c08201524260e0820152a45f828152603c602052604090819020600181015490549151959190613b9287612f65565b865260208601908152604086019182526060860192835260808601934385525f52603f60205260405f209551865551600186015551600285015551600384015551910155565b505f828152603c602052604090206001810154905490859084907f7848c3bf7c98a684210c7cfd1e092dd69365793507a165aa2c49c76ec2924d9d906101009086613b21565b6001602081928554815201930191019091613a70565b6001602081928554815201930191019091613a0e565b909160405190613c5b606083612f81565b6002825260403660208401378315613dcf57613c7c9060208451015161315e565b613c8582614222565b52815151613c928261422f565b525b6020808351015183515190613cf6613cb5613cae86614222565b519561422f565b51604087015190604051968795869563da805cd360e01b8752600487019192608093969594919660a084019784526020840152604083015260608201520152565b038173__$ded9343eca248ff118fa635efa27984c74$__5af4908115610d9a575f91613d9d575b505f811315613d7a57613d7492613d3f92602001519015613560575f916141c2565b8092612710613d506037548461423f565b04928392613d6f612710613d66603a548461423f565b0495869261315e565b61315e565b92919290565b90815f03918083055f19149015171561047957613d74926020613d3f939261376a565b90506020813d602011613dc7575b81613db860209383612f81565b8101031261033b57515f613d1d565b3d9150613dab565b613deb90602084510151613de284614222565b5283515161315e565b613df48261422f565b52613c94565b60ff5f805160206145898339815191525460401c1615613e1657565b631afcd79f60e31b5f5260045ffd5b6001600160a01b0381165f9081525f80516020614489833981519152602052604090205460ff1615613eb6576001600160a01b03165f8181525f8051602061448983398151915260205260408120805460ff191690553391905f80516020614549833981519152907ff6391f5c32d9c69d2a47ea670b442974b53935d1edc7fd64eb21e047a839171b9080a4600190565b505f90565b6001600160a01b0381165f9081525f805160206144e9833981519152602052604090205460ff1615613eb6576001600160a01b03165f8181525f805160206144e983398151915260205260408120805460ff191690553391905f805160206144a9833981519152907ff6391f5c32d9c69d2a47ea670b442974b53935d1edc7fd64eb21e047a839171b9080a4600190565b5f8181525f80516020614509833981519152602090815260408083206001600160a01b038616845290915290205460ff1615613fe8575f8181525f80516020614509833981519152602090815260408083206001600160a01b0395909516808452949091528120805460ff19169055339291907ff6391f5c32d9c69d2a47ea670b442974b53935d1edc7fd64eb21e047a839171b9080a4600190565b50505f90565b6001600160a01b031615610c1657565b6001600160a01b0381165f9081525f805160206144e9833981519152602052604090205460ff16613eb6576001600160a01b03165f8181525f805160206144e983398151915260205260408120805460ff191660011790553391905f805160206144a9833981519152907f2f8788117e7eff1d82e926ec794901d17c78024a50270940304540a733656f0d9080a4600190565b6001600160a01b0381165f9081525f80516020614489833981519152602052604090205460ff16613eb6576001600160a01b03165f8181525f8051602061448983398151915260205260408120805460ff191660011790553391905f80516020614549833981519152907f2f8788117e7eff1d82e926ec794901d17c78024a50270940304540a733656f0d9080a4600190565b5f8181525f80516020614509833981519152602090815260408083206001600160a01b038616845290915290205460ff16613fe8575f8181525f80516020614509833981519152602090815260408083206001600160a01b0395909516808452949091528120805460ff19166001179055339291907f2f8788117e7eff1d82e926ec794901d17c78024a50270940304540a733656f0d9080a4600190565b6141d5670de0b6b3a7640000838361436d565b91600484101561420e5760018061355d95161491826141f9575b505015159061315e565b670de0b6b3a764000092500915155f806141ef565b634e487b7160e01b5f52602160045260245ffd5b80511561153d5760200190565b80516001101561153d5760400190565b8181029291811591840414171561047957565b906001820191815f528260205260405f20548015155f14614311575f1981018181116104795782545f19810191908211610479578181036142c6575b50505080548015610426575f1901906142a7828261304f565b8154905f199060031b1b19169055555f526020525f6040812055600190565b6142fc6142d66142e6938661304f565b90549060031b1c9283928661304f565b819391549060031b91821b915f19901b19161790565b90555f528360205260405f20555f808061428e565b505050505f90565b6001810190825f528160205260405f2054155f14614366578054600160401b811015610aa3576143536142e682600187940185558461304f565b905554915f5260205260405f2055600190565b5050505f90565b91818302915f19818509938380861095039480860395146143fd57848311156143e55790829109815f0382168092046002816003021880820260020302808202600203028082026002030280820260020302808202600203028091026002030293600183805f03040190848311900302920304170290565b82634e487b715f52156003026011186020526024601cfd5b50509061355d925061321c565b9061442e575080511561441f57805190602001fd5b63d6bda27560e01b5f5260045ffd5b8151158061445f575b61443f575090565b639996b31560e01b5f9081526001600160a01b0391909116600452602490fd5b50803b1561443756fec1f6fe24621ce81ec5827caf0253cadb74709b061630e6b55e82371705932000b16e88c42fd4e48df2dd6a2eabd6bc9aec654ec170056b470819f8892cc6431cb19546dff01e856fb3f010c267a7b1c60363cf8a4664e21cc89c26224620214e360894a13ba1a3210667c828492db98dca3e2076cc3735a920a3ca505d382bbcc32d4dc01d07c436ad8a6f9a20eadd61263c71fe16f6b5956005ba3b341f51dd02dd7bc7dec4dceedda775e58dd541e08a116c6c53815c0bd028192f7b626800cd5ed15c6e187e77e9aee88184c21f4f2182ab5827cb3b7e07fbedcd63f03300a49807205ce4d355092ef5a8a18f56e8913cf4a201fbe287825b095693c21775008963063c520970ed64c693e920074e4588acd3631097247bb3559890ad6a67f0c57e16840df040f15088dc2f81fe391c3923bec73e23a9662efc9c229c6a00a2646970667358221220d938d7a9d2340f54b57b64d8accc91464957a1af96dd10bf31e7f491af5818b064736f6c634300081a0033","linkReferences":{"contracts/utils/LMSR.sol":{"LMSR":[{"start":13861,"length":20},{"start":14392,"length":20},{"start":15868,"length":20}]}}},"methodIdentifiers":{"ADMIN_ROLE()":"75b238fc","DEFAULT_ADMIN_ROLE()":"a217fddf","DEFAULT_PRICE()":"1b6c743b","MINIMUM_BASE_PRICE()":"b16f0055","OWNER_ROLE()":"e58378bb","UPGRADE_INTERFACE_VERSION()":"ad3cb1cc","addAdmin(address)":"70480275","addMarketConfig(uint256,uint256,uint256)":"451fb954","buyVotes(uint256,bool,uint256,uint256)":"c53c78ec","contractAddressManager()":"ade9ae97","createMarket()":"aea0e35f","createMarketWithConfig(uint256)":"3d5a8a89","createMarketWithConfigAdmin(address,uint256)":"50de8bb8","donationBasisPoints()":"4496fda2","donationEscrow(address)":"f4e1c7e4","donationRecipient(uint256)":"1b2628db","entryProtocolFeeBasisPoints()":"b36fed5f","exitProtocolFeeBasisPoints()":"6bc83161","expectedSigner()":"2cb3e494","getMarket(uint256)":"eb44fdd3","getMarketConfigCount()":"c1f779f2","getParticipantCount(uint256)":"86ae5fec","getRoleAdmin(bytes32)":"248a9ca3","getRoleMember(bytes32,uint256)":"9010d07c","getRoleMemberCount(bytes32)":"ca15c873","getRoleMembers(bytes32)":"a3246ad3","getUserVotes(address,uint256)":"77166067","getVotePrice(uint256,bool)":"3a5edec5","graduateMarket(uint256)":"606d9be0","graduatedMarkets(uint256)":"31c551f8","grantRole(bytes32,address)":"2f2ff15d","hasRole(bytes32,address)":"91d14854","initialize(address,address,address,address,address)":"1459457a","isAllowedToCreateMarket(uint256)":"b4817682","isParticipant(uint256,address)":"758d9b89","lastMarketUpdates(uint256)":"2a67ef19","marketConfigs(uint256)":"e4cfcc23","marketFunds(uint256)":"3ea686e5","participants(uint256,uint256)":"81fb1fb4","pause()":"8456cb59","paused()":"5c975abb","protocolFeeAddress()":"cce516b7","proxiableUUID()":"52d1902d","removeAdmin(address)":"1785f53c","removeMarketConfig(uint256)":"f56bb7a7","renounceRole(bytes32,address)":"36568abe","revokeRole(bytes32,address)":"d547741f","sellVotes(uint256,bool,uint256,uint256)":"77e414ef","setAllowListEnforcement(bool)":"34a7fe06","setDonationBasisPoints(uint256)":"668739cd","setEntryProtocolFeeBasisPoints(uint256)":"626f78f2","setExitProtocolFeeBasisPoints(uint256)":"c08487af","setProtocolFeeAddress(address)":"6b7b9112","setUserAllowedToCreateMarket(uint256,bool)":"463ed22f","signatureUsed(bytes)":"bb10c829","signatureVerifier()":"fde919f6","simulateBuy(uint256,bool,uint256)":"955113f5","simulateSell(uint256,bool,uint256)":"5c597526","supportsInterface(bytes4)":"01ffc9a7","targetExistsAndAllowedForId(uint256)":"a12c64b5","unpause()":"3f4ba83a","updateContractAddressManager(address)":"08473f64","updateDonationRecipient(uint256,address)":"3479e549","updateExpectedSigner(address)":"2bdd87ff","updateOwner(address)":"880cdc31","updateSignatureVerifier(address)":"5667981b","upgradeToAndCall(address,bytes)":"4f1ef286","withdrawDonations()":"ce1b088a","withdrawGraduatedMarketFunds(uint256)":"bf0a7871"},"id":108}