{"abi":[{"type":"function","name":"verifySignature","inputs":[{"name":"expectedSigner","type":"address","internalType":"address"},{"name":"messageHash","type":"bytes32","internalType":"bytes32"},{"name":"signature","type":"bytes","internalType":"bytes"}],"outputs":[{"name":"","type":"bool","internalType":"bool"}],"stateMutability":"view"}],"bytecode":{"object":"0x60808060405234601557610366908161001a8239f35b5f80fdfe60806040526004361015610011575f80fd5b5f3560e01c630175199814610024575f80fd5b346100fa5760603660031901126100fa576004356001600160a01b03811681036100fa5760443567ffffffffffffffff81116100fa57366023820112156100fa5780600401359161007483610134565b9061008260405192836100fe565b83825236602485850101116100fa575f602085819660246100f097018387013784010152604051848101907f19457468657265756d205369676e6564204d6573736167653a0a3332000000008252602435603c820152603c81526100e7605c826100fe565b51902090610150565b6040519015158152f35b5f80fd5b90601f8019910116810190811067ffffffffffffffff82111761012057604052565b634e487b7160e01b5f52604160045260245ffd5b67ffffffffffffffff811161012057601f01601f191660200190565b9190823b61019f579061016291610269565b50600481101561018b5715918261017857505090565b6001600160a01b03918216911614919050565b634e487b7160e01b5f52602160045260245ffd5b915f9260206101fa6084869560405193849181830196630b135d3f60e11b88526024840152604060448401528051918291826064860152018484015e87838284010152601f801991011681010301601f1981018352826100fe565b51915afa3d15610262573d61020e81610134565b9061021c60405192836100fe565b81523d5f602083013e5b81610254575b81610235575090565b90506020818051810103126100fa5760200151630b135d3f60e11b1490565b90506020815110159061022c565b6060610226565b8151919060418303610299576102929250602082015190606060408401519301515f1a906102a3565b9192909190565b50505f9160029190565b91907f7fffffffffffffffffffffffffffffff5d576e7357a4501ddfe92f46681b20a08411610325579160209360809260ff5f9560405194855216868401526040830152606082015282805260015afa1561031a575f516001600160a01b0381161561031057905f905f90565b505f906001905f90565b6040513d5f823e3d90fd5b5050505f916003919056fea264697066735822122011c1901e81ea25a3731124de86d650bf3c41b68ccbf628b669d181d6d2adbb2e64736f6c634300081a0033","linkReferences":{}},"methodIdentifiers":{"verifySignature(address,bytes32,bytes)":"01751998"},"id":152}