{"abi":[{"type":"function","name":"ADMIN_ROLE","inputs":[],"outputs":[{"name":"","type":"bytes32","internalType":"bytes32"}],"stateMutability":"view"},{"type":"function","name":"DEFAULT_ADMIN_ROLE","inputs":[],"outputs":[{"name":"","type":"bytes32","internalType":"bytes32"}],"stateMutability":"view"},{"type":"function","name":"OWNER_ROLE","inputs":[],"outputs":[{"name":"","type":"bytes32","internalType":"bytes32"}],"stateMutability":"view"},{"type":"function","name":"UPGRADE_INTERFACE_VERSION","inputs":[],"outputs":[{"name":"","type":"string","internalType":"string"}],"stateMutability":"view"},{"type":"function","name":"addAdmin","inputs":[{"name":"admin","type":"address","internalType":"address"}],"outputs":[],"stateMutability":"nonpayable"},{"type":"function","name":"archiveAttestation","inputs":[{"name":"attestationHash","type":"bytes32","internalType":"bytes32"}],"outputs":[],"stateMutability":"nonpayable"},{"type":"function","name":"attestationByHash","inputs":[{"name":"attestationHash","type":"bytes32","internalType":"bytes32"}],"outputs":[{"name":"","type":"tuple","internalType":"struct IEthosAttestation.Attestation","components":[{"name":"archived","type":"bool","internalType":"bool"},{"name":"attestationId","type":"uint256","internalType":"uint256"},{"name":"profileId","type":"uint256","internalType":"uint256"},{"name":"createdAt","type":"uint256","internalType":"uint256"},{"name":"account","type":"string","internalType":"string"},{"name":"service","type":"string","internalType":"string"}]}],"stateMutability":"view"},{"type":"function","name":"attestationById","inputs":[{"name":"","type":"uint256","internalType":"uint256"}],"outputs":[{"name":"archived","type":"bool","internalType":"bool"},{"name":"attestationId","type":"uint256","internalType":"uint256"},{"name":"profileId","type":"uint256","internalType":"uint256"},{"name":"createdAt","type":"uint256","internalType":"uint256"},{"name":"account","type":"string","internalType":"string"},{"name":"service","type":"string","internalType":"string"}],"stateMutability":"view"},{"type":"function","name":"attestationCount","inputs":[],"outputs":[{"name":"","type":"uint256","internalType":"uint256"}],"stateMutability":"view"},{"type":"function","name":"attestationExistsForHash","inputs":[{"name":"attestationHash","type":"bytes32","internalType":"bytes32"}],"outputs":[{"name":"","type":"bool","internalType":"bool"}],"stateMutability":"view"},{"type":"function","name":"attestationHashesByProfileId","inputs":[{"name":"","type":"uint256","internalType":"uint256"},{"name":"","type":"uint256","internalType":"uint256"}],"outputs":[{"name":"","type":"bytes32","internalType":"bytes32"}],"stateMutability":"view"},{"type":"function","name":"attestationIdByHash","inputs":[{"name":"","type":"bytes32","internalType":"bytes32"}],"outputs":[{"name":"","type":"uint256","internalType":"uint256"}],"stateMutability":"view"},{"type":"function","name":"contractAddressManager","inputs":[],"outputs":[{"name":"","type":"address","internalType":"contract IContractAddressManager"}],"stateMutability":"view"},{"type":"function","name":"createAttestation","inputs":[{"name":"profileId","type":"uint256","internalType":"uint256"},{"name":"randValue","type":"uint256","internalType":"uint256"},{"name":"attestationDetails","type":"tuple","internalType":"struct AttestationDetails","components":[{"name":"account","type":"string","internalType":"string"},{"name":"service","type":"string","internalType":"string"}]},{"name":"evidence","type":"string","internalType":"string"},{"name":"signature","type":"bytes","internalType":"bytes"}],"outputs":[],"stateMutability":"nonpayable"},{"type":"function","name":"expectedSigner","inputs":[],"outputs":[{"name":"","type":"address","internalType":"address"}],"stateMutability":"view"},{"type":"function","name":"getAttestationByHash","inputs":[{"name":"_hash","type":"bytes32","internalType":"bytes32"}],"outputs":[{"name":"attestation","type":"tuple","internalType":"struct IEthosAttestation.Attestation","components":[{"name":"archived","type":"bool","internalType":"bool"},{"name":"attestationId","type":"uint256","internalType":"uint256"},{"name":"profileId","type":"uint256","internalType":"uint256"},{"name":"createdAt","type":"uint256","internalType":"uint256"},{"name":"account","type":"string","internalType":"string"},{"name":"service","type":"string","internalType":"string"}]}],"stateMutability":"view"},{"type":"function","name":"getAttestationHashesByProfileId","inputs":[{"name":"profileId","type":"uint256","internalType":"uint256"}],"outputs":[{"name":"","type":"bytes32[]","internalType":"bytes32[]"}],"stateMutability":"view"},{"type":"function","name":"getAttestationIndexByProfileIdAndHash","inputs":[{"name":"profileId","type":"uint256","internalType":"uint256"},{"name":"attestationHash","type":"bytes32","internalType":"bytes32"}],"outputs":[{"name":"","type":"uint256","internalType":"uint256"}],"stateMutability":"view"},{"type":"function","name":"getRoleAdmin","inputs":[{"name":"role","type":"bytes32","internalType":"bytes32"}],"outputs":[{"name":"","type":"bytes32","internalType":"bytes32"}],"stateMutability":"view"},{"type":"function","name":"getRoleMember","inputs":[{"name":"role","type":"bytes32","internalType":"bytes32"},{"name":"index","type":"uint256","internalType":"uint256"}],"outputs":[{"name":"","type":"address","internalType":"address"}],"stateMutability":"view"},{"type":"function","name":"getRoleMemberCount","inputs":[{"name":"role","type":"bytes32","internalType":"bytes32"}],"outputs":[{"name":"","type":"uint256","internalType":"uint256"}],"stateMutability":"view"},{"type":"function","name":"getRoleMembers","inputs":[{"name":"role","type":"bytes32","internalType":"bytes32"}],"outputs":[{"name":"","type":"address[]","internalType":"address[]"}],"stateMutability":"view"},{"type":"function","name":"getServiceAndAccountHash","inputs":[{"name":"service","type":"string","internalType":"string"},{"name":"account","type":"string","internalType":"string"}],"outputs":[{"name":"","type":"bytes32","internalType":"bytes32"}],"stateMutability":"pure"},{"type":"function","name":"grantRole","inputs":[{"name":"role","type":"bytes32","internalType":"bytes32"},{"name":"account","type":"address","internalType":"address"}],"outputs":[],"stateMutability":"nonpayable"},{"type":"function","name":"hasRole","inputs":[{"name":"role","type":"bytes32","internalType":"bytes32"},{"name":"account","type":"address","internalType":"address"}],"outputs":[{"name":"","type":"bool","internalType":"bool"}],"stateMutability":"view"},{"type":"function","name":"initialize","inputs":[{"name":"owner","type":"address","internalType":"address"},{"name":"admin","type":"address","internalType":"address"},{"name":"expectedSigner","type":"address","internalType":"address"},{"name":"signatureVerifier","type":"address","internalType":"address"},{"name":"contractAddressManagerAddr","type":"address","internalType":"address"}],"outputs":[],"stateMutability":"nonpayable"},{"type":"function","name":"pause","inputs":[],"outputs":[],"stateMutability":"nonpayable"},{"type":"function","name":"paused","inputs":[],"outputs":[{"name":"","type":"bool","internalType":"bool"}],"stateMutability":"view"},{"type":"function","name":"proxiableUUID","inputs":[],"outputs":[{"name":"","type":"bytes32","internalType":"bytes32"}],"stateMutability":"view"},{"type":"function","name":"removeAdmin","inputs":[{"name":"admin","type":"address","internalType":"address"}],"outputs":[],"stateMutability":"nonpayable"},{"type":"function","name":"renounceRole","inputs":[{"name":"role","type":"bytes32","internalType":"bytes32"},{"name":"callerConfirmation","type":"address","internalType":"address"}],"outputs":[],"stateMutability":"nonpayable"},{"type":"function","name":"restoreAttestation","inputs":[{"name":"attestationHash","type":"bytes32","internalType":"bytes32"}],"outputs":[],"stateMutability":"nonpayable"},{"type":"function","name":"revokeRole","inputs":[{"name":"role","type":"bytes32","internalType":"bytes32"},{"name":"account","type":"address","internalType":"address"}],"outputs":[],"stateMutability":"nonpayable"},{"type":"function","name":"setTestValue","inputs":[{"name":"_testValue","type":"uint256","internalType":"uint256"}],"outputs":[],"stateMutability":"nonpayable"},{"type":"function","name":"signatureUsed","inputs":[{"name":"","type":"bytes","internalType":"bytes"}],"outputs":[{"name":"","type":"bool","internalType":"bool"}],"stateMutability":"view"},{"type":"function","name":"signatureVerifier","inputs":[],"outputs":[{"name":"","type":"address","internalType":"address"}],"stateMutability":"view"},{"type":"function","name":"supportsInterface","inputs":[{"name":"interfaceId","type":"bytes4","internalType":"bytes4"}],"outputs":[{"name":"","type":"bool","internalType":"bool"}],"stateMutability":"view"},{"type":"function","name":"targetExistsAndAllowedForId","inputs":[{"name":"targetId","type":"uint256","internalType":"uint256"}],"outputs":[{"name":"exist","type":"bool","internalType":"bool"},{"name":"allowed","type":"bool","internalType":"bool"}],"stateMutability":"view"},{"type":"function","name":"testValue","inputs":[],"outputs":[{"name":"","type":"uint256","internalType":"uint256"}],"stateMutability":"view"},{"type":"function","name":"unpause","inputs":[],"outputs":[],"stateMutability":"nonpayable"},{"type":"function","name":"updateContractAddressManager","inputs":[{"name":"contractAddressesAddr","type":"address","internalType":"address"}],"outputs":[],"stateMutability":"nonpayable"},{"type":"function","name":"updateExpectedSigner","inputs":[{"name":"signer","type":"address","internalType":"address"}],"outputs":[],"stateMutability":"nonpayable"},{"type":"function","name":"updateOwner","inputs":[{"name":"owner","type":"address","internalType":"address"}],"outputs":[],"stateMutability":"nonpayable"},{"type":"function","name":"updateSignatureVerifier","inputs":[{"name":"sinatureVerifier","type":"address","internalType":"address"}],"outputs":[],"stateMutability":"nonpayable"},{"type":"function","name":"upgradeToAndCall","inputs":[{"name":"newImplementation","type":"address","internalType":"address"},{"name":"data","type":"bytes","internalType":"bytes"}],"outputs":[],"stateMutability":"payable"},{"type":"event","name":"AttestationArchived","inputs":[{"name":"profileId","type":"uint256","indexed":true,"internalType":"uint256"},{"name":"service","type":"string","indexed":false,"internalType":"string"},{"name":"account","type":"string","indexed":false,"internalType":"string"},{"name":"attestationId","type":"uint256","indexed":true,"internalType":"uint256"}],"anonymous":false},{"type":"event","name":"AttestationClaimed","inputs":[{"name":"attestationId","type":"uint256","indexed":true,"internalType":"uint256"},{"name":"service","type":"string","indexed":false,"internalType":"string"},{"name":"account","type":"string","indexed":false,"internalType":"string"},{"name":"evidence","type":"string","indexed":false,"internalType":"string"},{"name":"profileId","type":"uint256","indexed":true,"internalType":"uint256"}],"anonymous":false},{"type":"event","name":"AttestationCreated","inputs":[{"name":"profileId","type":"uint256","indexed":true,"internalType":"uint256"},{"name":"service","type":"string","indexed":false,"internalType":"string"},{"name":"account","type":"string","indexed":false,"internalType":"string"},{"name":"evidence","type":"string","indexed":false,"internalType":"string"},{"name":"attestationId","type":"uint256","indexed":true,"internalType":"uint256"}],"anonymous":false},{"type":"event","name":"AttestationRestored","inputs":[{"name":"attestationId","type":"uint256","indexed":true,"internalType":"uint256"},{"name":"service","type":"string","indexed":false,"internalType":"string"},{"name":"account","type":"string","indexed":false,"internalType":"string"},{"name":"profileId","type":"uint256","indexed":true,"internalType":"uint256"}],"anonymous":false},{"type":"event","name":"Initialized","inputs":[{"name":"version","type":"uint64","indexed":false,"internalType":"uint64"}],"anonymous":false},{"type":"event","name":"Paused","inputs":[{"name":"account","type":"address","indexed":false,"internalType":"address"}],"anonymous":false},{"type":"event","name":"RoleAdminChanged","inputs":[{"name":"role","type":"bytes32","indexed":true,"internalType":"bytes32"},{"name":"previousAdminRole","type":"bytes32","indexed":true,"internalType":"bytes32"},{"name":"newAdminRole","type":"bytes32","indexed":true,"internalType":"bytes32"}],"anonymous":false},{"type":"event","name":"RoleGranted","inputs":[{"name":"role","type":"bytes32","indexed":true,"internalType":"bytes32"},{"name":"account","type":"address","indexed":true,"internalType":"address"},{"name":"sender","type":"address","indexed":true,"internalType":"address"}],"anonymous":false},{"type":"event","name":"RoleRevoked","inputs":[{"name":"role","type":"bytes32","indexed":true,"internalType":"bytes32"},{"name":"account","type":"address","indexed":true,"internalType":"address"},{"name":"sender","type":"address","indexed":true,"internalType":"address"}],"anonymous":false},{"type":"event","name":"Unpaused","inputs":[{"name":"account","type":"address","indexed":false,"internalType":"address"}],"anonymous":false},{"type":"event","name":"Upgraded","inputs":[{"name":"implementation","type":"address","indexed":true,"internalType":"address"}],"anonymous":false},{"type":"error","name":"AccessControlBadConfirmation","inputs":[]},{"type":"error","name":"AccessControlUnauthorizedAccount","inputs":[{"name":"account","type":"address","internalType":"address"},{"name":"neededRole","type":"bytes32","internalType":"bytes32"}]},{"type":"error","name":"AddressEmptyCode","inputs":[{"name":"target","type":"address","internalType":"address"}]},{"type":"error","name":"AddressNotInProfile","inputs":[{"name":"_address","type":"address","internalType":"address"},{"name":"profileId","type":"uint256","internalType":"uint256"}]},{"type":"error","name":"AttestationAlreadyExists","inputs":[{"name":"attestationHash","type":"bytes32","internalType":"bytes32"}]},{"type":"error","name":"AttestationInvalid","inputs":[{"name":"service","type":"string","internalType":"string"},{"name":"account","type":"string","internalType":"string"}]},{"type":"error","name":"AttestationNotArchived","inputs":[{"name":"attestationHash","type":"bytes32","internalType":"bytes32"}]},{"type":"error","name":"AttestationNotFound","inputs":[{"name":"attestationHash","type":"bytes32","internalType":"bytes32"}]},{"type":"error","name":"ERC1967InvalidImplementation","inputs":[{"name":"implementation","type":"address","internalType":"address"}]},{"type":"error","name":"ERC1967NonPayable","inputs":[]},{"type":"error","name":"EnforcedPause","inputs":[]},{"type":"error","name":"ExpectedPause","inputs":[]},{"type":"error","name":"FailedCall","inputs":[]},{"type":"error","name":"InvalidInitialization","inputs":[]},{"type":"error","name":"InvalidSignature","inputs":[]},{"type":"error","name":"NotInitializing","inputs":[]},{"type":"error","name":"ProfileNotFound","inputs":[{"name":"profileId","type":"uint256","internalType":"uint256"}]},{"type":"error","name":"SignatureWasUsed","inputs":[]},{"type":"error","name":"UUPSUnauthorizedCallContext","inputs":[]},{"type":"error","name":"UUPSUnsupportedProxiableUUID","inputs":[{"name":"slot","type":"bytes32","internalType":"bytes32"}]},{"type":"error","name":"ZeroAddress","inputs":[]}],"bytecode":{"object":"0x60a06040523461003c57610011610040565b3060805261001d610040565b60405161343590816100fd8239608051818181610bd50152610c660152f35b5f80fd5b7ff0c57e16840df040f15088dc2f81fe391c3923bec73e23a9662efc9c229c6a005460ff8160401c166100ed576002600160401b03196001600160401b038216016100885750565b6001600160401b0319166001600160401b039081177ff0c57e16840df040f15088dc2f81fe391c3923bec73e23a9662efc9c229c6a00556040519081527fc7f505b2f371ae2175ee4913f4499e1f2633a7b5936321eed1cdaeb6115181d290602090a1565b63f92ee8a960e01b5f5260045ffdfe60806040526004361015610011575f80fd5b5f3560e01c8063018a198c1461188557806301ffc9a714611815578063051d07021461163157806308473f64146115ee5780631459457a146113085780631785f53c1461128457806320eb5997146111f8578063248a9ca3146111da5780632bdd87ff1461118f5780632cb3e494146111685780632f2ff15d14611137578063359601051461111e57806336568abe146110da5780633f4ba83a1461100657806341345d9614610e265780634f1ef28614610c2957806352d1902d14610bc35780635667981b14610b775780635c975abb14610b495780637048027514610ac55780637193894714610a3957806375b238fc14610a125780638456cb59146108d6578063880cdc31146107bb5780638af5de721461079e5780638db70da4146107385780639010d07c146106e657806391d14854146106915780639d29a503146104ef578063a12c64b51461060c578063a15b9321146105ef578063a217fddf146105d5578063a3246ad31461051a578063a55d54e0146104ef578063ad3cb1cc146104a4578063ade9ae971461047c578063bb10c82914610422578063bd27df101461037c578063c3c4920114610336578063ca15c87314610300578063d547741f146102c8578063e58378bb146102a1578063ed6a24e114610277578063efb32994146102345763fde919f614610208575f80fd5b34610230575f366003190112610230576001546040516001600160a01b039091168152602090f35b5f80fd5b3461023057602036600319011261023057602061026d6004355f52603860205260405f20545f526037602052600360405f200154151590565b6040519015158152f35b34610230576020366003190112610230576004355f526038602052602060405f2054604051908152f35b34610230575f3660031901126102305760206040515f805160206133008339815191528152f35b34610230576040366003190112610230576102fe6004356102e76118bc565b906102f96102f4826123f2565b6126f8565b61273e565b005b34610230576020366003190112610230576004355f525f805160206132c0833981519152602052602060405f2054604051908152f35b34610230576040366003190112610230576024356004355f52603960205260405f2080548210156102305760209161036d91611b19565b90549060031b1c604051908152f35b34610230576020366003190112610230576004355f52603960205260405f20604051806020835491828152019081935f5260205f20905f5b81811061040c57505050816103ca91038261192e565b604051918291602083019060208452518091526040830191905f5b8181106103f3575050500390f35b82518452859450602093840193909201916001016103e5565b82548452602090930192600192830192016103b4565b34610230576020366003190112610230576004356001600160401b0381116102305760ff602080610458819436906004016119a0565b604051928184925191829101835e8101600281520301902054166040519015158152f35b34610230575f366003190112610230576003546040516001600160a01b039091168152602090f35b34610230575f366003190112610230576104eb6040516104c560408261192e565b60058152640352e302e360dc1b6020820152604051918291602083526020830190611a96565b0390f35b34610230576020366003190112610230576104eb61050e60043561253f565b60405191829182611aba565b34610230576020366003190112610230576004355f525f805160206132c083398151915260205260405f20604051806020835491828152019081935f5260205f20905f5b8181106105bf575050508161057491038261192e565b604051918291602083019060208452518091526040830191905f5b81811061059d575050500390f35b82516001600160a01b031684528594506020938401939092019160010161058f565b825484526020909301926001928301920161055e565b34610230575f3660031901126102305760206040515f8152f35b34610230575f366003190112610230576020603654604051908152f35b34610230576020366003190112610230576004355f5260376020526040805f208151610637816118ff565b60ff825416151581526001820154602082015260028201548382015260a061067e600560038501549460608501958652610673600482016119f6565b6080860152016119f6565b9101525115158151908082526020820152f35b34610230576040366003190112610230576106aa6118bc565b6004355f525f8051602061336083398151915260205260405f209060018060a01b03165f52602052602060ff60405f2054166040519015158152f35b34610230576040366003190112610230576004355f525f805160206132c0833981519152602052602061071f60405f2060243590611b19565b905460405160039290921b1c6001600160a01b03168152f35b34610230576040366003190112610230576004356001600160401b038111610230576107689036906004016118d2565b602435906001600160401b0382116102305760209261078e6107969336906004016118d2565b9290916124b7565b604051908152f35b34610230575f366003190112610230576020606d54604051908152f35b34610230576020366003190112610230576107d46118a6565b6107dc6126af565b5f805160206133008339815191525f525f805160206132c08339815191526020525f805160206133c08339815191528054156108c2575f90815260209020546001600160a01b031661082d81612e4f565b610883575b5061083c81612fcd565b61084257005b5f805160206133008339815191525f525f805160206132c08339815191526020526102fe906001600160a01b03165f805160206133c0833981519152613227565b5f805160206133008339815191525f525f805160206132c08339815191526020526108bb905f805160206133c0833981519152613191565b5081610832565b634e487b7160e01b5f52603260045260245ffd5b34610230575f36600319011261023057600354610924906020906001600160a01b0316610901612410565b90604051808095819463d57f7aa360e01b83528660048401526024830190611a96565b03915afa908115610a07575f916109d8575b50336001600160a01b03909116036109a1576109506125b7565b600160ff195f805160206133808339815191525416175f80516020613380833981519152557f62e78cea01bee320cd4e420270b5ea74000d11b0c9f74754ebdbfc544b05a2586020604051338152a1005b63e2517d3f60e01b5f52336004527f261fea28325784de45eba41a3fbb84c4196fbab02ee802566edfe26616ba5afb60245260445ffd5b6109fa915060203d602011610a00575b6109f2818361192e565b81019061244b565b81610936565b503d6109e8565b6040513d5f823e3d90fd5b34610230575f3660031901126102305760206040515f805160206133a08339815191528152f35b34610230576020366003190112610230576004355f52603760205260405f2060ff8154166104eb600183015492610ab76002820154916003810154610a8c6005610a85600485016119f6565b93016119f6565b936040519788971515885260208801526040870152606086015260c0608086015260c0850190611a96565b9083820360a0850152611a96565b3461023057602036600319011261023057610ade6118a6565b610ae66126af565b610aef81613060565b610af557005b5f805160206133a08339815191525f525f805160206132c08339815191526020526102fe906001600160a01b03167f46448fd7a7b40360a1323cb3199d0aafeb92ce905bb512a6bb7d3d3f685cf1b1613227565b34610230575f36600319011261023057602060ff5f8051602061338083398151915254166040519015158152f35b3461023057602036600319011261023057610b906118a6565b610b98612666565b610ba181612fbd565b600180546001600160a01b0319166001600160a01b0392909216919091179055005b34610230575f366003190112610230577f00000000000000000000000000000000000000000000000000000000000000006001600160a01b03163003610c1a5760206040515f805160206133208339815191528152f35b63703e46dd60e11b5f5260045ffd5b604036600319011261023057610c3d6118a6565b6024356001600160401b03811161023057610c5c9036906004016119a0565b6001600160a01b037f000000000000000000000000000000000000000000000000000000000000000016308114908115610e04575b50610c1a57610c9e6126af565b610ca782612fbd565b6040516352d1902d60e01b81526001600160a01b0383169290602081600481875afa5f9181610dd0575b50610ce95783634c9c8ce360e01b5f5260045260245ffd5b805f80516020613320833981519152859203610dbe5750813b15610dac575f8051602061332083398151915280546001600160a01b031916821790557fbc7cd75a20ee27fd9adebab32041f755214dbc6bffa90cc0225b39da2e5c2d3b5f80a2815115610d94575f808360206102fe95519101845af43d15610d8c573d91610d708361194f565b92610d7e604051948561192e565b83523d5f602085013e613261565b606091613261565b505034610d9d57005b63b398979f60e01b5f5260045ffd5b634c9c8ce360e01b5f5260045260245ffd5b632a87526960e21b5f5260045260245ffd5b9091506020813d602011610dfc575b81610dec6020938361192e565b8101031261023057519085610cd1565b3d9150610ddf565b5f80516020613320833981519152546001600160a01b03161415905083610c91565b3461023057602036600319011261023057600435610e426125b7565b805f52603860205260405f20545f52603760205260405f2090600382015415610ff4576002820154906001600160a01b03610e7b6125de565b6040516312e8584f60e11b815233600482015260248101859052911690602081604481855afa908115610a07575f91610fba575b5015610fa357606060249160405192838092633b79ed1960e11b82528760048301525afa8015610a07575f915f91610f6f575b508115610f67575b50610f54575f52603860205260405f20545f52603760205260405f20600160ff198254161790557f3a9c110aa9485f987acfe7d0f79ad35d9b6d77338a705c49b505a0e07e73a737610f4f600184015493604051918160056004859401910183611c1c565b0390a3005b50635595b91560e11b5f5260045260245ffd5b905084610eea565b9050610f93915060603d606011610f9c575b610f8b818361192e565b81019061246a565b91509085610ee2565b503d610f81565b8263c1b3b1dd60e01b5f523360045260245260445ffd5b90506020813d602011610fec575b81610fd56020938361192e565b8101031261023057610fe690611b6d565b85610eaf565b3d9150610fc8565b6301fb6dd160e01b5f5260045260245ffd5b34610230575f36600319011261023057600354611031906020906001600160a01b0316610901612410565b03915afa908115610a07575f916110bb575b50336001600160a01b03909116036109a1575f805160206133808339815191525460ff8116156110ac5760ff19165f80516020613380833981519152557f5db9ee0a495bf2e6ff9c91a7834c1ba4fdd244a5e8aa4e537bd38aeae4b073aa6020604051338152a1005b638dfc202b60e01b5f5260045ffd5b6110d4915060203d602011610a00576109f2818361192e565b81611043565b34610230576040366003190112610230576110f36118bc565b336001600160a01b0382160361110f576102fe9060043561273e565b63334bd91960e11b5f5260045ffd5b3461023057602036600319011261023057600435606d55005b34610230576040366003190112610230576102fe6004356111566118bc565b906111636102f4826123f2565b612d51565b34610230575f366003190112610230575f546040516001600160a01b039091168152602090f35b34610230576020366003190112610230576111a86118a6565b6111b0612666565b6111b981612fbd565b5f80546001600160a01b0319166001600160a01b0392909216919091179055005b346102305760203660031901126102305760206107966004356123f2565b346102305760a0366003190112610230576044356001600160401b0381116102305760406003198236030112610230576064356001600160401b038111610230576112479036906004016118d2565b91608435926001600160401b0384116102305761126b6102fe9436906004016118d2565b9390926112766125b7565b600401602435600435611cd4565b346102305760203660031901126102305761129d6118a6565b6112a56126af565b6112ae81612dbe565b6112b457005b5f805160206133a08339815191525f525f805160206132c08339815191526020526102fe906001600160a01b03167f46448fd7a7b40360a1323cb3199d0aafeb92ce905bb512a6bb7d3d3f685cf1b1613191565b346102305760a0366003190112610230576113216118a6565b6113296118bc565b6044356001600160a01b0381168103610230576064356001600160a01b03811693848203610230576084356001600160a01b03811690819003610230575f805160206133e0833981519152549560ff8760401c1615966001600160401b038116801590816115e6575b60011490816115dc575b1590816115d3575b506115c45767ffffffffffffffff1981166001175f805160206133e08339815191525587611598575b506113d6612d93565b6001600160a01b0383169485158015611587575b801561157f575b611570576114579461142c91611405612d93565b61140e81612fbd565b60018060a01b03166001600160601b0360a01b5f5416175f55612fbd565b6001600160601b0360a01b60015416176001556001600160601b0360a01b6003541617600355612fcd565b611531575b5061146681613060565b6114d6575b50611474612d93565b600160365561147f57005b68ff0000000000000000195f805160206133e083398151915254165f805160206133e0833981519152557fc7f505b2f371ae2175ee4913f4499e1f2633a7b5936321eed1cdaeb6115181d2602060405160018152a1005b5f805160206133a08339815191525f525f805160206132c083398151915260205261152a906001600160a01b03167f46448fd7a7b40360a1323cb3199d0aafeb92ce905bb512a6bb7d3d3f685cf1b1613227565b508161146b565b5f805160206133008339815191525f525f805160206132c0833981519152602052611569905f805160206133c0833981519152613227565b508261145c565b63d92e233d60e01b5f5260045ffd5b5082156113f1565b506001600160a01b038716156113ea565b68ffffffffffffffffff191668010000000000000001175f805160206133e083398151915255876113cd565b63f92ee8a960e01b5f5260045ffd5b905015896113a4565b303b15915061139c565b899150611392565b34610230576020366003190112610230576116076118a6565b61160f612666565b600380546001600160a01b0319166001600160a01b0392909216919091179055005b346102305760203660031901126102305760043561164d6125b7565b805f52603860205260405f20545f526037602052600260405f2001549060018060a01b036116796125de565b16604051630d3289cb60e21b8152836004820152604081602481855afa908115610a07575f916117e4575b506117d1576040516312e8584f60e11b81523360048201526024810184905290602090829060449082905afa908115610a07575f91611797575b501561178057805f52603860205260405f20545f52603760205260ff60405f2054161561176e575f908152603860209081526040808320805484526037909252808320805460ff191690559054825290819020600181015491517ffd3c34f2d4fa14871365288f3e4d4aaf9696bef4ae9c3e77452f27025aeea673918190610f4f90600481019060050183611c1c565b636c445ec960e11b5f5260045260245ffd5b5063c1b3b1dd60e01b5f523360045260245260445ffd5b90506020813d6020116117c9575b816117b26020938361192e565b81010312610230576117c390611b6d565b836116de565b3d91506117a5565b82635595b91560e11b5f5260045260245ffd5b611806915060403d60401161180e575b6117fe818361192e565b810190611b7a565b9050846116a4565b503d6117f4565b346102305760203660031901126102305760043563ffffffff60e01b811680910361023057602090635a05180f60e01b811490811561185a575b506040519015158152f35b637965db0b60e01b811491508115611874575b508261184f565b6301ffc9a760e01b1490508261186d565b34610230576040366003190112610230576020610796602435600435611b2e565b600435906001600160a01b038216820361023057565b602435906001600160a01b038216820361023057565b9181601f84011215610230578235916001600160401b038311610230576020838186019501011161023057565b60c081019081106001600160401b0382111761191a57604052565b634e487b7160e01b5f52604160045260245ffd5b90601f801991011681019081106001600160401b0382111761191a57604052565b6001600160401b03811161191a57601f01601f191660200190565b9291926119768261194f565b91611984604051938461192e565b829481845281830111610230578281602093845f960137010152565b9080601f83011215610230578160206119bb9335910161196a565b90565b90600182811c921680156119ec575b60208310146119d857565b634e487b7160e01b5f52602260045260245ffd5b91607f16916119cd565b9060405191825f825492611a09846119be565b8084529360018116908115611a745750600114611a30575b50611a2e9250038361192e565b565b90505f9291925260205f20905f915b818310611a58575050906020611a2e928201015f611a21565b6020919350806001915483858901015201910190918492611a3f565b905060209250611a2e94915060ff191682840152151560051b8201015f611a21565b805180835260209291819084018484015e5f828201840152601f01601f1916010190565b906119bb916020815281511515602082015260208201516040820152604082015160608201526060820151608082015260a0611b04608084015160c08385015260e0840190611a96565b9201519060c0601f1982850301910152611a96565b80548210156108c2575f5260205f2001905f90565b90815f52603960205260405f20915f52603a60205260405f20815f5260205280611b5d60405f20548094611b19565b90549060031b1c03610ff4575090565b5190811515820361023057565b9190826040910312610230576119bb6020611b9484611b6d565b9301611b6d565b5f9291815491611baa836119be565b8083529260018116908115611bff5750600114611bc657505050565b5f9081526020812093945091925b838310611be5575060209250010190565b600181602092949394548385870101520191019190611bd4565b915050602093945060ff929192191683830152151560051b010190565b9091611c336119bb93604084526040840190611b9b565b916020818403910152611b9b565b903590601e198136030182121561023057018035906001600160401b0382116102305760200191813603831361023057565b8054906801000000000000000082101561191a5781611c9a916001611cb094018155611b19565b819391549060031b91821b915f19901b19161790565b9055565b908060209392818452848401375f828201840152601f01601f1916010190565b949585939496611ce48480611c41565b611d5a6020879a939a0195611d4c611d39611cff898b611c41565b611d275f9f604051988997602089019b8c52604089015260a0606089015260c0880191611cb4565b858103601f1901608087015291611cb4565b828103601f190160a08401528d8c611cb4565b03601f19810183528261192e565b51902060ff60405184848237602081868101600281520301902054166123e3576001545f54604051622ea33360e31b81526001600160a01b0391821660048201526024810193909352606060448401526020918391168180611dc0606482018989611cb4565b03915afa908115610a07575f916123a9575b501561239a5760209082604051938492833781016002815203019020600160ff19825416179055611e11611e068284611c41565b9061078e8580611c41565b611e1d87868387612784565b61239157611e2a81612ba6565b61239157611e52815f52603860205260405f20545f526037602052600360405f200154151590565b61237f576001600160a01b03611e666125de565b169060405163a12c64b560e01b8152856004820152604081602481865afa908115610a07575f9161235f575b501561234c5760405163b8861c2360e01b8152336004820152602081602481865afa8015610a075786915f91612317575b500361230057845f526039602052611ede8160405f20611c73565b845f52603960205260405f20545f1981019081116122ec57855f52603a60205260405f20825f5260205260405f205560365485611f1b8680611c41565b611f288789949394611c41565b929093611f6e60405195611f3b876118ff565b5f8752611f5f6020880193898552604089019586526060890196428852369161196a565b9560808801968752369161196a565b9560a086019687525f52603760205260405f209451151560ff801987541691161785555160018501555160028401555160038301556004820190518051906001600160401b03821161191a57611fc483546119be565b601f81116122a7575b50602090601f8311600114612240576005949392915f9183612235575b50508160011b915f199060031b1c19161790555b0190518051906001600160401b03821161191a57819061201e84546119be565b601f81116121e5575b50602090601f8311600114612182575f92612177575b50508160011b915f199060031b1c19161790555b603654815f52603860205260405f2055813b15610230575f91604483926040519485938492633e53213360e11b845260048401528960248401525af18015610a075761213b575b50906120d46121136120cb7f4a81ae4b6c9fe46a5f956d2d553758fc90f2a44f9145aaeded49124efc4f7e529484611c41565b92909380611c41565b9690986121056036549a8b996120f760405198899860608a5260608a0191611cb4565b918783036020890152611cb4565b918483036040860152611cb4565b0390a35f1982146121275750600101603655565b634e487b7160e01b81526011600452602490fd5b7f4a81ae4b6c9fe46a5f956d2d553758fc90f2a44f9145aaeded49124efc4f7e52929195505f61216a9161192e565b5f949091506120d4612098565b015190505f8061203d565b5f8581528281209350601f198516905b8181106121cd57509084600195949392106121b5575b505050811b019055612051565b01515f1960f88460031b161c191690555f80806121a8565b92936020600181928786015181550195019301612192565b909150835f5260205f20601f840160051c8101916020851061222b575b90601f859493920160051c01905b81811061221d5750612027565b5f8155849350600101612210565b9091508190612202565b015190505f80611fea565b90601f19831691845f52815f20925f5b81811061228f575091600193918560059897969410612277575b505050811b019055611ffe565b01515f1960f88460031b161c191690555f808061226a565b92936020600181928786015181550195019301612250565b835f5260205f20601f840160051c810191602085106122e2575b601f0160051c01905b8181106122d75750611fcd565b5f81556001016122ca565b90915081906122c1565b634e487b7160e01b5f52601160045260245ffd5b8463c1b3b1dd60e01b5f523360045260245260445ffd5b9150506020813d602011612344575b816123336020938361192e565b81010312610230578590515f611ec3565b3d9150612326565b84635595b91560e11b5f5260045260245ffd5b612378915060403d60401161180e576117fe818361192e565b505f611e92565b635488184160e11b5f5260045260245ffd5b50505050505050565b638baa579f60e01b5f5260045ffd5b90506020813d6020116123db575b816123c46020938361192e565b81010312610230576123d590611b6d565b5f611dd2565b3d91506123b7565b63858c8a1f60e01b5f5260045ffd5b5f525f80516020613360833981519152602052600160405f20015490565b6040519061241f60408361192e565b601982527f4554484f535f494e544552414354494f4e5f434f4e54524f4c000000000000006020830152565b9081602091031261023057516001600160a01b03811681036102305790565b908160609103126102305761247e81611b6d565b916119bb6040611b9460208501611b6d565b92906124a9906119bb9593604086526040860191611cb4565b926020818503910152611cb4565b9281158015612507575b6124e45790611d4c6124de92604051948593602085019788612490565b51902090565b6040516356ca8ea960e11b815293849361250393909160048601612490565b0390fd5b5080156124c1565b6040519061251c826118ff565b606060a0835f81525f60208201525f60408201525f838201528260808201520152565b61254761250f565b505f52603860205260405f20545f52603760205260405f206125af600560405192612571846118ff565b60ff815416151584526001810154602085015260028101546040850152600381015460608501526125a4600482016119f6565b6080850152016119f6565b60a082015290565b60ff5f8051602061338083398151915254166125cf57565b63d93c066560e01b5f5260045ffd5b612638602060018060a01b0360035416604051906125fd60408361192e565b600d82526c4554484f535f50524f46494c4560981b83830152604051808095819463d57f7aa360e01b83528660048401526024830190611a96565b03915afa908115610a07575f9161264d575090565b6119bb915060203d602011610a00576109f2818361192e565b335f9081525f805160206132e0833981519152602052604090205460ff161561268b57565b63e2517d3f60e01b5f52336004525f805160206133a083398151915260245260445ffd5b335f9081525f80516020613340833981519152602052604090205460ff16156126d457565b63e2517d3f60e01b5f52336004525f8051602061330083398151915260245260445ffd5b5f8181525f805160206133608339815191526020908152604080832033845290915290205460ff16156127285750565b63e2517d3f60e01b5f523360045260245260445ffd5b6127488282612ee0565b918261275357505090565b5f9182525f805160206132c08339815191526020526040909120612780916001600160a01b031690613191565b5090565b92915f926127ac835f52603860205260405f20545f526037602052600360405f200154151590565b15612b9d57825f52603860205260405f20545f52603760205260405f206040516127d5816118ff565b60ff825416151581526001820154602082015260a061281260056002850154946040850195865260038101546060860152610673600482016119f6565b91015285815114612b93576001600160a01b0361282d6125de565b1690604051633b79ed1960e11b8152876004820152606081602481865afa8015610a07575f80925f92612b6f575b5015918215612b67575b508115612b5f575b50612b4c576040516312e8584f60e11b815233600482015260248101889052602081604481865afa908115610a07575f91612b12575b5015612afb5751805f52603960205260405f208054916128c38782611b2e565b92815f52603a60205260405f20905f1981019081116122ec5761293694612905926128ee8387611b19565b90549060031b1c5f5260205260405f205583611b19565b90549060031b1c905f52603a60205260405f20875f5260205261292f611c9a60405f205484611b19565b9055612f82565b835f52603860205260405f20545f52603760205285600260405f200155855f5260396020526129688460405f20611c73565b855f52603960205260405f20545f1981019081116122ec57865f52603a60205260405f20855f5260205260405f2055835f52603860205260405f20545f52603760205260ff60405f205416612ad6575b803b15610230575f8091604460405180948193633e53213360e11b83528960048401528b60248401525af18015610a0757612a94575b5091612a8c612a7e927f6e4fa8ef0805b1c89a3b4d2b316590390b768832487015780d5acf23025e453c948387526038602052604087205487526037602052612105600460406001818b2001549987815260386020528181205481526037602052600582822001978152603860205281812054815260376020522001604051968796606088526060880190611b9b565b908682036020880152611b9b565b0390a3600190565b7f6e4fa8ef0805b1c89a3b4d2b316590390b768832487015780d5acf23025e453c93919450612a7e92612aca5f612a8c9361192e565b5f9592945092506129ee565b835f52603860205260405f20545f52603760205260405f2060ff1981541690556129b8565b8663c1b3b1dd60e01b5f523360045260245260445ffd5b90506020813d602011612b44575b81612b2d6020938361192e565b8101031261023057612b3e90611b6d565b5f6128a3565b3d9150612b20565b86635595b91560e11b5f5260045260245ffd5b90505f61286d565b91505f612865565b915050612b8b915060603d606011610f9c57610f8b818361192e565b90915f61285b565b5050505050505f90565b50505050505f90565b805f52603860205260405f20545f52603760205260ff60405f2054165f14612d4c57612bd06125b7565b805f52603860205260405f20545f526037602052600260405f2001549060018060a01b03612bfc6125de565b16604051630d3289cb60e21b8152836004820152604081602481855afa908115610a07575f91612d2b575b506117d1576040516312e8584f60e11b81523360048201526024810184905290602090829060449082905afa908115610a07575f91612cf1575b501561178057805f52603860205260405f20545f52603760205260ff60405f2054161561176e575f908152603860209081526040808320805484526037909252808320805460ff191690559054825290819020600181015491517ffd3c34f2d4fa14871365288f3e4d4aaf9696bef4ae9c3e77452f27025aeea673918190612a8c90600481019060050183611c1c565b90506020813d602011612d23575b81612d0c6020938361192e565b8101031261023057612d1d90611b6d565b5f612c61565b3d9150612cff565b612d44915060403d60401161180e576117fe818361192e565b90505f612c27565b505f90565b612d5b82826130f3565b9182612d6657505090565b5f9182525f805160206132c08339815191526020526040909120612780916001600160a01b031690613227565b60ff5f805160206133e08339815191525460401c1615612daf57565b631afcd79f60e31b5f5260045ffd5b6001600160a01b0381165f9081525f805160206132e0833981519152602052604090205460ff1615612d4c576001600160a01b03165f8181525f805160206132e083398151915260205260408120805460ff191690553391905f805160206133a0833981519152907ff6391f5c32d9c69d2a47ea670b442974b53935d1edc7fd64eb21e047a839171b9080a4600190565b6001600160a01b0381165f9081525f80516020613340833981519152602052604090205460ff1615612d4c576001600160a01b03165f8181525f8051602061334083398151915260205260408120805460ff191690553391905f80516020613300833981519152907ff6391f5c32d9c69d2a47ea670b442974b53935d1edc7fd64eb21e047a839171b9080a4600190565b5f8181525f80516020613360833981519152602090815260408083206001600160a01b038616845290915290205460ff1615612f7c575f8181525f80516020613360833981519152602090815260408083206001600160a01b0395909516808452949091528120805460ff19169055339291907ff6391f5c32d9c69d2a47ea670b442974b53935d1edc7fd64eb21e047a839171b9080a4600190565b50505f90565b80548015612fa9575f190190612f988282611b19565b8154905f199060031b1b1916905555565b634e487b7160e01b5f52603160045260245ffd5b6001600160a01b03161561157057565b6001600160a01b0381165f9081525f80516020613340833981519152602052604090205460ff16612d4c576001600160a01b03165f8181525f8051602061334083398151915260205260408120805460ff191660011790553391905f80516020613300833981519152907f2f8788117e7eff1d82e926ec794901d17c78024a50270940304540a733656f0d9080a4600190565b6001600160a01b0381165f9081525f805160206132e0833981519152602052604090205460ff16612d4c576001600160a01b03165f8181525f805160206132e083398151915260205260408120805460ff191660011790553391905f805160206133a0833981519152907f2f8788117e7eff1d82e926ec794901d17c78024a50270940304540a733656f0d9080a4600190565b5f8181525f80516020613360833981519152602090815260408083206001600160a01b038616845290915290205460ff16612f7c575f8181525f80516020613360833981519152602090815260408083206001600160a01b0395909516808452949091528120805460ff19166001179055339291907f2f8788117e7eff1d82e926ec794901d17c78024a50270940304540a733656f0d9080a4600190565b906001820191815f528260205260405f2054908115155f1461321f575f198201918083116122ec5781545f1981019081116122ec5783816131da95036131ea575b505050612f82565b5f526020525f6040812055600190565b61320a6131fa611c9a9386611b19565b90549060031b1c92839286611b19565b90555f528460205260405f20555f80806131d2565b505050505f90565b6001810190825f528160205260405f2054155f1461325a576132498382611c73565b54915f5260205260405f2055600190565b5050505f90565b90613285575080511561327657805190602001fd5b63d6bda27560e01b5f5260045ffd5b815115806132b6575b613296575090565b639996b31560e01b5f9081526001600160a01b0391909116600452602490fd5b50803b1561328e56fec1f6fe24621ce81ec5827caf0253cadb74709b061630e6b55e82371705932000b16e88c42fd4e48df2dd6a2eabd6bc9aec654ec170056b470819f8892cc6431cb19546dff01e856fb3f010c267a7b1c60363cf8a4664e21cc89c26224620214e360894a13ba1a3210667c828492db98dca3e2076cc3735a920a3ca505d382bbcc32d4dc01d07c436ad8a6f9a20eadd61263c71fe16f6b5956005ba3b341f51dd02dd7bc7dec4dceedda775e58dd541e08a116c6c53815c0bd028192f7b626800cd5ed15c6e187e77e9aee88184c21f4f2182ab5827cb3b7e07fbedcd63f03300a49807205ce4d355092ef5a8a18f56e8913cf4a201fbe287825b095693c21775008963063c520970ed64c693e920074e4588acd3631097247bb3559890ad6a67f0c57e16840df040f15088dc2f81fe391c3923bec73e23a9662efc9c229c6a00a2646970667358221220d4378ed3755f80eef2c92555d578e78a2b52f1523aaef147561416f978b9252764736f6c634300081a0033","linkReferences":{}},"methodIdentifiers":{"ADMIN_ROLE()":"75b238fc","DEFAULT_ADMIN_ROLE()":"a217fddf","OWNER_ROLE()":"e58378bb","UPGRADE_INTERFACE_VERSION()":"ad3cb1cc","addAdmin(address)":"70480275","archiveAttestation(bytes32)":"41345d96","attestationByHash(bytes32)":"a55d54e0","attestationById(uint256)":"71938947","attestationCount()":"a15b9321","attestationExistsForHash(bytes32)":"efb32994","attestationHashesByProfileId(uint256,uint256)":"c3c49201","attestationIdByHash(bytes32)":"ed6a24e1","contractAddressManager()":"ade9ae97","createAttestation(uint256,uint256,(string,string),string,bytes)":"20eb5997","expectedSigner()":"2cb3e494","getAttestationByHash(bytes32)":"9d29a503","getAttestationHashesByProfileId(uint256)":"bd27df10","getAttestationIndexByProfileIdAndHash(uint256,bytes32)":"018a198c","getRoleAdmin(bytes32)":"248a9ca3","getRoleMember(bytes32,uint256)":"9010d07c","getRoleMemberCount(bytes32)":"ca15c873","getRoleMembers(bytes32)":"a3246ad3","getServiceAndAccountHash(string,string)":"8db70da4","grantRole(bytes32,address)":"2f2ff15d","hasRole(bytes32,address)":"91d14854","initialize(address,address,address,address,address)":"1459457a","pause()":"8456cb59","paused()":"5c975abb","proxiableUUID()":"52d1902d","removeAdmin(address)":"1785f53c","renounceRole(bytes32,address)":"36568abe","restoreAttestation(bytes32)":"051d0702","revokeRole(bytes32,address)":"d547741f","setTestValue(uint256)":"35960105","signatureUsed(bytes)":"bb10c829","signatureVerifier()":"fde919f6","supportsInterface(bytes4)":"01ffc9a7","targetExistsAndAllowedForId(uint256)":"a12c64b5","testValue()":"8af5de72","unpause()":"3f4ba83a","updateContractAddressManager(address)":"08473f64","updateExpectedSigner(address)":"2bdd87ff","updateOwner(address)":"880cdc31","updateSignatureVerifier(address)":"5667981b","upgradeToAndCall(address,bytes)":"4f1ef286"},"id":136}